{
	"18-revert.sol": {
		"RevertStatement": {
			"abi": [
				{
					"inputs": [
						{
							"internalType": "uint256",
							"name": "_num1",
							"type": "uint256"
						},
						{
							"internalType": "uint256",
							"name": "_num2",
							"type": "uint256"
						}
					],
					"name": "checkOverFlow",
					"outputs": [
						{
							"internalType": "string",
							"name": "",
							"type": "string"
						},
						{
							"internalType": "uint256",
							"name": "",
							"type": "uint256"
						}
					],
					"stateMutability": "pure",
					"type": "function"
				}
			],
			"devdoc": {
				"kind": "dev",
				"methods": {},
				"version": 1
			},
			"evm": {
				"assembly": "    /* \"18-revert.sol\":352:672  contract RevertStatement {... */\n  mstore(0x40, 0x80)\n  callvalue\n  dup1\n  iszero\n  tag_1\n  jumpi\n  0x00\n  dup1\n  revert\ntag_1:\n  pop\n  dataSize(sub_0)\n  dup1\n  dataOffset(sub_0)\n  0x00\n  codecopy\n  0x00\n  return\nstop\n\nsub_0: assembly {\n        /* \"18-revert.sol\":352:672  contract RevertStatement {... */\n      mstore(0x40, 0x80)\n      callvalue\n      dup1\n      iszero\n      tag_1\n      jumpi\n      0x00\n      dup1\n      revert\n    tag_1:\n      pop\n      jumpi(tag_2, lt(calldatasize, 0x04))\n      shr(0xe0, calldataload(0x00))\n      dup1\n      0x0bfb0686\n      eq\n      tag_3\n      jumpi\n    tag_2:\n      0x00\n      dup1\n      revert\n        /* \"18-revert.sol\":383:669  function checkOverFlow (uint256 _num1, uint256 _num2) public pure returns (string memory, uint256) {... */\n    tag_3:\n      tag_4\n      0x04\n      dup1\n      calldatasize\n      sub\n      dup2\n      add\n      swap1\n      tag_5\n      swap2\n      swap1\n      tag_6\n      jump\t// in\n    tag_5:\n      tag_7\n      jump\t// in\n    tag_4:\n      mload(0x40)\n      tag_8\n      swap3\n      swap2\n      swap1\n      tag_9\n      jump\t// in\n    tag_8:\n      mload(0x40)\n      dup1\n      swap2\n      sub\n      swap1\n      return\n    tag_7:\n        /* \"18-revert.sol\":458:471  string memory */\n      0x60\n        /* \"18-revert.sol\":473:480  uint256 */\n      0x00\n        /* \"18-revert.sol\":492:503  uint256 sum */\n      dup1\n        /* \"18-revert.sol\":514:519  _num2 */\n      dup4\n        /* \"18-revert.sol\":506:511  _num1 */\n      dup6\n        /* \"18-revert.sol\":506:519  _num1 + _num2 */\n      tag_11\n      swap2\n      swap1\n      tag_12\n      jump\t// in\n    tag_11:\n        /* \"18-revert.sol\":492:519  uint256 sum = _num1 + _num2 */\n      swap1\n      pop\n        /* \"18-revert.sol\":539:540  0 */\n      0x00\n        /* \"18-revert.sol\":533:536  sum */\n      dup2\n        /* \"18-revert.sol\":533:540  sum < 0 */\n      lt\n        /* \"18-revert.sol\":533:553  sum < 0 || sum > 255 */\n      dup1\n      tag_13\n      jumpi\n      pop\n        /* \"18-revert.sol\":550:553  255 */\n      0xff\n        /* \"18-revert.sol\":544:547  sum */\n      dup2\n        /* \"18-revert.sol\":544:553  sum > 255 */\n      gt\n        /* \"18-revert.sol\":533:553  sum < 0 || sum > 255 */\n    tag_13:\n        /* \"18-revert.sol\":530:663  if(sum < 0 || sum > 255) {... */\n      iszero\n      tag_14\n      jumpi\n        /* \"18-revert.sol\":569:594  revert(\"OverFlow exists\") */\n      mload(0x40)\n      0x08c379a000000000000000000000000000000000000000000000000000000000\n      dup2\n      mstore\n      0x04\n      add\n      tag_15\n      swap1\n      tag_16\n      jump\t// in\n    tag_15:\n      mload(0x40)\n      dup1\n      swap2\n      sub\n      swap1\n      revert\n        /* \"18-revert.sol\":530:663  if(sum < 0 || sum > 255) {... */\n    tag_14:\n        /* \"18-revert.sol\":648:651  sum */\n      dup1\n        /* \"18-revert.sol\":625:652  return (\"No Overflow\" ,sum) */\n      mload(0x40)\n      dup1\n      0x40\n      add\n      0x40\n      mstore\n      dup1\n      0x0b\n      dup2\n      mstore\n      0x20\n      add\n      0x4e6f204f766572666c6f77000000000000000000000000000000000000000000\n      dup2\n      mstore\n      pop\n      swap1\n      swap3\n      pop\n      swap3\n      pop\n      pop\n        /* \"18-revert.sol\":383:669  function checkOverFlow (uint256 _num1, uint256 _num2) public pure returns (string memory, uint256) {... */\n      swap3\n      pop\n      swap3\n      swap1\n      pop\n      jump\t// out\n        /* \"#utility.yul\":88:205   */\n    tag_19:\n        /* \"#utility.yul\":197:198   */\n      0x00\n        /* \"#utility.yul\":194:195   */\n      dup1\n        /* \"#utility.yul\":187:199   */\n      revert\n        /* \"#utility.yul\":334:411   */\n    tag_21:\n        /* \"#utility.yul\":371:378   */\n      0x00\n        /* \"#utility.yul\":400:405   */\n      dup2\n        /* \"#utility.yul\":389:405   */\n      swap1\n      pop\n        /* \"#utility.yul\":334:411   */\n      swap2\n      swap1\n      pop\n      jump\t// out\n        /* \"#utility.yul\":417:539   */\n    tag_22:\n        /* \"#utility.yul\":490:514   */\n      tag_39\n        /* \"#utility.yul\":508:513   */\n      dup2\n        /* \"#utility.yul\":490:514   */\n      tag_21\n      jump\t// in\n    tag_39:\n        /* \"#utility.yul\":483:488   */\n      dup2\n        /* \"#utility.yul\":480:515   */\n      eq\n        /* \"#utility.yul\":470:533   */\n      tag_40\n      jumpi\n        /* \"#utility.yul\":529:530   */\n      0x00\n        /* \"#utility.yul\":526:527   */\n      dup1\n        /* \"#utility.yul\":519:531   */\n      revert\n        /* \"#utility.yul\":470:533   */\n    tag_40:\n        /* \"#utility.yul\":417:539   */\n      pop\n      jump\t// out\n        /* \"#utility.yul\":545:684   */\n    tag_23:\n        /* \"#utility.yul\":591:596   */\n      0x00\n        /* \"#utility.yul\":629:635   */\n      dup2\n        /* \"#utility.yul\":616:636   */\n      calldataload\n        /* \"#utility.yul\":607:636   */\n      swap1\n      pop\n        /* \"#utility.yul\":645:678   */\n      tag_42\n        /* \"#utility.yul\":672:677   */\n      dup2\n        /* \"#utility.yul\":645:678   */\n      tag_22\n      jump\t// in\n    tag_42:\n        /* \"#utility.yul\":545:684   */\n      swap3\n      swap2\n      pop\n      pop\n      jump\t// out\n        /* \"#utility.yul\":690:1164   */\n    tag_6:\n        /* \"#utility.yul\":758:764   */\n      0x00\n        /* \"#utility.yul\":766:772   */\n      dup1\n        /* \"#utility.yul\":815:817   */\n      0x40\n        /* \"#utility.yul\":803:812   */\n      dup4\n        /* \"#utility.yul\":794:801   */\n      dup6\n        /* \"#utility.yul\":790:813   */\n      sub\n        /* \"#utility.yul\":786:818   */\n      slt\n        /* \"#utility.yul\":783:902   */\n      iszero\n      tag_44\n      jumpi\n        /* \"#utility.yul\":821:900   */\n      tag_45\n      tag_19\n      jump\t// in\n    tag_45:\n        /* \"#utility.yul\":783:902   */\n    tag_44:\n        /* \"#utility.yul\":941:942   */\n      0x00\n        /* \"#utility.yul\":966:1019   */\n      tag_46\n        /* \"#utility.yul\":1011:1018   */\n      dup6\n        /* \"#utility.yul\":1002:1008   */\n      dup3\n        /* \"#utility.yul\":991:1000   */\n      dup7\n        /* \"#utility.yul\":987:1009   */\n      add\n        /* \"#utility.yul\":966:1019   */\n      tag_23\n      jump\t// in\n    tag_46:\n        /* \"#utility.yul\":956:1019   */\n      swap3\n      pop\n        /* \"#utility.yul\":912:1029   */\n      pop\n        /* \"#utility.yul\":1068:1070   */\n      0x20\n        /* \"#utility.yul\":1094:1147   */\n      tag_47\n        /* \"#utility.yul\":1139:1146   */\n      dup6\n        /* \"#utility.yul\":1130:1136   */\n      dup3\n        /* \"#utility.yul\":1119:1128   */\n      dup7\n        /* \"#utility.yul\":1115:1137   */\n      add\n        /* \"#utility.yul\":1094:1147   */\n      tag_23\n      jump\t// in\n    tag_47:\n        /* \"#utility.yul\":1084:1147   */\n      swap2\n      pop\n        /* \"#utility.yul\":1039:1157   */\n      pop\n        /* \"#utility.yul\":690:1164   */\n      swap3\n      pop\n      swap3\n      swap1\n      pop\n      jump\t// out\n        /* \"#utility.yul\":1170:1269   */\n    tag_24:\n        /* \"#utility.yul\":1222:1228   */\n      0x00\n        /* \"#utility.yul\":1256:1261   */\n      dup2\n        /* \"#utility.yul\":1250:1262   */\n      mload\n        /* \"#utility.yul\":1240:1262   */\n      swap1\n      pop\n        /* \"#utility.yul\":1170:1269   */\n      swap2\n      swap1\n      pop\n      jump\t// out\n        /* \"#utility.yul\":1275:1444   */\n    tag_25:\n        /* \"#utility.yul\":1359:1370   */\n      0x00\n        /* \"#utility.yul\":1393:1399   */\n      dup3\n        /* \"#utility.yul\":1388:1391   */\n      dup3\n        /* \"#utility.yul\":1381:1400   */\n      mstore\n        /* \"#utility.yul\":1433:1437   */\n      0x20\n        /* \"#utility.yul\":1428:1431   */\n      dup3\n        /* \"#utility.yul\":1424:1438   */\n      add\n        /* \"#utility.yul\":1409:1438   */\n      swap1\n      pop\n        /* \"#utility.yul\":1275:1444   */\n      swap3\n      swap2\n      pop\n      pop\n      jump\t// out\n        /* \"#utility.yul\":1450:1696   */\n    tag_26:\n        /* \"#utility.yul\":1531:1532   */\n      0x00\n        /* \"#utility.yul\":1541:1654   */\n    tag_51:\n        /* \"#utility.yul\":1555:1561   */\n      dup4\n        /* \"#utility.yul\":1552:1553   */\n      dup2\n        /* \"#utility.yul\":1549:1562   */\n      lt\n        /* \"#utility.yul\":1541:1654   */\n      iszero\n      tag_53\n      jumpi\n        /* \"#utility.yul\":1640:1641   */\n      dup1\n        /* \"#utility.yul\":1635:1638   */\n      dup3\n        /* \"#utility.yul\":1631:1642   */\n      add\n        /* \"#utility.yul\":1625:1643   */\n      mload\n        /* \"#utility.yul\":1621:1622   */\n      dup2\n        /* \"#utility.yul\":1616:1619   */\n      dup5\n        /* \"#utility.yul\":1612:1623   */\n      add\n        /* \"#utility.yul\":1605:1644   */\n      mstore\n        /* \"#utility.yul\":1577:1579   */\n      0x20\n        /* \"#utility.yul\":1574:1575   */\n      dup2\n        /* \"#utility.yul\":1570:1580   */\n      add\n        /* \"#utility.yul\":1565:1580   */\n      swap1\n      pop\n        /* \"#utility.yul\":1541:1654   */\n      jump(tag_51)\n    tag_53:\n        /* \"#utility.yul\":1688:1689   */\n      0x00\n        /* \"#utility.yul\":1679:1685   */\n      dup5\n        /* \"#utility.yul\":1674:1677   */\n      dup5\n        /* \"#utility.yul\":1670:1686   */\n      add\n        /* \"#utility.yul\":1663:1690   */\n      mstore\n        /* \"#utility.yul\":1512:1696   */\n      pop\n        /* \"#utility.yul\":1450:1696   */\n      pop\n      pop\n      pop\n      jump\t// out\n        /* \"#utility.yul\":1702:1804   */\n    tag_27:\n        /* \"#utility.yul\":1743:1749   */\n      0x00\n        /* \"#utility.yul\":1794:1796   */\n      0x1f\n        /* \"#utility.yul\":1790:1797   */\n      not\n        /* \"#utility.yul\":1785:1787   */\n      0x1f\n        /* \"#utility.yul\":1778:1783   */\n      dup4\n        /* \"#utility.yul\":1774:1788   */\n      add\n        /* \"#utility.yul\":1770:1798   */\n      and\n        /* \"#utility.yul\":1760:1798   */\n      swap1\n      pop\n        /* \"#utility.yul\":1702:1804   */\n      swap2\n      swap1\n      pop\n      jump\t// out\n        /* \"#utility.yul\":1810:2187   */\n    tag_28:\n        /* \"#utility.yul\":1898:1901   */\n      0x00\n        /* \"#utility.yul\":1926:1965   */\n      tag_56\n        /* \"#utility.yul\":1959:1964   */\n      dup3\n        /* \"#utility.yul\":1926:1965   */\n      tag_24\n      jump\t// in\n    tag_56:\n        /* \"#utility.yul\":1981:2052   */\n      tag_57\n        /* \"#utility.yul\":2045:2051   */\n      dup2\n        /* \"#utility.yul\":2040:2043   */\n      dup6\n        /* \"#utility.yul\":1981:2052   */\n      tag_25\n      jump\t// in\n    tag_57:\n        /* \"#utility.yul\":1974:2052   */\n      swap4\n      pop\n        /* \"#utility.yul\":2061:2126   */\n      tag_58\n        /* \"#utility.yul\":2119:2125   */\n      dup2\n        /* \"#utility.yul\":2114:2117   */\n      dup6\n        /* \"#utility.yul\":2107:2111   */\n      0x20\n        /* \"#utility.yul\":2100:2105   */\n      dup7\n        /* \"#utility.yul\":2096:2112   */\n      add\n        /* \"#utility.yul\":2061:2126   */\n      tag_26\n      jump\t// in\n    tag_58:\n        /* \"#utility.yul\":2151:2180   */\n      tag_59\n        /* \"#utility.yul\":2173:2179   */\n      dup2\n        /* \"#utility.yul\":2151:2180   */\n      tag_27\n      jump\t// in\n    tag_59:\n        /* \"#utility.yul\":2146:2149   */\n      dup5\n        /* \"#utility.yul\":2142:2181   */\n      add\n        /* \"#utility.yul\":2135:2181   */\n      swap2\n      pop\n        /* \"#utility.yul\":1902:2187   */\n      pop\n        /* \"#utility.yul\":1810:2187   */\n      swap3\n      swap2\n      pop\n      pop\n      jump\t// out\n        /* \"#utility.yul\":2193:2311   */\n    tag_29:\n        /* \"#utility.yul\":2280:2304   */\n      tag_61\n        /* \"#utility.yul\":2298:2303   */\n      dup2\n        /* \"#utility.yul\":2280:2304   */\n      tag_21\n      jump\t// in\n    tag_61:\n        /* \"#utility.yul\":2275:2278   */\n      dup3\n        /* \"#utility.yul\":2268:2305   */\n      mstore\n        /* \"#utility.yul\":2193:2311   */\n      pop\n      pop\n      jump\t// out\n        /* \"#utility.yul\":2317:2740   */\n    tag_9:\n        /* \"#utility.yul\":2458:2462   */\n      0x00\n        /* \"#utility.yul\":2496:2498   */\n      0x40\n        /* \"#utility.yul\":2485:2494   */\n      dup3\n        /* \"#utility.yul\":2481:2499   */\n      add\n        /* \"#utility.yul\":2473:2499   */\n      swap1\n      pop\n        /* \"#utility.yul\":2545:2554   */\n      dup2\n        /* \"#utility.yul\":2539:2543   */\n      dup2\n        /* \"#utility.yul\":2535:2555   */\n      sub\n        /* \"#utility.yul\":2531:2532   */\n      0x00\n        /* \"#utility.yul\":2520:2529   */\n      dup4\n        /* \"#utility.yul\":2516:2533   */\n      add\n        /* \"#utility.yul\":2509:2556   */\n      mstore\n        /* \"#utility.yul\":2573:2651   */\n      tag_63\n        /* \"#utility.yul\":2646:2650   */\n      dup2\n        /* \"#utility.yul\":2637:2643   */\n      dup6\n        /* \"#utility.yul\":2573:2651   */\n      tag_28\n      jump\t// in\n    tag_63:\n        /* \"#utility.yul\":2565:2651   */\n      swap1\n      pop\n        /* \"#utility.yul\":2661:2733   */\n      tag_64\n        /* \"#utility.yul\":2729:2731   */\n      0x20\n        /* \"#utility.yul\":2718:2727   */\n      dup4\n        /* \"#utility.yul\":2714:2732   */\n      add\n        /* \"#utility.yul\":2705:2711   */\n      dup5\n        /* \"#utility.yul\":2661:2733   */\n      tag_29\n      jump\t// in\n    tag_64:\n        /* \"#utility.yul\":2317:2740   */\n      swap4\n      swap3\n      pop\n      pop\n      pop\n      jump\t// out\n        /* \"#utility.yul\":2746:2926   */\n    tag_30:\n        /* \"#utility.yul\":2794:2871   */\n      0x4e487b7100000000000000000000000000000000000000000000000000000000\n        /* \"#utility.yul\":2791:2792   */\n      0x00\n        /* \"#utility.yul\":2784:2872   */\n      mstore\n        /* \"#utility.yul\":2891:2895   */\n      0x11\n        /* \"#utility.yul\":2888:2889   */\n      0x04\n        /* \"#utility.yul\":2881:2896   */\n      mstore\n        /* \"#utility.yul\":2915:2919   */\n      0x24\n        /* \"#utility.yul\":2912:2913   */\n      0x00\n        /* \"#utility.yul\":2905:2920   */\n      revert\n        /* \"#utility.yul\":2932:3123   */\n    tag_12:\n        /* \"#utility.yul\":2972:2975   */\n      0x00\n        /* \"#utility.yul\":2991:3011   */\n      tag_67\n        /* \"#utility.yul\":3009:3010   */\n      dup3\n        /* \"#utility.yul\":2991:3011   */\n      tag_21\n      jump\t// in\n    tag_67:\n        /* \"#utility.yul\":2986:3011   */\n      swap2\n      pop\n        /* \"#utility.yul\":3025:3045   */\n      tag_68\n        /* \"#utility.yul\":3043:3044   */\n      dup4\n        /* \"#utility.yul\":3025:3045   */\n      tag_21\n      jump\t// in\n    tag_68:\n        /* \"#utility.yul\":3020:3045   */\n      swap3\n      pop\n        /* \"#utility.yul\":3068:3069   */\n      dup3\n        /* \"#utility.yul\":3065:3066   */\n      dup3\n        /* \"#utility.yul\":3061:3070   */\n      add\n        /* \"#utility.yul\":3054:3070   */\n      swap1\n      pop\n        /* \"#utility.yul\":3089:3092   */\n      dup1\n        /* \"#utility.yul\":3086:3087   */\n      dup3\n        /* \"#utility.yul\":3083:3093   */\n      gt\n        /* \"#utility.yul\":3080:3116   */\n      iszero\n      tag_69\n      jumpi\n        /* \"#utility.yul\":3096:3114   */\n      tag_70\n      tag_30\n      jump\t// in\n    tag_70:\n        /* \"#utility.yul\":3080:3116   */\n    tag_69:\n        /* \"#utility.yul\":2932:3123   */\n      swap3\n      swap2\n      pop\n      pop\n      jump\t// out\n        /* \"#utility.yul\":3129:3294   */\n    tag_31:\n        /* \"#utility.yul\":3269:3286   */\n      0x4f766572466c6f77206578697374730000000000000000000000000000000000\n        /* \"#utility.yul\":3265:3266   */\n      0x00\n        /* \"#utility.yul\":3257:3263   */\n      dup3\n        /* \"#utility.yul\":3253:3267   */\n      add\n        /* \"#utility.yul\":3246:3287   */\n      mstore\n        /* \"#utility.yul\":3129:3294   */\n      pop\n      jump\t// out\n        /* \"#utility.yul\":3300:3666   */\n    tag_32:\n        /* \"#utility.yul\":3442:3445   */\n      0x00\n        /* \"#utility.yul\":3463:3530   */\n      tag_73\n        /* \"#utility.yul\":3527:3529   */\n      0x0f\n        /* \"#utility.yul\":3522:3525   */\n      dup4\n        /* \"#utility.yul\":3463:3530   */\n      tag_25\n      jump\t// in\n    tag_73:\n        /* \"#utility.yul\":3456:3530   */\n      swap2\n      pop\n        /* \"#utility.yul\":3539:3632   */\n      tag_74\n        /* \"#utility.yul\":3628:3631   */\n      dup3\n        /* \"#utility.yul\":3539:3632   */\n      tag_31\n      jump\t// in\n    tag_74:\n        /* \"#utility.yul\":3657:3659   */\n      0x20\n        /* \"#utility.yul\":3652:3655   */\n      dup3\n        /* \"#utility.yul\":3648:3660   */\n      add\n        /* \"#utility.yul\":3641:3660   */\n      swap1\n      pop\n        /* \"#utility.yul\":3300:3666   */\n      swap2\n      swap1\n      pop\n      jump\t// out\n        /* \"#utility.yul\":3672:4091   */\n    tag_16:\n        /* \"#utility.yul\":3838:3842   */\n      0x00\n        /* \"#utility.yul\":3876:3878   */\n      0x20\n        /* \"#utility.yul\":3865:3874   */\n      dup3\n        /* \"#utility.yul\":3861:3879   */\n      add\n        /* \"#utility.yul\":3853:3879   */\n      swap1\n      pop\n        /* \"#utility.yul\":3925:3934   */\n      dup2\n        /* \"#utility.yul\":3919:3923   */\n      dup2\n        /* \"#utility.yul\":3915:3935   */\n      sub\n        /* \"#utility.yul\":3911:3912   */\n      0x00\n        /* \"#utility.yul\":3900:3909   */\n      dup4\n        /* \"#utility.yul\":3896:3913   */\n      add\n        /* \"#utility.yul\":3889:3936   */\n      mstore\n        /* \"#utility.yul\":3953:4084   */\n      tag_76\n        /* \"#utility.yul\":4079:4083   */\n      dup2\n        /* \"#utility.yul\":3953:4084   */\n      tag_32\n      jump\t// in\n    tag_76:\n        /* \"#utility.yul\":3945:4084   */\n      swap1\n      pop\n        /* \"#utility.yul\":3672:4091   */\n      swap2\n      swap1\n      pop\n      jump\t// out\n\n    auxdata: 0xa26469706673582212206fdadc8f4c900e4c24d37f9530b92f8448cb24babc637a2782ba4150424c43f664736f6c63430008160033\n}\n",
				"bytecode": {
					"linkReferences": {},
					"object": "608060405234801561000f575f80fd5b5061033c8061001d5f395ff3fe608060405234801561000f575f80fd5b5060043610610029575f3560e01c80630bfb06861461002d575b5f80fd5b61004760048036038101906100429190610139565b61005e565b604051610055929190610210565b60405180910390f35b60605f80838561006e919061026b565b90505f81108061007e575060ff81115b156100be576040517f08c379a00000000000000000000000000000000000000000000000000000000081526004016100b5906102e8565b60405180910390fd5b806040518060400160405280600b81526020017f4e6f204f766572666c6f770000000000000000000000000000000000000000008152509092509250509250929050565b5f80fd5b5f819050919050565b61011881610106565b8114610122575f80fd5b50565b5f813590506101338161010f565b92915050565b5f806040838503121561014f5761014e610102565b5b5f61015c85828601610125565b925050602061016d85828601610125565b9150509250929050565b5f81519050919050565b5f82825260208201905092915050565b5f5b838110156101ae578082015181840152602081019050610193565b5f8484015250505050565b5f601f19601f8301169050919050565b5f6101d382610177565b6101dd8185610181565b93506101ed818560208601610191565b6101f6816101b9565b840191505092915050565b61020a81610106565b82525050565b5f6040820190508181035f83015261022881856101c9565b90506102376020830184610201565b9392505050565b7f4e487b71000000000000000000000000000000000000000000000000000000005f52601160045260245ffd5b5f61027582610106565b915061028083610106565b92508282019050808211156102985761029761023e565b5b92915050565b7f4f766572466c6f772065786973747300000000000000000000000000000000005f82015250565b5f6102d2600f83610181565b91506102dd8261029e565b602082019050919050565b5f6020820190508181035f8301526102ff816102c6565b905091905056fea26469706673582212206fdadc8f4c900e4c24d37f9530b92f8448cb24babc637a2782ba4150424c43f664736f6c63430008160033",
					"opcodes": "PUSH1 0x80 PUSH1 0x40 MSTORE CALLVALUE DUP1 ISZERO PUSH2 0xF JUMPI PUSH0 DUP1 REVERT JUMPDEST POP PUSH2 0x33C DUP1 PUSH2 0x1D PUSH0 CODECOPY PUSH0 RETURN INVALID PUSH1 0x80 PUSH1 0x40 MSTORE CALLVALUE DUP1 ISZERO PUSH2 0xF JUMPI PUSH0 DUP1 REVERT JUMPDEST POP PUSH1 0x4 CALLDATASIZE LT PUSH2 0x29 JUMPI PUSH0 CALLDATALOAD PUSH1 0xE0 SHR DUP1 PUSH4 0xBFB0686 EQ PUSH2 0x2D JUMPI JUMPDEST PUSH0 DUP1 REVERT JUMPDEST PUSH2 0x47 PUSH1 0x4 DUP1 CALLDATASIZE SUB DUP2 ADD SWAP1 PUSH2 0x42 SWAP2 SWAP1 PUSH2 0x139 JUMP JUMPDEST PUSH2 0x5E JUMP JUMPDEST PUSH1 0x40 MLOAD PUSH2 0x55 SWAP3 SWAP2 SWAP1 PUSH2 0x210 JUMP JUMPDEST PUSH1 0x40 MLOAD DUP1 SWAP2 SUB SWAP1 RETURN JUMPDEST PUSH1 0x60 PUSH0 DUP1 DUP4 DUP6 PUSH2 0x6E SWAP2 SWAP1 PUSH2 0x26B JUMP JUMPDEST SWAP1 POP PUSH0 DUP2 LT DUP1 PUSH2 0x7E JUMPI POP PUSH1 0xFF DUP2 GT JUMPDEST ISZERO PUSH2 0xBE JUMPI PUSH1 0x40 MLOAD PUSH32 0x8C379A000000000000000000000000000000000000000000000000000000000 DUP2 MSTORE PUSH1 0x4 ADD PUSH2 0xB5 SWAP1 PUSH2 0x2E8 JUMP JUMPDEST PUSH1 0x40 MLOAD DUP1 SWAP2 SUB SWAP1 REVERT JUMPDEST DUP1 PUSH1 0x40 MLOAD DUP1 PUSH1 0x40 ADD PUSH1 0x40 MSTORE DUP1 PUSH1 0xB DUP2 MSTORE PUSH1 0x20 ADD PUSH32 0x4E6F204F766572666C6F77000000000000000000000000000000000000000000 DUP2 MSTORE POP SWAP1 SWAP3 POP SWAP3 POP POP SWAP3 POP SWAP3 SWAP1 POP JUMP JUMPDEST PUSH0 DUP1 REVERT JUMPDEST PUSH0 DUP2 SWAP1 POP SWAP2 SWAP1 POP JUMP JUMPDEST PUSH2 0x118 DUP2 PUSH2 0x106 JUMP JUMPDEST DUP2 EQ PUSH2 0x122 JUMPI PUSH0 DUP1 REVERT JUMPDEST POP JUMP JUMPDEST PUSH0 DUP2 CALLDATALOAD SWAP1 POP PUSH2 0x133 DUP2 PUSH2 0x10F JUMP JUMPDEST SWAP3 SWAP2 POP POP JUMP JUMPDEST PUSH0 DUP1 PUSH1 0x40 DUP4 DUP6 SUB SLT ISZERO PUSH2 0x14F JUMPI PUSH2 0x14E PUSH2 0x102 JUMP JUMPDEST JUMPDEST PUSH0 PUSH2 0x15C DUP6 DUP3 DUP7 ADD PUSH2 0x125 JUMP JUMPDEST SWAP3 POP POP PUSH1 0x20 PUSH2 0x16D DUP6 DUP3 DUP7 ADD PUSH2 0x125 JUMP JUMPDEST SWAP2 POP POP SWAP3 POP SWAP3 SWAP1 POP JUMP JUMPDEST PUSH0 DUP2 MLOAD SWAP1 POP SWAP2 SWAP1 POP JUMP JUMPDEST PUSH0 DUP3 DUP3 MSTORE PUSH1 0x20 DUP3 ADD SWAP1 POP SWAP3 SWAP2 POP POP JUMP JUMPDEST PUSH0 JUMPDEST DUP4 DUP2 LT ISZERO PUSH2 0x1AE JUMPI DUP1 DUP3 ADD MLOAD DUP2 DUP5 ADD MSTORE PUSH1 0x20 DUP2 ADD SWAP1 POP PUSH2 0x193 JUMP JUMPDEST PUSH0 DUP5 DUP5 ADD MSTORE POP POP POP POP JUMP JUMPDEST PUSH0 PUSH1 0x1F NOT PUSH1 0x1F DUP4 ADD AND SWAP1 POP SWAP2 SWAP1 POP JUMP JUMPDEST PUSH0 PUSH2 0x1D3 DUP3 PUSH2 0x177 JUMP JUMPDEST PUSH2 0x1DD DUP2 DUP6 PUSH2 0x181 JUMP JUMPDEST SWAP4 POP PUSH2 0x1ED DUP2 DUP6 PUSH1 0x20 DUP7 ADD PUSH2 0x191 JUMP JUMPDEST PUSH2 0x1F6 DUP2 PUSH2 0x1B9 JUMP JUMPDEST DUP5 ADD SWAP2 POP POP SWAP3 SWAP2 POP POP JUMP JUMPDEST PUSH2 0x20A DUP2 PUSH2 0x106 JUMP JUMPDEST DUP3 MSTORE POP POP JUMP JUMPDEST PUSH0 PUSH1 0x40 DUP3 ADD SWAP1 POP DUP2 DUP2 SUB PUSH0 DUP4 ADD MSTORE PUSH2 0x228 DUP2 DUP6 PUSH2 0x1C9 JUMP JUMPDEST SWAP1 POP PUSH2 0x237 PUSH1 0x20 DUP4 ADD DUP5 PUSH2 0x201 JUMP JUMPDEST SWAP4 SWAP3 POP POP POP JUMP JUMPDEST PUSH32 0x4E487B7100000000000000000000000000000000000000000000000000000000 PUSH0 MSTORE PUSH1 0x11 PUSH1 0x4 MSTORE PUSH1 0x24 PUSH0 REVERT JUMPDEST PUSH0 PUSH2 0x275 DUP3 PUSH2 0x106 JUMP JUMPDEST SWAP2 POP PUSH2 0x280 DUP4 PUSH2 0x106 JUMP JUMPDEST SWAP3 POP DUP3 DUP3 ADD SWAP1 POP DUP1 DUP3 GT ISZERO PUSH2 0x298 JUMPI PUSH2 0x297 PUSH2 0x23E JUMP JUMPDEST JUMPDEST SWAP3 SWAP2 POP POP JUMP JUMPDEST PUSH32 0x4F766572466C6F77206578697374730000000000000000000000000000000000 PUSH0 DUP3 ADD MSTORE POP JUMP JUMPDEST PUSH0 PUSH2 0x2D2 PUSH1 0xF DUP4 PUSH2 0x181 JUMP JUMPDEST SWAP2 POP PUSH2 0x2DD DUP3 PUSH2 0x29E JUMP JUMPDEST PUSH1 0x20 DUP3 ADD SWAP1 POP SWAP2 SWAP1 POP JUMP JUMPDEST PUSH0 PUSH1 0x20 DUP3 ADD SWAP1 POP DUP2 DUP2 SUB PUSH0 DUP4 ADD MSTORE PUSH2 0x2FF DUP2 PUSH2 0x2C6 JUMP JUMPDEST SWAP1 POP SWAP2 SWAP1 POP JUMP INVALID LOG2 PUSH5 0x6970667358 0x22 SLT KECCAK256 PUSH16 0xDADC8F4C900E4C24D37F9530B92F8448 0xCB 0x24 0xBA 0xBC PUSH4 0x7A2782BA COINBASE POP TIMESTAMP 0x4C NUMBER 0xF6 PUSH5 0x736F6C6343 STOP ADDMOD AND STOP CALLER "
				},
				"gasEstimates": {
					"creation": {
						"codeDepositCost": "165600",
						"executionCost": "206",
						"totalCost": "165806"
					},
					"external": {
						"checkOverFlow(uint256,uint256)": "infinite"
					}
				},
				"methodIdentifiers": {
					"checkOverFlow(uint256,uint256)": "0bfb0686"
				}
			},
			"storageLayout": {
				"storage": [],
				"types": null
			},
			"userdoc": {
				"kind": "user",
				"methods": {},
				"version": 1
			}
		}
	}
}