{
	"42-callingOtherContracts.sol": {
		"Caller": {
			"abi": [
				{
					"inputs": [
						{
							"internalType": "contract Callee",
							"name": "_callee",
							"type": "address"
						},
						{
							"internalType": "uint256",
							"name": "_x",
							"type": "uint256"
						}
					],
					"name": "setX",
					"outputs": [],
					"stateMutability": "nonpayable",
					"type": "function"
				},
				{
					"inputs": [
						{
							"internalType": "address",
							"name": "_addr",
							"type": "address"
						},
						{
							"internalType": "uint256",
							"name": "_x",
							"type": "uint256"
						}
					],
					"name": "setXFromAddress",
					"outputs": [],
					"stateMutability": "nonpayable",
					"type": "function"
				},
				{
					"inputs": [
						{
							"internalType": "contract Callee",
							"name": "_callee",
							"type": "address"
						},
						{
							"internalType": "uint256",
							"name": "_x",
							"type": "uint256"
						}
					],
					"name": "setXandSendEther",
					"outputs": [],
					"stateMutability": "payable",
					"type": "function"
				}
			],
			"devdoc": {
				"kind": "dev",
				"methods": {},
				"version": 1
			},
			"evm": {
				"assembly": "    /* \"42-callingOtherContracts.sol\":960:1817  contract Caller {... */\n  mstore(0x40, 0x80)\n  callvalue\n  dup1\n  iszero\n  tag_1\n  jumpi\n  0x00\n  dup1\n  revert\ntag_1:\n  pop\n  dataSize(sub_0)\n  dup1\n  dataOffset(sub_0)\n  0x00\n  codecopy\n  0x00\n  return\nstop\n\nsub_0: assembly {\n        /* \"42-callingOtherContracts.sol\":960:1817  contract Caller {... */\n      mstore(0x40, 0x80)\n      jumpi(tag_1, lt(calldatasize, 0x04))\n      shr(0xe0, calldataload(0x00))\n      dup1\n      0x4a2ad99f\n      eq\n      tag_2\n      jumpi\n      dup1\n      0xcb587039\n      eq\n      tag_3\n      jumpi\n      dup1\n      0xd44abc42\n      eq\n      tag_4\n      jumpi\n    tag_1:\n      0x00\n      dup1\n      revert\n        /* \"42-callingOtherContracts.sol\":1056:1216  function setX(Callee _callee, uint _x) public {... */\n    tag_2:\n      callvalue\n      dup1\n      iszero\n      tag_5\n      jumpi\n      0x00\n      dup1\n      revert\n    tag_5:\n      pop\n      tag_6\n      0x04\n      dup1\n      calldatasize\n      sub\n      dup2\n      add\n      swap1\n      tag_7\n      swap2\n      swap1\n      tag_8\n      jump\t// in\n    tag_7:\n      tag_9\n      jump\t// in\n    tag_6:\n      stop\n        /* \"42-callingOtherContracts.sol\":1297:1507  function setXFromAddress(address _addr, uint _x) public {... */\n    tag_3:\n      callvalue\n      dup1\n      iszero\n      tag_10\n      jumpi\n      0x00\n      dup1\n      revert\n    tag_10:\n      pop\n      tag_11\n      0x04\n      dup1\n      calldatasize\n      sub\n      dup2\n      add\n      swap1\n      tag_12\n      swap2\n      swap1\n      tag_13\n      jump\t// in\n    tag_12:\n      tag_14\n      jump\t// in\n    tag_11:\n      stop\n        /* \"42-callingOtherContracts.sol\":1586:1815  function setXandSendEther(Callee _callee, uint _x) public payable {... */\n    tag_4:\n      tag_15\n      0x04\n      dup1\n      calldatasize\n      sub\n      dup2\n      add\n      swap1\n      tag_16\n      swap2\n      swap1\n      tag_8\n      jump\t// in\n    tag_16:\n      tag_17\n      jump\t// in\n    tag_15:\n      stop\n        /* \"42-callingOtherContracts.sol\":1056:1216  function setX(Callee _callee, uint _x) public {... */\n    tag_9:\n        /* \"42-callingOtherContracts.sol\":1112:1123  uint xValue */\n      0x00\n        /* \"42-callingOtherContracts.sol\":1126:1133  _callee */\n      dup3\n        /* \"42-callingOtherContracts.sol\":1126:1138  _callee.setX */\n      0xffffffffffffffffffffffffffffffffffffffff\n      and\n      0x4018d9aa\n        /* \"42-callingOtherContracts.sol\":1139:1141  _x */\n      dup4\n        /* \"42-callingOtherContracts.sol\":1126:1142  _callee.setX(_x) */\n      mload(0x40)\n      dup3\n      0xffffffff\n      and\n      0xe0\n      shl\n      dup2\n      mstore\n      0x04\n      add\n      tag_19\n      swap2\n      swap1\n      tag_20\n      jump\t// in\n    tag_19:\n      0x20\n      mload(0x40)\n      dup1\n      dup4\n      sub\n      dup2\n      0x00\n      dup8\n      gas\n      call\n      iszero\n      dup1\n      iszero\n      tag_22\n      jumpi\n      returndatasize\n      0x00\n      dup1\n      returndatacopy\n      revert(0x00, returndatasize)\n    tag_22:\n      pop\n      pop\n      pop\n      pop\n      mload(0x40)\n      returndatasize\n      not(0x1f)\n      0x1f\n      dup3\n      add\n      and\n      dup3\n      add\n      dup1\n      0x40\n      mstore\n      pop\n      dup2\n      add\n      swap1\n      tag_23\n      swap2\n      swap1\n      tag_24\n      jump\t// in\n    tag_23:\n        /* \"42-callingOtherContracts.sol\":1112:1142  uint xValue = _callee.setX(_x) */\n      swap1\n      pop\n        /* \"42-callingOtherContracts.sol\":1102:1216  {... */\n      pop\n        /* \"42-callingOtherContracts.sol\":1056:1216  function setX(Callee _callee, uint _x) public {... */\n      pop\n      pop\n      jump\t// out\n        /* \"42-callingOtherContracts.sol\":1297:1507  function setXFromAddress(address _addr, uint _x) public {... */\n    tag_14:\n        /* \"42-callingOtherContracts.sol\":1363:1376  Callee callee */\n      0x00\n        /* \"42-callingOtherContracts.sol\":1386:1391  _addr */\n      dup3\n        /* \"42-callingOtherContracts.sol\":1363:1392  Callee callee = Callee(_addr) */\n      swap1\n      pop\n        /* \"42-callingOtherContracts.sol\":1443:1449  callee */\n      dup1\n        /* \"42-callingOtherContracts.sol\":1443:1454  callee.setX */\n      0xffffffffffffffffffffffffffffffffffffffff\n      and\n      0x4018d9aa\n        /* \"42-callingOtherContracts.sol\":1455:1457  _x */\n      dup4\n        /* \"42-callingOtherContracts.sol\":1443:1458  callee.setX(_x) */\n      mload(0x40)\n      dup3\n      0xffffffff\n      and\n      0xe0\n      shl\n      dup2\n      mstore\n      0x04\n      add\n      tag_26\n      swap2\n      swap1\n      tag_20\n      jump\t// in\n    tag_26:\n      0x20\n      mload(0x40)\n      dup1\n      dup4\n      sub\n      dup2\n      0x00\n      dup8\n      gas\n      call\n      iszero\n      dup1\n      iszero\n      tag_28\n      jumpi\n      returndatasize\n      0x00\n      dup1\n      returndatacopy\n      revert(0x00, returndatasize)\n    tag_28:\n      pop\n      pop\n      pop\n      pop\n      mload(0x40)\n      returndatasize\n      not(0x1f)\n      0x1f\n      dup3\n      add\n      and\n      dup3\n      add\n      dup1\n      0x40\n      mstore\n      pop\n      dup2\n      add\n      swap1\n      tag_29\n      swap2\n      swap1\n      tag_24\n      jump\t// in\n    tag_29:\n      pop\n        /* \"42-callingOtherContracts.sol\":1353:1507  {... */\n      pop\n        /* \"42-callingOtherContracts.sol\":1297:1507  function setXFromAddress(address _addr, uint _x) public {... */\n      pop\n      pop\n      jump\t// out\n        /* \"42-callingOtherContracts.sol\":1586:1815  function setXandSendEther(Callee _callee, uint _x) public payable {... */\n    tag_17:\n        /* \"42-callingOtherContracts.sol\":1663:1669  uint x */\n      0x00\n        /* \"42-callingOtherContracts.sol\":1671:1681  uint value */\n      dup1\n        /* \"42-callingOtherContracts.sol\":1685:1692  _callee */\n      dup4\n        /* \"42-callingOtherContracts.sol\":1685:1709  _callee.setXandSendEther */\n      0xffffffffffffffffffffffffffffffffffffffff\n      and\n      0xcdc23076\n        /* \"42-callingOtherContracts.sol\":1717:1726  msg.value */\n      callvalue\n        /* \"42-callingOtherContracts.sol\":1728:1730  _x */\n      dup6\n        /* \"42-callingOtherContracts.sol\":1685:1731  _callee.setXandSendEther{value: msg.value}(_x) */\n      mload(0x40)\n      dup4\n      0xffffffff\n      and\n      0xe0\n      shl\n      dup2\n      mstore\n      0x04\n      add\n      tag_31\n      swap2\n      swap1\n      tag_20\n      jump\t// in\n    tag_31:\n      0x40\n      dup1\n      mload\n      dup1\n      dup4\n      sub\n      dup2\n      dup6\n      dup9\n      gas\n      call\n      iszero\n      dup1\n      iszero\n      tag_33\n      jumpi\n      returndatasize\n      0x00\n      dup1\n      returndatacopy\n      revert(0x00, returndatasize)\n    tag_33:\n      pop\n      pop\n      pop\n      pop\n      pop\n      mload(0x40)\n      returndatasize\n      not(0x1f)\n      0x1f\n      dup3\n      add\n      and\n      dup3\n      add\n      dup1\n      0x40\n      mstore\n      pop\n      dup2\n      add\n      swap1\n      tag_34\n      swap2\n      swap1\n      tag_35\n      jump\t// in\n    tag_34:\n        /* \"42-callingOtherContracts.sol\":1662:1731  (uint x, uint value) = _callee.setXandSendEther{value: msg.value}(_x) */\n      swap2\n      pop\n      swap2\n      pop\n        /* \"42-callingOtherContracts.sol\":1652:1815  {... */\n      pop\n      pop\n        /* \"42-callingOtherContracts.sol\":1586:1815  function setXandSendEther(Callee _callee, uint _x) public payable {... */\n      pop\n      pop\n      jump\t// out\n        /* \"#utility.yul\":88:205   */\n    tag_37:\n        /* \"#utility.yul\":197:198   */\n      0x00\n        /* \"#utility.yul\":194:195   */\n      dup1\n        /* \"#utility.yul\":187:199   */\n      revert\n        /* \"#utility.yul\":334:460   */\n    tag_39:\n        /* \"#utility.yul\":371:378   */\n      0x00\n        /* \"#utility.yul\":411:453   */\n      0xffffffffffffffffffffffffffffffffffffffff\n        /* \"#utility.yul\":404:409   */\n      dup3\n        /* \"#utility.yul\":400:454   */\n      and\n        /* \"#utility.yul\":389:454   */\n      swap1\n      pop\n        /* \"#utility.yul\":334:460   */\n      swap2\n      swap1\n      pop\n      jump\t// out\n        /* \"#utility.yul\":466:562   */\n    tag_40:\n        /* \"#utility.yul\":503:510   */\n      0x00\n        /* \"#utility.yul\":532:556   */\n      tag_57\n        /* \"#utility.yul\":550:555   */\n      dup3\n        /* \"#utility.yul\":532:556   */\n      tag_39\n      jump\t// in\n    tag_57:\n        /* \"#utility.yul\":521:556   */\n      swap1\n      pop\n        /* \"#utility.yul\":466:562   */\n      swap2\n      swap1\n      pop\n      jump\t// out\n        /* \"#utility.yul\":568:677   */\n    tag_41:\n        /* \"#utility.yul\":618:625   */\n      0x00\n        /* \"#utility.yul\":647:671   */\n      tag_59\n        /* \"#utility.yul\":665:670   */\n      dup3\n        /* \"#utility.yul\":647:671   */\n      tag_40\n      jump\t// in\n    tag_59:\n        /* \"#utility.yul\":636:671   */\n      swap1\n      pop\n        /* \"#utility.yul\":568:677   */\n      swap2\n      swap1\n      pop\n      jump\t// out\n        /* \"#utility.yul\":683:831   */\n    tag_42:\n        /* \"#utility.yul\":769:806   */\n      tag_61\n        /* \"#utility.yul\":800:805   */\n      dup2\n        /* \"#utility.yul\":769:806   */\n      tag_41\n      jump\t// in\n    tag_61:\n        /* \"#utility.yul\":762:767   */\n      dup2\n        /* \"#utility.yul\":759:807   */\n      eq\n        /* \"#utility.yul\":749:825   */\n      tag_62\n      jumpi\n        /* \"#utility.yul\":821:822   */\n      0x00\n        /* \"#utility.yul\":818:819   */\n      dup1\n        /* \"#utility.yul\":811:823   */\n      revert\n        /* \"#utility.yul\":749:825   */\n    tag_62:\n        /* \"#utility.yul\":683:831   */\n      pop\n      jump\t// out\n        /* \"#utility.yul\":837:1002   */\n    tag_43:\n        /* \"#utility.yul\":896:901   */\n      0x00\n        /* \"#utility.yul\":934:940   */\n      dup2\n        /* \"#utility.yul\":921:941   */\n      calldataload\n        /* \"#utility.yul\":912:941   */\n      swap1\n      pop\n        /* \"#utility.yul\":950:996   */\n      tag_64\n        /* \"#utility.yul\":990:995   */\n      dup2\n        /* \"#utility.yul\":950:996   */\n      tag_42\n      jump\t// in\n    tag_64:\n        /* \"#utility.yul\":837:1002   */\n      swap3\n      swap2\n      pop\n      pop\n      jump\t// out\n        /* \"#utility.yul\":1008:1085   */\n    tag_44:\n        /* \"#utility.yul\":1045:1052   */\n      0x00\n        /* \"#utility.yul\":1074:1079   */\n      dup2\n        /* \"#utility.yul\":1063:1079   */\n      swap1\n      pop\n        /* \"#utility.yul\":1008:1085   */\n      swap2\n      swap1\n      pop\n      jump\t// out\n        /* \"#utility.yul\":1091:1213   */\n    tag_45:\n        /* \"#utility.yul\":1164:1188   */\n      tag_67\n        /* \"#utility.yul\":1182:1187   */\n      dup2\n        /* \"#utility.yul\":1164:1188   */\n      tag_44\n      jump\t// in\n    tag_67:\n        /* \"#utility.yul\":1157:1162   */\n      dup2\n        /* \"#utility.yul\":1154:1189   */\n      eq\n        /* \"#utility.yul\":1144:1207   */\n      tag_68\n      jumpi\n        /* \"#utility.yul\":1203:1204   */\n      0x00\n        /* \"#utility.yul\":1200:1201   */\n      dup1\n        /* \"#utility.yul\":1193:1205   */\n      revert\n        /* \"#utility.yul\":1144:1207   */\n    tag_68:\n        /* \"#utility.yul\":1091:1213   */\n      pop\n      jump\t// out\n        /* \"#utility.yul\":1219:1358   */\n    tag_46:\n        /* \"#utility.yul\":1265:1270   */\n      0x00\n        /* \"#utility.yul\":1303:1309   */\n      dup2\n        /* \"#utility.yul\":1290:1310   */\n      calldataload\n        /* \"#utility.yul\":1281:1310   */\n      swap1\n      pop\n        /* \"#utility.yul\":1319:1352   */\n      tag_70\n        /* \"#utility.yul\":1346:1351   */\n      dup2\n        /* \"#utility.yul\":1319:1352   */\n      tag_45\n      jump\t// in\n    tag_70:\n        /* \"#utility.yul\":1219:1358   */\n      swap3\n      swap2\n      pop\n      pop\n      jump\t// out\n        /* \"#utility.yul\":1364:1864   */\n    tag_8:\n        /* \"#utility.yul\":1445:1451   */\n      0x00\n        /* \"#utility.yul\":1453:1459   */\n      dup1\n        /* \"#utility.yul\":1502:1504   */\n      0x40\n        /* \"#utility.yul\":1490:1499   */\n      dup4\n        /* \"#utility.yul\":1481:1488   */\n      dup6\n        /* \"#utility.yul\":1477:1500   */\n      sub\n        /* \"#utility.yul\":1473:1505   */\n      slt\n        /* \"#utility.yul\":1470:1589   */\n      iszero\n      tag_72\n      jumpi\n        /* \"#utility.yul\":1508:1587   */\n      tag_73\n      tag_37\n      jump\t// in\n    tag_73:\n        /* \"#utility.yul\":1470:1589   */\n    tag_72:\n        /* \"#utility.yul\":1628:1629   */\n      0x00\n        /* \"#utility.yul\":1653:1719   */\n      tag_74\n        /* \"#utility.yul\":1711:1718   */\n      dup6\n        /* \"#utility.yul\":1702:1708   */\n      dup3\n        /* \"#utility.yul\":1691:1700   */\n      dup7\n        /* \"#utility.yul\":1687:1709   */\n      add\n        /* \"#utility.yul\":1653:1719   */\n      tag_43\n      jump\t// in\n    tag_74:\n        /* \"#utility.yul\":1643:1719   */\n      swap3\n      pop\n        /* \"#utility.yul\":1599:1729   */\n      pop\n        /* \"#utility.yul\":1768:1770   */\n      0x20\n        /* \"#utility.yul\":1794:1847   */\n      tag_75\n        /* \"#utility.yul\":1839:1846   */\n      dup6\n        /* \"#utility.yul\":1830:1836   */\n      dup3\n        /* \"#utility.yul\":1819:1828   */\n      dup7\n        /* \"#utility.yul\":1815:1837   */\n      add\n        /* \"#utility.yul\":1794:1847   */\n      tag_46\n      jump\t// in\n    tag_75:\n        /* \"#utility.yul\":1784:1847   */\n      swap2\n      pop\n        /* \"#utility.yul\":1739:1857   */\n      pop\n        /* \"#utility.yul\":1364:1864   */\n      swap3\n      pop\n      swap3\n      swap1\n      pop\n      jump\t// out\n        /* \"#utility.yul\":1870:1992   */\n    tag_47:\n        /* \"#utility.yul\":1943:1967   */\n      tag_77\n        /* \"#utility.yul\":1961:1966   */\n      dup2\n        /* \"#utility.yul\":1943:1967   */\n      tag_40\n      jump\t// in\n    tag_77:\n        /* \"#utility.yul\":1936:1941   */\n      dup2\n        /* \"#utility.yul\":1933:1968   */\n      eq\n        /* \"#utility.yul\":1923:1986   */\n      tag_78\n      jumpi\n        /* \"#utility.yul\":1982:1983   */\n      0x00\n        /* \"#utility.yul\":1979:1980   */\n      dup1\n        /* \"#utility.yul\":1972:1984   */\n      revert\n        /* \"#utility.yul\":1923:1986   */\n    tag_78:\n        /* \"#utility.yul\":1870:1992   */\n      pop\n      jump\t// out\n        /* \"#utility.yul\":1998:2137   */\n    tag_48:\n        /* \"#utility.yul\":2044:2049   */\n      0x00\n        /* \"#utility.yul\":2082:2088   */\n      dup2\n        /* \"#utility.yul\":2069:2089   */\n      calldataload\n        /* \"#utility.yul\":2060:2089   */\n      swap1\n      pop\n        /* \"#utility.yul\":2098:2131   */\n      tag_80\n        /* \"#utility.yul\":2125:2130   */\n      dup2\n        /* \"#utility.yul\":2098:2131   */\n      tag_47\n      jump\t// in\n    tag_80:\n        /* \"#utility.yul\":1998:2137   */\n      swap3\n      swap2\n      pop\n      pop\n      jump\t// out\n        /* \"#utility.yul\":2143:2617   */\n    tag_13:\n        /* \"#utility.yul\":2211:2217   */\n      0x00\n        /* \"#utility.yul\":2219:2225   */\n      dup1\n        /* \"#utility.yul\":2268:2270   */\n      0x40\n        /* \"#utility.yul\":2256:2265   */\n      dup4\n        /* \"#utility.yul\":2247:2254   */\n      dup6\n        /* \"#utility.yul\":2243:2266   */\n      sub\n        /* \"#utility.yul\":2239:2271   */\n      slt\n        /* \"#utility.yul\":2236:2355   */\n      iszero\n      tag_82\n      jumpi\n        /* \"#utility.yul\":2274:2353   */\n      tag_83\n      tag_37\n      jump\t// in\n    tag_83:\n        /* \"#utility.yul\":2236:2355   */\n    tag_82:\n        /* \"#utility.yul\":2394:2395   */\n      0x00\n        /* \"#utility.yul\":2419:2472   */\n      tag_84\n        /* \"#utility.yul\":2464:2471   */\n      dup6\n        /* \"#utility.yul\":2455:2461   */\n      dup3\n        /* \"#utility.yul\":2444:2453   */\n      dup7\n        /* \"#utility.yul\":2440:2462   */\n      add\n        /* \"#utility.yul\":2419:2472   */\n      tag_48\n      jump\t// in\n    tag_84:\n        /* \"#utility.yul\":2409:2472   */\n      swap3\n      pop\n        /* \"#utility.yul\":2365:2482   */\n      pop\n        /* \"#utility.yul\":2521:2523   */\n      0x20\n        /* \"#utility.yul\":2547:2600   */\n      tag_85\n        /* \"#utility.yul\":2592:2599   */\n      dup6\n        /* \"#utility.yul\":2583:2589   */\n      dup3\n        /* \"#utility.yul\":2572:2581   */\n      dup7\n        /* \"#utility.yul\":2568:2590   */\n      add\n        /* \"#utility.yul\":2547:2600   */\n      tag_46\n      jump\t// in\n    tag_85:\n        /* \"#utility.yul\":2537:2600   */\n      swap2\n      pop\n        /* \"#utility.yul\":2492:2610   */\n      pop\n        /* \"#utility.yul\":2143:2617   */\n      swap3\n      pop\n      swap3\n      swap1\n      pop\n      jump\t// out\n        /* \"#utility.yul\":2623:2741   */\n    tag_49:\n        /* \"#utility.yul\":2710:2734   */\n      tag_87\n        /* \"#utility.yul\":2728:2733   */\n      dup2\n        /* \"#utility.yul\":2710:2734   */\n      tag_44\n      jump\t// in\n    tag_87:\n        /* \"#utility.yul\":2705:2708   */\n      dup3\n        /* \"#utility.yul\":2698:2735   */\n      mstore\n        /* \"#utility.yul\":2623:2741   */\n      pop\n      pop\n      jump\t// out\n        /* \"#utility.yul\":2747:2969   */\n    tag_20:\n        /* \"#utility.yul\":2840:2844   */\n      0x00\n        /* \"#utility.yul\":2878:2880   */\n      0x20\n        /* \"#utility.yul\":2867:2876   */\n      dup3\n        /* \"#utility.yul\":2863:2881   */\n      add\n        /* \"#utility.yul\":2855:2881   */\n      swap1\n      pop\n        /* \"#utility.yul\":2891:2962   */\n      tag_89\n        /* \"#utility.yul\":2959:2960   */\n      0x00\n        /* \"#utility.yul\":2948:2957   */\n      dup4\n        /* \"#utility.yul\":2944:2961   */\n      add\n        /* \"#utility.yul\":2935:2941   */\n      dup5\n        /* \"#utility.yul\":2891:2962   */\n      tag_49\n      jump\t// in\n    tag_89:\n        /* \"#utility.yul\":2747:2969   */\n      swap3\n      swap2\n      pop\n      pop\n      jump\t// out\n        /* \"#utility.yul\":2975:3118   */\n    tag_50:\n        /* \"#utility.yul\":3032:3037   */\n      0x00\n        /* \"#utility.yul\":3063:3069   */\n      dup2\n        /* \"#utility.yul\":3057:3070   */\n      mload\n        /* \"#utility.yul\":3048:3070   */\n      swap1\n      pop\n        /* \"#utility.yul\":3079:3112   */\n      tag_91\n        /* \"#utility.yul\":3106:3111   */\n      dup2\n        /* \"#utility.yul\":3079:3112   */\n      tag_45\n      jump\t// in\n    tag_91:\n        /* \"#utility.yul\":2975:3118   */\n      swap3\n      swap2\n      pop\n      pop\n      jump\t// out\n        /* \"#utility.yul\":3124:3475   */\n    tag_24:\n        /* \"#utility.yul\":3194:3200   */\n      0x00\n        /* \"#utility.yul\":3243:3245   */\n      0x20\n        /* \"#utility.yul\":3231:3240   */\n      dup3\n        /* \"#utility.yul\":3222:3229   */\n      dup5\n        /* \"#utility.yul\":3218:3241   */\n      sub\n        /* \"#utility.yul\":3214:3246   */\n      slt\n        /* \"#utility.yul\":3211:3330   */\n      iszero\n      tag_93\n      jumpi\n        /* \"#utility.yul\":3249:3328   */\n      tag_94\n      tag_37\n      jump\t// in\n    tag_94:\n        /* \"#utility.yul\":3211:3330   */\n    tag_93:\n        /* \"#utility.yul\":3369:3370   */\n      0x00\n        /* \"#utility.yul\":3394:3458   */\n      tag_95\n        /* \"#utility.yul\":3450:3457   */\n      dup5\n        /* \"#utility.yul\":3441:3447   */\n      dup3\n        /* \"#utility.yul\":3430:3439   */\n      dup6\n        /* \"#utility.yul\":3426:3448   */\n      add\n        /* \"#utility.yul\":3394:3458   */\n      tag_50\n      jump\t// in\n    tag_95:\n        /* \"#utility.yul\":3384:3458   */\n      swap2\n      pop\n        /* \"#utility.yul\":3340:3468   */\n      pop\n        /* \"#utility.yul\":3124:3475   */\n      swap3\n      swap2\n      pop\n      pop\n      jump\t// out\n        /* \"#utility.yul\":3481:3988   */\n    tag_35:\n        /* \"#utility.yul\":3560:3566   */\n      0x00\n        /* \"#utility.yul\":3568:3574   */\n      dup1\n        /* \"#utility.yul\":3617:3619   */\n      0x40\n        /* \"#utility.yul\":3605:3614   */\n      dup4\n        /* \"#utility.yul\":3596:3603   */\n      dup6\n        /* \"#utility.yul\":3592:3615   */\n      sub\n        /* \"#utility.yul\":3588:3620   */\n      slt\n        /* \"#utility.yul\":3585:3704   */\n      iszero\n      tag_97\n      jumpi\n        /* \"#utility.yul\":3623:3702   */\n      tag_98\n      tag_37\n      jump\t// in\n    tag_98:\n        /* \"#utility.yul\":3585:3704   */\n    tag_97:\n        /* \"#utility.yul\":3743:3744   */\n      0x00\n        /* \"#utility.yul\":3768:3832   */\n      tag_99\n        /* \"#utility.yul\":3824:3831   */\n      dup6\n        /* \"#utility.yul\":3815:3821   */\n      dup3\n        /* \"#utility.yul\":3804:3813   */\n      dup7\n        /* \"#utility.yul\":3800:3822   */\n      add\n        /* \"#utility.yul\":3768:3832   */\n      tag_50\n      jump\t// in\n    tag_99:\n        /* \"#utility.yul\":3758:3832   */\n      swap3\n      pop\n        /* \"#utility.yul\":3714:3842   */\n      pop\n        /* \"#utility.yul\":3881:3883   */\n      0x20\n        /* \"#utility.yul\":3907:3971   */\n      tag_100\n        /* \"#utility.yul\":3963:3970   */\n      dup6\n        /* \"#utility.yul\":3954:3960   */\n      dup3\n        /* \"#utility.yul\":3943:3952   */\n      dup7\n        /* \"#utility.yul\":3939:3961   */\n      add\n        /* \"#utility.yul\":3907:3971   */\n      tag_50\n      jump\t// in\n    tag_100:\n        /* \"#utility.yul\":3897:3971   */\n      swap2\n      pop\n        /* \"#utility.yul\":3852:3981   */\n      pop\n        /* \"#utility.yul\":3481:3988   */\n      swap3\n      pop\n      swap3\n      swap1\n      pop\n      jump\t// out\n\n    auxdata: 0xa2646970667358221220b9f2ea860a32589521daafccc5af86f3d1831b412bcc38470d9ec6f163a80eea64736f6c63430008160033\n}\n",
				"bytecode": {
					"linkReferences": {},
					"object": "608060405234801561000f575f80fd5b506104508061001d5f395ff3fe608060405260043610610033575f3560e01c80634a2ad99f14610037578063cb5870391461005f578063d44abc4214610087575b5f80fd5b348015610042575f80fd5b5061005d600480360381019061005891906102cf565b6100a3565b005b34801561006a575f80fd5b5061008560048036038101906100809190610337565b610124565b005b6100a1600480360381019061009c91906102cf565b6101a7565b005b5f8273ffffffffffffffffffffffffffffffffffffffff16634018d9aa836040518263ffffffff1660e01b81526004016100dd9190610384565b6020604051808303815f875af11580156100f9573d5f803e3d5ffd5b505050506040513d601f19601f8201168201806040525081019061011d91906103b1565b9050505050565b5f8290508073ffffffffffffffffffffffffffffffffffffffff16634018d9aa836040518263ffffffff1660e01b81526004016101619190610384565b6020604051808303815f875af115801561017d573d5f803e3d5ffd5b505050506040513d601f19601f820116820180604052508101906101a191906103b1565b50505050565b5f808373ffffffffffffffffffffffffffffffffffffffff1663cdc2307634856040518363ffffffff1660e01b81526004016101e39190610384565b604080518083038185885af11580156101fe573d5f803e3d5ffd5b50505050506040513d601f19601f8201168201806040525081019061022391906103dc565b9150915050505050565b5f80fd5b5f73ffffffffffffffffffffffffffffffffffffffff82169050919050565b5f61025a82610231565b9050919050565b5f61026b82610250565b9050919050565b61027b81610261565b8114610285575f80fd5b50565b5f8135905061029681610272565b92915050565b5f819050919050565b6102ae8161029c565b81146102b8575f80fd5b50565b5f813590506102c9816102a5565b92915050565b5f80604083850312156102e5576102e461022d565b5b5f6102f285828601610288565b9250506020610303858286016102bb565b9150509250929050565b61031681610250565b8114610320575f80fd5b50565b5f813590506103318161030d565b92915050565b5f806040838503121561034d5761034c61022d565b5b5f61035a85828601610323565b925050602061036b858286016102bb565b9150509250929050565b61037e8161029c565b82525050565b5f6020820190506103975f830184610375565b92915050565b5f815190506103ab816102a5565b92915050565b5f602082840312156103c6576103c561022d565b5b5f6103d38482850161039d565b91505092915050565b5f80604083850312156103f2576103f161022d565b5b5f6103ff8582860161039d565b92505060206104108582860161039d565b915050925092905056fea2646970667358221220b9f2ea860a32589521daafccc5af86f3d1831b412bcc38470d9ec6f163a80eea64736f6c63430008160033",
					"opcodes": "PUSH1 0x80 PUSH1 0x40 MSTORE CALLVALUE DUP1 ISZERO PUSH2 0xF JUMPI PUSH0 DUP1 REVERT JUMPDEST POP PUSH2 0x450 DUP1 PUSH2 0x1D PUSH0 CODECOPY PUSH0 RETURN INVALID PUSH1 0x80 PUSH1 0x40 MSTORE PUSH1 0x4 CALLDATASIZE LT PUSH2 0x33 JUMPI PUSH0 CALLDATALOAD PUSH1 0xE0 SHR DUP1 PUSH4 0x4A2AD99F EQ PUSH2 0x37 JUMPI DUP1 PUSH4 0xCB587039 EQ PUSH2 0x5F JUMPI DUP1 PUSH4 0xD44ABC42 EQ PUSH2 0x87 JUMPI JUMPDEST PUSH0 DUP1 REVERT JUMPDEST CALLVALUE DUP1 ISZERO PUSH2 0x42 JUMPI PUSH0 DUP1 REVERT JUMPDEST POP PUSH2 0x5D PUSH1 0x4 DUP1 CALLDATASIZE SUB DUP2 ADD SWAP1 PUSH2 0x58 SWAP2 SWAP1 PUSH2 0x2CF JUMP JUMPDEST PUSH2 0xA3 JUMP JUMPDEST STOP JUMPDEST CALLVALUE DUP1 ISZERO PUSH2 0x6A JUMPI PUSH0 DUP1 REVERT JUMPDEST POP PUSH2 0x85 PUSH1 0x4 DUP1 CALLDATASIZE SUB DUP2 ADD SWAP1 PUSH2 0x80 SWAP2 SWAP1 PUSH2 0x337 JUMP JUMPDEST PUSH2 0x124 JUMP JUMPDEST STOP JUMPDEST PUSH2 0xA1 PUSH1 0x4 DUP1 CALLDATASIZE SUB DUP2 ADD SWAP1 PUSH2 0x9C SWAP2 SWAP1 PUSH2 0x2CF JUMP JUMPDEST PUSH2 0x1A7 JUMP JUMPDEST STOP JUMPDEST PUSH0 DUP3 PUSH20 0xFFFFFFFFFFFFFFFFFFFFFFFFFFFFFFFFFFFFFFFF AND PUSH4 0x4018D9AA DUP4 PUSH1 0x40 MLOAD DUP3 PUSH4 0xFFFFFFFF AND PUSH1 0xE0 SHL DUP2 MSTORE PUSH1 0x4 ADD PUSH2 0xDD SWAP2 SWAP1 PUSH2 0x384 JUMP JUMPDEST PUSH1 0x20 PUSH1 0x40 MLOAD DUP1 DUP4 SUB DUP2 PUSH0 DUP8 GAS CALL ISZERO DUP1 ISZERO PUSH2 0xF9 JUMPI RETURNDATASIZE PUSH0 DUP1 RETURNDATACOPY RETURNDATASIZE PUSH0 REVERT JUMPDEST POP POP POP POP PUSH1 0x40 MLOAD RETURNDATASIZE PUSH1 0x1F NOT PUSH1 0x1F DUP3 ADD AND DUP3 ADD DUP1 PUSH1 0x40 MSTORE POP DUP2 ADD SWAP1 PUSH2 0x11D SWAP2 SWAP1 PUSH2 0x3B1 JUMP JUMPDEST SWAP1 POP POP POP POP JUMP JUMPDEST PUSH0 DUP3 SWAP1 POP DUP1 PUSH20 0xFFFFFFFFFFFFFFFFFFFFFFFFFFFFFFFFFFFFFFFF AND PUSH4 0x4018D9AA DUP4 PUSH1 0x40 MLOAD DUP3 PUSH4 0xFFFFFFFF AND PUSH1 0xE0 SHL DUP2 MSTORE PUSH1 0x4 ADD PUSH2 0x161 SWAP2 SWAP1 PUSH2 0x384 JUMP JUMPDEST PUSH1 0x20 PUSH1 0x40 MLOAD DUP1 DUP4 SUB DUP2 PUSH0 DUP8 GAS CALL ISZERO DUP1 ISZERO PUSH2 0x17D JUMPI RETURNDATASIZE PUSH0 DUP1 RETURNDATACOPY RETURNDATASIZE PUSH0 REVERT JUMPDEST POP POP POP POP PUSH1 0x40 MLOAD RETURNDATASIZE PUSH1 0x1F NOT PUSH1 0x1F DUP3 ADD AND DUP3 ADD DUP1 PUSH1 0x40 MSTORE POP DUP2 ADD SWAP1 PUSH2 0x1A1 SWAP2 SWAP1 PUSH2 0x3B1 JUMP JUMPDEST POP POP POP POP JUMP JUMPDEST PUSH0 DUP1 DUP4 PUSH20 0xFFFFFFFFFFFFFFFFFFFFFFFFFFFFFFFFFFFFFFFF AND PUSH4 0xCDC23076 CALLVALUE DUP6 PUSH1 0x40 MLOAD DUP4 PUSH4 0xFFFFFFFF AND PUSH1 0xE0 SHL DUP2 MSTORE PUSH1 0x4 ADD PUSH2 0x1E3 SWAP2 SWAP1 PUSH2 0x384 JUMP JUMPDEST PUSH1 0x40 DUP1 MLOAD DUP1 DUP4 SUB DUP2 DUP6 DUP9 GAS CALL ISZERO DUP1 ISZERO PUSH2 0x1FE JUMPI RETURNDATASIZE PUSH0 DUP1 RETURNDATACOPY RETURNDATASIZE PUSH0 REVERT JUMPDEST POP POP POP POP POP PUSH1 0x40 MLOAD RETURNDATASIZE PUSH1 0x1F NOT PUSH1 0x1F DUP3 ADD AND DUP3 ADD DUP1 PUSH1 0x40 MSTORE POP DUP2 ADD SWAP1 PUSH2 0x223 SWAP2 SWAP1 PUSH2 0x3DC JUMP JUMPDEST SWAP2 POP SWAP2 POP POP POP POP POP JUMP JUMPDEST PUSH0 DUP1 REVERT JUMPDEST PUSH0 PUSH20 0xFFFFFFFFFFFFFFFFFFFFFFFFFFFFFFFFFFFFFFFF DUP3 AND SWAP1 POP SWAP2 SWAP1 POP JUMP JUMPDEST PUSH0 PUSH2 0x25A DUP3 PUSH2 0x231 JUMP JUMPDEST SWAP1 POP SWAP2 SWAP1 POP JUMP JUMPDEST PUSH0 PUSH2 0x26B DUP3 PUSH2 0x250 JUMP JUMPDEST SWAP1 POP SWAP2 SWAP1 POP JUMP JUMPDEST PUSH2 0x27B DUP2 PUSH2 0x261 JUMP JUMPDEST DUP2 EQ PUSH2 0x285 JUMPI PUSH0 DUP1 REVERT JUMPDEST POP JUMP JUMPDEST PUSH0 DUP2 CALLDATALOAD SWAP1 POP PUSH2 0x296 DUP2 PUSH2 0x272 JUMP JUMPDEST SWAP3 SWAP2 POP POP JUMP JUMPDEST PUSH0 DUP2 SWAP1 POP SWAP2 SWAP1 POP JUMP JUMPDEST PUSH2 0x2AE DUP2 PUSH2 0x29C JUMP JUMPDEST DUP2 EQ PUSH2 0x2B8 JUMPI PUSH0 DUP1 REVERT JUMPDEST POP JUMP JUMPDEST PUSH0 DUP2 CALLDATALOAD SWAP1 POP PUSH2 0x2C9 DUP2 PUSH2 0x2A5 JUMP JUMPDEST SWAP3 SWAP2 POP POP JUMP JUMPDEST PUSH0 DUP1 PUSH1 0x40 DUP4 DUP6 SUB SLT ISZERO PUSH2 0x2E5 JUMPI PUSH2 0x2E4 PUSH2 0x22D JUMP JUMPDEST JUMPDEST PUSH0 PUSH2 0x2F2 DUP6 DUP3 DUP7 ADD PUSH2 0x288 JUMP JUMPDEST SWAP3 POP POP PUSH1 0x20 PUSH2 0x303 DUP6 DUP3 DUP7 ADD PUSH2 0x2BB JUMP JUMPDEST SWAP2 POP POP SWAP3 POP SWAP3 SWAP1 POP JUMP JUMPDEST PUSH2 0x316 DUP2 PUSH2 0x250 JUMP JUMPDEST DUP2 EQ PUSH2 0x320 JUMPI PUSH0 DUP1 REVERT JUMPDEST POP JUMP JUMPDEST PUSH0 DUP2 CALLDATALOAD SWAP1 POP PUSH2 0x331 DUP2 PUSH2 0x30D JUMP JUMPDEST SWAP3 SWAP2 POP POP JUMP JUMPDEST PUSH0 DUP1 PUSH1 0x40 DUP4 DUP6 SUB SLT ISZERO PUSH2 0x34D JUMPI PUSH2 0x34C PUSH2 0x22D JUMP JUMPDEST JUMPDEST PUSH0 PUSH2 0x35A DUP6 DUP3 DUP7 ADD PUSH2 0x323 JUMP JUMPDEST SWAP3 POP POP PUSH1 0x20 PUSH2 0x36B DUP6 DUP3 DUP7 ADD PUSH2 0x2BB JUMP JUMPDEST SWAP2 POP POP SWAP3 POP SWAP3 SWAP1 POP JUMP JUMPDEST PUSH2 0x37E DUP2 PUSH2 0x29C JUMP JUMPDEST DUP3 MSTORE POP POP JUMP JUMPDEST PUSH0 PUSH1 0x20 DUP3 ADD SWAP1 POP PUSH2 0x397 PUSH0 DUP4 ADD DUP5 PUSH2 0x375 JUMP JUMPDEST SWAP3 SWAP2 POP POP JUMP JUMPDEST PUSH0 DUP2 MLOAD SWAP1 POP PUSH2 0x3AB DUP2 PUSH2 0x2A5 JUMP JUMPDEST SWAP3 SWAP2 POP POP JUMP JUMPDEST PUSH0 PUSH1 0x20 DUP3 DUP5 SUB SLT ISZERO PUSH2 0x3C6 JUMPI PUSH2 0x3C5 PUSH2 0x22D JUMP JUMPDEST JUMPDEST PUSH0 PUSH2 0x3D3 DUP5 DUP3 DUP6 ADD PUSH2 0x39D JUMP JUMPDEST SWAP2 POP POP SWAP3 SWAP2 POP POP JUMP JUMPDEST PUSH0 DUP1 PUSH1 0x40 DUP4 DUP6 SUB SLT ISZERO PUSH2 0x3F2 JUMPI PUSH2 0x3F1 PUSH2 0x22D JUMP JUMPDEST JUMPDEST PUSH0 PUSH2 0x3FF DUP6 DUP3 DUP7 ADD PUSH2 0x39D JUMP JUMPDEST SWAP3 POP POP PUSH1 0x20 PUSH2 0x410 DUP6 DUP3 DUP7 ADD PUSH2 0x39D JUMP JUMPDEST SWAP2 POP POP SWAP3 POP SWAP3 SWAP1 POP JUMP INVALID LOG2 PUSH5 0x6970667358 0x22 SLT KECCAK256 0xB9 CALLCODE 0xEA DUP7 EXP ORIGIN PC SWAP6 0x21 0xDA 0xAF 0xCC 0xC5 0xAF DUP7 RETURN 0xD1 DUP4 SHL COINBASE 0x2B 0xCC CODESIZE SELFBALANCE 0xD SWAP15 0xC6 CALL PUSH4 0xA80EEA64 PUSH20 0x6F6C634300081600330000000000000000000000 "
				},
				"gasEstimates": {
					"creation": {
						"codeDepositCost": "220800",
						"executionCost": "261",
						"totalCost": "221061"
					},
					"external": {
						"setX(address,uint256)": "infinite",
						"setXFromAddress(address,uint256)": "infinite",
						"setXandSendEther(address,uint256)": "infinite"
					}
				},
				"methodIdentifiers": {
					"setX(address,uint256)": "4a2ad99f",
					"setXFromAddress(address,uint256)": "cb587039",
					"setXandSendEther(address,uint256)": "d44abc42"
				}
			},
			"storageLayout": {
				"storage": [],
				"types": null
			},
			"userdoc": {
				"kind": "user",
				"methods": {},
				"version": 1
			}
		}
	}
}