{
	"10-event-ticket.sol": {
		"EventTicket": {
			"abi": [
				{
					"inputs": [
						{
							"internalType": "uint256",
							"name": "_ticketPrice",
							"type": "uint256"
						}
					],
					"stateMutability": "nonpayable",
					"type": "constructor"
				},
				{
					"inputs": [
						{
							"internalType": "uint256",
							"name": "_value",
							"type": "uint256"
						}
					],
					"name": "buyTicket",
					"outputs": [
						{
							"internalType": "uint256",
							"name": "tickeID",
							"type": "uint256"
						}
					],
					"stateMutability": "nonpayable",
					"type": "function"
				},
				{
					"inputs": [],
					"name": "getAmount",
					"outputs": [
						{
							"internalType": "uint256",
							"name": "",
							"type": "uint256"
						}
					],
					"stateMutability": "view",
					"type": "function"
				}
			],
			"devdoc": {
				"kind": "dev",
				"methods": {},
				"version": 1
			},
			"evm": {
				"assembly": "    /* \"10-event-ticket.sol\":75:783  contract EventTicket {... */\n  mstore(0x40, 0x80)\n    /* \"10-event-ticket.sol\":245:296  string message = \"Buy your very first Event Ticket\" */\n  mload(0x40)\n  dup1\n  0x40\n  add\n  0x40\n  mstore\n  dup1\n  0x20\n  dup2\n  mstore\n  0x20\n  add\n  0x42757920796f75722076657279206669727374204576656e74205469636b6574\n  dup2\n  mstore\n  pop\n  0x06\n  swap1\n  dup2\n  tag_1\n  swap2\n  swap1\n  tag_2\n  jump\t// in\ntag_1:\n  pop\n    /* \"10-event-ticket.sol\":303:515  constructor(uint256 _ticketPrice) {... */\n  callvalue\n  dup1\n  iszero\n  tag_3\n  jumpi\n  0x00\n  dup1\n  revert\ntag_3:\n  pop\n  mload(0x40)\n  sub(codesize, bytecodeSize)\n  dup1\n  bytecodeSize\n  dup4\n  codecopy\n  dup2\n  dup2\n  add\n  0x40\n  mstore\n  dup2\n  add\n  swap1\n  tag_4\n  swap2\n  swap1\n  tag_5\n  jump\t// in\ntag_4:\n    /* \"10-event-ticket.sol\":361:373  _ticketPrice */\n  dup1\n    /* \"10-event-ticket.sol\":347:358  ticketPrice */\n  0x01\n    /* \"10-event-ticket.sol\":347:373  ticketPrice = _ticketPrice */\n  dup2\n  swap1\n  sstore\n  pop\n    /* \"10-event-ticket.sol\":394:409  block.timestamp */\n  timestamp\n    /* \"10-event-ticket.sol\":383:391  startsAt */\n  0x03\n    /* \"10-event-ticket.sol\":383:409  startsAt = block.timestamp */\n  dup2\n  swap1\n  sstore\n  pop\n    /* \"10-event-ticket.sol\":446:452  7 days */\n  0x093a80\n    /* \"10-event-ticket.sol\":428:443  block.timestamp */\n  timestamp\n    /* \"10-event-ticket.sol\":428:452  block.timestamp + 7 days */\n  tag_8\n  swap2\n  swap1\n  tag_9\n  jump\t// in\ntag_8:\n    /* \"10-event-ticket.sol\":419:425  endsAt */\n  0x04\n    /* \"10-event-ticket.sol\":419:452  endsAt = block.timestamp + 7 days */\n  dup2\n  swap1\n  sstore\n  pop\n    /* \"10-event-ticket.sol\":506:508  24 */\n  0x18\n    /* \"10-event-ticket.sol\":501:503  60 */\n  0x3c\n    /* \"10-event-ticket.sol\":496:498  60 */\n  dup1\n    /* \"10-event-ticket.sol\":484:492  startsAt */\n  sload(0x03)\n    /* \"10-event-ticket.sol\":475:481  endsAt */\n  sload(0x04)\n    /* \"10-event-ticket.sol\":475:492  endsAt - startsAt */\n  tag_10\n  swap2\n  swap1\n  tag_11\n  jump\t// in\ntag_10:\n    /* \"10-event-ticket.sol\":474:498  (endsAt - startsAt) / 60 */\n  tag_12\n  swap2\n  swap1\n  tag_13\n  jump\t// in\ntag_12:\n    /* \"10-event-ticket.sol\":474:503  (endsAt - startsAt) / 60 / 60 */\n  tag_14\n  swap2\n  swap1\n  tag_13\n  jump\t// in\ntag_14:\n    /* \"10-event-ticket.sol\":474:508  (endsAt - startsAt) / 60 / 60 / 24 */\n  tag_15\n  swap2\n  swap1\n  tag_13\n  jump\t// in\ntag_15:\n    /* \"10-event-ticket.sol\":462:471  timeRange */\n  0x05\n    /* \"10-event-ticket.sol\":462:508  timeRange = (endsAt - startsAt) / 60 / 60 / 24 */\n  dup2\n  swap1\n  sstore\n  pop\n    /* \"10-event-ticket.sol\":303:515  constructor(uint256 _ticketPrice) {... */\n  pop\n    /* \"10-event-ticket.sol\":75:783  contract EventTicket {... */\n  jump(tag_16)\n    /* \"#utility.yul\":7:106   */\ntag_17:\n    /* \"#utility.yul\":59:65   */\n  0x00\n    /* \"#utility.yul\":93:98   */\n  dup2\n    /* \"#utility.yul\":87:99   */\n  mload\n    /* \"#utility.yul\":77:99   */\n  swap1\n  pop\n    /* \"#utility.yul\":7:106   */\n  swap2\n  swap1\n  pop\n  jump\t// out\n    /* \"#utility.yul\":112:292   */\ntag_18:\n    /* \"#utility.yul\":160:237   */\n  0x4e487b7100000000000000000000000000000000000000000000000000000000\n    /* \"#utility.yul\":157:158   */\n  0x00\n    /* \"#utility.yul\":150:238   */\n  mstore\n    /* \"#utility.yul\":257:261   */\n  0x41\n    /* \"#utility.yul\":254:255   */\n  0x04\n    /* \"#utility.yul\":247:262   */\n  mstore\n    /* \"#utility.yul\":281:285   */\n  0x24\n    /* \"#utility.yul\":278:279   */\n  0x00\n    /* \"#utility.yul\":271:286   */\n  revert\n    /* \"#utility.yul\":298:478   */\ntag_19:\n    /* \"#utility.yul\":346:423   */\n  0x4e487b7100000000000000000000000000000000000000000000000000000000\n    /* \"#utility.yul\":343:344   */\n  0x00\n    /* \"#utility.yul\":336:424   */\n  mstore\n    /* \"#utility.yul\":443:447   */\n  0x22\n    /* \"#utility.yul\":440:441   */\n  0x04\n    /* \"#utility.yul\":433:448   */\n  mstore\n    /* \"#utility.yul\":467:471   */\n  0x24\n    /* \"#utility.yul\":464:465   */\n  0x00\n    /* \"#utility.yul\":457:472   */\n  revert\n    /* \"#utility.yul\":484:804   */\ntag_20:\n    /* \"#utility.yul\":528:534   */\n  0x00\n    /* \"#utility.yul\":565:566   */\n  0x02\n    /* \"#utility.yul\":559:563   */\n  dup3\n    /* \"#utility.yul\":555:567   */\n  div\n    /* \"#utility.yul\":545:567   */\n  swap1\n  pop\n    /* \"#utility.yul\":612:613   */\n  0x01\n    /* \"#utility.yul\":606:610   */\n  dup3\n    /* \"#utility.yul\":602:614   */\n  and\n    /* \"#utility.yul\":633:651   */\n  dup1\n    /* \"#utility.yul\":623:704   */\n  tag_49\n  jumpi\n    /* \"#utility.yul\":689:693   */\n  0x7f\n    /* \"#utility.yul\":681:687   */\n  dup3\n    /* \"#utility.yul\":677:694   */\n  and\n    /* \"#utility.yul\":667:694   */\n  swap2\n  pop\n    /* \"#utility.yul\":623:704   */\ntag_49:\n    /* \"#utility.yul\":751:753   */\n  0x20\n    /* \"#utility.yul\":743:749   */\n  dup3\n    /* \"#utility.yul\":740:754   */\n  lt\n    /* \"#utility.yul\":720:738   */\n  dup2\n    /* \"#utility.yul\":717:755   */\n  sub\n    /* \"#utility.yul\":714:798   */\n  tag_50\n  jumpi\n    /* \"#utility.yul\":770:788   */\n  tag_51\n  tag_19\n  jump\t// in\ntag_51:\n    /* \"#utility.yul\":714:798   */\ntag_50:\n    /* \"#utility.yul\":535:804   */\n  pop\n    /* \"#utility.yul\":484:804   */\n  swap2\n  swap1\n  pop\n  jump\t// out\n    /* \"#utility.yul\":810:951   */\ntag_21:\n    /* \"#utility.yul\":859:863   */\n  0x00\n    /* \"#utility.yul\":882:885   */\n  dup2\n    /* \"#utility.yul\":874:885   */\n  swap1\n  pop\n    /* \"#utility.yul\":905:908   */\n  dup2\n    /* \"#utility.yul\":902:903   */\n  0x00\n    /* \"#utility.yul\":895:909   */\n  mstore\n    /* \"#utility.yul\":939:943   */\n  0x20\n    /* \"#utility.yul\":936:937   */\n  0x00\n    /* \"#utility.yul\":926:944   */\n  keccak256\n    /* \"#utility.yul\":918:944   */\n  swap1\n  pop\n    /* \"#utility.yul\":810:951   */\n  swap2\n  swap1\n  pop\n  jump\t// out\n    /* \"#utility.yul\":957:1050   */\ntag_22:\n    /* \"#utility.yul\":994:1000   */\n  0x00\n    /* \"#utility.yul\":1041:1043   */\n  0x20\n    /* \"#utility.yul\":1036:1038   */\n  0x1f\n    /* \"#utility.yul\":1029:1034   */\n  dup4\n    /* \"#utility.yul\":1025:1039   */\n  add\n    /* \"#utility.yul\":1021:1044   */\n  div\n    /* \"#utility.yul\":1011:1044   */\n  swap1\n  pop\n    /* \"#utility.yul\":957:1050   */\n  swap2\n  swap1\n  pop\n  jump\t// out\n    /* \"#utility.yul\":1056:1163   */\ntag_23:\n    /* \"#utility.yul\":1100:1108   */\n  0x00\n    /* \"#utility.yul\":1150:1155   */\n  dup3\n    /* \"#utility.yul\":1144:1148   */\n  dup3\n    /* \"#utility.yul\":1140:1156   */\n  shl\n    /* \"#utility.yul\":1119:1156   */\n  swap1\n  pop\n    /* \"#utility.yul\":1056:1163   */\n  swap3\n  swap2\n  pop\n  pop\n  jump\t// out\n    /* \"#utility.yul\":1169:1562   */\ntag_24:\n    /* \"#utility.yul\":1238:1244   */\n  0x00\n    /* \"#utility.yul\":1288:1289   */\n  0x08\n    /* \"#utility.yul\":1276:1286   */\n  dup4\n    /* \"#utility.yul\":1272:1290   */\n  mul\n    /* \"#utility.yul\":1311:1408   */\n  tag_56\n    /* \"#utility.yul\":1341:1407   */\n  0xffffffffffffffffffffffffffffffffffffffffffffffffffffffffffffffff\n    /* \"#utility.yul\":1330:1339   */\n  dup3\n    /* \"#utility.yul\":1311:1408   */\n  tag_23\n  jump\t// in\ntag_56:\n    /* \"#utility.yul\":1429:1468   */\n  tag_57\n    /* \"#utility.yul\":1459:1467   */\n  dup7\n    /* \"#utility.yul\":1448:1457   */\n  dup4\n    /* \"#utility.yul\":1429:1468   */\n  tag_23\n  jump\t// in\ntag_57:\n    /* \"#utility.yul\":1417:1468   */\n  swap6\n  pop\n    /* \"#utility.yul\":1501:1505   */\n  dup1\n    /* \"#utility.yul\":1497:1506   */\n  not\n    /* \"#utility.yul\":1490:1495   */\n  dup5\n    /* \"#utility.yul\":1486:1507   */\n  and\n    /* \"#utility.yul\":1477:1507   */\n  swap4\n  pop\n    /* \"#utility.yul\":1550:1554   */\n  dup1\n    /* \"#utility.yul\":1540:1548   */\n  dup7\n    /* \"#utility.yul\":1536:1555   */\n  and\n    /* \"#utility.yul\":1529:1534   */\n  dup5\n    /* \"#utility.yul\":1526:1556   */\n  or\n    /* \"#utility.yul\":1516:1556   */\n  swap3\n  pop\n    /* \"#utility.yul\":1245:1562   */\n  pop\n  pop\n    /* \"#utility.yul\":1169:1562   */\n  swap4\n  swap3\n  pop\n  pop\n  pop\n  jump\t// out\n    /* \"#utility.yul\":1568:1645   */\ntag_25:\n    /* \"#utility.yul\":1605:1612   */\n  0x00\n    /* \"#utility.yul\":1634:1639   */\n  dup2\n    /* \"#utility.yul\":1623:1639   */\n  swap1\n  pop\n    /* \"#utility.yul\":1568:1645   */\n  swap2\n  swap1\n  pop\n  jump\t// out\n    /* \"#utility.yul\":1651:1711   */\ntag_26:\n    /* \"#utility.yul\":1679:1682   */\n  0x00\n    /* \"#utility.yul\":1700:1705   */\n  dup2\n    /* \"#utility.yul\":1693:1705   */\n  swap1\n  pop\n    /* \"#utility.yul\":1651:1711   */\n  swap2\n  swap1\n  pop\n  jump\t// out\n    /* \"#utility.yul\":1717:1859   */\ntag_27:\n    /* \"#utility.yul\":1767:1776   */\n  0x00\n    /* \"#utility.yul\":1800:1853   */\n  tag_61\n    /* \"#utility.yul\":1818:1852   */\n  tag_62\n    /* \"#utility.yul\":1827:1851   */\n  tag_63\n    /* \"#utility.yul\":1845:1850   */\n  dup5\n    /* \"#utility.yul\":1827:1851   */\n  tag_25\n  jump\t// in\ntag_63:\n    /* \"#utility.yul\":1818:1852   */\n  tag_26\n  jump\t// in\ntag_62:\n    /* \"#utility.yul\":1800:1853   */\n  tag_25\n  jump\t// in\ntag_61:\n    /* \"#utility.yul\":1787:1853   */\n  swap1\n  pop\n    /* \"#utility.yul\":1717:1859   */\n  swap2\n  swap1\n  pop\n  jump\t// out\n    /* \"#utility.yul\":1865:1940   */\ntag_28:\n    /* \"#utility.yul\":1908:1911   */\n  0x00\n    /* \"#utility.yul\":1929:1934   */\n  dup2\n    /* \"#utility.yul\":1922:1934   */\n  swap1\n  pop\n    /* \"#utility.yul\":1865:1940   */\n  swap2\n  swap1\n  pop\n  jump\t// out\n    /* \"#utility.yul\":1946:2215   */\ntag_29:\n    /* \"#utility.yul\":2056:2095   */\n  tag_66\n    /* \"#utility.yul\":2087:2094   */\n  dup4\n    /* \"#utility.yul\":2056:2095   */\n  tag_27\n  jump\t// in\ntag_66:\n    /* \"#utility.yul\":2117:2208   */\n  tag_67\n    /* \"#utility.yul\":2166:2207   */\n  tag_68\n    /* \"#utility.yul\":2190:2206   */\n  dup3\n    /* \"#utility.yul\":2166:2207   */\n  tag_28\n  jump\t// in\ntag_68:\n    /* \"#utility.yul\":2158:2164   */\n  dup5\n    /* \"#utility.yul\":2151:2155   */\n  dup5\n    /* \"#utility.yul\":2145:2156   */\n  sload\n    /* \"#utility.yul\":2117:2208   */\n  tag_24\n  jump\t// in\ntag_67:\n    /* \"#utility.yul\":2111:2115   */\n  dup3\n    /* \"#utility.yul\":2104:2209   */\n  sstore\n    /* \"#utility.yul\":2022:2215   */\n  pop\n    /* \"#utility.yul\":1946:2215   */\n  pop\n  pop\n  pop\n  jump\t// out\n    /* \"#utility.yul\":2221:2294   */\ntag_30:\n    /* \"#utility.yul\":2266:2269   */\n  0x00\n    /* \"#utility.yul\":2221:2294   */\n  swap1\n  jump\t// out\n    /* \"#utility.yul\":2300:2489   */\ntag_31:\n    /* \"#utility.yul\":2377:2409   */\n  tag_71\n  tag_30\n  jump\t// in\ntag_71:\n    /* \"#utility.yul\":2418:2483   */\n  tag_72\n    /* \"#utility.yul\":2476:2482   */\n  dup2\n    /* \"#utility.yul\":2468:2474   */\n  dup5\n    /* \"#utility.yul\":2462:2466   */\n  dup5\n    /* \"#utility.yul\":2418:2483   */\n  tag_29\n  jump\t// in\ntag_72:\n    /* \"#utility.yul\":2353:2489   */\n  pop\n    /* \"#utility.yul\":2300:2489   */\n  pop\n  pop\n  jump\t// out\n    /* \"#utility.yul\":2495:2681   */\ntag_32:\n    /* \"#utility.yul\":2555:2675   */\ntag_74:\n    /* \"#utility.yul\":2572:2575   */\n  dup2\n    /* \"#utility.yul\":2565:2570   */\n  dup2\n    /* \"#utility.yul\":2562:2576   */\n  lt\n    /* \"#utility.yul\":2555:2675   */\n  iszero\n  tag_76\n  jumpi\n    /* \"#utility.yul\":2626:2665   */\n  tag_77\n    /* \"#utility.yul\":2663:2664   */\n  0x00\n    /* \"#utility.yul\":2656:2661   */\n  dup3\n    /* \"#utility.yul\":2626:2665   */\n  tag_31\n  jump\t// in\ntag_77:\n    /* \"#utility.yul\":2599:2600   */\n  0x01\n    /* \"#utility.yul\":2592:2597   */\n  dup2\n    /* \"#utility.yul\":2588:2601   */\n  add\n    /* \"#utility.yul\":2579:2601   */\n  swap1\n  pop\n    /* \"#utility.yul\":2555:2675   */\n  jump(tag_74)\ntag_76:\n    /* \"#utility.yul\":2495:2681   */\n  pop\n  pop\n  jump\t// out\n    /* \"#utility.yul\":2687:3230   */\ntag_33:\n    /* \"#utility.yul\":2788:2790   */\n  0x1f\n    /* \"#utility.yul\":2783:2786   */\n  dup3\n    /* \"#utility.yul\":2780:2791   */\n  gt\n    /* \"#utility.yul\":2777:3223   */\n  iszero\n  tag_79\n  jumpi\n    /* \"#utility.yul\":2822:2860   */\n  tag_80\n    /* \"#utility.yul\":2854:2859   */\n  dup2\n    /* \"#utility.yul\":2822:2860   */\n  tag_21\n  jump\t// in\ntag_80:\n    /* \"#utility.yul\":2906:2935   */\n  tag_81\n    /* \"#utility.yul\":2924:2934   */\n  dup5\n    /* \"#utility.yul\":2906:2935   */\n  tag_22\n  jump\t// in\ntag_81:\n    /* \"#utility.yul\":2896:2904   */\n  dup2\n    /* \"#utility.yul\":2892:2936   */\n  add\n    /* \"#utility.yul\":3089:3091   */\n  0x20\n    /* \"#utility.yul\":3077:3087   */\n  dup6\n    /* \"#utility.yul\":3074:3092   */\n  lt\n    /* \"#utility.yul\":3071:3120   */\n  iszero\n  tag_82\n  jumpi\n    /* \"#utility.yul\":3110:3118   */\n  dup2\n    /* \"#utility.yul\":3095:3118   */\n  swap1\n  pop\n    /* \"#utility.yul\":3071:3120   */\ntag_82:\n    /* \"#utility.yul\":3133:3213   */\n  tag_83\n    /* \"#utility.yul\":3189:3211   */\n  tag_84\n    /* \"#utility.yul\":3207:3210   */\n  dup6\n    /* \"#utility.yul\":3189:3211   */\n  tag_22\n  jump\t// in\ntag_84:\n    /* \"#utility.yul\":3179:3187   */\n  dup4\n    /* \"#utility.yul\":3175:3212   */\n  add\n    /* \"#utility.yul\":3162:3173   */\n  dup3\n    /* \"#utility.yul\":3133:3213   */\n  tag_32\n  jump\t// in\ntag_83:\n    /* \"#utility.yul\":2792:3223   */\n  pop\n  pop\n    /* \"#utility.yul\":2777:3223   */\ntag_79:\n    /* \"#utility.yul\":2687:3230   */\n  pop\n  pop\n  pop\n  jump\t// out\n    /* \"#utility.yul\":3236:3353   */\ntag_34:\n    /* \"#utility.yul\":3290:3298   */\n  0x00\n    /* \"#utility.yul\":3340:3345   */\n  dup3\n    /* \"#utility.yul\":3334:3338   */\n  dup3\n    /* \"#utility.yul\":3330:3346   */\n  shr\n    /* \"#utility.yul\":3309:3346   */\n  swap1\n  pop\n    /* \"#utility.yul\":3236:3353   */\n  swap3\n  swap2\n  pop\n  pop\n  jump\t// out\n    /* \"#utility.yul\":3359:3528   */\ntag_35:\n    /* \"#utility.yul\":3403:3409   */\n  0x00\n    /* \"#utility.yul\":3436:3487   */\n  tag_87\n    /* \"#utility.yul\":3484:3485   */\n  0x00\n    /* \"#utility.yul\":3480:3486   */\n  not\n    /* \"#utility.yul\":3472:3477   */\n  dup5\n    /* \"#utility.yul\":3469:3470   */\n  0x08\n    /* \"#utility.yul\":3465:3478   */\n  mul\n    /* \"#utility.yul\":3436:3487   */\n  tag_34\n  jump\t// in\ntag_87:\n    /* \"#utility.yul\":3432:3488   */\n  not\n    /* \"#utility.yul\":3517:3521   */\n  dup1\n    /* \"#utility.yul\":3511:3515   */\n  dup4\n    /* \"#utility.yul\":3507:3522   */\n  and\n    /* \"#utility.yul\":3497:3522   */\n  swap2\n  pop\n    /* \"#utility.yul\":3410:3528   */\n  pop\n    /* \"#utility.yul\":3359:3528   */\n  swap3\n  swap2\n  pop\n  pop\n  jump\t// out\n    /* \"#utility.yul\":3533:3828   */\ntag_36:\n    /* \"#utility.yul\":3609:3613   */\n  0x00\n    /* \"#utility.yul\":3755:3784   */\n  tag_89\n    /* \"#utility.yul\":3780:3783   */\n  dup4\n    /* \"#utility.yul\":3774:3778   */\n  dup4\n    /* \"#utility.yul\":3755:3784   */\n  tag_35\n  jump\t// in\ntag_89:\n    /* \"#utility.yul\":3747:3784   */\n  swap2\n  pop\n    /* \"#utility.yul\":3817:3820   */\n  dup3\n    /* \"#utility.yul\":3814:3815   */\n  0x02\n    /* \"#utility.yul\":3810:3821   */\n  mul\n    /* \"#utility.yul\":3804:3808   */\n  dup3\n    /* \"#utility.yul\":3801:3822   */\n  or\n    /* \"#utility.yul\":3793:3822   */\n  swap1\n  pop\n    /* \"#utility.yul\":3533:3828   */\n  swap3\n  swap2\n  pop\n  pop\n  jump\t// out\n    /* \"#utility.yul\":3833:5228   */\ntag_2:\n    /* \"#utility.yul\":3950:3987   */\n  tag_91\n    /* \"#utility.yul\":3983:3986   */\n  dup3\n    /* \"#utility.yul\":3950:3987   */\n  tag_17\n  jump\t// in\ntag_91:\n    /* \"#utility.yul\":4052:4070   */\n  0xffffffffffffffff\n    /* \"#utility.yul\":4044:4050   */\n  dup2\n    /* \"#utility.yul\":4041:4071   */\n  gt\n    /* \"#utility.yul\":4038:4094   */\n  iszero\n  tag_92\n  jumpi\n    /* \"#utility.yul\":4074:4092   */\n  tag_93\n  tag_18\n  jump\t// in\ntag_93:\n    /* \"#utility.yul\":4038:4094   */\ntag_92:\n    /* \"#utility.yul\":4118:4156   */\n  tag_94\n    /* \"#utility.yul\":4150:4154   */\n  dup3\n    /* \"#utility.yul\":4144:4155   */\n  sload\n    /* \"#utility.yul\":4118:4156   */\n  tag_20\n  jump\t// in\ntag_94:\n    /* \"#utility.yul\":4203:4270   */\n  tag_95\n    /* \"#utility.yul\":4263:4269   */\n  dup3\n    /* \"#utility.yul\":4255:4261   */\n  dup3\n    /* \"#utility.yul\":4249:4253   */\n  dup6\n    /* \"#utility.yul\":4203:4270   */\n  tag_33\n  jump\t// in\ntag_95:\n    /* \"#utility.yul\":4297:4298   */\n  0x00\n    /* \"#utility.yul\":4321:4325   */\n  0x20\n    /* \"#utility.yul\":4308:4325   */\n  swap1\n  pop\n    /* \"#utility.yul\":4353:4355   */\n  0x1f\n    /* \"#utility.yul\":4345:4351   */\n  dup4\n    /* \"#utility.yul\":4342:4356   */\n  gt\n    /* \"#utility.yul\":4370:4371   */\n  0x01\n    /* \"#utility.yul\":4365:4983   */\n  dup2\n  eq\n  tag_97\n  jumpi\n    /* \"#utility.yul\":5027:5028   */\n  0x00\n    /* \"#utility.yul\":5044:5050   */\n  dup5\n    /* \"#utility.yul\":5041:5118   */\n  iszero\n  tag_98\n  jumpi\n    /* \"#utility.yul\":5093:5102   */\n  dup3\n    /* \"#utility.yul\":5088:5091   */\n  dup8\n    /* \"#utility.yul\":5084:5103   */\n  add\n    /* \"#utility.yul\":5078:5104   */\n  mload\n    /* \"#utility.yul\":5069:5104   */\n  swap1\n  pop\n    /* \"#utility.yul\":5041:5118   */\ntag_98:\n    /* \"#utility.yul\":5144:5211   */\n  tag_99\n    /* \"#utility.yul\":5204:5210   */\n  dup6\n    /* \"#utility.yul\":5197:5202   */\n  dup3\n    /* \"#utility.yul\":5144:5211   */\n  tag_36\n  jump\t// in\ntag_99:\n    /* \"#utility.yul\":5138:5142   */\n  dup7\n    /* \"#utility.yul\":5131:5212   */\n  sstore\n    /* \"#utility.yul\":5000:5222   */\n  pop\n    /* \"#utility.yul\":4335:5222   */\n  jump(tag_96)\n    /* \"#utility.yul\":4365:4983   */\ntag_97:\n    /* \"#utility.yul\":4417:4421   */\n  0x1f\n    /* \"#utility.yul\":4413:4422   */\n  not\n    /* \"#utility.yul\":4405:4411   */\n  dup5\n    /* \"#utility.yul\":4401:4423   */\n  and\n    /* \"#utility.yul\":4451:4488   */\n  tag_100\n    /* \"#utility.yul\":4483:4487   */\n  dup7\n    /* \"#utility.yul\":4451:4488   */\n  tag_21\n  jump\t// in\ntag_100:\n    /* \"#utility.yul\":4510:4511   */\n  0x00\n    /* \"#utility.yul\":4524:4732   */\ntag_101:\n    /* \"#utility.yul\":4538:4545   */\n  dup3\n    /* \"#utility.yul\":4535:4536   */\n  dup2\n    /* \"#utility.yul\":4532:4546   */\n  lt\n    /* \"#utility.yul\":4524:4732   */\n  iszero\n  tag_103\n  jumpi\n    /* \"#utility.yul\":4617:4626   */\n  dup5\n    /* \"#utility.yul\":4612:4615   */\n  dup10\n    /* \"#utility.yul\":4608:4627   */\n  add\n    /* \"#utility.yul\":4602:4628   */\n  mload\n    /* \"#utility.yul\":4594:4600   */\n  dup3\n    /* \"#utility.yul\":4587:4629   */\n  sstore\n    /* \"#utility.yul\":4668:4669   */\n  0x01\n    /* \"#utility.yul\":4660:4666   */\n  dup3\n    /* \"#utility.yul\":4656:4670   */\n  add\n    /* \"#utility.yul\":4646:4670   */\n  swap2\n  pop\n    /* \"#utility.yul\":4715:4717   */\n  0x20\n    /* \"#utility.yul\":4704:4713   */\n  dup6\n    /* \"#utility.yul\":4700:4718   */\n  add\n    /* \"#utility.yul\":4687:4718   */\n  swap5\n  pop\n    /* \"#utility.yul\":4561:4565   */\n  0x20\n    /* \"#utility.yul\":4558:4559   */\n  dup2\n    /* \"#utility.yul\":4554:4566   */\n  add\n    /* \"#utility.yul\":4549:4566   */\n  swap1\n  pop\n    /* \"#utility.yul\":4524:4732   */\n  jump(tag_101)\ntag_103:\n    /* \"#utility.yul\":4760:4766   */\n  dup7\n    /* \"#utility.yul\":4751:4758   */\n  dup4\n    /* \"#utility.yul\":4748:4767   */\n  lt\n    /* \"#utility.yul\":4745:4924   */\n  iszero\n  tag_104\n  jumpi\n    /* \"#utility.yul\":4818:4827   */\n  dup5\n    /* \"#utility.yul\":4813:4816   */\n  dup10\n    /* \"#utility.yul\":4809:4828   */\n  add\n    /* \"#utility.yul\":4803:4829   */\n  mload\n    /* \"#utility.yul\":4861:4909   */\n  tag_105\n    /* \"#utility.yul\":4903:4907   */\n  0x1f\n    /* \"#utility.yul\":4895:4901   */\n  dup10\n    /* \"#utility.yul\":4891:4908   */\n  and\n    /* \"#utility.yul\":4880:4889   */\n  dup3\n    /* \"#utility.yul\":4861:4909   */\n  tag_35\n  jump\t// in\ntag_105:\n    /* \"#utility.yul\":4853:4859   */\n  dup4\n    /* \"#utility.yul\":4846:4910   */\n  sstore\n    /* \"#utility.yul\":4768:4924   */\n  pop\n    /* \"#utility.yul\":4745:4924   */\ntag_104:\n    /* \"#utility.yul\":4970:4971   */\n  0x01\n    /* \"#utility.yul\":4966:4967   */\n  0x02\n    /* \"#utility.yul\":4958:4964   */\n  dup9\n    /* \"#utility.yul\":4954:4968   */\n  mul\n    /* \"#utility.yul\":4950:4972   */\n  add\n    /* \"#utility.yul\":4944:4948   */\n  dup9\n    /* \"#utility.yul\":4937:4973   */\n  sstore\n    /* \"#utility.yul\":4372:4983   */\n  pop\n  pop\n  pop\n    /* \"#utility.yul\":4335:5222   */\ntag_96:\n  pop\n    /* \"#utility.yul\":3925:5228   */\n  pop\n  pop\n  pop\n    /* \"#utility.yul\":3833:5228   */\n  pop\n  pop\n  jump\t// out\n    /* \"#utility.yul\":5315:5432   */\ntag_38:\n    /* \"#utility.yul\":5424:5425   */\n  0x00\n    /* \"#utility.yul\":5421:5422   */\n  dup1\n    /* \"#utility.yul\":5414:5426   */\n  revert\n    /* \"#utility.yul\":5561:5683   */\ntag_40:\n    /* \"#utility.yul\":5634:5658   */\n  tag_110\n    /* \"#utility.yul\":5652:5657   */\n  dup2\n    /* \"#utility.yul\":5634:5658   */\n  tag_25\n  jump\t// in\ntag_110:\n    /* \"#utility.yul\":5627:5632   */\n  dup2\n    /* \"#utility.yul\":5624:5659   */\n  eq\n    /* \"#utility.yul\":5614:5677   */\n  tag_111\n  jumpi\n    /* \"#utility.yul\":5673:5674   */\n  0x00\n    /* \"#utility.yul\":5670:5671   */\n  dup1\n    /* \"#utility.yul\":5663:5675   */\n  revert\n    /* \"#utility.yul\":5614:5677   */\ntag_111:\n    /* \"#utility.yul\":5561:5683   */\n  pop\n  jump\t// out\n    /* \"#utility.yul\":5689:5832   */\ntag_41:\n    /* \"#utility.yul\":5746:5751   */\n  0x00\n    /* \"#utility.yul\":5777:5783   */\n  dup2\n    /* \"#utility.yul\":5771:5784   */\n  mload\n    /* \"#utility.yul\":5762:5784   */\n  swap1\n  pop\n    /* \"#utility.yul\":5793:5826   */\n  tag_113\n    /* \"#utility.yul\":5820:5825   */\n  dup2\n    /* \"#utility.yul\":5793:5826   */\n  tag_40\n  jump\t// in\ntag_113:\n    /* \"#utility.yul\":5689:5832   */\n  swap3\n  swap2\n  pop\n  pop\n  jump\t// out\n    /* \"#utility.yul\":5838:6189   */\ntag_5:\n    /* \"#utility.yul\":5908:5914   */\n  0x00\n    /* \"#utility.yul\":5957:5959   */\n  0x20\n    /* \"#utility.yul\":5945:5954   */\n  dup3\n    /* \"#utility.yul\":5936:5943   */\n  dup5\n    /* \"#utility.yul\":5932:5955   */\n  sub\n    /* \"#utility.yul\":5928:5960   */\n  slt\n    /* \"#utility.yul\":5925:6044   */\n  iszero\n  tag_115\n  jumpi\n    /* \"#utility.yul\":5963:6042   */\n  tag_116\n  tag_38\n  jump\t// in\ntag_116:\n    /* \"#utility.yul\":5925:6044   */\ntag_115:\n    /* \"#utility.yul\":6083:6084   */\n  0x00\n    /* \"#utility.yul\":6108:6172   */\n  tag_117\n    /* \"#utility.yul\":6164:6171   */\n  dup5\n    /* \"#utility.yul\":6155:6161   */\n  dup3\n    /* \"#utility.yul\":6144:6153   */\n  dup6\n    /* \"#utility.yul\":6140:6162   */\n  add\n    /* \"#utility.yul\":6108:6172   */\n  tag_41\n  jump\t// in\ntag_117:\n    /* \"#utility.yul\":6098:6172   */\n  swap2\n  pop\n    /* \"#utility.yul\":6054:6182   */\n  pop\n    /* \"#utility.yul\":5838:6189   */\n  swap3\n  swap2\n  pop\n  pop\n  jump\t// out\n    /* \"#utility.yul\":6195:6375   */\ntag_42:\n    /* \"#utility.yul\":6243:6320   */\n  0x4e487b7100000000000000000000000000000000000000000000000000000000\n    /* \"#utility.yul\":6240:6241   */\n  0x00\n    /* \"#utility.yul\":6233:6321   */\n  mstore\n    /* \"#utility.yul\":6340:6344   */\n  0x11\n    /* \"#utility.yul\":6337:6338   */\n  0x04\n    /* \"#utility.yul\":6330:6345   */\n  mstore\n    /* \"#utility.yul\":6364:6368   */\n  0x24\n    /* \"#utility.yul\":6361:6362   */\n  0x00\n    /* \"#utility.yul\":6354:6369   */\n  revert\n    /* \"#utility.yul\":6381:6572   */\ntag_9:\n    /* \"#utility.yul\":6421:6424   */\n  0x00\n    /* \"#utility.yul\":6440:6460   */\n  tag_120\n    /* \"#utility.yul\":6458:6459   */\n  dup3\n    /* \"#utility.yul\":6440:6460   */\n  tag_25\n  jump\t// in\ntag_120:\n    /* \"#utility.yul\":6435:6460   */\n  swap2\n  pop\n    /* \"#utility.yul\":6474:6494   */\n  tag_121\n    /* \"#utility.yul\":6492:6493   */\n  dup4\n    /* \"#utility.yul\":6474:6494   */\n  tag_25\n  jump\t// in\ntag_121:\n    /* \"#utility.yul\":6469:6494   */\n  swap3\n  pop\n    /* \"#utility.yul\":6517:6518   */\n  dup3\n    /* \"#utility.yul\":6514:6515   */\n  dup3\n    /* \"#utility.yul\":6510:6519   */\n  add\n    /* \"#utility.yul\":6503:6519   */\n  swap1\n  pop\n    /* \"#utility.yul\":6538:6541   */\n  dup1\n    /* \"#utility.yul\":6535:6536   */\n  dup3\n    /* \"#utility.yul\":6532:6542   */\n  gt\n    /* \"#utility.yul\":6529:6565   */\n  iszero\n  tag_122\n  jumpi\n    /* \"#utility.yul\":6545:6563   */\n  tag_123\n  tag_42\n  jump\t// in\ntag_123:\n    /* \"#utility.yul\":6529:6565   */\ntag_122:\n    /* \"#utility.yul\":6381:6572   */\n  swap3\n  swap2\n  pop\n  pop\n  jump\t// out\n    /* \"#utility.yul\":6578:6772   */\ntag_11:\n    /* \"#utility.yul\":6618:6622   */\n  0x00\n    /* \"#utility.yul\":6638:6658   */\n  tag_125\n    /* \"#utility.yul\":6656:6657   */\n  dup3\n    /* \"#utility.yul\":6638:6658   */\n  tag_25\n  jump\t// in\ntag_125:\n    /* \"#utility.yul\":6633:6658   */\n  swap2\n  pop\n    /* \"#utility.yul\":6672:6692   */\n  tag_126\n    /* \"#utility.yul\":6690:6691   */\n  dup4\n    /* \"#utility.yul\":6672:6692   */\n  tag_25\n  jump\t// in\ntag_126:\n    /* \"#utility.yul\":6667:6692   */\n  swap3\n  pop\n    /* \"#utility.yul\":6716:6717   */\n  dup3\n    /* \"#utility.yul\":6713:6714   */\n  dup3\n    /* \"#utility.yul\":6709:6718   */\n  sub\n    /* \"#utility.yul\":6701:6718   */\n  swap1\n  pop\n    /* \"#utility.yul\":6740:6741   */\n  dup2\n    /* \"#utility.yul\":6734:6738   */\n  dup2\n    /* \"#utility.yul\":6731:6742   */\n  gt\n    /* \"#utility.yul\":6728:6765   */\n  iszero\n  tag_127\n  jumpi\n    /* \"#utility.yul\":6745:6763   */\n  tag_128\n  tag_42\n  jump\t// in\ntag_128:\n    /* \"#utility.yul\":6728:6765   */\ntag_127:\n    /* \"#utility.yul\":6578:6772   */\n  swap3\n  swap2\n  pop\n  pop\n  jump\t// out\n    /* \"#utility.yul\":6778:6958   */\ntag_43:\n    /* \"#utility.yul\":6826:6903   */\n  0x4e487b7100000000000000000000000000000000000000000000000000000000\n    /* \"#utility.yul\":6823:6824   */\n  0x00\n    /* \"#utility.yul\":6816:6904   */\n  mstore\n    /* \"#utility.yul\":6923:6927   */\n  0x12\n    /* \"#utility.yul\":6920:6921   */\n  0x04\n    /* \"#utility.yul\":6913:6928   */\n  mstore\n    /* \"#utility.yul\":6947:6951   */\n  0x24\n    /* \"#utility.yul\":6944:6945   */\n  0x00\n    /* \"#utility.yul\":6937:6952   */\n  revert\n    /* \"#utility.yul\":6964:7149   */\ntag_13:\n    /* \"#utility.yul\":7004:7005   */\n  0x00\n    /* \"#utility.yul\":7021:7041   */\n  tag_131\n    /* \"#utility.yul\":7039:7040   */\n  dup3\n    /* \"#utility.yul\":7021:7041   */\n  tag_25\n  jump\t// in\ntag_131:\n    /* \"#utility.yul\":7016:7041   */\n  swap2\n  pop\n    /* \"#utility.yul\":7055:7075   */\n  tag_132\n    /* \"#utility.yul\":7073:7074   */\n  dup4\n    /* \"#utility.yul\":7055:7075   */\n  tag_25\n  jump\t// in\ntag_132:\n    /* \"#utility.yul\":7050:7075   */\n  swap3\n  pop\n    /* \"#utility.yul\":7094:7095   */\n  dup3\n    /* \"#utility.yul\":7084:7119   */\n  tag_133\n  jumpi\n    /* \"#utility.yul\":7099:7117   */\n  tag_134\n  tag_43\n  jump\t// in\ntag_134:\n    /* \"#utility.yul\":7084:7119   */\ntag_133:\n    /* \"#utility.yul\":7141:7142   */\n  dup3\n    /* \"#utility.yul\":7138:7139   */\n  dup3\n    /* \"#utility.yul\":7134:7143   */\n  div\n    /* \"#utility.yul\":7129:7143   */\n  swap1\n  pop\n    /* \"#utility.yul\":6964:7149   */\n  swap3\n  swap2\n  pop\n  pop\n  jump\t// out\n    /* \"10-event-ticket.sol\":75:783  contract EventTicket {... */\ntag_16:\n  dataSize(sub_0)\n  dup1\n  dataOffset(sub_0)\n  0x00\n  codecopy\n  0x00\n  return\nstop\n\nsub_0: assembly {\n        /* \"10-event-ticket.sol\":75:783  contract EventTicket {... */\n      mstore(0x40, 0x80)\n      callvalue\n      dup1\n      iszero\n      tag_1\n      jumpi\n      0x00\n      dup1\n      revert\n    tag_1:\n      pop\n      jumpi(tag_2, lt(calldatasize, 0x04))\n      shr(0xe0, calldataload(0x00))\n      dup1\n      0x67dd74ca\n      eq\n      tag_3\n      jumpi\n      dup1\n      0xd321fe29\n      eq\n      tag_4\n      jumpi\n    tag_2:\n      0x00\n      dup1\n      revert\n        /* \"10-event-ticket.sol\":521:688  function buyTicket(uint256 _value) public returns (uint256 tickeID) {... */\n    tag_3:\n      tag_5\n      0x04\n      dup1\n      calldatasize\n      sub\n      dup2\n      add\n      swap1\n      tag_6\n      swap2\n      swap1\n      tag_7\n      jump\t// in\n    tag_6:\n      tag_8\n      jump\t// in\n    tag_5:\n      mload(0x40)\n      tag_9\n      swap2\n      swap1\n      tag_10\n      jump\t// in\n    tag_9:\n      mload(0x40)\n      dup1\n      swap2\n      sub\n      swap1\n      return\n        /* \"10-event-ticket.sol\":695:781  function getAmount() public view returns (uint256) {... */\n    tag_4:\n      tag_11\n      tag_12\n      jump\t// in\n    tag_11:\n      mload(0x40)\n      tag_13\n      swap2\n      swap1\n      tag_10\n      jump\t// in\n    tag_13:\n      mload(0x40)\n      dup1\n      swap2\n      sub\n      swap1\n      return\n        /* \"10-event-ticket.sol\":521:688  function buyTicket(uint256 _value) public returns (uint256 tickeID) {... */\n    tag_8:\n        /* \"10-event-ticket.sol\":572:587  uint256 tickeID */\n      0x00\n        /* \"10-event-ticket.sol\":599:613  numberOfTicket */\n      dup1\n      0x00\n        /* \"10-event-ticket.sol\":599:616  numberOfTicket ++ */\n      dup2\n      sload\n      dup1\n      swap3\n      swap2\n      swap1\n      tag_15\n      swap1\n      tag_16\n      jump\t// in\n    tag_15:\n      swap2\n      swap1\n      pop\n      sstore\n      pop\n        /* \"10-event-ticket.sol\":641:647  _value */\n      dup2\n        /* \"10-event-ticket.sol\":626:637  totalAmount */\n      0x02\n      0x00\n        /* \"10-event-ticket.sol\":626:647  totalAmount += _value */\n      dup3\n      dup3\n      sload\n      tag_17\n      swap2\n      swap1\n      tag_18\n      jump\t// in\n    tag_17:\n      swap3\n      pop\n      pop\n      dup2\n      swap1\n      sstore\n      pop\n        /* \"10-event-ticket.sol\":667:681  numberOfTicket */\n      sload(0x00)\n        /* \"10-event-ticket.sol\":657:681  tickeID = numberOfTicket */\n      swap1\n      pop\n        /* \"10-event-ticket.sol\":521:688  function buyTicket(uint256 _value) public returns (uint256 tickeID) {... */\n      swap2\n      swap1\n      pop\n      jump\t// out\n        /* \"10-event-ticket.sol\":695:781  function getAmount() public view returns (uint256) {... */\n    tag_12:\n        /* \"10-event-ticket.sol\":737:744  uint256 */\n      0x00\n        /* \"10-event-ticket.sol\":763:774  totalAmount */\n      sload(0x02)\n        /* \"10-event-ticket.sol\":756:774  return totalAmount */\n      swap1\n      pop\n        /* \"10-event-ticket.sol\":695:781  function getAmount() public view returns (uint256) {... */\n      swap1\n      jump\t// out\n        /* \"#utility.yul\":88:205   */\n    tag_21:\n        /* \"#utility.yul\":197:198   */\n      0x00\n        /* \"#utility.yul\":194:195   */\n      dup1\n        /* \"#utility.yul\":187:199   */\n      revert\n        /* \"#utility.yul\":334:411   */\n    tag_23:\n        /* \"#utility.yul\":371:378   */\n      0x00\n        /* \"#utility.yul\":400:405   */\n      dup2\n        /* \"#utility.yul\":389:405   */\n      swap1\n      pop\n        /* \"#utility.yul\":334:411   */\n      swap2\n      swap1\n      pop\n      jump\t// out\n        /* \"#utility.yul\":417:539   */\n    tag_24:\n        /* \"#utility.yul\":490:514   */\n      tag_34\n        /* \"#utility.yul\":508:513   */\n      dup2\n        /* \"#utility.yul\":490:514   */\n      tag_23\n      jump\t// in\n    tag_34:\n        /* \"#utility.yul\":483:488   */\n      dup2\n        /* \"#utility.yul\":480:515   */\n      eq\n        /* \"#utility.yul\":470:533   */\n      tag_35\n      jumpi\n        /* \"#utility.yul\":529:530   */\n      0x00\n        /* \"#utility.yul\":526:527   */\n      dup1\n        /* \"#utility.yul\":519:531   */\n      revert\n        /* \"#utility.yul\":470:533   */\n    tag_35:\n        /* \"#utility.yul\":417:539   */\n      pop\n      jump\t// out\n        /* \"#utility.yul\":545:684   */\n    tag_25:\n        /* \"#utility.yul\":591:596   */\n      0x00\n        /* \"#utility.yul\":629:635   */\n      dup2\n        /* \"#utility.yul\":616:636   */\n      calldataload\n        /* \"#utility.yul\":607:636   */\n      swap1\n      pop\n        /* \"#utility.yul\":645:678   */\n      tag_37\n        /* \"#utility.yul\":672:677   */\n      dup2\n        /* \"#utility.yul\":645:678   */\n      tag_24\n      jump\t// in\n    tag_37:\n        /* \"#utility.yul\":545:684   */\n      swap3\n      swap2\n      pop\n      pop\n      jump\t// out\n        /* \"#utility.yul\":690:1019   */\n    tag_7:\n        /* \"#utility.yul\":749:755   */\n      0x00\n        /* \"#utility.yul\":798:800   */\n      0x20\n        /* \"#utility.yul\":786:795   */\n      dup3\n        /* \"#utility.yul\":777:784   */\n      dup5\n        /* \"#utility.yul\":773:796   */\n      sub\n        /* \"#utility.yul\":769:801   */\n      slt\n        /* \"#utility.yul\":766:885   */\n      iszero\n      tag_39\n      jumpi\n        /* \"#utility.yul\":804:883   */\n      tag_40\n      tag_21\n      jump\t// in\n    tag_40:\n        /* \"#utility.yul\":766:885   */\n    tag_39:\n        /* \"#utility.yul\":924:925   */\n      0x00\n        /* \"#utility.yul\":949:1002   */\n      tag_41\n        /* \"#utility.yul\":994:1001   */\n      dup5\n        /* \"#utility.yul\":985:991   */\n      dup3\n        /* \"#utility.yul\":974:983   */\n      dup6\n        /* \"#utility.yul\":970:992   */\n      add\n        /* \"#utility.yul\":949:1002   */\n      tag_25\n      jump\t// in\n    tag_41:\n        /* \"#utility.yul\":939:1002   */\n      swap2\n      pop\n        /* \"#utility.yul\":895:1012   */\n      pop\n        /* \"#utility.yul\":690:1019   */\n      swap3\n      swap2\n      pop\n      pop\n      jump\t// out\n        /* \"#utility.yul\":1025:1143   */\n    tag_26:\n        /* \"#utility.yul\":1112:1136   */\n      tag_43\n        /* \"#utility.yul\":1130:1135   */\n      dup2\n        /* \"#utility.yul\":1112:1136   */\n      tag_23\n      jump\t// in\n    tag_43:\n        /* \"#utility.yul\":1107:1110   */\n      dup3\n        /* \"#utility.yul\":1100:1137   */\n      mstore\n        /* \"#utility.yul\":1025:1143   */\n      pop\n      pop\n      jump\t// out\n        /* \"#utility.yul\":1149:1371   */\n    tag_10:\n        /* \"#utility.yul\":1242:1246   */\n      0x00\n        /* \"#utility.yul\":1280:1282   */\n      0x20\n        /* \"#utility.yul\":1269:1278   */\n      dup3\n        /* \"#utility.yul\":1265:1283   */\n      add\n        /* \"#utility.yul\":1257:1283   */\n      swap1\n      pop\n        /* \"#utility.yul\":1293:1364   */\n      tag_45\n        /* \"#utility.yul\":1361:1362   */\n      0x00\n        /* \"#utility.yul\":1350:1359   */\n      dup4\n        /* \"#utility.yul\":1346:1363   */\n      add\n        /* \"#utility.yul\":1337:1343   */\n      dup5\n        /* \"#utility.yul\":1293:1364   */\n      tag_26\n      jump\t// in\n    tag_45:\n        /* \"#utility.yul\":1149:1371   */\n      swap3\n      swap2\n      pop\n      pop\n      jump\t// out\n        /* \"#utility.yul\":1377:1557   */\n    tag_27:\n        /* \"#utility.yul\":1425:1502   */\n      0x4e487b7100000000000000000000000000000000000000000000000000000000\n        /* \"#utility.yul\":1422:1423   */\n      0x00\n        /* \"#utility.yul\":1415:1503   */\n      mstore\n        /* \"#utility.yul\":1522:1526   */\n      0x11\n        /* \"#utility.yul\":1519:1520   */\n      0x04\n        /* \"#utility.yul\":1512:1527   */\n      mstore\n        /* \"#utility.yul\":1546:1550   */\n      0x24\n        /* \"#utility.yul\":1543:1544   */\n      0x00\n        /* \"#utility.yul\":1536:1551   */\n      revert\n        /* \"#utility.yul\":1563:1796   */\n    tag_16:\n        /* \"#utility.yul\":1602:1605   */\n      0x00\n        /* \"#utility.yul\":1625:1649   */\n      tag_48\n        /* \"#utility.yul\":1643:1648   */\n      dup3\n        /* \"#utility.yul\":1625:1649   */\n      tag_23\n      jump\t// in\n    tag_48:\n        /* \"#utility.yul\":1616:1649   */\n      swap2\n      pop\n        /* \"#utility.yul\":1671:1737   */\n      0xffffffffffffffffffffffffffffffffffffffffffffffffffffffffffffffff\n        /* \"#utility.yul\":1664:1669   */\n      dup3\n        /* \"#utility.yul\":1661:1738   */\n      sub\n        /* \"#utility.yul\":1658:1761   */\n      tag_49\n      jumpi\n        /* \"#utility.yul\":1741:1759   */\n      tag_50\n      tag_27\n      jump\t// in\n    tag_50:\n        /* \"#utility.yul\":1658:1761   */\n    tag_49:\n        /* \"#utility.yul\":1788:1789   */\n      0x01\n        /* \"#utility.yul\":1781:1786   */\n      dup3\n        /* \"#utility.yul\":1777:1790   */\n      add\n        /* \"#utility.yul\":1770:1790   */\n      swap1\n      pop\n        /* \"#utility.yul\":1563:1796   */\n      swap2\n      swap1\n      pop\n      jump\t// out\n        /* \"#utility.yul\":1802:1993   */\n    tag_18:\n        /* \"#utility.yul\":1842:1845   */\n      0x00\n        /* \"#utility.yul\":1861:1881   */\n      tag_52\n        /* \"#utility.yul\":1879:1880   */\n      dup3\n        /* \"#utility.yul\":1861:1881   */\n      tag_23\n      jump\t// in\n    tag_52:\n        /* \"#utility.yul\":1856:1881   */\n      swap2\n      pop\n        /* \"#utility.yul\":1895:1915   */\n      tag_53\n        /* \"#utility.yul\":1913:1914   */\n      dup4\n        /* \"#utility.yul\":1895:1915   */\n      tag_23\n      jump\t// in\n    tag_53:\n        /* \"#utility.yul\":1890:1915   */\n      swap3\n      pop\n        /* \"#utility.yul\":1938:1939   */\n      dup3\n        /* \"#utility.yul\":1935:1936   */\n      dup3\n        /* \"#utility.yul\":1931:1940   */\n      add\n        /* \"#utility.yul\":1924:1940   */\n      swap1\n      pop\n        /* \"#utility.yul\":1959:1962   */\n      dup1\n        /* \"#utility.yul\":1956:1957   */\n      dup3\n        /* \"#utility.yul\":1953:1963   */\n      gt\n        /* \"#utility.yul\":1950:1986   */\n      iszero\n      tag_54\n      jumpi\n        /* \"#utility.yul\":1966:1984   */\n      tag_55\n      tag_27\n      jump\t// in\n    tag_55:\n        /* \"#utility.yul\":1950:1986   */\n    tag_54:\n        /* \"#utility.yul\":1802:1993   */\n      swap3\n      swap2\n      pop\n      pop\n      jump\t// out\n\n    auxdata: 0xa264697066735822122087a537b86f55291fad85aca953c2fa17415fbbcdd2c94b163b2f0c1dbb8ce18c64736f6c63430008160033\n}\n",
				"bytecode": {
					"linkReferences": {},
					"object": "60806040526040518060400160405280602081526020017f42757920796f75722076657279206669727374204576656e74205469636b6574815250600690816100489190610312565b50348015610054575f80fd5b506040516107653803806107658339818101604052810190610076919061040f565b806001819055504260038190555062093a80426100939190610467565b6004819055506018603c806003546004546100ae919061049a565b6100b891906104fa565b6100c291906104fa565b6100cc91906104fa565b6005819055505061052a565b5f81519050919050565b7f4e487b71000000000000000000000000000000000000000000000000000000005f52604160045260245ffd5b7f4e487b71000000000000000000000000000000000000000000000000000000005f52602260045260245ffd5b5f600282049050600182168061015357607f821691505b6020821081036101665761016561010f565b5b50919050565b5f819050815f5260205f209050919050565b5f6020601f8301049050919050565b5f82821b905092915050565b5f600883026101c87fffffffffffffffffffffffffffffffffffffffffffffffffffffffffffffffff8261018d565b6101d2868361018d565b95508019841693508086168417925050509392505050565b5f819050919050565b5f819050919050565b5f61021661021161020c846101ea565b6101f3565b6101ea565b9050919050565b5f819050919050565b61022f836101fc565b61024361023b8261021d565b848454610199565b825550505050565b5f90565b61025761024b565b610262818484610226565b505050565b5b818110156102855761027a5f8261024f565b600181019050610268565b5050565b601f8211156102ca5761029b8161016c565b6102a48461017e565b810160208510156102b3578190505b6102c76102bf8561017e565b830182610267565b50505b505050565b5f82821c905092915050565b5f6102ea5f19846008026102cf565b1980831691505092915050565b5f61030283836102db565b9150826002028217905092915050565b61031b826100d8565b67ffffffffffffffff811115610334576103336100e2565b5b61033e825461013c565b610349828285610289565b5f60209050601f83116001811461037a575f8415610368578287015190505b61037285826102f7565b8655506103d9565b601f1984166103888661016c565b5f5b828110156103af5784890151825560018201915060208501945060208101905061038a565b868310156103cc57848901516103c8601f8916826102db565b8355505b6001600288020188555050505b505050505050565b5f80fd5b6103ee816101ea565b81146103f8575f80fd5b50565b5f81519050610409816103e5565b92915050565b5f60208284031215610424576104236103e1565b5b5f610431848285016103fb565b91505092915050565b7f4e487b71000000000000000000000000000000000000000000000000000000005f52601160045260245ffd5b5f610471826101ea565b915061047c836101ea565b92508282019050808211156104945761049361043a565b5b92915050565b5f6104a4826101ea565b91506104af836101ea565b92508282039050818111156104c7576104c661043a565b5b92915050565b7f4e487b71000000000000000000000000000000000000000000000000000000005f52601260045260245ffd5b5f610504826101ea565b915061050f836101ea565b92508261051f5761051e6104cd565b5b828204905092915050565b61022e806105375f395ff3fe608060405234801561000f575f80fd5b5060043610610034575f3560e01c806367dd74ca14610038578063d321fe2914610068575b5f80fd5b610052600480360381019061004d91906100fe565b610086565b60405161005f9190610138565b60405180910390f35b6100706100be565b60405161007d9190610138565b60405180910390f35b5f805f8154809291906100989061017e565b91905055508160025f8282546100ae91906101c5565b925050819055505f549050919050565b5f600254905090565b5f80fd5b5f819050919050565b6100dd816100cb565b81146100e7575f80fd5b50565b5f813590506100f8816100d4565b92915050565b5f60208284031215610113576101126100c7565b5b5f610120848285016100ea565b91505092915050565b610132816100cb565b82525050565b5f60208201905061014b5f830184610129565b92915050565b7f4e487b71000000000000000000000000000000000000000000000000000000005f52601160045260245ffd5b5f610188826100cb565b91507fffffffffffffffffffffffffffffffffffffffffffffffffffffffffffffffff82036101ba576101b9610151565b5b600182019050919050565b5f6101cf826100cb565b91506101da836100cb565b92508282019050808211156101f2576101f1610151565b5b9291505056fea264697066735822122087a537b86f55291fad85aca953c2fa17415fbbcdd2c94b163b2f0c1dbb8ce18c64736f6c63430008160033",
					"opcodes": "PUSH1 0x80 PUSH1 0x40 MSTORE PUSH1 0x40 MLOAD DUP1 PUSH1 0x40 ADD PUSH1 0x40 MSTORE DUP1 PUSH1 0x20 DUP2 MSTORE PUSH1 0x20 ADD PUSH32 0x42757920796F75722076657279206669727374204576656E74205469636B6574 DUP2 MSTORE POP PUSH1 0x6 SWAP1 DUP2 PUSH2 0x48 SWAP2 SWAP1 PUSH2 0x312 JUMP JUMPDEST POP CALLVALUE DUP1 ISZERO PUSH2 0x54 JUMPI PUSH0 DUP1 REVERT JUMPDEST POP PUSH1 0x40 MLOAD PUSH2 0x765 CODESIZE SUB DUP1 PUSH2 0x765 DUP4 CODECOPY DUP2 DUP2 ADD PUSH1 0x40 MSTORE DUP2 ADD SWAP1 PUSH2 0x76 SWAP2 SWAP1 PUSH2 0x40F JUMP JUMPDEST DUP1 PUSH1 0x1 DUP2 SWAP1 SSTORE POP TIMESTAMP PUSH1 0x3 DUP2 SWAP1 SSTORE POP PUSH3 0x93A80 TIMESTAMP PUSH2 0x93 SWAP2 SWAP1 PUSH2 0x467 JUMP JUMPDEST PUSH1 0x4 DUP2 SWAP1 SSTORE POP PUSH1 0x18 PUSH1 0x3C DUP1 PUSH1 0x3 SLOAD PUSH1 0x4 SLOAD PUSH2 0xAE SWAP2 SWAP1 PUSH2 0x49A JUMP JUMPDEST PUSH2 0xB8 SWAP2 SWAP1 PUSH2 0x4FA JUMP JUMPDEST PUSH2 0xC2 SWAP2 SWAP1 PUSH2 0x4FA JUMP JUMPDEST PUSH2 0xCC SWAP2 SWAP1 PUSH2 0x4FA JUMP JUMPDEST PUSH1 0x5 DUP2 SWAP1 SSTORE POP POP PUSH2 0x52A JUMP JUMPDEST PUSH0 DUP2 MLOAD SWAP1 POP SWAP2 SWAP1 POP JUMP JUMPDEST PUSH32 0x4E487B7100000000000000000000000000000000000000000000000000000000 PUSH0 MSTORE PUSH1 0x41 PUSH1 0x4 MSTORE PUSH1 0x24 PUSH0 REVERT JUMPDEST PUSH32 0x4E487B7100000000000000000000000000000000000000000000000000000000 PUSH0 MSTORE PUSH1 0x22 PUSH1 0x4 MSTORE PUSH1 0x24 PUSH0 REVERT JUMPDEST PUSH0 PUSH1 0x2 DUP3 DIV SWAP1 POP PUSH1 0x1 DUP3 AND DUP1 PUSH2 0x153 JUMPI PUSH1 0x7F DUP3 AND SWAP2 POP JUMPDEST PUSH1 0x20 DUP3 LT DUP2 SUB PUSH2 0x166 JUMPI PUSH2 0x165 PUSH2 0x10F JUMP JUMPDEST JUMPDEST POP SWAP2 SWAP1 POP JUMP JUMPDEST PUSH0 DUP2 SWAP1 POP DUP2 PUSH0 MSTORE PUSH1 0x20 PUSH0 KECCAK256 SWAP1 POP SWAP2 SWAP1 POP JUMP JUMPDEST PUSH0 PUSH1 0x20 PUSH1 0x1F DUP4 ADD DIV SWAP1 POP SWAP2 SWAP1 POP JUMP JUMPDEST PUSH0 DUP3 DUP3 SHL SWAP1 POP SWAP3 SWAP2 POP POP JUMP JUMPDEST PUSH0 PUSH1 0x8 DUP4 MUL PUSH2 0x1C8 PUSH32 0xFFFFFFFFFFFFFFFFFFFFFFFFFFFFFFFFFFFFFFFFFFFFFFFFFFFFFFFFFFFFFFFF DUP3 PUSH2 0x18D JUMP JUMPDEST PUSH2 0x1D2 DUP7 DUP4 PUSH2 0x18D JUMP JUMPDEST SWAP6 POP DUP1 NOT DUP5 AND SWAP4 POP DUP1 DUP7 AND DUP5 OR SWAP3 POP POP POP SWAP4 SWAP3 POP POP POP JUMP JUMPDEST PUSH0 DUP2 SWAP1 POP SWAP2 SWAP1 POP JUMP JUMPDEST PUSH0 DUP2 SWAP1 POP SWAP2 SWAP1 POP JUMP JUMPDEST PUSH0 PUSH2 0x216 PUSH2 0x211 PUSH2 0x20C DUP5 PUSH2 0x1EA JUMP JUMPDEST PUSH2 0x1F3 JUMP JUMPDEST PUSH2 0x1EA JUMP JUMPDEST SWAP1 POP SWAP2 SWAP1 POP JUMP JUMPDEST PUSH0 DUP2 SWAP1 POP SWAP2 SWAP1 POP JUMP JUMPDEST PUSH2 0x22F DUP4 PUSH2 0x1FC JUMP JUMPDEST PUSH2 0x243 PUSH2 0x23B DUP3 PUSH2 0x21D JUMP JUMPDEST DUP5 DUP5 SLOAD PUSH2 0x199 JUMP JUMPDEST DUP3 SSTORE POP POP POP POP JUMP JUMPDEST PUSH0 SWAP1 JUMP JUMPDEST PUSH2 0x257 PUSH2 0x24B JUMP JUMPDEST PUSH2 0x262 DUP2 DUP5 DUP5 PUSH2 0x226 JUMP JUMPDEST POP POP POP JUMP JUMPDEST JUMPDEST DUP2 DUP2 LT ISZERO PUSH2 0x285 JUMPI PUSH2 0x27A PUSH0 DUP3 PUSH2 0x24F JUMP JUMPDEST PUSH1 0x1 DUP2 ADD SWAP1 POP PUSH2 0x268 JUMP JUMPDEST POP POP JUMP JUMPDEST PUSH1 0x1F DUP3 GT ISZERO PUSH2 0x2CA JUMPI PUSH2 0x29B DUP2 PUSH2 0x16C JUMP JUMPDEST PUSH2 0x2A4 DUP5 PUSH2 0x17E JUMP JUMPDEST DUP2 ADD PUSH1 0x20 DUP6 LT ISZERO PUSH2 0x2B3 JUMPI DUP2 SWAP1 POP JUMPDEST PUSH2 0x2C7 PUSH2 0x2BF DUP6 PUSH2 0x17E JUMP JUMPDEST DUP4 ADD DUP3 PUSH2 0x267 JUMP JUMPDEST POP POP JUMPDEST POP POP POP JUMP JUMPDEST PUSH0 DUP3 DUP3 SHR SWAP1 POP SWAP3 SWAP2 POP POP JUMP JUMPDEST PUSH0 PUSH2 0x2EA PUSH0 NOT DUP5 PUSH1 0x8 MUL PUSH2 0x2CF JUMP JUMPDEST NOT DUP1 DUP4 AND SWAP2 POP POP SWAP3 SWAP2 POP POP JUMP JUMPDEST PUSH0 PUSH2 0x302 DUP4 DUP4 PUSH2 0x2DB JUMP JUMPDEST SWAP2 POP DUP3 PUSH1 0x2 MUL DUP3 OR SWAP1 POP SWAP3 SWAP2 POP POP JUMP JUMPDEST PUSH2 0x31B DUP3 PUSH2 0xD8 JUMP JUMPDEST PUSH8 0xFFFFFFFFFFFFFFFF DUP2 GT ISZERO PUSH2 0x334 JUMPI PUSH2 0x333 PUSH2 0xE2 JUMP JUMPDEST JUMPDEST PUSH2 0x33E DUP3 SLOAD PUSH2 0x13C JUMP JUMPDEST PUSH2 0x349 DUP3 DUP3 DUP6 PUSH2 0x289 JUMP JUMPDEST PUSH0 PUSH1 0x20 SWAP1 POP PUSH1 0x1F DUP4 GT PUSH1 0x1 DUP2 EQ PUSH2 0x37A JUMPI PUSH0 DUP5 ISZERO PUSH2 0x368 JUMPI DUP3 DUP8 ADD MLOAD SWAP1 POP JUMPDEST PUSH2 0x372 DUP6 DUP3 PUSH2 0x2F7 JUMP JUMPDEST DUP7 SSTORE POP PUSH2 0x3D9 JUMP JUMPDEST PUSH1 0x1F NOT DUP5 AND PUSH2 0x388 DUP7 PUSH2 0x16C JUMP JUMPDEST PUSH0 JUMPDEST DUP3 DUP2 LT ISZERO PUSH2 0x3AF JUMPI DUP5 DUP10 ADD MLOAD DUP3 SSTORE PUSH1 0x1 DUP3 ADD SWAP2 POP PUSH1 0x20 DUP6 ADD SWAP5 POP PUSH1 0x20 DUP2 ADD SWAP1 POP PUSH2 0x38A JUMP JUMPDEST DUP7 DUP4 LT ISZERO PUSH2 0x3CC JUMPI DUP5 DUP10 ADD MLOAD PUSH2 0x3C8 PUSH1 0x1F DUP10 AND DUP3 PUSH2 0x2DB JUMP JUMPDEST DUP4 SSTORE POP JUMPDEST PUSH1 0x1 PUSH1 0x2 DUP9 MUL ADD DUP9 SSTORE POP POP POP JUMPDEST POP POP POP POP POP POP JUMP JUMPDEST PUSH0 DUP1 REVERT JUMPDEST PUSH2 0x3EE DUP2 PUSH2 0x1EA JUMP JUMPDEST DUP2 EQ PUSH2 0x3F8 JUMPI PUSH0 DUP1 REVERT JUMPDEST POP JUMP JUMPDEST PUSH0 DUP2 MLOAD SWAP1 POP PUSH2 0x409 DUP2 PUSH2 0x3E5 JUMP JUMPDEST SWAP3 SWAP2 POP POP JUMP JUMPDEST PUSH0 PUSH1 0x20 DUP3 DUP5 SUB SLT ISZERO PUSH2 0x424 JUMPI PUSH2 0x423 PUSH2 0x3E1 JUMP JUMPDEST JUMPDEST PUSH0 PUSH2 0x431 DUP5 DUP3 DUP6 ADD PUSH2 0x3FB JUMP JUMPDEST SWAP2 POP POP SWAP3 SWAP2 POP POP JUMP JUMPDEST PUSH32 0x4E487B7100000000000000000000000000000000000000000000000000000000 PUSH0 MSTORE PUSH1 0x11 PUSH1 0x4 MSTORE PUSH1 0x24 PUSH0 REVERT JUMPDEST PUSH0 PUSH2 0x471 DUP3 PUSH2 0x1EA JUMP JUMPDEST SWAP2 POP PUSH2 0x47C DUP4 PUSH2 0x1EA JUMP JUMPDEST SWAP3 POP DUP3 DUP3 ADD SWAP1 POP DUP1 DUP3 GT ISZERO PUSH2 0x494 JUMPI PUSH2 0x493 PUSH2 0x43A JUMP JUMPDEST JUMPDEST SWAP3 SWAP2 POP POP JUMP JUMPDEST PUSH0 PUSH2 0x4A4 DUP3 PUSH2 0x1EA JUMP JUMPDEST SWAP2 POP PUSH2 0x4AF DUP4 PUSH2 0x1EA JUMP JUMPDEST SWAP3 POP DUP3 DUP3 SUB SWAP1 POP DUP2 DUP2 GT ISZERO PUSH2 0x4C7 JUMPI PUSH2 0x4C6 PUSH2 0x43A JUMP JUMPDEST JUMPDEST SWAP3 SWAP2 POP POP JUMP JUMPDEST PUSH32 0x4E487B7100000000000000000000000000000000000000000000000000000000 PUSH0 MSTORE PUSH1 0x12 PUSH1 0x4 MSTORE PUSH1 0x24 PUSH0 REVERT JUMPDEST PUSH0 PUSH2 0x504 DUP3 PUSH2 0x1EA JUMP JUMPDEST SWAP2 POP PUSH2 0x50F DUP4 PUSH2 0x1EA JUMP JUMPDEST SWAP3 POP DUP3 PUSH2 0x51F JUMPI PUSH2 0x51E PUSH2 0x4CD JUMP JUMPDEST JUMPDEST DUP3 DUP3 DIV SWAP1 POP SWAP3 SWAP2 POP POP JUMP JUMPDEST PUSH2 0x22E DUP1 PUSH2 0x537 PUSH0 CODECOPY PUSH0 RETURN INVALID PUSH1 0x80 PUSH1 0x40 MSTORE CALLVALUE DUP1 ISZERO PUSH2 0xF JUMPI PUSH0 DUP1 REVERT JUMPDEST POP PUSH1 0x4 CALLDATASIZE LT PUSH2 0x34 JUMPI PUSH0 CALLDATALOAD PUSH1 0xE0 SHR DUP1 PUSH4 0x67DD74CA EQ PUSH2 0x38 JUMPI DUP1 PUSH4 0xD321FE29 EQ PUSH2 0x68 JUMPI JUMPDEST PUSH0 DUP1 REVERT JUMPDEST PUSH2 0x52 PUSH1 0x4 DUP1 CALLDATASIZE SUB DUP2 ADD SWAP1 PUSH2 0x4D SWAP2 SWAP1 PUSH2 0xFE JUMP JUMPDEST PUSH2 0x86 JUMP JUMPDEST PUSH1 0x40 MLOAD PUSH2 0x5F SWAP2 SWAP1 PUSH2 0x138 JUMP JUMPDEST PUSH1 0x40 MLOAD DUP1 SWAP2 SUB SWAP1 RETURN JUMPDEST PUSH2 0x70 PUSH2 0xBE JUMP JUMPDEST PUSH1 0x40 MLOAD PUSH2 0x7D SWAP2 SWAP1 PUSH2 0x138 JUMP JUMPDEST PUSH1 0x40 MLOAD DUP1 SWAP2 SUB SWAP1 RETURN JUMPDEST PUSH0 DUP1 PUSH0 DUP2 SLOAD DUP1 SWAP3 SWAP2 SWAP1 PUSH2 0x98 SWAP1 PUSH2 0x17E JUMP JUMPDEST SWAP2 SWAP1 POP SSTORE POP DUP2 PUSH1 0x2 PUSH0 DUP3 DUP3 SLOAD PUSH2 0xAE SWAP2 SWAP1 PUSH2 0x1C5 JUMP JUMPDEST SWAP3 POP POP DUP2 SWAP1 SSTORE POP PUSH0 SLOAD SWAP1 POP SWAP2 SWAP1 POP JUMP JUMPDEST PUSH0 PUSH1 0x2 SLOAD SWAP1 POP SWAP1 JUMP JUMPDEST PUSH0 DUP1 REVERT JUMPDEST PUSH0 DUP2 SWAP1 POP SWAP2 SWAP1 POP JUMP JUMPDEST PUSH2 0xDD DUP2 PUSH2 0xCB JUMP JUMPDEST DUP2 EQ PUSH2 0xE7 JUMPI PUSH0 DUP1 REVERT JUMPDEST POP JUMP JUMPDEST PUSH0 DUP2 CALLDATALOAD SWAP1 POP PUSH2 0xF8 DUP2 PUSH2 0xD4 JUMP JUMPDEST SWAP3 SWAP2 POP POP JUMP JUMPDEST PUSH0 PUSH1 0x20 DUP3 DUP5 SUB SLT ISZERO PUSH2 0x113 JUMPI PUSH2 0x112 PUSH2 0xC7 JUMP JUMPDEST JUMPDEST PUSH0 PUSH2 0x120 DUP5 DUP3 DUP6 ADD PUSH2 0xEA JUMP JUMPDEST SWAP2 POP POP SWAP3 SWAP2 POP POP JUMP JUMPDEST PUSH2 0x132 DUP2 PUSH2 0xCB JUMP JUMPDEST DUP3 MSTORE POP POP JUMP JUMPDEST PUSH0 PUSH1 0x20 DUP3 ADD SWAP1 POP PUSH2 0x14B PUSH0 DUP4 ADD DUP5 PUSH2 0x129 JUMP JUMPDEST SWAP3 SWAP2 POP POP JUMP JUMPDEST PUSH32 0x4E487B7100000000000000000000000000000000000000000000000000000000 PUSH0 MSTORE PUSH1 0x11 PUSH1 0x4 MSTORE PUSH1 0x24 PUSH0 REVERT JUMPDEST PUSH0 PUSH2 0x188 DUP3 PUSH2 0xCB JUMP JUMPDEST SWAP2 POP PUSH32 0xFFFFFFFFFFFFFFFFFFFFFFFFFFFFFFFFFFFFFFFFFFFFFFFFFFFFFFFFFFFFFFFF DUP3 SUB PUSH2 0x1BA JUMPI PUSH2 0x1B9 PUSH2 0x151 JUMP JUMPDEST JUMPDEST PUSH1 0x1 DUP3 ADD SWAP1 POP SWAP2 SWAP1 POP JUMP JUMPDEST PUSH0 PUSH2 0x1CF DUP3 PUSH2 0xCB JUMP JUMPDEST SWAP2 POP PUSH2 0x1DA DUP4 PUSH2 0xCB JUMP JUMPDEST SWAP3 POP DUP3 DUP3 ADD SWAP1 POP DUP1 DUP3 GT ISZERO PUSH2 0x1F2 JUMPI PUSH2 0x1F1 PUSH2 0x151 JUMP JUMPDEST JUMPDEST SWAP3 SWAP2 POP POP JUMP INVALID LOG2 PUSH5 0x6970667358 0x22 SLT KECCAK256 DUP8 0xA5 CALLDATACOPY 0xB8 PUSH16 0x55291FAD85ACA953C2FA17415FBBCDD2 0xC9 0x4B AND EXTCODESIZE 0x2F 0xC SAR 0xBB DUP13 0xE1 DUP13 PUSH5 0x736F6C6343 STOP ADDMOD AND STOP CALLER "
				},
				"gasEstimates": {
					"creation": {
						"codeDepositCost": "111600",
						"executionCost": "infinite",
						"totalCost": "infinite"
					},
					"external": {
						"buyTicket(uint256)": "infinite",
						"getAmount()": "2432"
					}
				},
				"methodIdentifiers": {
					"buyTicket(uint256)": "67dd74ca",
					"getAmount()": "d321fe29"
				}
			},
			"storageLayout": {
				"storage": [
					{
						"astId": 3,
						"contract": "10-event-ticket.sol:EventTicket",
						"label": "numberOfTicket",
						"offset": 0,
						"slot": "0",
						"type": "t_uint256"
					},
					{
						"astId": 5,
						"contract": "10-event-ticket.sol:EventTicket",
						"label": "ticketPrice",
						"offset": 0,
						"slot": "1",
						"type": "t_uint256"
					},
					{
						"astId": 7,
						"contract": "10-event-ticket.sol:EventTicket",
						"label": "totalAmount",
						"offset": 0,
						"slot": "2",
						"type": "t_uint256"
					},
					{
						"astId": 9,
						"contract": "10-event-ticket.sol:EventTicket",
						"label": "startsAt",
						"offset": 0,
						"slot": "3",
						"type": "t_uint256"
					},
					{
						"astId": 11,
						"contract": "10-event-ticket.sol:EventTicket",
						"label": "endsAt",
						"offset": 0,
						"slot": "4",
						"type": "t_uint256"
					},
					{
						"astId": 13,
						"contract": "10-event-ticket.sol:EventTicket",
						"label": "timeRange",
						"offset": 0,
						"slot": "5",
						"type": "t_uint256"
					},
					{
						"astId": 16,
						"contract": "10-event-ticket.sol:EventTicket",
						"label": "message",
						"offset": 0,
						"slot": "6",
						"type": "t_string_storage"
					}
				],
				"types": {
					"t_string_storage": {
						"encoding": "bytes",
						"label": "string",
						"numberOfBytes": "32"
					},
					"t_uint256": {
						"encoding": "inplace",
						"label": "uint256",
						"numberOfBytes": "32"
					}
				}
			},
			"userdoc": {
				"kind": "user",
				"methods": {},
				"version": 1
			}
		}
	}
}