{
	"11-if-else-statment.sol": {
		"if_Else": {
			"abi": [
				{
					"inputs": [
						{
							"internalType": "uint256",
							"name": "_num",
							"type": "uint256"
						}
					],
					"name": "ifElse",
					"outputs": [
						{
							"internalType": "string",
							"name": "",
							"type": "string"
						}
					],
					"stateMutability": "nonpayable",
					"type": "function"
				},
				{
					"inputs": [],
					"name": "myNum",
					"outputs": [
						{
							"internalType": "uint256",
							"name": "",
							"type": "uint256"
						}
					],
					"stateMutability": "view",
					"type": "function"
				},
				{
					"inputs": [],
					"name": "myString",
					"outputs": [
						{
							"internalType": "string",
							"name": "",
							"type": "string"
						}
					],
					"stateMutability": "view",
					"type": "function"
				},
				{
					"inputs": [
						{
							"internalType": "uint256",
							"name": "_num",
							"type": "uint256"
						}
					],
					"name": "ternaryOperators",
					"outputs": [
						{
							"internalType": "string",
							"name": "",
							"type": "string"
						}
					],
					"stateMutability": "nonpayable",
					"type": "function"
				}
			],
			"devdoc": {
				"kind": "dev",
				"methods": {},
				"version": 1
			},
			"evm": {
				"assembly": "    /* \"11-if-else-statment.sol\":82:606  contract if_Else {... */\n  mstore(0x40, 0x80)\n    /* \"11-if-else-statment.sol\":151:152  5 */\n  0x05\n    /* \"11-if-else-statment.sol\":128:152  uint256 public myNum = 5 */\n  0x00\n  sstore\n    /* \"11-if-else-statment.sol\":82:606  contract if_Else {... */\n  callvalue\n  dup1\n  iszero\n  tag_1\n  jumpi\n  0x00\n  dup1\n  revert\ntag_1:\n  pop\n  dataSize(sub_0)\n  dup1\n  dataOffset(sub_0)\n  0x00\n  codecopy\n  0x00\n  return\nstop\n\nsub_0: assembly {\n        /* \"11-if-else-statment.sol\":82:606  contract if_Else {... */\n      mstore(0x40, 0x80)\n      callvalue\n      dup1\n      iszero\n      tag_1\n      jumpi\n      0x00\n      dup1\n      revert\n    tag_1:\n      pop\n      jumpi(tag_2, lt(calldatasize, 0x04))\n      shr(0xe0, calldataload(0x00))\n      dup1\n      0x492bfa18\n      eq\n      tag_3\n      jumpi\n      dup1\n      0x950b9954\n      eq\n      tag_4\n      jumpi\n      dup1\n      0xc1ef19a5\n      eq\n      tag_5\n      jumpi\n      dup1\n      0xd4da005a\n      eq\n      tag_6\n      jumpi\n    tag_2:\n      0x00\n      dup1\n      revert\n        /* \"11-if-else-statment.sol\":158:180  string public myString */\n    tag_3:\n      tag_7\n      tag_8\n      jump\t// in\n    tag_7:\n      mload(0x40)\n      tag_9\n      swap2\n      swap1\n      tag_10\n      jump\t// in\n    tag_9:\n      mload(0x40)\n      dup1\n      swap2\n      sub\n      swap1\n      return\n        /* \"11-if-else-statment.sol\":187:412  function ifElse(uint256 _num) public returns (string memory) {... */\n    tag_4:\n      tag_11\n      0x04\n      dup1\n      calldatasize\n      sub\n      dup2\n      add\n      swap1\n      tag_12\n      swap2\n      swap1\n      tag_13\n      jump\t// in\n    tag_12:\n      tag_14\n      jump\t// in\n    tag_11:\n      mload(0x40)\n      tag_15\n      swap2\n      swap1\n      tag_10\n      jump\t// in\n    tag_15:\n      mload(0x40)\n      dup1\n      swap2\n      sub\n      swap1\n      return\n        /* \"11-if-else-statment.sol\":418:603  function ternaryOperators(uint256 _num) public returns (string memory) {... */\n    tag_5:\n      tag_16\n      0x04\n      dup1\n      calldatasize\n      sub\n      dup2\n      add\n      swap1\n      tag_17\n      swap2\n      swap1\n      tag_13\n      jump\t// in\n    tag_17:\n      tag_18\n      jump\t// in\n    tag_16:\n      mload(0x40)\n      tag_19\n      swap2\n      swap1\n      tag_10\n      jump\t// in\n    tag_19:\n      mload(0x40)\n      dup1\n      swap2\n      sub\n      swap1\n      return\n        /* \"11-if-else-statment.sol\":128:152  uint256 public myNum = 5 */\n    tag_6:\n      tag_20\n      tag_21\n      jump\t// in\n    tag_20:\n      mload(0x40)\n      tag_22\n      swap2\n      swap1\n      tag_23\n      jump\t// in\n    tag_22:\n      mload(0x40)\n      dup1\n      swap2\n      sub\n      swap1\n      return\n        /* \"11-if-else-statment.sol\":158:180  string public myString */\n    tag_8:\n      0x01\n      dup1\n      sload\n      tag_24\n      swap1\n      tag_25\n      jump\t// in\n    tag_24:\n      dup1\n      0x1f\n      add\n      0x20\n      dup1\n      swap2\n      div\n      mul\n      0x20\n      add\n      mload(0x40)\n      swap1\n      dup2\n      add\n      0x40\n      mstore\n      dup1\n      swap3\n      swap2\n      swap1\n      dup2\n      dup2\n      mstore\n      0x20\n      add\n      dup3\n      dup1\n      sload\n      tag_26\n      swap1\n      tag_25\n      jump\t// in\n    tag_26:\n      dup1\n      iszero\n      tag_27\n      jumpi\n      dup1\n      0x1f\n      lt\n      tag_28\n      jumpi\n      0x0100\n      dup1\n      dup4\n      sload\n      div\n      mul\n      dup4\n      mstore\n      swap2\n      0x20\n      add\n      swap2\n      jump(tag_27)\n    tag_28:\n      dup3\n      add\n      swap2\n      swap1\n      0x00\n      mstore\n      keccak256(0x00, 0x20)\n      swap1\n    tag_29:\n      dup2\n      sload\n      dup2\n      mstore\n      swap1\n      0x01\n      add\n      swap1\n      0x20\n      add\n      dup1\n      dup4\n      gt\n      tag_29\n      jumpi\n      dup3\n      swap1\n      sub\n      0x1f\n      and\n      dup3\n      add\n      swap2\n    tag_27:\n      pop\n      pop\n      pop\n      pop\n      pop\n      dup2\n      jump\t// out\n        /* \"11-if-else-statment.sol\":187:412  function ifElse(uint256 _num) public returns (string memory) {... */\n    tag_14:\n        /* \"11-if-else-statment.sol\":233:246  string memory */\n      0x60\n        /* \"11-if-else-statment.sol\":269:270  5 */\n      0x05\n        /* \"11-if-else-statment.sol\":261:265  _num */\n      dup3\n        /* \"11-if-else-statment.sol\":261:270  _num == 5 */\n      sub\n        /* \"11-if-else-statment.sol\":258:380  if(_num == 5) {... */\n      tag_31\n      jumpi\n        /* \"11-if-else-statment.sol\":286:310  myString = \"Number is 5\" */\n      mload(0x40)\n      dup1\n      0x40\n      add\n      0x40\n      mstore\n      dup1\n      0x0b\n      dup2\n      mstore\n      0x20\n      add\n      0x4e756d6265722069732035000000000000000000000000000000000000000000\n      dup2\n      mstore\n      pop\n        /* \"11-if-else-statment.sol\":286:294  myString */\n      0x01\n        /* \"11-if-else-statment.sol\":286:310  myString = \"Number is 5\" */\n      swap1\n      dup2\n      tag_32\n      swap2\n      swap1\n      tag_33\n      jump\t// in\n    tag_32:\n      pop\n        /* \"11-if-else-statment.sol\":258:380  if(_num == 5) {... */\n      jump(tag_34)\n    tag_31:\n        /* \"11-if-else-statment.sol\":341:369  myString = \"Number is not 5\" */\n      mload(0x40)\n      dup1\n      0x40\n      add\n      0x40\n      mstore\n      dup1\n      0x0f\n      dup2\n      mstore\n      0x20\n      add\n      0x4e756d626572206973206e6f7420350000000000000000000000000000000000\n      dup2\n      mstore\n      pop\n        /* \"11-if-else-statment.sol\":341:349  myString */\n      0x01\n        /* \"11-if-else-statment.sol\":341:369  myString = \"Number is not 5\" */\n      swap1\n      dup2\n      tag_35\n      swap2\n      swap1\n      tag_33\n      jump\t// in\n    tag_35:\n      pop\n        /* \"11-if-else-statment.sol\":258:380  if(_num == 5) {... */\n    tag_34:\n        /* \"11-if-else-statment.sol\":397:405  myString */\n      0x01\n        /* \"11-if-else-statment.sol\":390:405  return myString */\n      dup1\n      sload\n      tag_36\n      swap1\n      tag_25\n      jump\t// in\n    tag_36:\n      dup1\n      0x1f\n      add\n      0x20\n      dup1\n      swap2\n      div\n      mul\n      0x20\n      add\n      mload(0x40)\n      swap1\n      dup2\n      add\n      0x40\n      mstore\n      dup1\n      swap3\n      swap2\n      swap1\n      dup2\n      dup2\n      mstore\n      0x20\n      add\n      dup3\n      dup1\n      sload\n      tag_37\n      swap1\n      tag_25\n      jump\t// in\n    tag_37:\n      dup1\n      iszero\n      tag_38\n      jumpi\n      dup1\n      0x1f\n      lt\n      tag_39\n      jumpi\n      0x0100\n      dup1\n      dup4\n      sload\n      div\n      mul\n      dup4\n      mstore\n      swap2\n      0x20\n      add\n      swap2\n      jump(tag_38)\n    tag_39:\n      dup3\n      add\n      swap2\n      swap1\n      0x00\n      mstore\n      keccak256(0x00, 0x20)\n      swap1\n    tag_40:\n      dup2\n      sload\n      dup2\n      mstore\n      swap1\n      0x01\n      add\n      swap1\n      0x20\n      add\n      dup1\n      dup4\n      gt\n      tag_40\n      jumpi\n      dup3\n      swap1\n      sub\n      0x1f\n      and\n      dup3\n      add\n      swap2\n    tag_38:\n      pop\n      pop\n      pop\n      pop\n      pop\n      swap1\n      pop\n        /* \"11-if-else-statment.sol\":187:412  function ifElse(uint256 _num) public returns (string memory) {... */\n      swap2\n      swap1\n      pop\n      jump\t// out\n        /* \"11-if-else-statment.sol\":418:603  function ternaryOperators(uint256 _num) public returns (string memory) {... */\n    tag_18:\n        /* \"11-if-else-statment.sol\":474:487  string memory */\n      0x60\n        /* \"11-if-else-statment.sol\":507:508  5 */\n      0x05\n        /* \"11-if-else-statment.sol\":499:503  _num */\n      dup3\n        /* \"11-if-else-statment.sol\":499:508  _num == 5 */\n      eq\n        /* \"11-if-else-statment.sol\":499:568  _num == 5 ? myString = \"I'm number 5\" : myString = \"I'm not number 5\" */\n      tag_42\n      jumpi\n        /* \"11-if-else-statment.sol\":539:568  myString = \"I'm not number 5\" */\n      mload(0x40)\n      dup1\n      0x40\n      add\n      0x40\n      mstore\n      dup1\n      0x10\n      dup2\n      mstore\n      0x20\n      add\n      0x49276d206e6f74206e756d626572203500000000000000000000000000000000\n      dup2\n      mstore\n      pop\n        /* \"11-if-else-statment.sol\":539:547  myString */\n      0x01\n        /* \"11-if-else-statment.sol\":539:568  myString = \"I'm not number 5\" */\n      swap1\n      dup2\n      tag_43\n      swap2\n      swap1\n      tag_33\n      jump\t// in\n    tag_43:\n        /* \"11-if-else-statment.sol\":499:568  _num == 5 ? myString = \"I'm number 5\" : myString = \"I'm not number 5\" */\n      jump(tag_44)\n    tag_42:\n        /* \"11-if-else-statment.sol\":511:536  myString = \"I'm number 5\" */\n      mload(0x40)\n      dup1\n      0x40\n      add\n      0x40\n      mstore\n      dup1\n      0x0c\n      dup2\n      mstore\n      0x20\n      add\n      0x49276d206e756d62657220350000000000000000000000000000000000000000\n      dup2\n      mstore\n      pop\n        /* \"11-if-else-statment.sol\":511:519  myString */\n      0x01\n        /* \"11-if-else-statment.sol\":511:536  myString = \"I'm number 5\" */\n      swap1\n      dup2\n      tag_45\n      swap2\n      swap1\n      tag_33\n      jump\t// in\n    tag_45:\n        /* \"11-if-else-statment.sol\":499:568  _num == 5 ? myString = \"I'm number 5\" : myString = \"I'm not number 5\" */\n    tag_44:\n      pop\n        /* \"11-if-else-statment.sol\":586:594  myString */\n      0x01\n        /* \"11-if-else-statment.sol\":579:594  return myString */\n      dup1\n      sload\n      tag_46\n      swap1\n      tag_25\n      jump\t// in\n    tag_46:\n      dup1\n      0x1f\n      add\n      0x20\n      dup1\n      swap2\n      div\n      mul\n      0x20\n      add\n      mload(0x40)\n      swap1\n      dup2\n      add\n      0x40\n      mstore\n      dup1\n      swap3\n      swap2\n      swap1\n      dup2\n      dup2\n      mstore\n      0x20\n      add\n      dup3\n      dup1\n      sload\n      tag_47\n      swap1\n      tag_25\n      jump\t// in\n    tag_47:\n      dup1\n      iszero\n      tag_48\n      jumpi\n      dup1\n      0x1f\n      lt\n      tag_49\n      jumpi\n      0x0100\n      dup1\n      dup4\n      sload\n      div\n      mul\n      dup4\n      mstore\n      swap2\n      0x20\n      add\n      swap2\n      jump(tag_48)\n    tag_49:\n      dup3\n      add\n      swap2\n      swap1\n      0x00\n      mstore\n      keccak256(0x00, 0x20)\n      swap1\n    tag_50:\n      dup2\n      sload\n      dup2\n      mstore\n      swap1\n      0x01\n      add\n      swap1\n      0x20\n      add\n      dup1\n      dup4\n      gt\n      tag_50\n      jumpi\n      dup3\n      swap1\n      sub\n      0x1f\n      and\n      dup3\n      add\n      swap2\n    tag_48:\n      pop\n      pop\n      pop\n      pop\n      pop\n      swap1\n      pop\n        /* \"11-if-else-statment.sol\":418:603  function ternaryOperators(uint256 _num) public returns (string memory) {... */\n      swap2\n      swap1\n      pop\n      jump\t// out\n        /* \"11-if-else-statment.sol\":128:152  uint256 public myNum = 5 */\n    tag_21:\n      sload(0x00)\n      dup2\n      jump\t// out\n        /* \"#utility.yul\":7:106   */\n    tag_51:\n        /* \"#utility.yul\":59:65   */\n      0x00\n        /* \"#utility.yul\":93:98   */\n      dup2\n        /* \"#utility.yul\":87:99   */\n      mload\n        /* \"#utility.yul\":77:99   */\n      swap1\n      pop\n        /* \"#utility.yul\":7:106   */\n      swap2\n      swap1\n      pop\n      jump\t// out\n        /* \"#utility.yul\":112:281   */\n    tag_52:\n        /* \"#utility.yul\":196:207   */\n      0x00\n        /* \"#utility.yul\":230:236   */\n      dup3\n        /* \"#utility.yul\":225:228   */\n      dup3\n        /* \"#utility.yul\":218:237   */\n      mstore\n        /* \"#utility.yul\":270:274   */\n      0x20\n        /* \"#utility.yul\":265:268   */\n      dup3\n        /* \"#utility.yul\":261:275   */\n      add\n        /* \"#utility.yul\":246:275   */\n      swap1\n      pop\n        /* \"#utility.yul\":112:281   */\n      swap3\n      swap2\n      pop\n      pop\n      jump\t// out\n        /* \"#utility.yul\":287:533   */\n    tag_53:\n        /* \"#utility.yul\":368:369   */\n      0x00\n        /* \"#utility.yul\":378:491   */\n    tag_84:\n        /* \"#utility.yul\":392:398   */\n      dup4\n        /* \"#utility.yul\":389:390   */\n      dup2\n        /* \"#utility.yul\":386:399   */\n      lt\n        /* \"#utility.yul\":378:491   */\n      iszero\n      tag_86\n      jumpi\n        /* \"#utility.yul\":477:478   */\n      dup1\n        /* \"#utility.yul\":472:475   */\n      dup3\n        /* \"#utility.yul\":468:479   */\n      add\n        /* \"#utility.yul\":462:480   */\n      mload\n        /* \"#utility.yul\":458:459   */\n      dup2\n        /* \"#utility.yul\":453:456   */\n      dup5\n        /* \"#utility.yul\":449:460   */\n      add\n        /* \"#utility.yul\":442:481   */\n      mstore\n        /* \"#utility.yul\":414:416   */\n      0x20\n        /* \"#utility.yul\":411:412   */\n      dup2\n        /* \"#utility.yul\":407:417   */\n      add\n        /* \"#utility.yul\":402:417   */\n      swap1\n      pop\n        /* \"#utility.yul\":378:491   */\n      jump(tag_84)\n    tag_86:\n        /* \"#utility.yul\":525:526   */\n      0x00\n        /* \"#utility.yul\":516:522   */\n      dup5\n        /* \"#utility.yul\":511:514   */\n      dup5\n        /* \"#utility.yul\":507:523   */\n      add\n        /* \"#utility.yul\":500:527   */\n      mstore\n        /* \"#utility.yul\":349:533   */\n      pop\n        /* \"#utility.yul\":287:533   */\n      pop\n      pop\n      pop\n      jump\t// out\n        /* \"#utility.yul\":539:641   */\n    tag_54:\n        /* \"#utility.yul\":580:586   */\n      0x00\n        /* \"#utility.yul\":631:633   */\n      0x1f\n        /* \"#utility.yul\":627:634   */\n      not\n        /* \"#utility.yul\":622:624   */\n      0x1f\n        /* \"#utility.yul\":615:620   */\n      dup4\n        /* \"#utility.yul\":611:625   */\n      add\n        /* \"#utility.yul\":607:635   */\n      and\n        /* \"#utility.yul\":597:635   */\n      swap1\n      pop\n        /* \"#utility.yul\":539:641   */\n      swap2\n      swap1\n      pop\n      jump\t// out\n        /* \"#utility.yul\":647:1024   */\n    tag_55:\n        /* \"#utility.yul\":735:738   */\n      0x00\n        /* \"#utility.yul\":763:802   */\n      tag_89\n        /* \"#utility.yul\":796:801   */\n      dup3\n        /* \"#utility.yul\":763:802   */\n      tag_51\n      jump\t// in\n    tag_89:\n        /* \"#utility.yul\":818:889   */\n      tag_90\n        /* \"#utility.yul\":882:888   */\n      dup2\n        /* \"#utility.yul\":877:880   */\n      dup6\n        /* \"#utility.yul\":818:889   */\n      tag_52\n      jump\t// in\n    tag_90:\n        /* \"#utility.yul\":811:889   */\n      swap4\n      pop\n        /* \"#utility.yul\":898:963   */\n      tag_91\n        /* \"#utility.yul\":956:962   */\n      dup2\n        /* \"#utility.yul\":951:954   */\n      dup6\n        /* \"#utility.yul\":944:948   */\n      0x20\n        /* \"#utility.yul\":937:942   */\n      dup7\n        /* \"#utility.yul\":933:949   */\n      add\n        /* \"#utility.yul\":898:963   */\n      tag_53\n      jump\t// in\n    tag_91:\n        /* \"#utility.yul\":988:1017   */\n      tag_92\n        /* \"#utility.yul\":1010:1016   */\n      dup2\n        /* \"#utility.yul\":988:1017   */\n      tag_54\n      jump\t// in\n    tag_92:\n        /* \"#utility.yul\":983:986   */\n      dup5\n        /* \"#utility.yul\":979:1018   */\n      add\n        /* \"#utility.yul\":972:1018   */\n      swap2\n      pop\n        /* \"#utility.yul\":739:1024   */\n      pop\n        /* \"#utility.yul\":647:1024   */\n      swap3\n      swap2\n      pop\n      pop\n      jump\t// out\n        /* \"#utility.yul\":1030:1343   */\n    tag_10:\n        /* \"#utility.yul\":1143:1147   */\n      0x00\n        /* \"#utility.yul\":1181:1183   */\n      0x20\n        /* \"#utility.yul\":1170:1179   */\n      dup3\n        /* \"#utility.yul\":1166:1184   */\n      add\n        /* \"#utility.yul\":1158:1184   */\n      swap1\n      pop\n        /* \"#utility.yul\":1230:1239   */\n      dup2\n        /* \"#utility.yul\":1224:1228   */\n      dup2\n        /* \"#utility.yul\":1220:1240   */\n      sub\n        /* \"#utility.yul\":1216:1217   */\n      0x00\n        /* \"#utility.yul\":1205:1214   */\n      dup4\n        /* \"#utility.yul\":1201:1218   */\n      add\n        /* \"#utility.yul\":1194:1241   */\n      mstore\n        /* \"#utility.yul\":1258:1336   */\n      tag_94\n        /* \"#utility.yul\":1331:1335   */\n      dup2\n        /* \"#utility.yul\":1322:1328   */\n      dup5\n        /* \"#utility.yul\":1258:1336   */\n      tag_55\n      jump\t// in\n    tag_94:\n        /* \"#utility.yul\":1250:1336   */\n      swap1\n      pop\n        /* \"#utility.yul\":1030:1343   */\n      swap3\n      swap2\n      pop\n      pop\n      jump\t// out\n        /* \"#utility.yul\":1430:1547   */\n    tag_57:\n        /* \"#utility.yul\":1539:1540   */\n      0x00\n        /* \"#utility.yul\":1536:1537   */\n      dup1\n        /* \"#utility.yul\":1529:1541   */\n      revert\n        /* \"#utility.yul\":1676:1753   */\n    tag_59:\n        /* \"#utility.yul\":1713:1720   */\n      0x00\n        /* \"#utility.yul\":1742:1747   */\n      dup2\n        /* \"#utility.yul\":1731:1747   */\n      swap1\n      pop\n        /* \"#utility.yul\":1676:1753   */\n      swap2\n      swap1\n      pop\n      jump\t// out\n        /* \"#utility.yul\":1759:1881   */\n    tag_60:\n        /* \"#utility.yul\":1832:1856   */\n      tag_100\n        /* \"#utility.yul\":1850:1855   */\n      dup2\n        /* \"#utility.yul\":1832:1856   */\n      tag_59\n      jump\t// in\n    tag_100:\n        /* \"#utility.yul\":1825:1830   */\n      dup2\n        /* \"#utility.yul\":1822:1857   */\n      eq\n        /* \"#utility.yul\":1812:1875   */\n      tag_101\n      jumpi\n        /* \"#utility.yul\":1871:1872   */\n      0x00\n        /* \"#utility.yul\":1868:1869   */\n      dup1\n        /* \"#utility.yul\":1861:1873   */\n      revert\n        /* \"#utility.yul\":1812:1875   */\n    tag_101:\n        /* \"#utility.yul\":1759:1881   */\n      pop\n      jump\t// out\n        /* \"#utility.yul\":1887:2026   */\n    tag_61:\n        /* \"#utility.yul\":1933:1938   */\n      0x00\n        /* \"#utility.yul\":1971:1977   */\n      dup2\n        /* \"#utility.yul\":1958:1978   */\n      calldataload\n        /* \"#utility.yul\":1949:1978   */\n      swap1\n      pop\n        /* \"#utility.yul\":1987:2020   */\n      tag_103\n        /* \"#utility.yul\":2014:2019   */\n      dup2\n        /* \"#utility.yul\":1987:2020   */\n      tag_60\n      jump\t// in\n    tag_103:\n        /* \"#utility.yul\":1887:2026   */\n      swap3\n      swap2\n      pop\n      pop\n      jump\t// out\n        /* \"#utility.yul\":2032:2361   */\n    tag_13:\n        /* \"#utility.yul\":2091:2097   */\n      0x00\n        /* \"#utility.yul\":2140:2142   */\n      0x20\n        /* \"#utility.yul\":2128:2137   */\n      dup3\n        /* \"#utility.yul\":2119:2126   */\n      dup5\n        /* \"#utility.yul\":2115:2138   */\n      sub\n        /* \"#utility.yul\":2111:2143   */\n      slt\n        /* \"#utility.yul\":2108:2227   */\n      iszero\n      tag_105\n      jumpi\n        /* \"#utility.yul\":2146:2225   */\n      tag_106\n      tag_57\n      jump\t// in\n    tag_106:\n        /* \"#utility.yul\":2108:2227   */\n    tag_105:\n        /* \"#utility.yul\":2266:2267   */\n      0x00\n        /* \"#utility.yul\":2291:2344   */\n      tag_107\n        /* \"#utility.yul\":2336:2343   */\n      dup5\n        /* \"#utility.yul\":2327:2333   */\n      dup3\n        /* \"#utility.yul\":2316:2325   */\n      dup6\n        /* \"#utility.yul\":2312:2334   */\n      add\n        /* \"#utility.yul\":2291:2344   */\n      tag_61\n      jump\t// in\n    tag_107:\n        /* \"#utility.yul\":2281:2344   */\n      swap2\n      pop\n        /* \"#utility.yul\":2237:2354   */\n      pop\n        /* \"#utility.yul\":2032:2361   */\n      swap3\n      swap2\n      pop\n      pop\n      jump\t// out\n        /* \"#utility.yul\":2367:2485   */\n    tag_62:\n        /* \"#utility.yul\":2454:2478   */\n      tag_109\n        /* \"#utility.yul\":2472:2477   */\n      dup2\n        /* \"#utility.yul\":2454:2478   */\n      tag_59\n      jump\t// in\n    tag_109:\n        /* \"#utility.yul\":2449:2452   */\n      dup3\n        /* \"#utility.yul\":2442:2479   */\n      mstore\n        /* \"#utility.yul\":2367:2485   */\n      pop\n      pop\n      jump\t// out\n        /* \"#utility.yul\":2491:2713   */\n    tag_23:\n        /* \"#utility.yul\":2584:2588   */\n      0x00\n        /* \"#utility.yul\":2622:2624   */\n      0x20\n        /* \"#utility.yul\":2611:2620   */\n      dup3\n        /* \"#utility.yul\":2607:2625   */\n      add\n        /* \"#utility.yul\":2599:2625   */\n      swap1\n      pop\n        /* \"#utility.yul\":2635:2706   */\n      tag_111\n        /* \"#utility.yul\":2703:2704   */\n      0x00\n        /* \"#utility.yul\":2692:2701   */\n      dup4\n        /* \"#utility.yul\":2688:2705   */\n      add\n        /* \"#utility.yul\":2679:2685   */\n      dup5\n        /* \"#utility.yul\":2635:2706   */\n      tag_62\n      jump\t// in\n    tag_111:\n        /* \"#utility.yul\":2491:2713   */\n      swap3\n      swap2\n      pop\n      pop\n      jump\t// out\n        /* \"#utility.yul\":2719:2899   */\n    tag_63:\n        /* \"#utility.yul\":2767:2844   */\n      0x4e487b7100000000000000000000000000000000000000000000000000000000\n        /* \"#utility.yul\":2764:2765   */\n      0x00\n        /* \"#utility.yul\":2757:2845   */\n      mstore\n        /* \"#utility.yul\":2864:2868   */\n      0x22\n        /* \"#utility.yul\":2861:2862   */\n      0x04\n        /* \"#utility.yul\":2854:2869   */\n      mstore\n        /* \"#utility.yul\":2888:2892   */\n      0x24\n        /* \"#utility.yul\":2885:2886   */\n      0x00\n        /* \"#utility.yul\":2878:2893   */\n      revert\n        /* \"#utility.yul\":2905:3225   */\n    tag_25:\n        /* \"#utility.yul\":2949:2955   */\n      0x00\n        /* \"#utility.yul\":2986:2987   */\n      0x02\n        /* \"#utility.yul\":2980:2984   */\n      dup3\n        /* \"#utility.yul\":2976:2988   */\n      div\n        /* \"#utility.yul\":2966:2988   */\n      swap1\n      pop\n        /* \"#utility.yul\":3033:3034   */\n      0x01\n        /* \"#utility.yul\":3027:3031   */\n      dup3\n        /* \"#utility.yul\":3023:3035   */\n      and\n        /* \"#utility.yul\":3054:3072   */\n      dup1\n        /* \"#utility.yul\":3044:3125   */\n      tag_114\n      jumpi\n        /* \"#utility.yul\":3110:3114   */\n      0x7f\n        /* \"#utility.yul\":3102:3108   */\n      dup3\n        /* \"#utility.yul\":3098:3115   */\n      and\n        /* \"#utility.yul\":3088:3115   */\n      swap2\n      pop\n        /* \"#utility.yul\":3044:3125   */\n    tag_114:\n        /* \"#utility.yul\":3172:3174   */\n      0x20\n        /* \"#utility.yul\":3164:3170   */\n      dup3\n        /* \"#utility.yul\":3161:3175   */\n      lt\n        /* \"#utility.yul\":3141:3159   */\n      dup2\n        /* \"#utility.yul\":3138:3176   */\n      sub\n        /* \"#utility.yul\":3135:3219   */\n      tag_115\n      jumpi\n        /* \"#utility.yul\":3191:3209   */\n      tag_116\n      tag_63\n      jump\t// in\n    tag_116:\n        /* \"#utility.yul\":3135:3219   */\n    tag_115:\n        /* \"#utility.yul\":2956:3225   */\n      pop\n        /* \"#utility.yul\":2905:3225   */\n      swap2\n      swap1\n      pop\n      jump\t// out\n        /* \"#utility.yul\":3231:3411   */\n    tag_64:\n        /* \"#utility.yul\":3279:3356   */\n      0x4e487b7100000000000000000000000000000000000000000000000000000000\n        /* \"#utility.yul\":3276:3277   */\n      0x00\n        /* \"#utility.yul\":3269:3357   */\n      mstore\n        /* \"#utility.yul\":3376:3380   */\n      0x41\n        /* \"#utility.yul\":3373:3374   */\n      0x04\n        /* \"#utility.yul\":3366:3381   */\n      mstore\n        /* \"#utility.yul\":3400:3404   */\n      0x24\n        /* \"#utility.yul\":3397:3398   */\n      0x00\n        /* \"#utility.yul\":3390:3405   */\n      revert\n        /* \"#utility.yul\":3417:3558   */\n    tag_65:\n        /* \"#utility.yul\":3466:3470   */\n      0x00\n        /* \"#utility.yul\":3489:3492   */\n      dup2\n        /* \"#utility.yul\":3481:3492   */\n      swap1\n      pop\n        /* \"#utility.yul\":3512:3515   */\n      dup2\n        /* \"#utility.yul\":3509:3510   */\n      0x00\n        /* \"#utility.yul\":3502:3516   */\n      mstore\n        /* \"#utility.yul\":3546:3550   */\n      0x20\n        /* \"#utility.yul\":3543:3544   */\n      0x00\n        /* \"#utility.yul\":3533:3551   */\n      keccak256\n        /* \"#utility.yul\":3525:3551   */\n      swap1\n      pop\n        /* \"#utility.yul\":3417:3558   */\n      swap2\n      swap1\n      pop\n      jump\t// out\n        /* \"#utility.yul\":3564:3657   */\n    tag_66:\n        /* \"#utility.yul\":3601:3607   */\n      0x00\n        /* \"#utility.yul\":3648:3650   */\n      0x20\n        /* \"#utility.yul\":3643:3645   */\n      0x1f\n        /* \"#utility.yul\":3636:3641   */\n      dup4\n        /* \"#utility.yul\":3632:3646   */\n      add\n        /* \"#utility.yul\":3628:3651   */\n      div\n        /* \"#utility.yul\":3618:3651   */\n      swap1\n      pop\n        /* \"#utility.yul\":3564:3657   */\n      swap2\n      swap1\n      pop\n      jump\t// out\n        /* \"#utility.yul\":3663:3770   */\n    tag_67:\n        /* \"#utility.yul\":3707:3715   */\n      0x00\n        /* \"#utility.yul\":3757:3762   */\n      dup3\n        /* \"#utility.yul\":3751:3755   */\n      dup3\n        /* \"#utility.yul\":3747:3763   */\n      shl\n        /* \"#utility.yul\":3726:3763   */\n      swap1\n      pop\n        /* \"#utility.yul\":3663:3770   */\n      swap3\n      swap2\n      pop\n      pop\n      jump\t// out\n        /* \"#utility.yul\":3776:4169   */\n    tag_68:\n        /* \"#utility.yul\":3845:3851   */\n      0x00\n        /* \"#utility.yul\":3895:3896   */\n      0x08\n        /* \"#utility.yul\":3883:3893   */\n      dup4\n        /* \"#utility.yul\":3879:3897   */\n      mul\n        /* \"#utility.yul\":3918:4015   */\n      tag_122\n        /* \"#utility.yul\":3948:4014   */\n      0xffffffffffffffffffffffffffffffffffffffffffffffffffffffffffffffff\n        /* \"#utility.yul\":3937:3946   */\n      dup3\n        /* \"#utility.yul\":3918:4015   */\n      tag_67\n      jump\t// in\n    tag_122:\n        /* \"#utility.yul\":4036:4075   */\n      tag_123\n        /* \"#utility.yul\":4066:4074   */\n      dup7\n        /* \"#utility.yul\":4055:4064   */\n      dup4\n        /* \"#utility.yul\":4036:4075   */\n      tag_67\n      jump\t// in\n    tag_123:\n        /* \"#utility.yul\":4024:4075   */\n      swap6\n      pop\n        /* \"#utility.yul\":4108:4112   */\n      dup1\n        /* \"#utility.yul\":4104:4113   */\n      not\n        /* \"#utility.yul\":4097:4102   */\n      dup5\n        /* \"#utility.yul\":4093:4114   */\n      and\n        /* \"#utility.yul\":4084:4114   */\n      swap4\n      pop\n        /* \"#utility.yul\":4157:4161   */\n      dup1\n        /* \"#utility.yul\":4147:4155   */\n      dup7\n        /* \"#utility.yul\":4143:4162   */\n      and\n        /* \"#utility.yul\":4136:4141   */\n      dup5\n        /* \"#utility.yul\":4133:4163   */\n      or\n        /* \"#utility.yul\":4123:4163   */\n      swap3\n      pop\n        /* \"#utility.yul\":3852:4169   */\n      pop\n      pop\n        /* \"#utility.yul\":3776:4169   */\n      swap4\n      swap3\n      pop\n      pop\n      pop\n      jump\t// out\n        /* \"#utility.yul\":4175:4235   */\n    tag_69:\n        /* \"#utility.yul\":4203:4206   */\n      0x00\n        /* \"#utility.yul\":4224:4229   */\n      dup2\n        /* \"#utility.yul\":4217:4229   */\n      swap1\n      pop\n        /* \"#utility.yul\":4175:4235   */\n      swap2\n      swap1\n      pop\n      jump\t// out\n        /* \"#utility.yul\":4241:4383   */\n    tag_70:\n        /* \"#utility.yul\":4291:4300   */\n      0x00\n        /* \"#utility.yul\":4324:4377   */\n      tag_126\n        /* \"#utility.yul\":4342:4376   */\n      tag_127\n        /* \"#utility.yul\":4351:4375   */\n      tag_128\n        /* \"#utility.yul\":4369:4374   */\n      dup5\n        /* \"#utility.yul\":4351:4375   */\n      tag_59\n      jump\t// in\n    tag_128:\n        /* \"#utility.yul\":4342:4376   */\n      tag_69\n      jump\t// in\n    tag_127:\n        /* \"#utility.yul\":4324:4377   */\n      tag_59\n      jump\t// in\n    tag_126:\n        /* \"#utility.yul\":4311:4377   */\n      swap1\n      pop\n        /* \"#utility.yul\":4241:4383   */\n      swap2\n      swap1\n      pop\n      jump\t// out\n        /* \"#utility.yul\":4389:4464   */\n    tag_71:\n        /* \"#utility.yul\":4432:4435   */\n      0x00\n        /* \"#utility.yul\":4453:4458   */\n      dup2\n        /* \"#utility.yul\":4446:4458   */\n      swap1\n      pop\n        /* \"#utility.yul\":4389:4464   */\n      swap2\n      swap1\n      pop\n      jump\t// out\n        /* \"#utility.yul\":4470:4739   */\n    tag_72:\n        /* \"#utility.yul\":4580:4619   */\n      tag_131\n        /* \"#utility.yul\":4611:4618   */\n      dup4\n        /* \"#utility.yul\":4580:4619   */\n      tag_70\n      jump\t// in\n    tag_131:\n        /* \"#utility.yul\":4641:4732   */\n      tag_132\n        /* \"#utility.yul\":4690:4731   */\n      tag_133\n        /* \"#utility.yul\":4714:4730   */\n      dup3\n        /* \"#utility.yul\":4690:4731   */\n      tag_71\n      jump\t// in\n    tag_133:\n        /* \"#utility.yul\":4682:4688   */\n      dup5\n        /* \"#utility.yul\":4675:4679   */\n      dup5\n        /* \"#utility.yul\":4669:4680   */\n      sload\n        /* \"#utility.yul\":4641:4732   */\n      tag_68\n      jump\t// in\n    tag_132:\n        /* \"#utility.yul\":4635:4639   */\n      dup3\n        /* \"#utility.yul\":4628:4733   */\n      sstore\n        /* \"#utility.yul\":4546:4739   */\n      pop\n        /* \"#utility.yul\":4470:4739   */\n      pop\n      pop\n      pop\n      jump\t// out\n        /* \"#utility.yul\":4745:4818   */\n    tag_73:\n        /* \"#utility.yul\":4790:4793   */\n      0x00\n        /* \"#utility.yul\":4745:4818   */\n      swap1\n      jump\t// out\n        /* \"#utility.yul\":4824:5013   */\n    tag_74:\n        /* \"#utility.yul\":4901:4933   */\n      tag_136\n      tag_73\n      jump\t// in\n    tag_136:\n        /* \"#utility.yul\":4942:5007   */\n      tag_137\n        /* \"#utility.yul\":5000:5006   */\n      dup2\n        /* \"#utility.yul\":4992:4998   */\n      dup5\n        /* \"#utility.yul\":4986:4990   */\n      dup5\n        /* \"#utility.yul\":4942:5007   */\n      tag_72\n      jump\t// in\n    tag_137:\n        /* \"#utility.yul\":4877:5013   */\n      pop\n        /* \"#utility.yul\":4824:5013   */\n      pop\n      pop\n      jump\t// out\n        /* \"#utility.yul\":5019:5205   */\n    tag_75:\n        /* \"#utility.yul\":5079:5199   */\n    tag_139:\n        /* \"#utility.yul\":5096:5099   */\n      dup2\n        /* \"#utility.yul\":5089:5094   */\n      dup2\n        /* \"#utility.yul\":5086:5100   */\n      lt\n        /* \"#utility.yul\":5079:5199   */\n      iszero\n      tag_141\n      jumpi\n        /* \"#utility.yul\":5150:5189   */\n      tag_142\n        /* \"#utility.yul\":5187:5188   */\n      0x00\n        /* \"#utility.yul\":5180:5185   */\n      dup3\n        /* \"#utility.yul\":5150:5189   */\n      tag_74\n      jump\t// in\n    tag_142:\n        /* \"#utility.yul\":5123:5124   */\n      0x01\n        /* \"#utility.yul\":5116:5121   */\n      dup2\n        /* \"#utility.yul\":5112:5125   */\n      add\n        /* \"#utility.yul\":5103:5125   */\n      swap1\n      pop\n        /* \"#utility.yul\":5079:5199   */\n      jump(tag_139)\n    tag_141:\n        /* \"#utility.yul\":5019:5205   */\n      pop\n      pop\n      jump\t// out\n        /* \"#utility.yul\":5211:5754   */\n    tag_76:\n        /* \"#utility.yul\":5312:5314   */\n      0x1f\n        /* \"#utility.yul\":5307:5310   */\n      dup3\n        /* \"#utility.yul\":5304:5315   */\n      gt\n        /* \"#utility.yul\":5301:5747   */\n      iszero\n      tag_144\n      jumpi\n        /* \"#utility.yul\":5346:5384   */\n      tag_145\n        /* \"#utility.yul\":5378:5383   */\n      dup2\n        /* \"#utility.yul\":5346:5384   */\n      tag_65\n      jump\t// in\n    tag_145:\n        /* \"#utility.yul\":5430:5459   */\n      tag_146\n        /* \"#utility.yul\":5448:5458   */\n      dup5\n        /* \"#utility.yul\":5430:5459   */\n      tag_66\n      jump\t// in\n    tag_146:\n        /* \"#utility.yul\":5420:5428   */\n      dup2\n        /* \"#utility.yul\":5416:5460   */\n      add\n        /* \"#utility.yul\":5613:5615   */\n      0x20\n        /* \"#utility.yul\":5601:5611   */\n      dup6\n        /* \"#utility.yul\":5598:5616   */\n      lt\n        /* \"#utility.yul\":5595:5644   */\n      iszero\n      tag_147\n      jumpi\n        /* \"#utility.yul\":5634:5642   */\n      dup2\n        /* \"#utility.yul\":5619:5642   */\n      swap1\n      pop\n        /* \"#utility.yul\":5595:5644   */\n    tag_147:\n        /* \"#utility.yul\":5657:5737   */\n      tag_148\n        /* \"#utility.yul\":5713:5735   */\n      tag_149\n        /* \"#utility.yul\":5731:5734   */\n      dup6\n        /* \"#utility.yul\":5713:5735   */\n      tag_66\n      jump\t// in\n    tag_149:\n        /* \"#utility.yul\":5703:5711   */\n      dup4\n        /* \"#utility.yul\":5699:5736   */\n      add\n        /* \"#utility.yul\":5686:5697   */\n      dup3\n        /* \"#utility.yul\":5657:5737   */\n      tag_75\n      jump\t// in\n    tag_148:\n        /* \"#utility.yul\":5316:5747   */\n      pop\n      pop\n        /* \"#utility.yul\":5301:5747   */\n    tag_144:\n        /* \"#utility.yul\":5211:5754   */\n      pop\n      pop\n      pop\n      jump\t// out\n        /* \"#utility.yul\":5760:5877   */\n    tag_77:\n        /* \"#utility.yul\":5814:5822   */\n      0x00\n        /* \"#utility.yul\":5864:5869   */\n      dup3\n        /* \"#utility.yul\":5858:5862   */\n      dup3\n        /* \"#utility.yul\":5854:5870   */\n      shr\n        /* \"#utility.yul\":5833:5870   */\n      swap1\n      pop\n        /* \"#utility.yul\":5760:5877   */\n      swap3\n      swap2\n      pop\n      pop\n      jump\t// out\n        /* \"#utility.yul\":5883:6052   */\n    tag_78:\n        /* \"#utility.yul\":5927:5933   */\n      0x00\n        /* \"#utility.yul\":5960:6011   */\n      tag_152\n        /* \"#utility.yul\":6008:6009   */\n      0x00\n        /* \"#utility.yul\":6004:6010   */\n      not\n        /* \"#utility.yul\":5996:6001   */\n      dup5\n        /* \"#utility.yul\":5993:5994   */\n      0x08\n        /* \"#utility.yul\":5989:6002   */\n      mul\n        /* \"#utility.yul\":5960:6011   */\n      tag_77\n      jump\t// in\n    tag_152:\n        /* \"#utility.yul\":5956:6012   */\n      not\n        /* \"#utility.yul\":6041:6045   */\n      dup1\n        /* \"#utility.yul\":6035:6039   */\n      dup4\n        /* \"#utility.yul\":6031:6046   */\n      and\n        /* \"#utility.yul\":6021:6046   */\n      swap2\n      pop\n        /* \"#utility.yul\":5934:6052   */\n      pop\n        /* \"#utility.yul\":5883:6052   */\n      swap3\n      swap2\n      pop\n      pop\n      jump\t// out\n        /* \"#utility.yul\":6057:6352   */\n    tag_79:\n        /* \"#utility.yul\":6133:6137   */\n      0x00\n        /* \"#utility.yul\":6279:6308   */\n      tag_154\n        /* \"#utility.yul\":6304:6307   */\n      dup4\n        /* \"#utility.yul\":6298:6302   */\n      dup4\n        /* \"#utility.yul\":6279:6308   */\n      tag_78\n      jump\t// in\n    tag_154:\n        /* \"#utility.yul\":6271:6308   */\n      swap2\n      pop\n        /* \"#utility.yul\":6341:6344   */\n      dup3\n        /* \"#utility.yul\":6338:6339   */\n      0x02\n        /* \"#utility.yul\":6334:6345   */\n      mul\n        /* \"#utility.yul\":6328:6332   */\n      dup3\n        /* \"#utility.yul\":6325:6346   */\n      or\n        /* \"#utility.yul\":6317:6346   */\n      swap1\n      pop\n        /* \"#utility.yul\":6057:6352   */\n      swap3\n      swap2\n      pop\n      pop\n      jump\t// out\n        /* \"#utility.yul\":6357:7752   */\n    tag_33:\n        /* \"#utility.yul\":6474:6511   */\n      tag_156\n        /* \"#utility.yul\":6507:6510   */\n      dup3\n        /* \"#utility.yul\":6474:6511   */\n      tag_51\n      jump\t// in\n    tag_156:\n        /* \"#utility.yul\":6576:6594   */\n      0xffffffffffffffff\n        /* \"#utility.yul\":6568:6574   */\n      dup2\n        /* \"#utility.yul\":6565:6595   */\n      gt\n        /* \"#utility.yul\":6562:6618   */\n      iszero\n      tag_157\n      jumpi\n        /* \"#utility.yul\":6598:6616   */\n      tag_158\n      tag_64\n      jump\t// in\n    tag_158:\n        /* \"#utility.yul\":6562:6618   */\n    tag_157:\n        /* \"#utility.yul\":6642:6680   */\n      tag_159\n        /* \"#utility.yul\":6674:6678   */\n      dup3\n        /* \"#utility.yul\":6668:6679   */\n      sload\n        /* \"#utility.yul\":6642:6680   */\n      tag_25\n      jump\t// in\n    tag_159:\n        /* \"#utility.yul\":6727:6794   */\n      tag_160\n        /* \"#utility.yul\":6787:6793   */\n      dup3\n        /* \"#utility.yul\":6779:6785   */\n      dup3\n        /* \"#utility.yul\":6773:6777   */\n      dup6\n        /* \"#utility.yul\":6727:6794   */\n      tag_76\n      jump\t// in\n    tag_160:\n        /* \"#utility.yul\":6821:6822   */\n      0x00\n        /* \"#utility.yul\":6845:6849   */\n      0x20\n        /* \"#utility.yul\":6832:6849   */\n      swap1\n      pop\n        /* \"#utility.yul\":6877:6879   */\n      0x1f\n        /* \"#utility.yul\":6869:6875   */\n      dup4\n        /* \"#utility.yul\":6866:6880   */\n      gt\n        /* \"#utility.yul\":6894:6895   */\n      0x01\n        /* \"#utility.yul\":6889:7507   */\n      dup2\n      eq\n      tag_162\n      jumpi\n        /* \"#utility.yul\":7551:7552   */\n      0x00\n        /* \"#utility.yul\":7568:7574   */\n      dup5\n        /* \"#utility.yul\":7565:7642   */\n      iszero\n      tag_163\n      jumpi\n        /* \"#utility.yul\":7617:7626   */\n      dup3\n        /* \"#utility.yul\":7612:7615   */\n      dup8\n        /* \"#utility.yul\":7608:7627   */\n      add\n        /* \"#utility.yul\":7602:7628   */\n      mload\n        /* \"#utility.yul\":7593:7628   */\n      swap1\n      pop\n        /* \"#utility.yul\":7565:7642   */\n    tag_163:\n        /* \"#utility.yul\":7668:7735   */\n      tag_164\n        /* \"#utility.yul\":7728:7734   */\n      dup6\n        /* \"#utility.yul\":7721:7726   */\n      dup3\n        /* \"#utility.yul\":7668:7735   */\n      tag_79\n      jump\t// in\n    tag_164:\n        /* \"#utility.yul\":7662:7666   */\n      dup7\n        /* \"#utility.yul\":7655:7736   */\n      sstore\n        /* \"#utility.yul\":7524:7746   */\n      pop\n        /* \"#utility.yul\":6859:7746   */\n      jump(tag_161)\n        /* \"#utility.yul\":6889:7507   */\n    tag_162:\n        /* \"#utility.yul\":6941:6945   */\n      0x1f\n        /* \"#utility.yul\":6937:6946   */\n      not\n        /* \"#utility.yul\":6929:6935   */\n      dup5\n        /* \"#utility.yul\":6925:6947   */\n      and\n        /* \"#utility.yul\":6975:7012   */\n      tag_165\n        /* \"#utility.yul\":7007:7011   */\n      dup7\n        /* \"#utility.yul\":6975:7012   */\n      tag_65\n      jump\t// in\n    tag_165:\n        /* \"#utility.yul\":7034:7035   */\n      0x00\n        /* \"#utility.yul\":7048:7256   */\n    tag_166:\n        /* \"#utility.yul\":7062:7069   */\n      dup3\n        /* \"#utility.yul\":7059:7060   */\n      dup2\n        /* \"#utility.yul\":7056:7070   */\n      lt\n        /* \"#utility.yul\":7048:7256   */\n      iszero\n      tag_168\n      jumpi\n        /* \"#utility.yul\":7141:7150   */\n      dup5\n        /* \"#utility.yul\":7136:7139   */\n      dup10\n        /* \"#utility.yul\":7132:7151   */\n      add\n        /* \"#utility.yul\":7126:7152   */\n      mload\n        /* \"#utility.yul\":7118:7124   */\n      dup3\n        /* \"#utility.yul\":7111:7153   */\n      sstore\n        /* \"#utility.yul\":7192:7193   */\n      0x01\n        /* \"#utility.yul\":7184:7190   */\n      dup3\n        /* \"#utility.yul\":7180:7194   */\n      add\n        /* \"#utility.yul\":7170:7194   */\n      swap2\n      pop\n        /* \"#utility.yul\":7239:7241   */\n      0x20\n        /* \"#utility.yul\":7228:7237   */\n      dup6\n        /* \"#utility.yul\":7224:7242   */\n      add\n        /* \"#utility.yul\":7211:7242   */\n      swap5\n      pop\n        /* \"#utility.yul\":7085:7089   */\n      0x20\n        /* \"#utility.yul\":7082:7083   */\n      dup2\n        /* \"#utility.yul\":7078:7090   */\n      add\n        /* \"#utility.yul\":7073:7090   */\n      swap1\n      pop\n        /* \"#utility.yul\":7048:7256   */\n      jump(tag_166)\n    tag_168:\n        /* \"#utility.yul\":7284:7290   */\n      dup7\n        /* \"#utility.yul\":7275:7282   */\n      dup4\n        /* \"#utility.yul\":7272:7291   */\n      lt\n        /* \"#utility.yul\":7269:7448   */\n      iszero\n      tag_169\n      jumpi\n        /* \"#utility.yul\":7342:7351   */\n      dup5\n        /* \"#utility.yul\":7337:7340   */\n      dup10\n        /* \"#utility.yul\":7333:7352   */\n      add\n        /* \"#utility.yul\":7327:7353   */\n      mload\n        /* \"#utility.yul\":7385:7433   */\n      tag_170\n        /* \"#utility.yul\":7427:7431   */\n      0x1f\n        /* \"#utility.yul\":7419:7425   */\n      dup10\n        /* \"#utility.yul\":7415:7432   */\n      and\n        /* \"#utility.yul\":7404:7413   */\n      dup3\n        /* \"#utility.yul\":7385:7433   */\n      tag_78\n      jump\t// in\n    tag_170:\n        /* \"#utility.yul\":7377:7383   */\n      dup4\n        /* \"#utility.yul\":7370:7434   */\n      sstore\n        /* \"#utility.yul\":7292:7448   */\n      pop\n        /* \"#utility.yul\":7269:7448   */\n    tag_169:\n        /* \"#utility.yul\":7494:7495   */\n      0x01\n        /* \"#utility.yul\":7490:7491   */\n      0x02\n        /* \"#utility.yul\":7482:7488   */\n      dup9\n        /* \"#utility.yul\":7478:7492   */\n      mul\n        /* \"#utility.yul\":7474:7496   */\n      add\n        /* \"#utility.yul\":7468:7472   */\n      dup9\n        /* \"#utility.yul\":7461:7497   */\n      sstore\n        /* \"#utility.yul\":6896:7507   */\n      pop\n      pop\n      pop\n        /* \"#utility.yul\":6859:7746   */\n    tag_161:\n      pop\n        /* \"#utility.yul\":6449:7752   */\n      pop\n      pop\n      pop\n        /* \"#utility.yul\":6357:7752   */\n      pop\n      pop\n      jump\t// out\n\n    auxdata: 0xa26469706673582212209e5aa410911ff07917da9c558e075f86fc559a5d063147d509816a134a41ab3864736f6c63430008160033\n}\n",
				"bytecode": {
					"linkReferences": {},
					"object": "608060405260055f55348015610013575f80fd5b5061082e806100215f395ff3fe608060405234801561000f575f80fd5b506004361061004a575f3560e01c8063492bfa181461004e578063950b99541461006c578063c1ef19a51461009c578063d4da005a146100cc575b5f80fd5b6100566100ea565b6040516100639190610458565b60405180910390f35b610086600480360381019061008191906104af565b610176565b6040516100939190610458565b60405180910390f35b6100b660048036038101906100b191906104af565b6102a0565b6040516100c39190610458565b60405180910390f35b6100d46103c9565b6040516100e191906104e9565b60405180910390f35b600180546100f79061052f565b80601f01602080910402602001604051908101604052809291908181526020018280546101239061052f565b801561016e5780601f106101455761010080835404028352916020019161016e565b820191905f5260205f20905b81548152906001019060200180831161015157829003601f168201915b505050505081565b6060600582036101ca576040518060400160405280600b81526020017f4e756d6265722069732035000000000000000000000000000000000000000000815250600190816101c49190610729565b50610210565b6040518060400160405280600f81526020017f4e756d626572206973206e6f74203500000000000000000000000000000000008152506001908161020e9190610729565b505b6001805461021d9061052f565b80601f01602080910402602001604051908101604052809291908181526020018280546102499061052f565b80156102945780601f1061026b57610100808354040283529160200191610294565b820191905f5260205f20905b81548152906001019060200180831161027757829003601f168201915b50505050509050919050565b6060600582146102f3576040518060400160405280601081526020017f49276d206e6f74206e756d626572203500000000000000000000000000000000815250600190816102ee9190610729565b610338565b6040518060400160405280600c81526020017f49276d206e756d62657220350000000000000000000000000000000000000000815250600190816103379190610729565b5b50600180546103469061052f565b80601f01602080910402602001604051908101604052809291908181526020018280546103729061052f565b80156103bd5780601f10610394576101008083540402835291602001916103bd565b820191905f5260205f20905b8154815290600101906020018083116103a057829003601f168201915b50505050509050919050565b5f5481565b5f81519050919050565b5f82825260208201905092915050565b5f5b838110156104055780820151818401526020810190506103ea565b5f8484015250505050565b5f601f19601f8301169050919050565b5f61042a826103ce565b61043481856103d8565b93506104448185602086016103e8565b61044d81610410565b840191505092915050565b5f6020820190508181035f8301526104708184610420565b905092915050565b5f80fd5b5f819050919050565b61048e8161047c565b8114610498575f80fd5b50565b5f813590506104a981610485565b92915050565b5f602082840312156104c4576104c3610478565b5b5f6104d18482850161049b565b91505092915050565b6104e38161047c565b82525050565b5f6020820190506104fc5f8301846104da565b92915050565b7f4e487b71000000000000000000000000000000000000000000000000000000005f52602260045260245ffd5b5f600282049050600182168061054657607f821691505b60208210810361055957610558610502565b5b50919050565b7f4e487b71000000000000000000000000000000000000000000000000000000005f52604160045260245ffd5b5f819050815f5260205f209050919050565b5f6020601f8301049050919050565b5f82821b905092915050565b5f600883026105e87fffffffffffffffffffffffffffffffffffffffffffffffffffffffffffffffff826105ad565b6105f286836105ad565b95508019841693508086168417925050509392505050565b5f819050919050565b5f61062d6106286106238461047c565b61060a565b61047c565b9050919050565b5f819050919050565b61064683610613565b61065a61065282610634565b8484546105b9565b825550505050565b5f90565b61066e610662565b61067981848461063d565b505050565b5b8181101561069c576106915f82610666565b60018101905061067f565b5050565b601f8211156106e1576106b28161058c565b6106bb8461059e565b810160208510156106ca578190505b6106de6106d68561059e565b83018261067e565b50505b505050565b5f82821c905092915050565b5f6107015f19846008026106e6565b1980831691505092915050565b5f61071983836106f2565b9150826002028217905092915050565b610732826103ce565b67ffffffffffffffff81111561074b5761074a61055f565b5b610755825461052f565b6107608282856106a0565b5f60209050601f831160018114610791575f841561077f578287015190505b610789858261070e565b8655506107f0565b601f19841661079f8661058c565b5f5b828110156107c6578489015182556001820191506020850194506020810190506107a1565b868310156107e357848901516107df601f8916826106f2565b8355505b6001600288020188555050505b50505050505056fea26469706673582212209e5aa410911ff07917da9c558e075f86fc559a5d063147d509816a134a41ab3864736f6c63430008160033",
					"opcodes": "PUSH1 0x80 PUSH1 0x40 MSTORE PUSH1 0x5 PUSH0 SSTORE CALLVALUE DUP1 ISZERO PUSH2 0x13 JUMPI PUSH0 DUP1 REVERT JUMPDEST POP PUSH2 0x82E DUP1 PUSH2 0x21 PUSH0 CODECOPY PUSH0 RETURN INVALID PUSH1 0x80 PUSH1 0x40 MSTORE CALLVALUE DUP1 ISZERO PUSH2 0xF JUMPI PUSH0 DUP1 REVERT JUMPDEST POP PUSH1 0x4 CALLDATASIZE LT PUSH2 0x4A JUMPI PUSH0 CALLDATALOAD PUSH1 0xE0 SHR DUP1 PUSH4 0x492BFA18 EQ PUSH2 0x4E JUMPI DUP1 PUSH4 0x950B9954 EQ PUSH2 0x6C JUMPI DUP1 PUSH4 0xC1EF19A5 EQ PUSH2 0x9C JUMPI DUP1 PUSH4 0xD4DA005A EQ PUSH2 0xCC JUMPI JUMPDEST PUSH0 DUP1 REVERT JUMPDEST PUSH2 0x56 PUSH2 0xEA JUMP JUMPDEST PUSH1 0x40 MLOAD PUSH2 0x63 SWAP2 SWAP1 PUSH2 0x458 JUMP JUMPDEST PUSH1 0x40 MLOAD DUP1 SWAP2 SUB SWAP1 RETURN JUMPDEST PUSH2 0x86 PUSH1 0x4 DUP1 CALLDATASIZE SUB DUP2 ADD SWAP1 PUSH2 0x81 SWAP2 SWAP1 PUSH2 0x4AF JUMP JUMPDEST PUSH2 0x176 JUMP JUMPDEST PUSH1 0x40 MLOAD PUSH2 0x93 SWAP2 SWAP1 PUSH2 0x458 JUMP JUMPDEST PUSH1 0x40 MLOAD DUP1 SWAP2 SUB SWAP1 RETURN JUMPDEST PUSH2 0xB6 PUSH1 0x4 DUP1 CALLDATASIZE SUB DUP2 ADD SWAP1 PUSH2 0xB1 SWAP2 SWAP1 PUSH2 0x4AF JUMP JUMPDEST PUSH2 0x2A0 JUMP JUMPDEST PUSH1 0x40 MLOAD PUSH2 0xC3 SWAP2 SWAP1 PUSH2 0x458 JUMP JUMPDEST PUSH1 0x40 MLOAD DUP1 SWAP2 SUB SWAP1 RETURN JUMPDEST PUSH2 0xD4 PUSH2 0x3C9 JUMP JUMPDEST PUSH1 0x40 MLOAD PUSH2 0xE1 SWAP2 SWAP1 PUSH2 0x4E9 JUMP JUMPDEST PUSH1 0x40 MLOAD DUP1 SWAP2 SUB SWAP1 RETURN JUMPDEST PUSH1 0x1 DUP1 SLOAD PUSH2 0xF7 SWAP1 PUSH2 0x52F JUMP JUMPDEST DUP1 PUSH1 0x1F ADD PUSH1 0x20 DUP1 SWAP2 DIV MUL PUSH1 0x20 ADD PUSH1 0x40 MLOAD SWAP1 DUP2 ADD PUSH1 0x40 MSTORE DUP1 SWAP3 SWAP2 SWAP1 DUP2 DUP2 MSTORE PUSH1 0x20 ADD DUP3 DUP1 SLOAD PUSH2 0x123 SWAP1 PUSH2 0x52F JUMP JUMPDEST DUP1 ISZERO PUSH2 0x16E JUMPI DUP1 PUSH1 0x1F LT PUSH2 0x145 JUMPI PUSH2 0x100 DUP1 DUP4 SLOAD DIV MUL DUP4 MSTORE SWAP2 PUSH1 0x20 ADD SWAP2 PUSH2 0x16E JUMP JUMPDEST DUP3 ADD SWAP2 SWAP1 PUSH0 MSTORE PUSH1 0x20 PUSH0 KECCAK256 SWAP1 JUMPDEST DUP2 SLOAD DUP2 MSTORE SWAP1 PUSH1 0x1 ADD SWAP1 PUSH1 0x20 ADD DUP1 DUP4 GT PUSH2 0x151 JUMPI DUP3 SWAP1 SUB PUSH1 0x1F AND DUP3 ADD SWAP2 JUMPDEST POP POP POP POP POP DUP2 JUMP JUMPDEST PUSH1 0x60 PUSH1 0x5 DUP3 SUB PUSH2 0x1CA JUMPI PUSH1 0x40 MLOAD DUP1 PUSH1 0x40 ADD PUSH1 0x40 MSTORE DUP1 PUSH1 0xB DUP2 MSTORE PUSH1 0x20 ADD PUSH32 0x4E756D6265722069732035000000000000000000000000000000000000000000 DUP2 MSTORE POP PUSH1 0x1 SWAP1 DUP2 PUSH2 0x1C4 SWAP2 SWAP1 PUSH2 0x729 JUMP JUMPDEST POP PUSH2 0x210 JUMP JUMPDEST PUSH1 0x40 MLOAD DUP1 PUSH1 0x40 ADD PUSH1 0x40 MSTORE DUP1 PUSH1 0xF DUP2 MSTORE PUSH1 0x20 ADD PUSH32 0x4E756D626572206973206E6F7420350000000000000000000000000000000000 DUP2 MSTORE POP PUSH1 0x1 SWAP1 DUP2 PUSH2 0x20E SWAP2 SWAP1 PUSH2 0x729 JUMP JUMPDEST POP JUMPDEST PUSH1 0x1 DUP1 SLOAD PUSH2 0x21D SWAP1 PUSH2 0x52F JUMP JUMPDEST DUP1 PUSH1 0x1F ADD PUSH1 0x20 DUP1 SWAP2 DIV MUL PUSH1 0x20 ADD PUSH1 0x40 MLOAD SWAP1 DUP2 ADD PUSH1 0x40 MSTORE DUP1 SWAP3 SWAP2 SWAP1 DUP2 DUP2 MSTORE PUSH1 0x20 ADD DUP3 DUP1 SLOAD PUSH2 0x249 SWAP1 PUSH2 0x52F JUMP JUMPDEST DUP1 ISZERO PUSH2 0x294 JUMPI DUP1 PUSH1 0x1F LT PUSH2 0x26B JUMPI PUSH2 0x100 DUP1 DUP4 SLOAD DIV MUL DUP4 MSTORE SWAP2 PUSH1 0x20 ADD SWAP2 PUSH2 0x294 JUMP JUMPDEST DUP3 ADD SWAP2 SWAP1 PUSH0 MSTORE PUSH1 0x20 PUSH0 KECCAK256 SWAP1 JUMPDEST DUP2 SLOAD DUP2 MSTORE SWAP1 PUSH1 0x1 ADD SWAP1 PUSH1 0x20 ADD DUP1 DUP4 GT PUSH2 0x277 JUMPI DUP3 SWAP1 SUB PUSH1 0x1F AND DUP3 ADD SWAP2 JUMPDEST POP POP POP POP POP SWAP1 POP SWAP2 SWAP1 POP JUMP JUMPDEST PUSH1 0x60 PUSH1 0x5 DUP3 EQ PUSH2 0x2F3 JUMPI PUSH1 0x40 MLOAD DUP1 PUSH1 0x40 ADD PUSH1 0x40 MSTORE DUP1 PUSH1 0x10 DUP2 MSTORE PUSH1 0x20 ADD PUSH32 0x49276D206E6F74206E756D626572203500000000000000000000000000000000 DUP2 MSTORE POP PUSH1 0x1 SWAP1 DUP2 PUSH2 0x2EE SWAP2 SWAP1 PUSH2 0x729 JUMP JUMPDEST PUSH2 0x338 JUMP JUMPDEST PUSH1 0x40 MLOAD DUP1 PUSH1 0x40 ADD PUSH1 0x40 MSTORE DUP1 PUSH1 0xC DUP2 MSTORE PUSH1 0x20 ADD PUSH32 0x49276D206E756D62657220350000000000000000000000000000000000000000 DUP2 MSTORE POP PUSH1 0x1 SWAP1 DUP2 PUSH2 0x337 SWAP2 SWAP1 PUSH2 0x729 JUMP JUMPDEST JUMPDEST POP PUSH1 0x1 DUP1 SLOAD PUSH2 0x346 SWAP1 PUSH2 0x52F JUMP JUMPDEST DUP1 PUSH1 0x1F ADD PUSH1 0x20 DUP1 SWAP2 DIV MUL PUSH1 0x20 ADD PUSH1 0x40 MLOAD SWAP1 DUP2 ADD PUSH1 0x40 MSTORE DUP1 SWAP3 SWAP2 SWAP1 DUP2 DUP2 MSTORE PUSH1 0x20 ADD DUP3 DUP1 SLOAD PUSH2 0x372 SWAP1 PUSH2 0x52F JUMP JUMPDEST DUP1 ISZERO PUSH2 0x3BD JUMPI DUP1 PUSH1 0x1F LT PUSH2 0x394 JUMPI PUSH2 0x100 DUP1 DUP4 SLOAD DIV MUL DUP4 MSTORE SWAP2 PUSH1 0x20 ADD SWAP2 PUSH2 0x3BD JUMP JUMPDEST DUP3 ADD SWAP2 SWAP1 PUSH0 MSTORE PUSH1 0x20 PUSH0 KECCAK256 SWAP1 JUMPDEST DUP2 SLOAD DUP2 MSTORE SWAP1 PUSH1 0x1 ADD SWAP1 PUSH1 0x20 ADD DUP1 DUP4 GT PUSH2 0x3A0 JUMPI DUP3 SWAP1 SUB PUSH1 0x1F AND DUP3 ADD SWAP2 JUMPDEST POP POP POP POP POP SWAP1 POP SWAP2 SWAP1 POP JUMP JUMPDEST PUSH0 SLOAD DUP2 JUMP JUMPDEST PUSH0 DUP2 MLOAD SWAP1 POP SWAP2 SWAP1 POP JUMP JUMPDEST PUSH0 DUP3 DUP3 MSTORE PUSH1 0x20 DUP3 ADD SWAP1 POP SWAP3 SWAP2 POP POP JUMP JUMPDEST PUSH0 JUMPDEST DUP4 DUP2 LT ISZERO PUSH2 0x405 JUMPI DUP1 DUP3 ADD MLOAD DUP2 DUP5 ADD MSTORE PUSH1 0x20 DUP2 ADD SWAP1 POP PUSH2 0x3EA JUMP JUMPDEST PUSH0 DUP5 DUP5 ADD MSTORE POP POP POP POP JUMP JUMPDEST PUSH0 PUSH1 0x1F NOT PUSH1 0x1F DUP4 ADD AND SWAP1 POP SWAP2 SWAP1 POP JUMP JUMPDEST PUSH0 PUSH2 0x42A DUP3 PUSH2 0x3CE JUMP JUMPDEST PUSH2 0x434 DUP2 DUP6 PUSH2 0x3D8 JUMP JUMPDEST SWAP4 POP PUSH2 0x444 DUP2 DUP6 PUSH1 0x20 DUP7 ADD PUSH2 0x3E8 JUMP JUMPDEST PUSH2 0x44D DUP2 PUSH2 0x410 JUMP JUMPDEST DUP5 ADD SWAP2 POP POP SWAP3 SWAP2 POP POP JUMP JUMPDEST PUSH0 PUSH1 0x20 DUP3 ADD SWAP1 POP DUP2 DUP2 SUB PUSH0 DUP4 ADD MSTORE PUSH2 0x470 DUP2 DUP5 PUSH2 0x420 JUMP JUMPDEST SWAP1 POP SWAP3 SWAP2 POP POP JUMP JUMPDEST PUSH0 DUP1 REVERT JUMPDEST PUSH0 DUP2 SWAP1 POP SWAP2 SWAP1 POP JUMP JUMPDEST PUSH2 0x48E DUP2 PUSH2 0x47C JUMP JUMPDEST DUP2 EQ PUSH2 0x498 JUMPI PUSH0 DUP1 REVERT JUMPDEST POP JUMP JUMPDEST PUSH0 DUP2 CALLDATALOAD SWAP1 POP PUSH2 0x4A9 DUP2 PUSH2 0x485 JUMP JUMPDEST SWAP3 SWAP2 POP POP JUMP JUMPDEST PUSH0 PUSH1 0x20 DUP3 DUP5 SUB SLT ISZERO PUSH2 0x4C4 JUMPI PUSH2 0x4C3 PUSH2 0x478 JUMP JUMPDEST JUMPDEST PUSH0 PUSH2 0x4D1 DUP5 DUP3 DUP6 ADD PUSH2 0x49B JUMP JUMPDEST SWAP2 POP POP SWAP3 SWAP2 POP POP JUMP JUMPDEST PUSH2 0x4E3 DUP2 PUSH2 0x47C JUMP JUMPDEST DUP3 MSTORE POP POP JUMP JUMPDEST PUSH0 PUSH1 0x20 DUP3 ADD SWAP1 POP PUSH2 0x4FC PUSH0 DUP4 ADD DUP5 PUSH2 0x4DA JUMP JUMPDEST SWAP3 SWAP2 POP POP JUMP JUMPDEST PUSH32 0x4E487B7100000000000000000000000000000000000000000000000000000000 PUSH0 MSTORE PUSH1 0x22 PUSH1 0x4 MSTORE PUSH1 0x24 PUSH0 REVERT JUMPDEST PUSH0 PUSH1 0x2 DUP3 DIV SWAP1 POP PUSH1 0x1 DUP3 AND DUP1 PUSH2 0x546 JUMPI PUSH1 0x7F DUP3 AND SWAP2 POP JUMPDEST PUSH1 0x20 DUP3 LT DUP2 SUB PUSH2 0x559 JUMPI PUSH2 0x558 PUSH2 0x502 JUMP JUMPDEST JUMPDEST POP SWAP2 SWAP1 POP JUMP JUMPDEST PUSH32 0x4E487B7100000000000000000000000000000000000000000000000000000000 PUSH0 MSTORE PUSH1 0x41 PUSH1 0x4 MSTORE PUSH1 0x24 PUSH0 REVERT JUMPDEST PUSH0 DUP2 SWAP1 POP DUP2 PUSH0 MSTORE PUSH1 0x20 PUSH0 KECCAK256 SWAP1 POP SWAP2 SWAP1 POP JUMP JUMPDEST PUSH0 PUSH1 0x20 PUSH1 0x1F DUP4 ADD DIV SWAP1 POP SWAP2 SWAP1 POP JUMP JUMPDEST PUSH0 DUP3 DUP3 SHL SWAP1 POP SWAP3 SWAP2 POP POP JUMP JUMPDEST PUSH0 PUSH1 0x8 DUP4 MUL PUSH2 0x5E8 PUSH32 0xFFFFFFFFFFFFFFFFFFFFFFFFFFFFFFFFFFFFFFFFFFFFFFFFFFFFFFFFFFFFFFFF DUP3 PUSH2 0x5AD JUMP JUMPDEST PUSH2 0x5F2 DUP7 DUP4 PUSH2 0x5AD JUMP JUMPDEST SWAP6 POP DUP1 NOT DUP5 AND SWAP4 POP DUP1 DUP7 AND DUP5 OR SWAP3 POP POP POP SWAP4 SWAP3 POP POP POP JUMP JUMPDEST PUSH0 DUP2 SWAP1 POP SWAP2 SWAP1 POP JUMP JUMPDEST PUSH0 PUSH2 0x62D PUSH2 0x628 PUSH2 0x623 DUP5 PUSH2 0x47C JUMP JUMPDEST PUSH2 0x60A JUMP JUMPDEST PUSH2 0x47C JUMP JUMPDEST SWAP1 POP SWAP2 SWAP1 POP JUMP JUMPDEST PUSH0 DUP2 SWAP1 POP SWAP2 SWAP1 POP JUMP JUMPDEST PUSH2 0x646 DUP4 PUSH2 0x613 JUMP JUMPDEST PUSH2 0x65A PUSH2 0x652 DUP3 PUSH2 0x634 JUMP JUMPDEST DUP5 DUP5 SLOAD PUSH2 0x5B9 JUMP JUMPDEST DUP3 SSTORE POP POP POP POP JUMP JUMPDEST PUSH0 SWAP1 JUMP JUMPDEST PUSH2 0x66E PUSH2 0x662 JUMP JUMPDEST PUSH2 0x679 DUP2 DUP5 DUP5 PUSH2 0x63D JUMP JUMPDEST POP POP POP JUMP JUMPDEST JUMPDEST DUP2 DUP2 LT ISZERO PUSH2 0x69C JUMPI PUSH2 0x691 PUSH0 DUP3 PUSH2 0x666 JUMP JUMPDEST PUSH1 0x1 DUP2 ADD SWAP1 POP PUSH2 0x67F JUMP JUMPDEST POP POP JUMP JUMPDEST PUSH1 0x1F DUP3 GT ISZERO PUSH2 0x6E1 JUMPI PUSH2 0x6B2 DUP2 PUSH2 0x58C JUMP JUMPDEST PUSH2 0x6BB DUP5 PUSH2 0x59E JUMP JUMPDEST DUP2 ADD PUSH1 0x20 DUP6 LT ISZERO PUSH2 0x6CA JUMPI DUP2 SWAP1 POP JUMPDEST PUSH2 0x6DE PUSH2 0x6D6 DUP6 PUSH2 0x59E JUMP JUMPDEST DUP4 ADD DUP3 PUSH2 0x67E JUMP JUMPDEST POP POP JUMPDEST POP POP POP JUMP JUMPDEST PUSH0 DUP3 DUP3 SHR SWAP1 POP SWAP3 SWAP2 POP POP JUMP JUMPDEST PUSH0 PUSH2 0x701 PUSH0 NOT DUP5 PUSH1 0x8 MUL PUSH2 0x6E6 JUMP JUMPDEST NOT DUP1 DUP4 AND SWAP2 POP POP SWAP3 SWAP2 POP POP JUMP JUMPDEST PUSH0 PUSH2 0x719 DUP4 DUP4 PUSH2 0x6F2 JUMP JUMPDEST SWAP2 POP DUP3 PUSH1 0x2 MUL DUP3 OR SWAP1 POP SWAP3 SWAP2 POP POP JUMP JUMPDEST PUSH2 0x732 DUP3 PUSH2 0x3CE JUMP JUMPDEST PUSH8 0xFFFFFFFFFFFFFFFF DUP2 GT ISZERO PUSH2 0x74B JUMPI PUSH2 0x74A PUSH2 0x55F JUMP JUMPDEST JUMPDEST PUSH2 0x755 DUP3 SLOAD PUSH2 0x52F JUMP JUMPDEST PUSH2 0x760 DUP3 DUP3 DUP6 PUSH2 0x6A0 JUMP JUMPDEST PUSH0 PUSH1 0x20 SWAP1 POP PUSH1 0x1F DUP4 GT PUSH1 0x1 DUP2 EQ PUSH2 0x791 JUMPI PUSH0 DUP5 ISZERO PUSH2 0x77F JUMPI DUP3 DUP8 ADD MLOAD SWAP1 POP JUMPDEST PUSH2 0x789 DUP6 DUP3 PUSH2 0x70E JUMP JUMPDEST DUP7 SSTORE POP PUSH2 0x7F0 JUMP JUMPDEST PUSH1 0x1F NOT DUP5 AND PUSH2 0x79F DUP7 PUSH2 0x58C JUMP JUMPDEST PUSH0 JUMPDEST DUP3 DUP2 LT ISZERO PUSH2 0x7C6 JUMPI DUP5 DUP10 ADD MLOAD DUP3 SSTORE PUSH1 0x1 DUP3 ADD SWAP2 POP PUSH1 0x20 DUP6 ADD SWAP5 POP PUSH1 0x20 DUP2 ADD SWAP1 POP PUSH2 0x7A1 JUMP JUMPDEST DUP7 DUP4 LT ISZERO PUSH2 0x7E3 JUMPI DUP5 DUP10 ADD MLOAD PUSH2 0x7DF PUSH1 0x1F DUP10 AND DUP3 PUSH2 0x6F2 JUMP JUMPDEST DUP4 SSTORE POP JUMPDEST PUSH1 0x1 PUSH1 0x2 DUP9 MUL ADD DUP9 SSTORE POP POP POP JUMPDEST POP POP POP POP POP POP JUMP INVALID LOG2 PUSH5 0x6970667358 0x22 SLT KECCAK256 SWAP15 GAS LOG4 LT SWAP2 0x1F CREATE PUSH26 0x17DA9C558E075F86FC559A5D063147D509816A134A41AB386473 PUSH16 0x6C634300081600330000000000000000 "
				},
				"gasEstimates": {
					"creation": {
						"codeDepositCost": "418800",
						"executionCost": "22558",
						"totalCost": "441358"
					},
					"external": {
						"ifElse(uint256)": "infinite",
						"myNum()": "2468",
						"myString()": "infinite",
						"ternaryOperators(uint256)": "infinite"
					}
				},
				"methodIdentifiers": {
					"ifElse(uint256)": "950b9954",
					"myNum()": "d4da005a",
					"myString()": "492bfa18",
					"ternaryOperators(uint256)": "c1ef19a5"
				}
			},
			"storageLayout": {
				"storage": [
					{
						"astId": 4,
						"contract": "11-if-else-statment.sol:if_Else",
						"label": "myNum",
						"offset": 0,
						"slot": "0",
						"type": "t_uint256"
					},
					{
						"astId": 6,
						"contract": "11-if-else-statment.sol:if_Else",
						"label": "myString",
						"offset": 0,
						"slot": "1",
						"type": "t_string_storage"
					}
				],
				"types": {
					"t_string_storage": {
						"encoding": "bytes",
						"label": "string",
						"numberOfBytes": "32"
					},
					"t_uint256": {
						"encoding": "inplace",
						"label": "uint256",
						"numberOfBytes": "32"
					}
				}
			},
			"userdoc": {
				"kind": "user",
				"methods": {},
				"version": 1
			}
		}
	}
}