{
	"46-ABI-Encode.sol": {
		"AbiEncode": {
			"abi": [
				{
					"inputs": [
						{
							"internalType": "address",
							"name": "to",
							"type": "address"
						},
						{
							"internalType": "uint256",
							"name": "amount",
							"type": "uint256"
						}
					],
					"name": "encodeCall",
					"outputs": [
						{
							"internalType": "bytes",
							"name": "",
							"type": "bytes"
						}
					],
					"stateMutability": "pure",
					"type": "function"
				},
				{
					"inputs": [
						{
							"internalType": "address",
							"name": "to",
							"type": "address"
						},
						{
							"internalType": "uint256",
							"name": "amount",
							"type": "uint256"
						}
					],
					"name": "encodeWithSelector",
					"outputs": [
						{
							"internalType": "bytes",
							"name": "",
							"type": "bytes"
						}
					],
					"stateMutability": "pure",
					"type": "function"
				},
				{
					"inputs": [
						{
							"internalType": "address",
							"name": "to",
							"type": "address"
						},
						{
							"internalType": "uint256",
							"name": "amount",
							"type": "uint256"
						}
					],
					"name": "encodeWithSignature",
					"outputs": [
						{
							"internalType": "bytes",
							"name": "",
							"type": "bytes"
						}
					],
					"stateMutability": "pure",
					"type": "function"
				},
				{
					"inputs": [
						{
							"internalType": "address",
							"name": "_contract",
							"type": "address"
						},
						{
							"internalType": "bytes",
							"name": "data",
							"type": "bytes"
						}
					],
					"name": "test",
					"outputs": [],
					"stateMutability": "nonpayable",
					"type": "function"
				}
			],
			"devdoc": {
				"kind": "dev",
				"methods": {},
				"version": 1
			},
			"evm": {
				"assembly": "    /* \"46-ABI-Encode.sol\":628:2229  contract AbiEncode {... */\n  mstore(0x40, 0x80)\n  callvalue\n  dup1\n  iszero\n  tag_1\n  jumpi\n  0x00\n  dup1\n  revert\ntag_1:\n  pop\n  dataSize(sub_0)\n  dup1\n  dataOffset(sub_0)\n  0x00\n  codecopy\n  0x00\n  return\nstop\n\nsub_0: assembly {\n        /* \"46-ABI-Encode.sol\":628:2229  contract AbiEncode {... */\n      mstore(0x40, 0x80)\n      callvalue\n      dup1\n      iszero\n      tag_1\n      jumpi\n      0x00\n      dup1\n      revert\n    tag_1:\n      pop\n      jumpi(tag_2, lt(calldatasize, 0x04))\n      shr(0xe0, calldataload(0x00))\n      dup1\n      0x25adff1c\n      eq\n      tag_3\n      jumpi\n      dup1\n      0x5fc6ac0e\n      eq\n      tag_4\n      jumpi\n      dup1\n      0x7e3b06fb\n      eq\n      tag_5\n      jumpi\n      dup1\n      0x93e01418\n      eq\n      tag_6\n      jumpi\n    tag_2:\n      0x00\n      dup1\n      revert\n        /* \"46-ABI-Encode.sol\":1947:2227  function encodeCall(address to, uint amount) external pure returns (bytes memory) {... */\n    tag_3:\n      tag_7\n      0x04\n      dup1\n      calldatasize\n      sub\n      dup2\n      add\n      swap1\n      tag_8\n      swap2\n      swap1\n      tag_9\n      jump\t// in\n    tag_8:\n      tag_10\n      jump\t// in\n    tag_7:\n      mload(0x40)\n      tag_11\n      swap2\n      swap1\n      tag_12\n      jump\t// in\n    tag_11:\n      mload(0x40)\n      dup1\n      swap2\n      sub\n      swap1\n      return\n        /* \"46-ABI-Encode.sol\":1457:1869  function encodeWithSelector(... */\n    tag_4:\n      tag_13\n      0x04\n      dup1\n      calldatasize\n      sub\n      dup2\n      add\n      swap1\n      tag_14\n      swap2\n      swap1\n      tag_9\n      jump\t// in\n    tag_14:\n      tag_15\n      jump\t// in\n    tag_13:\n      mload(0x40)\n      tag_16\n      swap2\n      swap1\n      tag_12\n      jump\t// in\n    tag_16:\n      mload(0x40)\n      dup1\n      swap2\n      sub\n      swap1\n      return\n        /* \"46-ABI-Encode.sol\":1053:1382  function encodeWithSignature(... */\n    tag_5:\n      tag_17\n      0x04\n      dup1\n      calldatasize\n      sub\n      dup2\n      add\n      swap1\n      tag_18\n      swap2\n      swap1\n      tag_9\n      jump\t// in\n    tag_18:\n      tag_19\n      jump\t// in\n    tag_17:\n      mload(0x40)\n      tag_20\n      swap2\n      swap1\n      tag_12\n      jump\t// in\n    tag_20:\n      mload(0x40)\n      dup1\n      swap2\n      sub\n      swap1\n      return\n        /* \"46-ABI-Encode.sol\":718:977  function test(address _contract, bytes calldata data) external {... */\n    tag_6:\n      tag_21\n      0x04\n      dup1\n      calldatasize\n      sub\n      dup2\n      add\n      swap1\n      tag_22\n      swap2\n      swap1\n      tag_23\n      jump\t// in\n    tag_22:\n      tag_24\n      jump\t// in\n    tag_21:\n      stop\n        /* \"46-ABI-Encode.sol\":1947:2227  function encodeCall(address to, uint amount) external pure returns (bytes memory) {... */\n    tag_10:\n        /* \"46-ABI-Encode.sol\":2015:2027  bytes memory */\n      0x60\n        /* \"46-ABI-Encode.sol\":2208:2210  to */\n      dup3\n        /* \"46-ABI-Encode.sol\":2212:2218  amount */\n      dup3\n        /* \"46-ABI-Encode.sol\":2175:2220  abi.encodeCall(IERC20.transfer, (to, amount)) */\n      add(0x24, mload(0x40))\n      tag_26\n      swap3\n      swap2\n      swap1\n      tag_27\n      jump\t// in\n    tag_26:\n      mload(0x40)\n      0x20\n      dup2\n      dup4\n      sub\n      sub\n      dup2\n      mstore\n      swap1\n      0x40\n      mstore\n      shl(0xe0, 0xa9059cbb)\n      0x20\n      dup3\n      add\n      dup1\n      mload\n      0xffffffffffffffffffffffffffffffffffffffffffffffffffffffff\n      dup4\n      dup2\n      dup4\n      and\n      or\n      dup4\n      mstore\n      pop\n      pop\n      pop\n      pop\n        /* \"46-ABI-Encode.sol\":2168:2220  return abi.encodeCall(IERC20.transfer, (to, amount)) */\n      swap1\n      pop\n        /* \"46-ABI-Encode.sol\":1947:2227  function encodeCall(address to, uint amount) external pure returns (bytes memory) {... */\n      swap3\n      swap2\n      pop\n      pop\n      jump\t// out\n        /* \"46-ABI-Encode.sol\":1457:1869  function encodeWithSelector(... */\n    tag_15:\n        /* \"46-ABI-Encode.sol\":1555:1567  bytes memory */\n      0x60\n        /* \"46-ABI-Encode.sol\":1825:1849  IERC20.transfer.selector */\n      shl(0xe0, 0xa9059cbb)\n        /* \"46-ABI-Encode.sol\":1851:1853  to */\n      dup4\n        /* \"46-ABI-Encode.sol\":1855:1861  amount */\n      dup4\n        /* \"46-ABI-Encode.sol\":1802:1862  abi.encodeWithSelector(IERC20.transfer.selector, to, amount) */\n      add(0x24, mload(0x40))\n      tag_29\n      swap3\n      swap2\n      swap1\n      tag_27\n      jump\t// in\n    tag_29:\n      mload(0x40)\n      0x20\n      dup2\n      dup4\n      sub\n      sub\n      dup2\n      mstore\n      swap1\n      0x40\n      mstore\n      swap1\n      not(0xffffffffffffffffffffffffffffffffffffffffffffffffffffffff)\n      and\n      0x20\n      dup3\n      add\n      dup1\n      mload\n      0xffffffffffffffffffffffffffffffffffffffffffffffffffffffff\n      dup4\n      dup2\n      dup4\n      and\n      or\n      dup4\n      mstore\n      pop\n      pop\n      pop\n      pop\n        /* \"46-ABI-Encode.sol\":1795:1862  return abi.encodeWithSelector(IERC20.transfer.selector, to, amount) */\n      swap1\n      pop\n        /* \"46-ABI-Encode.sol\":1457:1869  function encodeWithSelector(... */\n      swap3\n      swap2\n      pop\n      pop\n      jump\t// out\n        /* \"46-ABI-Encode.sol\":1053:1382  function encodeWithSignature(... */\n    tag_19:\n        /* \"46-ABI-Encode.sol\":1152:1164  bytes memory */\n      0x60\n        /* \"46-ABI-Encode.sol\":1364:1366  to */\n      dup3\n        /* \"46-ABI-Encode.sol\":1368:1374  amount */\n      dup3\n        /* \"46-ABI-Encode.sol\":1311:1375  abi.encodeWithSignature(\"transfer(address,uint256)\", to, amount) */\n      add(0x24, mload(0x40))\n      tag_31\n      swap3\n      swap2\n      swap1\n      tag_27\n      jump\t// in\n    tag_31:\n      mload(0x40)\n      0x20\n      dup2\n      dup4\n      sub\n      sub\n      dup2\n      mstore\n      swap1\n      0x40\n      mstore\n      and(not(0xffffffffffffffffffffffffffffffffffffffffffffffffffffffff), 0xa9059cbb00000000000000000000000000000000000000000000000000000000)\n      0x20\n      dup3\n      add\n      dup1\n      mload\n      0xffffffffffffffffffffffffffffffffffffffffffffffffffffffff\n      dup4\n      dup2\n      dup4\n      and\n      or\n      dup4\n      mstore\n      pop\n      pop\n      pop\n      pop\n        /* \"46-ABI-Encode.sol\":1304:1375  return abi.encodeWithSignature(\"transfer(address,uint256)\", to, amount) */\n      swap1\n      pop\n        /* \"46-ABI-Encode.sol\":1053:1382  function encodeWithSignature(... */\n      swap3\n      swap2\n      pop\n      pop\n      jump\t// out\n        /* \"46-ABI-Encode.sol\":718:977  function test(address _contract, bytes calldata data) external {... */\n    tag_24:\n        /* \"46-ABI-Encode.sol\":852:859  bool ok */\n      0x00\n        /* \"46-ABI-Encode.sol\":865:874  _contract */\n      dup4\n        /* \"46-ABI-Encode.sol\":865:879  _contract.call */\n      0xffffffffffffffffffffffffffffffffffffffff\n      and\n        /* \"46-ABI-Encode.sol\":880:884  data */\n      dup4\n      dup4\n        /* \"46-ABI-Encode.sol\":865:885  _contract.call(data) */\n      mload(0x40)\n      tag_33\n      swap3\n      swap2\n      swap1\n      tag_34\n      jump\t// in\n    tag_33:\n      0x00\n      mload(0x40)\n      dup1\n      dup4\n      sub\n      dup2\n      0x00\n      dup7\n      gas\n      call\n      swap2\n      pop\n      pop\n      returndatasize\n      dup1\n      0x00\n      dup2\n      eq\n      tag_37\n      jumpi\n      mload(0x40)\n      swap2\n      pop\n      and(add(returndatasize, 0x3f), not(0x1f))\n      dup3\n      add\n      0x40\n      mstore\n      returndatasize\n      dup3\n      mstore\n      returndatasize\n      0x00\n      0x20\n      dup5\n      add\n      returndatacopy\n      jump(tag_36)\n    tag_37:\n      0x60\n      swap2\n      pop\n    tag_36:\n      pop\n        /* \"46-ABI-Encode.sol\":851:885  (bool ok, ) = _contract.call(data) */\n      pop\n      swap1\n      pop\n        /* \"46-ABI-Encode.sol\":952:954  ok */\n      dup1\n        /* \"46-ABI-Encode.sol\":944:970  require(ok, \"call failed\") */\n      tag_38\n      jumpi\n      mload(0x40)\n      0x08c379a000000000000000000000000000000000000000000000000000000000\n      dup2\n      mstore\n      0x04\n      add\n      tag_39\n      swap1\n      tag_40\n      jump\t// in\n    tag_39:\n      mload(0x40)\n      dup1\n      swap2\n      sub\n      swap1\n      revert\n    tag_38:\n        /* \"46-ABI-Encode.sol\":781:977  {... */\n      pop\n        /* \"46-ABI-Encode.sol\":718:977  function test(address _contract, bytes calldata data) external {... */\n      pop\n      pop\n      pop\n      jump\t// out\n        /* \"#utility.yul\":88:205   */\n    tag_42:\n        /* \"#utility.yul\":197:198   */\n      0x00\n        /* \"#utility.yul\":194:195   */\n      dup1\n        /* \"#utility.yul\":187:199   */\n      revert\n        /* \"#utility.yul\":211:328   */\n    tag_43:\n        /* \"#utility.yul\":320:321   */\n      0x00\n        /* \"#utility.yul\":317:318   */\n      dup1\n        /* \"#utility.yul\":310:322   */\n      revert\n        /* \"#utility.yul\":334:460   */\n    tag_44:\n        /* \"#utility.yul\":371:378   */\n      0x00\n        /* \"#utility.yul\":411:453   */\n      0xffffffffffffffffffffffffffffffffffffffff\n        /* \"#utility.yul\":404:409   */\n      dup3\n        /* \"#utility.yul\":400:454   */\n      and\n        /* \"#utility.yul\":389:454   */\n      swap1\n      pop\n        /* \"#utility.yul\":334:460   */\n      swap2\n      swap1\n      pop\n      jump\t// out\n        /* \"#utility.yul\":466:562   */\n    tag_45:\n        /* \"#utility.yul\":503:510   */\n      0x00\n        /* \"#utility.yul\":532:556   */\n      tag_74\n        /* \"#utility.yul\":550:555   */\n      dup3\n        /* \"#utility.yul\":532:556   */\n      tag_44\n      jump\t// in\n    tag_74:\n        /* \"#utility.yul\":521:556   */\n      swap1\n      pop\n        /* \"#utility.yul\":466:562   */\n      swap2\n      swap1\n      pop\n      jump\t// out\n        /* \"#utility.yul\":568:690   */\n    tag_46:\n        /* \"#utility.yul\":641:665   */\n      tag_76\n        /* \"#utility.yul\":659:664   */\n      dup2\n        /* \"#utility.yul\":641:665   */\n      tag_45\n      jump\t// in\n    tag_76:\n        /* \"#utility.yul\":634:639   */\n      dup2\n        /* \"#utility.yul\":631:666   */\n      eq\n        /* \"#utility.yul\":621:684   */\n      tag_77\n      jumpi\n        /* \"#utility.yul\":680:681   */\n      0x00\n        /* \"#utility.yul\":677:678   */\n      dup1\n        /* \"#utility.yul\":670:682   */\n      revert\n        /* \"#utility.yul\":621:684   */\n    tag_77:\n        /* \"#utility.yul\":568:690   */\n      pop\n      jump\t// out\n        /* \"#utility.yul\":696:835   */\n    tag_47:\n        /* \"#utility.yul\":742:747   */\n      0x00\n        /* \"#utility.yul\":780:786   */\n      dup2\n        /* \"#utility.yul\":767:787   */\n      calldataload\n        /* \"#utility.yul\":758:787   */\n      swap1\n      pop\n        /* \"#utility.yul\":796:829   */\n      tag_79\n        /* \"#utility.yul\":823:828   */\n      dup2\n        /* \"#utility.yul\":796:829   */\n      tag_46\n      jump\t// in\n    tag_79:\n        /* \"#utility.yul\":696:835   */\n      swap3\n      swap2\n      pop\n      pop\n      jump\t// out\n        /* \"#utility.yul\":841:918   */\n    tag_48:\n        /* \"#utility.yul\":878:885   */\n      0x00\n        /* \"#utility.yul\":907:912   */\n      dup2\n        /* \"#utility.yul\":896:912   */\n      swap1\n      pop\n        /* \"#utility.yul\":841:918   */\n      swap2\n      swap1\n      pop\n      jump\t// out\n        /* \"#utility.yul\":924:1046   */\n    tag_49:\n        /* \"#utility.yul\":997:1021   */\n      tag_82\n        /* \"#utility.yul\":1015:1020   */\n      dup2\n        /* \"#utility.yul\":997:1021   */\n      tag_48\n      jump\t// in\n    tag_82:\n        /* \"#utility.yul\":990:995   */\n      dup2\n        /* \"#utility.yul\":987:1022   */\n      eq\n        /* \"#utility.yul\":977:1040   */\n      tag_83\n      jumpi\n        /* \"#utility.yul\":1036:1037   */\n      0x00\n        /* \"#utility.yul\":1033:1034   */\n      dup1\n        /* \"#utility.yul\":1026:1038   */\n      revert\n        /* \"#utility.yul\":977:1040   */\n    tag_83:\n        /* \"#utility.yul\":924:1046   */\n      pop\n      jump\t// out\n        /* \"#utility.yul\":1052:1191   */\n    tag_50:\n        /* \"#utility.yul\":1098:1103   */\n      0x00\n        /* \"#utility.yul\":1136:1142   */\n      dup2\n        /* \"#utility.yul\":1123:1143   */\n      calldataload\n        /* \"#utility.yul\":1114:1143   */\n      swap1\n      pop\n        /* \"#utility.yul\":1152:1185   */\n      tag_85\n        /* \"#utility.yul\":1179:1184   */\n      dup2\n        /* \"#utility.yul\":1152:1185   */\n      tag_49\n      jump\t// in\n    tag_85:\n        /* \"#utility.yul\":1052:1191   */\n      swap3\n      swap2\n      pop\n      pop\n      jump\t// out\n        /* \"#utility.yul\":1197:1671   */\n    tag_9:\n        /* \"#utility.yul\":1265:1271   */\n      0x00\n        /* \"#utility.yul\":1273:1279   */\n      dup1\n        /* \"#utility.yul\":1322:1324   */\n      0x40\n        /* \"#utility.yul\":1310:1319   */\n      dup4\n        /* \"#utility.yul\":1301:1308   */\n      dup6\n        /* \"#utility.yul\":1297:1320   */\n      sub\n        /* \"#utility.yul\":1293:1325   */\n      slt\n        /* \"#utility.yul\":1290:1409   */\n      iszero\n      tag_87\n      jumpi\n        /* \"#utility.yul\":1328:1407   */\n      tag_88\n      tag_42\n      jump\t// in\n    tag_88:\n        /* \"#utility.yul\":1290:1409   */\n    tag_87:\n        /* \"#utility.yul\":1448:1449   */\n      0x00\n        /* \"#utility.yul\":1473:1526   */\n      tag_89\n        /* \"#utility.yul\":1518:1525   */\n      dup6\n        /* \"#utility.yul\":1509:1515   */\n      dup3\n        /* \"#utility.yul\":1498:1507   */\n      dup7\n        /* \"#utility.yul\":1494:1516   */\n      add\n        /* \"#utility.yul\":1473:1526   */\n      tag_47\n      jump\t// in\n    tag_89:\n        /* \"#utility.yul\":1463:1526   */\n      swap3\n      pop\n        /* \"#utility.yul\":1419:1536   */\n      pop\n        /* \"#utility.yul\":1575:1577   */\n      0x20\n        /* \"#utility.yul\":1601:1654   */\n      tag_90\n        /* \"#utility.yul\":1646:1653   */\n      dup6\n        /* \"#utility.yul\":1637:1643   */\n      dup3\n        /* \"#utility.yul\":1626:1635   */\n      dup7\n        /* \"#utility.yul\":1622:1644   */\n      add\n        /* \"#utility.yul\":1601:1654   */\n      tag_50\n      jump\t// in\n    tag_90:\n        /* \"#utility.yul\":1591:1654   */\n      swap2\n      pop\n        /* \"#utility.yul\":1546:1664   */\n      pop\n        /* \"#utility.yul\":1197:1671   */\n      swap3\n      pop\n      swap3\n      swap1\n      pop\n      jump\t// out\n        /* \"#utility.yul\":1677:1775   */\n    tag_51:\n        /* \"#utility.yul\":1728:1734   */\n      0x00\n        /* \"#utility.yul\":1762:1767   */\n      dup2\n        /* \"#utility.yul\":1756:1768   */\n      mload\n        /* \"#utility.yul\":1746:1768   */\n      swap1\n      pop\n        /* \"#utility.yul\":1677:1775   */\n      swap2\n      swap1\n      pop\n      jump\t// out\n        /* \"#utility.yul\":1781:1949   */\n    tag_52:\n        /* \"#utility.yul\":1864:1875   */\n      0x00\n        /* \"#utility.yul\":1898:1904   */\n      dup3\n        /* \"#utility.yul\":1893:1896   */\n      dup3\n        /* \"#utility.yul\":1886:1905   */\n      mstore\n        /* \"#utility.yul\":1938:1942   */\n      0x20\n        /* \"#utility.yul\":1933:1936   */\n      dup3\n        /* \"#utility.yul\":1929:1943   */\n      add\n        /* \"#utility.yul\":1914:1943   */\n      swap1\n      pop\n        /* \"#utility.yul\":1781:1949   */\n      swap3\n      swap2\n      pop\n      pop\n      jump\t// out\n        /* \"#utility.yul\":1955:2201   */\n    tag_53:\n        /* \"#utility.yul\":2036:2037   */\n      0x00\n        /* \"#utility.yul\":2046:2159   */\n    tag_94:\n        /* \"#utility.yul\":2060:2066   */\n      dup4\n        /* \"#utility.yul\":2057:2058   */\n      dup2\n        /* \"#utility.yul\":2054:2067   */\n      lt\n        /* \"#utility.yul\":2046:2159   */\n      iszero\n      tag_96\n      jumpi\n        /* \"#utility.yul\":2145:2146   */\n      dup1\n        /* \"#utility.yul\":2140:2143   */\n      dup3\n        /* \"#utility.yul\":2136:2147   */\n      add\n        /* \"#utility.yul\":2130:2148   */\n      mload\n        /* \"#utility.yul\":2126:2127   */\n      dup2\n        /* \"#utility.yul\":2121:2124   */\n      dup5\n        /* \"#utility.yul\":2117:2128   */\n      add\n        /* \"#utility.yul\":2110:2149   */\n      mstore\n        /* \"#utility.yul\":2082:2084   */\n      0x20\n        /* \"#utility.yul\":2079:2080   */\n      dup2\n        /* \"#utility.yul\":2075:2085   */\n      add\n        /* \"#utility.yul\":2070:2085   */\n      swap1\n      pop\n        /* \"#utility.yul\":2046:2159   */\n      jump(tag_94)\n    tag_96:\n        /* \"#utility.yul\":2193:2194   */\n      0x00\n        /* \"#utility.yul\":2184:2190   */\n      dup5\n        /* \"#utility.yul\":2179:2182   */\n      dup5\n        /* \"#utility.yul\":2175:2191   */\n      add\n        /* \"#utility.yul\":2168:2195   */\n      mstore\n        /* \"#utility.yul\":2017:2201   */\n      pop\n        /* \"#utility.yul\":1955:2201   */\n      pop\n      pop\n      pop\n      jump\t// out\n        /* \"#utility.yul\":2207:2309   */\n    tag_54:\n        /* \"#utility.yul\":2248:2254   */\n      0x00\n        /* \"#utility.yul\":2299:2301   */\n      0x1f\n        /* \"#utility.yul\":2295:2302   */\n      not\n        /* \"#utility.yul\":2290:2292   */\n      0x1f\n        /* \"#utility.yul\":2283:2288   */\n      dup4\n        /* \"#utility.yul\":2279:2293   */\n      add\n        /* \"#utility.yul\":2275:2303   */\n      and\n        /* \"#utility.yul\":2265:2303   */\n      swap1\n      pop\n        /* \"#utility.yul\":2207:2309   */\n      swap2\n      swap1\n      pop\n      jump\t// out\n        /* \"#utility.yul\":2315:2688   */\n    tag_55:\n        /* \"#utility.yul\":2401:2404   */\n      0x00\n        /* \"#utility.yul\":2429:2467   */\n      tag_99\n        /* \"#utility.yul\":2461:2466   */\n      dup3\n        /* \"#utility.yul\":2429:2467   */\n      tag_51\n      jump\t// in\n    tag_99:\n        /* \"#utility.yul\":2483:2553   */\n      tag_100\n        /* \"#utility.yul\":2546:2552   */\n      dup2\n        /* \"#utility.yul\":2541:2544   */\n      dup6\n        /* \"#utility.yul\":2483:2553   */\n      tag_52\n      jump\t// in\n    tag_100:\n        /* \"#utility.yul\":2476:2553   */\n      swap4\n      pop\n        /* \"#utility.yul\":2562:2627   */\n      tag_101\n        /* \"#utility.yul\":2620:2626   */\n      dup2\n        /* \"#utility.yul\":2615:2618   */\n      dup6\n        /* \"#utility.yul\":2608:2612   */\n      0x20\n        /* \"#utility.yul\":2601:2606   */\n      dup7\n        /* \"#utility.yul\":2597:2613   */\n      add\n        /* \"#utility.yul\":2562:2627   */\n      tag_53\n      jump\t// in\n    tag_101:\n        /* \"#utility.yul\":2652:2681   */\n      tag_102\n        /* \"#utility.yul\":2674:2680   */\n      dup2\n        /* \"#utility.yul\":2652:2681   */\n      tag_54\n      jump\t// in\n    tag_102:\n        /* \"#utility.yul\":2647:2650   */\n      dup5\n        /* \"#utility.yul\":2643:2682   */\n      add\n        /* \"#utility.yul\":2636:2682   */\n      swap2\n      pop\n        /* \"#utility.yul\":2405:2688   */\n      pop\n        /* \"#utility.yul\":2315:2688   */\n      swap3\n      swap2\n      pop\n      pop\n      jump\t// out\n        /* \"#utility.yul\":2694:3003   */\n    tag_12:\n        /* \"#utility.yul\":2805:2809   */\n      0x00\n        /* \"#utility.yul\":2843:2845   */\n      0x20\n        /* \"#utility.yul\":2832:2841   */\n      dup3\n        /* \"#utility.yul\":2828:2846   */\n      add\n        /* \"#utility.yul\":2820:2846   */\n      swap1\n      pop\n        /* \"#utility.yul\":2892:2901   */\n      dup2\n        /* \"#utility.yul\":2886:2890   */\n      dup2\n        /* \"#utility.yul\":2882:2902   */\n      sub\n        /* \"#utility.yul\":2878:2879   */\n      0x00\n        /* \"#utility.yul\":2867:2876   */\n      dup4\n        /* \"#utility.yul\":2863:2880   */\n      add\n        /* \"#utility.yul\":2856:2903   */\n      mstore\n        /* \"#utility.yul\":2920:2996   */\n      tag_104\n        /* \"#utility.yul\":2991:2995   */\n      dup2\n        /* \"#utility.yul\":2982:2988   */\n      dup5\n        /* \"#utility.yul\":2920:2996   */\n      tag_55\n      jump\t// in\n    tag_104:\n        /* \"#utility.yul\":2912:2996   */\n      swap1\n      pop\n        /* \"#utility.yul\":2694:3003   */\n      swap3\n      swap2\n      pop\n      pop\n      jump\t// out\n        /* \"#utility.yul\":3009:3126   */\n    tag_56:\n        /* \"#utility.yul\":3118:3119   */\n      0x00\n        /* \"#utility.yul\":3115:3116   */\n      dup1\n        /* \"#utility.yul\":3108:3120   */\n      revert\n        /* \"#utility.yul\":3132:3249   */\n    tag_57:\n        /* \"#utility.yul\":3241:3242   */\n      0x00\n        /* \"#utility.yul\":3238:3239   */\n      dup1\n        /* \"#utility.yul\":3231:3243   */\n      revert\n        /* \"#utility.yul\":3255:3372   */\n    tag_58:\n        /* \"#utility.yul\":3364:3365   */\n      0x00\n        /* \"#utility.yul\":3361:3362   */\n      dup1\n        /* \"#utility.yul\":3354:3366   */\n      revert\n        /* \"#utility.yul\":3391:3943   */\n    tag_59:\n        /* \"#utility.yul\":3448:3456   */\n      0x00\n        /* \"#utility.yul\":3458:3464   */\n      dup1\n        /* \"#utility.yul\":3508:3511   */\n      dup4\n        /* \"#utility.yul\":3501:3505   */\n      0x1f\n        /* \"#utility.yul\":3493:3499   */\n      dup5\n        /* \"#utility.yul\":3489:3506   */\n      add\n        /* \"#utility.yul\":3485:3512   */\n      slt\n        /* \"#utility.yul\":3475:3597   */\n      tag_109\n      jumpi\n        /* \"#utility.yul\":3516:3595   */\n      tag_110\n      tag_56\n      jump\t// in\n    tag_110:\n        /* \"#utility.yul\":3475:3597   */\n    tag_109:\n        /* \"#utility.yul\":3629:3635   */\n      dup3\n        /* \"#utility.yul\":3616:3636   */\n      calldataload\n        /* \"#utility.yul\":3606:3636   */\n      swap1\n      pop\n        /* \"#utility.yul\":3659:3677   */\n      0xffffffffffffffff\n        /* \"#utility.yul\":3651:3657   */\n      dup2\n        /* \"#utility.yul\":3648:3678   */\n      gt\n        /* \"#utility.yul\":3645:3762   */\n      iszero\n      tag_111\n      jumpi\n        /* \"#utility.yul\":3681:3760   */\n      tag_112\n      tag_57\n      jump\t// in\n    tag_112:\n        /* \"#utility.yul\":3645:3762   */\n    tag_111:\n        /* \"#utility.yul\":3795:3799   */\n      0x20\n        /* \"#utility.yul\":3787:3793   */\n      dup4\n        /* \"#utility.yul\":3783:3800   */\n      add\n        /* \"#utility.yul\":3771:3800   */\n      swap2\n      pop\n        /* \"#utility.yul\":3849:3852   */\n      dup4\n        /* \"#utility.yul\":3841:3845   */\n      0x01\n        /* \"#utility.yul\":3833:3839   */\n      dup3\n        /* \"#utility.yul\":3829:3846   */\n      mul\n        /* \"#utility.yul\":3819:3827   */\n      dup4\n        /* \"#utility.yul\":3815:3847   */\n      add\n        /* \"#utility.yul\":3812:3853   */\n      gt\n        /* \"#utility.yul\":3809:3937   */\n      iszero\n      tag_113\n      jumpi\n        /* \"#utility.yul\":3856:3935   */\n      tag_114\n      tag_58\n      jump\t// in\n    tag_114:\n        /* \"#utility.yul\":3809:3937   */\n    tag_113:\n        /* \"#utility.yul\":3391:3943   */\n      swap3\n      pop\n      swap3\n      swap1\n      pop\n      jump\t// out\n        /* \"#utility.yul\":3949:4621   */\n    tag_23:\n        /* \"#utility.yul\":4028:4034   */\n      0x00\n        /* \"#utility.yul\":4036:4042   */\n      dup1\n        /* \"#utility.yul\":4044:4050   */\n      0x00\n        /* \"#utility.yul\":4093:4095   */\n      0x40\n        /* \"#utility.yul\":4081:4090   */\n      dup5\n        /* \"#utility.yul\":4072:4079   */\n      dup7\n        /* \"#utility.yul\":4068:4091   */\n      sub\n        /* \"#utility.yul\":4064:4096   */\n      slt\n        /* \"#utility.yul\":4061:4180   */\n      iszero\n      tag_116\n      jumpi\n        /* \"#utility.yul\":4099:4178   */\n      tag_117\n      tag_42\n      jump\t// in\n    tag_117:\n        /* \"#utility.yul\":4061:4180   */\n    tag_116:\n        /* \"#utility.yul\":4219:4220   */\n      0x00\n        /* \"#utility.yul\":4244:4297   */\n      tag_118\n        /* \"#utility.yul\":4289:4296   */\n      dup7\n        /* \"#utility.yul\":4280:4286   */\n      dup3\n        /* \"#utility.yul\":4269:4278   */\n      dup8\n        /* \"#utility.yul\":4265:4287   */\n      add\n        /* \"#utility.yul\":4244:4297   */\n      tag_47\n      jump\t// in\n    tag_118:\n        /* \"#utility.yul\":4234:4297   */\n      swap4\n      pop\n        /* \"#utility.yul\":4190:4307   */\n      pop\n        /* \"#utility.yul\":4374:4376   */\n      0x20\n        /* \"#utility.yul\":4363:4372   */\n      dup5\n        /* \"#utility.yul\":4359:4377   */\n      add\n        /* \"#utility.yul\":4346:4378   */\n      calldataload\n        /* \"#utility.yul\":4405:4423   */\n      0xffffffffffffffff\n        /* \"#utility.yul\":4397:4403   */\n      dup2\n        /* \"#utility.yul\":4394:4424   */\n      gt\n        /* \"#utility.yul\":4391:4508   */\n      iszero\n      tag_119\n      jumpi\n        /* \"#utility.yul\":4427:4506   */\n      tag_120\n      tag_43\n      jump\t// in\n    tag_120:\n        /* \"#utility.yul\":4391:4508   */\n    tag_119:\n        /* \"#utility.yul\":4540:4604   */\n      tag_121\n        /* \"#utility.yul\":4596:4603   */\n      dup7\n        /* \"#utility.yul\":4587:4593   */\n      dup3\n        /* \"#utility.yul\":4576:4585   */\n      dup8\n        /* \"#utility.yul\":4572:4594   */\n      add\n        /* \"#utility.yul\":4540:4604   */\n      tag_59\n      jump\t// in\n    tag_121:\n        /* \"#utility.yul\":4522:4604   */\n      swap3\n      pop\n      swap3\n      pop\n        /* \"#utility.yul\":4317:4614   */\n      pop\n        /* \"#utility.yul\":3949:4621   */\n      swap3\n      pop\n      swap3\n      pop\n      swap3\n      jump\t// out\n        /* \"#utility.yul\":4627:4745   */\n    tag_60:\n        /* \"#utility.yul\":4714:4738   */\n      tag_123\n        /* \"#utility.yul\":4732:4737   */\n      dup2\n        /* \"#utility.yul\":4714:4738   */\n      tag_45\n      jump\t// in\n    tag_123:\n        /* \"#utility.yul\":4709:4712   */\n      dup3\n        /* \"#utility.yul\":4702:4739   */\n      mstore\n        /* \"#utility.yul\":4627:4745   */\n      pop\n      pop\n      jump\t// out\n        /* \"#utility.yul\":4751:4869   */\n    tag_61:\n        /* \"#utility.yul\":4838:4862   */\n      tag_125\n        /* \"#utility.yul\":4856:4861   */\n      dup2\n        /* \"#utility.yul\":4838:4862   */\n      tag_48\n      jump\t// in\n    tag_125:\n        /* \"#utility.yul\":4833:4836   */\n      dup3\n        /* \"#utility.yul\":4826:4863   */\n      mstore\n        /* \"#utility.yul\":4751:4869   */\n      pop\n      pop\n      jump\t// out\n        /* \"#utility.yul\":4875:5207   */\n    tag_27:\n        /* \"#utility.yul\":4996:5000   */\n      0x00\n        /* \"#utility.yul\":5034:5036   */\n      0x40\n        /* \"#utility.yul\":5023:5032   */\n      dup3\n        /* \"#utility.yul\":5019:5037   */\n      add\n        /* \"#utility.yul\":5011:5037   */\n      swap1\n      pop\n        /* \"#utility.yul\":5047:5118   */\n      tag_127\n        /* \"#utility.yul\":5115:5116   */\n      0x00\n        /* \"#utility.yul\":5104:5113   */\n      dup4\n        /* \"#utility.yul\":5100:5117   */\n      add\n        /* \"#utility.yul\":5091:5097   */\n      dup6\n        /* \"#utility.yul\":5047:5118   */\n      tag_60\n      jump\t// in\n    tag_127:\n        /* \"#utility.yul\":5128:5200   */\n      tag_128\n        /* \"#utility.yul\":5196:5198   */\n      0x20\n        /* \"#utility.yul\":5185:5194   */\n      dup4\n        /* \"#utility.yul\":5181:5199   */\n      add\n        /* \"#utility.yul\":5172:5178   */\n      dup5\n        /* \"#utility.yul\":5128:5200   */\n      tag_61\n      jump\t// in\n    tag_128:\n        /* \"#utility.yul\":4875:5207   */\n      swap4\n      swap3\n      pop\n      pop\n      pop\n      jump\t// out\n        /* \"#utility.yul\":5213:5360   */\n    tag_62:\n        /* \"#utility.yul\":5314:5325   */\n      0x00\n        /* \"#utility.yul\":5351:5354   */\n      dup2\n        /* \"#utility.yul\":5336:5354   */\n      swap1\n      pop\n        /* \"#utility.yul\":5213:5360   */\n      swap3\n      swap2\n      pop\n      pop\n      jump\t// out\n        /* \"#utility.yul\":5366:5512   */\n    tag_63:\n        /* \"#utility.yul\":5463:5469   */\n      dup3\n        /* \"#utility.yul\":5458:5461   */\n      dup2\n        /* \"#utility.yul\":5453:5456   */\n      dup4\n        /* \"#utility.yul\":5440:5470   */\n      calldatacopy\n        /* \"#utility.yul\":5504:5505   */\n      0x00\n        /* \"#utility.yul\":5495:5501   */\n      dup4\n        /* \"#utility.yul\":5490:5493   */\n      dup4\n        /* \"#utility.yul\":5486:5502   */\n      add\n        /* \"#utility.yul\":5479:5506   */\n      mstore\n        /* \"#utility.yul\":5366:5512   */\n      pop\n      pop\n      pop\n      jump\t// out\n        /* \"#utility.yul\":5540:5867   */\n    tag_64:\n        /* \"#utility.yul\":5654:5657   */\n      0x00\n        /* \"#utility.yul\":5675:5763   */\n      tag_132\n        /* \"#utility.yul\":5756:5762   */\n      dup4\n        /* \"#utility.yul\":5751:5754   */\n      dup6\n        /* \"#utility.yul\":5675:5763   */\n      tag_62\n      jump\t// in\n    tag_132:\n        /* \"#utility.yul\":5668:5763   */\n      swap4\n      pop\n        /* \"#utility.yul\":5773:5829   */\n      tag_133\n        /* \"#utility.yul\":5822:5828   */\n      dup4\n        /* \"#utility.yul\":5817:5820   */\n      dup6\n        /* \"#utility.yul\":5810:5815   */\n      dup5\n        /* \"#utility.yul\":5773:5829   */\n      tag_63\n      jump\t// in\n    tag_133:\n        /* \"#utility.yul\":5854:5860   */\n      dup3\n        /* \"#utility.yul\":5849:5852   */\n      dup5\n        /* \"#utility.yul\":5845:5861   */\n      add\n        /* \"#utility.yul\":5838:5861   */\n      swap1\n      pop\n        /* \"#utility.yul\":5540:5867   */\n      swap4\n      swap3\n      pop\n      pop\n      pop\n      jump\t// out\n        /* \"#utility.yul\":5873:6164   */\n    tag_34:\n        /* \"#utility.yul\":6013:6016   */\n      0x00\n        /* \"#utility.yul\":6035:6138   */\n      tag_135\n        /* \"#utility.yul\":6134:6137   */\n      dup3\n        /* \"#utility.yul\":6125:6131   */\n      dup5\n        /* \"#utility.yul\":6117:6123   */\n      dup7\n        /* \"#utility.yul\":6035:6138   */\n      tag_64\n      jump\t// in\n    tag_135:\n        /* \"#utility.yul\":6028:6138   */\n      swap2\n      pop\n        /* \"#utility.yul\":6155:6158   */\n      dup2\n        /* \"#utility.yul\":6148:6158   */\n      swap1\n      pop\n        /* \"#utility.yul\":5873:6164   */\n      swap4\n      swap3\n      pop\n      pop\n      pop\n      jump\t// out\n        /* \"#utility.yul\":6170:6339   */\n    tag_65:\n        /* \"#utility.yul\":6254:6265   */\n      0x00\n        /* \"#utility.yul\":6288:6294   */\n      dup3\n        /* \"#utility.yul\":6283:6286   */\n      dup3\n        /* \"#utility.yul\":6276:6295   */\n      mstore\n        /* \"#utility.yul\":6328:6332   */\n      0x20\n        /* \"#utility.yul\":6323:6326   */\n      dup3\n        /* \"#utility.yul\":6319:6333   */\n      add\n        /* \"#utility.yul\":6304:6333   */\n      swap1\n      pop\n        /* \"#utility.yul\":6170:6339   */\n      swap3\n      swap2\n      pop\n      pop\n      jump\t// out\n        /* \"#utility.yul\":6345:6506   */\n    tag_66:\n        /* \"#utility.yul\":6485:6498   */\n      0x63616c6c206661696c6564000000000000000000000000000000000000000000\n        /* \"#utility.yul\":6481:6482   */\n      0x00\n        /* \"#utility.yul\":6473:6479   */\n      dup3\n        /* \"#utility.yul\":6469:6483   */\n      add\n        /* \"#utility.yul\":6462:6499   */\n      mstore\n        /* \"#utility.yul\":6345:6506   */\n      pop\n      jump\t// out\n        /* \"#utility.yul\":6512:6878   */\n    tag_67:\n        /* \"#utility.yul\":6654:6657   */\n      0x00\n        /* \"#utility.yul\":6675:6742   */\n      tag_139\n        /* \"#utility.yul\":6739:6741   */\n      0x0b\n        /* \"#utility.yul\":6734:6737   */\n      dup4\n        /* \"#utility.yul\":6675:6742   */\n      tag_65\n      jump\t// in\n    tag_139:\n        /* \"#utility.yul\":6668:6742   */\n      swap2\n      pop\n        /* \"#utility.yul\":6751:6844   */\n      tag_140\n        /* \"#utility.yul\":6840:6843   */\n      dup3\n        /* \"#utility.yul\":6751:6844   */\n      tag_66\n      jump\t// in\n    tag_140:\n        /* \"#utility.yul\":6869:6871   */\n      0x20\n        /* \"#utility.yul\":6864:6867   */\n      dup3\n        /* \"#utility.yul\":6860:6872   */\n      add\n        /* \"#utility.yul\":6853:6872   */\n      swap1\n      pop\n        /* \"#utility.yul\":6512:6878   */\n      swap2\n      swap1\n      pop\n      jump\t// out\n        /* \"#utility.yul\":6884:7303   */\n    tag_40:\n        /* \"#utility.yul\":7050:7054   */\n      0x00\n        /* \"#utility.yul\":7088:7090   */\n      0x20\n        /* \"#utility.yul\":7077:7086   */\n      dup3\n        /* \"#utility.yul\":7073:7091   */\n      add\n        /* \"#utility.yul\":7065:7091   */\n      swap1\n      pop\n        /* \"#utility.yul\":7137:7146   */\n      dup2\n        /* \"#utility.yul\":7131:7135   */\n      dup2\n        /* \"#utility.yul\":7127:7147   */\n      sub\n        /* \"#utility.yul\":7123:7124   */\n      0x00\n        /* \"#utility.yul\":7112:7121   */\n      dup4\n        /* \"#utility.yul\":7108:7125   */\n      add\n        /* \"#utility.yul\":7101:7148   */\n      mstore\n        /* \"#utility.yul\":7165:7296   */\n      tag_142\n        /* \"#utility.yul\":7291:7295   */\n      dup2\n        /* \"#utility.yul\":7165:7296   */\n      tag_67\n      jump\t// in\n    tag_142:\n        /* \"#utility.yul\":7157:7296   */\n      swap1\n      pop\n        /* \"#utility.yul\":6884:7303   */\n      swap2\n      swap1\n      pop\n      jump\t// out\n\n    auxdata: 0xa26469706673582212204247ba35ec120b759aca50db81d1f9d12fedf192716b00499cc782e44c952c5b64736f6c63430008160033\n}\n",
				"bytecode": {
					"linkReferences": {},
					"object": "608060405234801561000f575f80fd5b506106aa8061001d5f395ff3fe608060405234801561000f575f80fd5b506004361061004a575f3560e01c806325adff1c1461004e5780635fc6ac0e1461007e5780637e3b06fb146100ae57806393e01418146100de575b5f80fd5b610068600480360381019061006391906103bd565b6100fa565b6040516100759190610485565b60405180910390f35b610098600480360381019061009391906103bd565b61015c565b6040516100a59190610485565b60405180910390f35b6100c860048036038101906100c391906103bd565b6101de565b6040516100d59190610485565b60405180910390f35b6100f860048036038101906100f39190610506565b610278565b005b6060828260405160240161010f929190610581565b60405160208183030381529060405263a9059cbb60e01b6020820180517bffffffffffffffffffffffffffffffffffffffffffffffffffffffff8381831617835250505050905092915050565b606063a9059cbb60e01b8383604051602401610179929190610581565b604051602081830303815290604052907bffffffffffffffffffffffffffffffffffffffffffffffffffffffff19166020820180517bffffffffffffffffffffffffffffffffffffffffffffffffffffffff8381831617835250505050905092915050565b606082826040516024016101f3929190610581565b6040516020818303038152906040527fa9059cbb000000000000000000000000000000000000000000000000000000007bffffffffffffffffffffffffffffffffffffffffffffffffffffffff19166020820180517bffffffffffffffffffffffffffffffffffffffffffffffffffffffff8381831617835250505050905092915050565b5f8373ffffffffffffffffffffffffffffffffffffffff1683836040516102a09291906105e4565b5f604051808303815f865af19150503d805f81146102d9576040519150601f19603f3d011682016040523d82523d5f602084013e6102de565b606091505b5050905080610322576040517f08c379a000000000000000000000000000000000000000000000000000000000815260040161031990610656565b60405180910390fd5b50505050565b5f80fd5b5f80fd5b5f73ffffffffffffffffffffffffffffffffffffffff82169050919050565b5f61035982610330565b9050919050565b6103698161034f565b8114610373575f80fd5b50565b5f8135905061038481610360565b92915050565b5f819050919050565b61039c8161038a565b81146103a6575f80fd5b50565b5f813590506103b781610393565b92915050565b5f80604083850312156103d3576103d2610328565b5b5f6103e085828601610376565b92505060206103f1858286016103a9565b9150509250929050565b5f81519050919050565b5f82825260208201905092915050565b5f5b83811015610432578082015181840152602081019050610417565b5f8484015250505050565b5f601f19601f8301169050919050565b5f610457826103fb565b6104618185610405565b9350610471818560208601610415565b61047a8161043d565b840191505092915050565b5f6020820190508181035f83015261049d818461044d565b905092915050565b5f80fd5b5f80fd5b5f80fd5b5f8083601f8401126104c6576104c56104a5565b5b8235905067ffffffffffffffff8111156104e3576104e26104a9565b5b6020830191508360018202830111156104ff576104fe6104ad565b5b9250929050565b5f805f6040848603121561051d5761051c610328565b5b5f61052a86828701610376565b935050602084013567ffffffffffffffff81111561054b5761054a61032c565b5b610557868287016104b1565b92509250509250925092565b61056c8161034f565b82525050565b61057b8161038a565b82525050565b5f6040820190506105945f830185610563565b6105a16020830184610572565b9392505050565b5f81905092915050565b828183375f83830152505050565b5f6105cb83856105a8565b93506105d88385846105b2565b82840190509392505050565b5f6105f08284866105c0565b91508190509392505050565b5f82825260208201905092915050565b7f63616c6c206661696c65640000000000000000000000000000000000000000005f82015250565b5f610640600b836105fc565b915061064b8261060c565b602082019050919050565b5f6020820190508181035f83015261066d81610634565b905091905056fea26469706673582212204247ba35ec120b759aca50db81d1f9d12fedf192716b00499cc782e44c952c5b64736f6c63430008160033",
					"opcodes": "PUSH1 0x80 PUSH1 0x40 MSTORE CALLVALUE DUP1 ISZERO PUSH2 0xF JUMPI PUSH0 DUP1 REVERT JUMPDEST POP PUSH2 0x6AA DUP1 PUSH2 0x1D PUSH0 CODECOPY PUSH0 RETURN INVALID PUSH1 0x80 PUSH1 0x40 MSTORE CALLVALUE DUP1 ISZERO PUSH2 0xF JUMPI PUSH0 DUP1 REVERT JUMPDEST POP PUSH1 0x4 CALLDATASIZE LT PUSH2 0x4A JUMPI PUSH0 CALLDATALOAD PUSH1 0xE0 SHR DUP1 PUSH4 0x25ADFF1C EQ PUSH2 0x4E JUMPI DUP1 PUSH4 0x5FC6AC0E EQ PUSH2 0x7E JUMPI DUP1 PUSH4 0x7E3B06FB EQ PUSH2 0xAE JUMPI DUP1 PUSH4 0x93E01418 EQ PUSH2 0xDE JUMPI JUMPDEST PUSH0 DUP1 REVERT JUMPDEST PUSH2 0x68 PUSH1 0x4 DUP1 CALLDATASIZE SUB DUP2 ADD SWAP1 PUSH2 0x63 SWAP2 SWAP1 PUSH2 0x3BD JUMP JUMPDEST PUSH2 0xFA JUMP JUMPDEST PUSH1 0x40 MLOAD PUSH2 0x75 SWAP2 SWAP1 PUSH2 0x485 JUMP JUMPDEST PUSH1 0x40 MLOAD DUP1 SWAP2 SUB SWAP1 RETURN JUMPDEST PUSH2 0x98 PUSH1 0x4 DUP1 CALLDATASIZE SUB DUP2 ADD SWAP1 PUSH2 0x93 SWAP2 SWAP1 PUSH2 0x3BD JUMP JUMPDEST PUSH2 0x15C JUMP JUMPDEST PUSH1 0x40 MLOAD PUSH2 0xA5 SWAP2 SWAP1 PUSH2 0x485 JUMP JUMPDEST PUSH1 0x40 MLOAD DUP1 SWAP2 SUB SWAP1 RETURN JUMPDEST PUSH2 0xC8 PUSH1 0x4 DUP1 CALLDATASIZE SUB DUP2 ADD SWAP1 PUSH2 0xC3 SWAP2 SWAP1 PUSH2 0x3BD JUMP JUMPDEST PUSH2 0x1DE JUMP JUMPDEST PUSH1 0x40 MLOAD PUSH2 0xD5 SWAP2 SWAP1 PUSH2 0x485 JUMP JUMPDEST PUSH1 0x40 MLOAD DUP1 SWAP2 SUB SWAP1 RETURN JUMPDEST PUSH2 0xF8 PUSH1 0x4 DUP1 CALLDATASIZE SUB DUP2 ADD SWAP1 PUSH2 0xF3 SWAP2 SWAP1 PUSH2 0x506 JUMP JUMPDEST PUSH2 0x278 JUMP JUMPDEST STOP JUMPDEST PUSH1 0x60 DUP3 DUP3 PUSH1 0x40 MLOAD PUSH1 0x24 ADD PUSH2 0x10F SWAP3 SWAP2 SWAP1 PUSH2 0x581 JUMP JUMPDEST PUSH1 0x40 MLOAD PUSH1 0x20 DUP2 DUP4 SUB SUB DUP2 MSTORE SWAP1 PUSH1 0x40 MSTORE PUSH4 0xA9059CBB PUSH1 0xE0 SHL PUSH1 0x20 DUP3 ADD DUP1 MLOAD PUSH28 0xFFFFFFFFFFFFFFFFFFFFFFFFFFFFFFFFFFFFFFFFFFFFFFFFFFFFFFFF DUP4 DUP2 DUP4 AND OR DUP4 MSTORE POP POP POP POP SWAP1 POP SWAP3 SWAP2 POP POP JUMP JUMPDEST PUSH1 0x60 PUSH4 0xA9059CBB PUSH1 0xE0 SHL DUP4 DUP4 PUSH1 0x40 MLOAD PUSH1 0x24 ADD PUSH2 0x179 SWAP3 SWAP2 SWAP1 PUSH2 0x581 JUMP JUMPDEST PUSH1 0x40 MLOAD PUSH1 0x20 DUP2 DUP4 SUB SUB DUP2 MSTORE SWAP1 PUSH1 0x40 MSTORE SWAP1 PUSH28 0xFFFFFFFFFFFFFFFFFFFFFFFFFFFFFFFFFFFFFFFFFFFFFFFFFFFFFFFF NOT AND PUSH1 0x20 DUP3 ADD DUP1 MLOAD PUSH28 0xFFFFFFFFFFFFFFFFFFFFFFFFFFFFFFFFFFFFFFFFFFFFFFFFFFFFFFFF DUP4 DUP2 DUP4 AND OR DUP4 MSTORE POP POP POP POP SWAP1 POP SWAP3 SWAP2 POP POP JUMP JUMPDEST PUSH1 0x60 DUP3 DUP3 PUSH1 0x40 MLOAD PUSH1 0x24 ADD PUSH2 0x1F3 SWAP3 SWAP2 SWAP1 PUSH2 0x581 JUMP JUMPDEST PUSH1 0x40 MLOAD PUSH1 0x20 DUP2 DUP4 SUB SUB DUP2 MSTORE SWAP1 PUSH1 0x40 MSTORE PUSH32 0xA9059CBB00000000000000000000000000000000000000000000000000000000 PUSH28 0xFFFFFFFFFFFFFFFFFFFFFFFFFFFFFFFFFFFFFFFFFFFFFFFFFFFFFFFF NOT AND PUSH1 0x20 DUP3 ADD DUP1 MLOAD PUSH28 0xFFFFFFFFFFFFFFFFFFFFFFFFFFFFFFFFFFFFFFFFFFFFFFFFFFFFFFFF DUP4 DUP2 DUP4 AND OR DUP4 MSTORE POP POP POP POP SWAP1 POP SWAP3 SWAP2 POP POP JUMP JUMPDEST PUSH0 DUP4 PUSH20 0xFFFFFFFFFFFFFFFFFFFFFFFFFFFFFFFFFFFFFFFF AND DUP4 DUP4 PUSH1 0x40 MLOAD PUSH2 0x2A0 SWAP3 SWAP2 SWAP1 PUSH2 0x5E4 JUMP JUMPDEST PUSH0 PUSH1 0x40 MLOAD DUP1 DUP4 SUB DUP2 PUSH0 DUP7 GAS CALL SWAP2 POP POP RETURNDATASIZE DUP1 PUSH0 DUP2 EQ PUSH2 0x2D9 JUMPI PUSH1 0x40 MLOAD SWAP2 POP PUSH1 0x1F NOT PUSH1 0x3F RETURNDATASIZE ADD AND DUP3 ADD PUSH1 0x40 MSTORE RETURNDATASIZE DUP3 MSTORE RETURNDATASIZE PUSH0 PUSH1 0x20 DUP5 ADD RETURNDATACOPY PUSH2 0x2DE JUMP JUMPDEST PUSH1 0x60 SWAP2 POP JUMPDEST POP POP SWAP1 POP DUP1 PUSH2 0x322 JUMPI PUSH1 0x40 MLOAD PUSH32 0x8C379A000000000000000000000000000000000000000000000000000000000 DUP2 MSTORE PUSH1 0x4 ADD PUSH2 0x319 SWAP1 PUSH2 0x656 JUMP JUMPDEST PUSH1 0x40 MLOAD DUP1 SWAP2 SUB SWAP1 REVERT JUMPDEST POP POP POP POP JUMP JUMPDEST PUSH0 DUP1 REVERT JUMPDEST PUSH0 DUP1 REVERT JUMPDEST PUSH0 PUSH20 0xFFFFFFFFFFFFFFFFFFFFFFFFFFFFFFFFFFFFFFFF DUP3 AND SWAP1 POP SWAP2 SWAP1 POP JUMP JUMPDEST PUSH0 PUSH2 0x359 DUP3 PUSH2 0x330 JUMP JUMPDEST SWAP1 POP SWAP2 SWAP1 POP JUMP JUMPDEST PUSH2 0x369 DUP2 PUSH2 0x34F JUMP JUMPDEST DUP2 EQ PUSH2 0x373 JUMPI PUSH0 DUP1 REVERT JUMPDEST POP JUMP JUMPDEST PUSH0 DUP2 CALLDATALOAD SWAP1 POP PUSH2 0x384 DUP2 PUSH2 0x360 JUMP JUMPDEST SWAP3 SWAP2 POP POP JUMP JUMPDEST PUSH0 DUP2 SWAP1 POP SWAP2 SWAP1 POP JUMP JUMPDEST PUSH2 0x39C DUP2 PUSH2 0x38A JUMP JUMPDEST DUP2 EQ PUSH2 0x3A6 JUMPI PUSH0 DUP1 REVERT JUMPDEST POP JUMP JUMPDEST PUSH0 DUP2 CALLDATALOAD SWAP1 POP PUSH2 0x3B7 DUP2 PUSH2 0x393 JUMP JUMPDEST SWAP3 SWAP2 POP POP JUMP JUMPDEST PUSH0 DUP1 PUSH1 0x40 DUP4 DUP6 SUB SLT ISZERO PUSH2 0x3D3 JUMPI PUSH2 0x3D2 PUSH2 0x328 JUMP JUMPDEST JUMPDEST PUSH0 PUSH2 0x3E0 DUP6 DUP3 DUP7 ADD PUSH2 0x376 JUMP JUMPDEST SWAP3 POP POP PUSH1 0x20 PUSH2 0x3F1 DUP6 DUP3 DUP7 ADD PUSH2 0x3A9 JUMP JUMPDEST SWAP2 POP POP SWAP3 POP SWAP3 SWAP1 POP JUMP JUMPDEST PUSH0 DUP2 MLOAD SWAP1 POP SWAP2 SWAP1 POP JUMP JUMPDEST PUSH0 DUP3 DUP3 MSTORE PUSH1 0x20 DUP3 ADD SWAP1 POP SWAP3 SWAP2 POP POP JUMP JUMPDEST PUSH0 JUMPDEST DUP4 DUP2 LT ISZERO PUSH2 0x432 JUMPI DUP1 DUP3 ADD MLOAD DUP2 DUP5 ADD MSTORE PUSH1 0x20 DUP2 ADD SWAP1 POP PUSH2 0x417 JUMP JUMPDEST PUSH0 DUP5 DUP5 ADD MSTORE POP POP POP POP JUMP JUMPDEST PUSH0 PUSH1 0x1F NOT PUSH1 0x1F DUP4 ADD AND SWAP1 POP SWAP2 SWAP1 POP JUMP JUMPDEST PUSH0 PUSH2 0x457 DUP3 PUSH2 0x3FB JUMP JUMPDEST PUSH2 0x461 DUP2 DUP6 PUSH2 0x405 JUMP JUMPDEST SWAP4 POP PUSH2 0x471 DUP2 DUP6 PUSH1 0x20 DUP7 ADD PUSH2 0x415 JUMP JUMPDEST PUSH2 0x47A DUP2 PUSH2 0x43D JUMP JUMPDEST DUP5 ADD SWAP2 POP POP SWAP3 SWAP2 POP POP JUMP JUMPDEST PUSH0 PUSH1 0x20 DUP3 ADD SWAP1 POP DUP2 DUP2 SUB PUSH0 DUP4 ADD MSTORE PUSH2 0x49D DUP2 DUP5 PUSH2 0x44D JUMP JUMPDEST SWAP1 POP SWAP3 SWAP2 POP POP JUMP JUMPDEST PUSH0 DUP1 REVERT JUMPDEST PUSH0 DUP1 REVERT JUMPDEST PUSH0 DUP1 REVERT JUMPDEST PUSH0 DUP1 DUP4 PUSH1 0x1F DUP5 ADD SLT PUSH2 0x4C6 JUMPI PUSH2 0x4C5 PUSH2 0x4A5 JUMP JUMPDEST JUMPDEST DUP3 CALLDATALOAD SWAP1 POP PUSH8 0xFFFFFFFFFFFFFFFF DUP2 GT ISZERO PUSH2 0x4E3 JUMPI PUSH2 0x4E2 PUSH2 0x4A9 JUMP JUMPDEST JUMPDEST PUSH1 0x20 DUP4 ADD SWAP2 POP DUP4 PUSH1 0x1 DUP3 MUL DUP4 ADD GT ISZERO PUSH2 0x4FF JUMPI PUSH2 0x4FE PUSH2 0x4AD JUMP JUMPDEST JUMPDEST SWAP3 POP SWAP3 SWAP1 POP JUMP JUMPDEST PUSH0 DUP1 PUSH0 PUSH1 0x40 DUP5 DUP7 SUB SLT ISZERO PUSH2 0x51D JUMPI PUSH2 0x51C PUSH2 0x328 JUMP JUMPDEST JUMPDEST PUSH0 PUSH2 0x52A DUP7 DUP3 DUP8 ADD PUSH2 0x376 JUMP JUMPDEST SWAP4 POP POP PUSH1 0x20 DUP5 ADD CALLDATALOAD PUSH8 0xFFFFFFFFFFFFFFFF DUP2 GT ISZERO PUSH2 0x54B JUMPI PUSH2 0x54A PUSH2 0x32C JUMP JUMPDEST JUMPDEST PUSH2 0x557 DUP7 DUP3 DUP8 ADD PUSH2 0x4B1 JUMP JUMPDEST SWAP3 POP SWAP3 POP POP SWAP3 POP SWAP3 POP SWAP3 JUMP JUMPDEST PUSH2 0x56C DUP2 PUSH2 0x34F JUMP JUMPDEST DUP3 MSTORE POP POP JUMP JUMPDEST PUSH2 0x57B DUP2 PUSH2 0x38A JUMP JUMPDEST DUP3 MSTORE POP POP JUMP JUMPDEST PUSH0 PUSH1 0x40 DUP3 ADD SWAP1 POP PUSH2 0x594 PUSH0 DUP4 ADD DUP6 PUSH2 0x563 JUMP JUMPDEST PUSH2 0x5A1 PUSH1 0x20 DUP4 ADD DUP5 PUSH2 0x572 JUMP JUMPDEST SWAP4 SWAP3 POP POP POP JUMP JUMPDEST PUSH0 DUP2 SWAP1 POP SWAP3 SWAP2 POP POP JUMP JUMPDEST DUP3 DUP2 DUP4 CALLDATACOPY PUSH0 DUP4 DUP4 ADD MSTORE POP POP POP JUMP JUMPDEST PUSH0 PUSH2 0x5CB DUP4 DUP6 PUSH2 0x5A8 JUMP JUMPDEST SWAP4 POP PUSH2 0x5D8 DUP4 DUP6 DUP5 PUSH2 0x5B2 JUMP JUMPDEST DUP3 DUP5 ADD SWAP1 POP SWAP4 SWAP3 POP POP POP JUMP JUMPDEST PUSH0 PUSH2 0x5F0 DUP3 DUP5 DUP7 PUSH2 0x5C0 JUMP JUMPDEST SWAP2 POP DUP2 SWAP1 POP SWAP4 SWAP3 POP POP POP JUMP JUMPDEST PUSH0 DUP3 DUP3 MSTORE PUSH1 0x20 DUP3 ADD SWAP1 POP SWAP3 SWAP2 POP POP JUMP JUMPDEST PUSH32 0x63616C6C206661696C6564000000000000000000000000000000000000000000 PUSH0 DUP3 ADD MSTORE POP JUMP JUMPDEST PUSH0 PUSH2 0x640 PUSH1 0xB DUP4 PUSH2 0x5FC JUMP JUMPDEST SWAP2 POP PUSH2 0x64B DUP3 PUSH2 0x60C JUMP JUMPDEST PUSH1 0x20 DUP3 ADD SWAP1 POP SWAP2 SWAP1 POP JUMP JUMPDEST PUSH0 PUSH1 0x20 DUP3 ADD SWAP1 POP DUP2 DUP2 SUB PUSH0 DUP4 ADD MSTORE PUSH2 0x66D DUP2 PUSH2 0x634 JUMP JUMPDEST SWAP1 POP SWAP2 SWAP1 POP JUMP INVALID LOG2 PUSH5 0x6970667358 0x22 SLT KECCAK256 TIMESTAMP SELFBALANCE 0xBA CALLDATALOAD 0xEC SLT SIGNEXTEND PUSH22 0x9ACA50DB81D1F9D12FEDF192716B00499CC782E44C95 0x2C JUMPDEST PUSH5 0x736F6C6343 STOP ADDMOD AND STOP CALLER "
				},
				"gasEstimates": {
					"creation": {
						"codeDepositCost": "341200",
						"executionCost": "378",
						"totalCost": "341578"
					},
					"external": {
						"encodeCall(address,uint256)": "infinite",
						"encodeWithSelector(address,uint256)": "infinite",
						"encodeWithSignature(address,uint256)": "infinite",
						"test(address,bytes)": "infinite"
					}
				},
				"methodIdentifiers": {
					"encodeCall(address,uint256)": "25adff1c",
					"encodeWithSelector(address,uint256)": "5fc6ac0e",
					"encodeWithSignature(address,uint256)": "7e3b06fb",
					"test(address,bytes)": "93e01418"
				}
			},
			"storageLayout": {
				"storage": [],
				"types": null
			},
			"userdoc": {
				"kind": "user",
				"methods": {},
				"version": 1
			}
		}
	}
}