{
	"43-creatingAContractFromContract.sol": {
		"CarFactory": {
			"abi": [
				{
					"inputs": [
						{
							"internalType": "uint256",
							"name": "",
							"type": "uint256"
						}
					],
					"name": "cars",
					"outputs": [
						{
							"internalType": "contract Car",
							"name": "",
							"type": "address"
						}
					],
					"stateMutability": "view",
					"type": "function"
				},
				{
					"inputs": [
						{
							"internalType": "address",
							"name": "_owner",
							"type": "address"
						},
						{
							"internalType": "string",
							"name": "_model",
							"type": "string"
						}
					],
					"name": "create",
					"outputs": [],
					"stateMutability": "nonpayable",
					"type": "function"
				},
				{
					"inputs": [
						{
							"internalType": "address",
							"name": "_owner",
							"type": "address"
						},
						{
							"internalType": "string",
							"name": "_model",
							"type": "string"
						},
						{
							"internalType": "bytes32",
							"name": "_salt",
							"type": "bytes32"
						}
					],
					"name": "create2",
					"outputs": [],
					"stateMutability": "nonpayable",
					"type": "function"
				},
				{
					"inputs": [
						{
							"internalType": "address",
							"name": "_owner",
							"type": "address"
						},
						{
							"internalType": "string",
							"name": "_model",
							"type": "string"
						},
						{
							"internalType": "bytes32",
							"name": "_salt",
							"type": "bytes32"
						}
					],
					"name": "create2AndSendEther",
					"outputs": [],
					"stateMutability": "payable",
					"type": "function"
				},
				{
					"inputs": [
						{
							"internalType": "address",
							"name": "_owner",
							"type": "address"
						},
						{
							"internalType": "string",
							"name": "_model",
							"type": "string"
						}
					],
					"name": "createAndSendEther",
					"outputs": [],
					"stateMutability": "payable",
					"type": "function"
				},
				{
					"inputs": [
						{
							"internalType": "uint256",
							"name": "_index",
							"type": "uint256"
						}
					],
					"name": "getCar",
					"outputs": [
						{
							"internalType": "address",
							"name": "owner",
							"type": "address"
						},
						{
							"internalType": "string",
							"name": "model",
							"type": "string"
						},
						{
							"internalType": "address",
							"name": "carAddress",
							"type": "address"
						},
						{
							"internalType": "uint256",
							"name": "balance",
							"type": "uint256"
						}
					],
					"stateMutability": "view",
					"type": "function"
				}
			],
			"devdoc": {
				"kind": "dev",
				"methods": {},
				"version": 1
			},
			"evm": {
				"assembly": "    /* \"43-creatingAContractFromContract.sol\":879:2909  contract CarFactory {... */\n  mstore(0x40, 0x80)\n  callvalue\n  dup1\n  iszero\n  tag_1\n  jumpi\n  0x00\n  dup1\n  revert\ntag_1:\n  pop\n  dataSize(sub_0)\n  dup1\n  dataOffset(sub_0)\n  0x00\n  codecopy\n  0x00\n  return\nstop\n\nsub_0: assembly {\n        /* \"43-creatingAContractFromContract.sol\":879:2909  contract CarFactory {... */\n      mstore(0x40, 0x80)\n      jumpi(tag_1, lt(calldatasize, 0x04))\n      shr(0xe0, calldataload(0x00))\n      dup1\n      0x3d4b3015\n      eq\n      tag_2\n      jumpi\n      dup1\n      0x5e8be190\n      eq\n      tag_3\n      jumpi\n      dup1\n      0xa15ab08d\n      eq\n      tag_4\n      jumpi\n      dup1\n      0xace276ee\n      eq\n      tag_5\n      jumpi\n      dup1\n      0xc33cd615\n      eq\n      tag_6\n      jumpi\n      dup1\n      0xf7746e36\n      eq\n      tag_7\n      jumpi\n    tag_1:\n      0x00\n      dup1\n      revert\n        /* \"43-creatingAContractFromContract.sol\":2042:2380  function create2AndSendEther(... */\n    tag_2:\n      tag_8\n      0x04\n      dup1\n      calldatasize\n      sub\n      dup2\n      add\n      swap1\n      tag_9\n      swap2\n      swap1\n      tag_10\n      jump\t// in\n    tag_9:\n      tag_11\n      jump\t// in\n    tag_8:\n      stop\n        /* \"43-creatingAContractFromContract.sol\":2466:2907  function getCar(uint _index) ... */\n    tag_3:\n      callvalue\n      dup1\n      iszero\n      tag_12\n      jumpi\n      0x00\n      dup1\n      revert\n    tag_12:\n      pop\n      tag_13\n      0x04\n      dup1\n      calldatasize\n      sub\n      dup2\n      add\n      swap1\n      tag_14\n      swap2\n      swap1\n      tag_15\n      jump\t// in\n    tag_14:\n      tag_16\n      jump\t// in\n    tag_13:\n      mload(0x40)\n      tag_17\n      swap5\n      swap4\n      swap3\n      swap2\n      swap1\n      tag_18\n      jump\t// in\n    tag_17:\n      mload(0x40)\n      dup1\n      swap2\n      sub\n      swap1\n      return\n        /* \"43-creatingAContractFromContract.sol\":1023:1234  function create (address _owner, string memory _model) public {... */\n    tag_4:\n      callvalue\n      dup1\n      iszero\n      tag_19\n      jumpi\n      0x00\n      dup1\n      revert\n    tag_19:\n      pop\n      tag_20\n      0x04\n      dup1\n      calldatasize\n      sub\n      dup2\n      add\n      swap1\n      tag_21\n      swap2\n      swap1\n      tag_22\n      jump\t// in\n    tag_21:\n      tag_23\n      jump\t// in\n    tag_20:\n      stop\n        /* \"43-creatingAContractFromContract.sol\":1662:1953  function create2 (... */\n    tag_5:\n      callvalue\n      dup1\n      iszero\n      tag_24\n      jumpi\n      0x00\n      dup1\n      revert\n    tag_24:\n      pop\n      tag_25\n      0x04\n      dup1\n      calldatasize\n      sub\n      dup2\n      add\n      swap1\n      tag_26\n      swap2\n      swap1\n      tag_10\n      jump\t// in\n    tag_26:\n      tag_27\n      jump\t// in\n    tag_25:\n      stop\n        /* \"43-creatingAContractFromContract.sol\":1300:1562  function createAndSendEther (address _owner, string memory _model) public payable {... */\n    tag_6:\n      tag_28\n      0x04\n      dup1\n      calldatasize\n      sub\n      dup2\n      add\n      swap1\n      tag_29\n      swap2\n      swap1\n      tag_22\n      jump\t// in\n    tag_29:\n      tag_30\n      jump\t// in\n    tag_28:\n      stop\n        /* \"43-creatingAContractFromContract.sol\":905:922  Car[] public cars */\n    tag_7:\n      callvalue\n      dup1\n      iszero\n      tag_31\n      jumpi\n      0x00\n      dup1\n      revert\n    tag_31:\n      pop\n      tag_32\n      0x04\n      dup1\n      calldatasize\n      sub\n      dup2\n      add\n      swap1\n      tag_33\n      swap2\n      swap1\n      tag_15\n      jump\t// in\n    tag_33:\n      tag_34\n      jump\t// in\n    tag_32:\n      mload(0x40)\n      tag_35\n      swap2\n      swap1\n      tag_36\n      jump\t// in\n    tag_35:\n      mload(0x40)\n      dup1\n      swap2\n      sub\n      swap1\n      return\n        /* \"43-creatingAContractFromContract.sol\":2042:2380  function create2AndSendEther(... */\n    tag_11:\n        /* \"43-creatingAContractFromContract.sol\":2179:2186  Car car */\n      0x00\n        /* \"43-creatingAContractFromContract.sol\":2206:2215  msg.value */\n      callvalue\n        /* \"43-creatingAContractFromContract.sol\":2223:2228  _salt */\n      dup3\n        /* \"43-creatingAContractFromContract.sol\":2189:2245  (new Car){value: msg.value, salt: _salt}(_owner, _model) */\n      swap1\n        /* \"43-creatingAContractFromContract.sol\":2230:2236  _owner */\n      dup6\n        /* \"43-creatingAContractFromContract.sol\":2238:2244  _model */\n      dup6\n        /* \"43-creatingAContractFromContract.sol\":2189:2245  (new Car){value: msg.value, salt: _salt}(_owner, _model) */\n      mload(0x40)\n      tag_38\n      swap1\n      tag_39\n      jump\t// in\n    tag_38:\n      tag_40\n      swap3\n      swap2\n      swap1\n      tag_41\n      jump\t// in\n    tag_40:\n      dup3\n      swap1\n      mload(0x40)\n      dup1\n      swap2\n      sub\n      swap1\n      dup4\n      create2\n      swap1\n      pop\n      swap1\n      pop\n      dup1\n      iszero\n      dup1\n      iszero\n      tag_42\n      jumpi\n      returndatasize\n      0x00\n      dup1\n      returndatacopy\n      revert(0x00, returndatasize)\n    tag_42:\n      pop\n        /* \"43-creatingAContractFromContract.sol\":2179:2245  Car car = (new Car){value: msg.value, salt: _salt}(_owner, _model) */\n      swap1\n      pop\n        /* \"43-creatingAContractFromContract.sol\":2313:2317  cars */\n      0x00\n        /* \"43-creatingAContractFromContract.sol\":2323:2326  car */\n      dup2\n        /* \"43-creatingAContractFromContract.sol\":2313:2327  cars.push(car) */\n      swap1\n      dup1\n      0x01\n      dup2\n      sload\n      add\n      dup1\n      dup3\n      sstore\n      dup1\n      swap2\n      pop\n      pop\n      0x01\n      swap1\n      sub\n      swap1\n      0x00\n      mstore\n      keccak256(0x00, 0x20)\n      add\n      0x00\n      swap1\n      swap2\n      swap1\n      swap2\n      swap1\n      swap2\n      0x0100\n      exp\n      dup2\n      sload\n      dup2\n      0xffffffffffffffffffffffffffffffffffffffff\n      mul\n      not\n      and\n      swap1\n      dup4\n      0xffffffffffffffffffffffffffffffffffffffff\n      and\n      mul\n      or\n      swap1\n      sstore\n      pop\n        /* \"43-creatingAContractFromContract.sol\":2169:2380  {... */\n      pop\n        /* \"43-creatingAContractFromContract.sol\":2042:2380  function create2AndSendEther(... */\n      pop\n      pop\n      pop\n      jump\t// out\n        /* \"43-creatingAContractFromContract.sol\":2466:2907  function getCar(uint _index) ... */\n    tag_16:\n        /* \"43-creatingAContractFromContract.sol\":2556:2569  address owner */\n      0x00\n        /* \"43-creatingAContractFromContract.sol\":2583:2602  string memory model */\n      0x60\n        /* \"43-creatingAContractFromContract.sol\":2616:2634  address carAddress */\n      0x00\n        /* \"43-creatingAContractFromContract.sol\":2648:2660  uint balance */\n      dup1\n        /* \"43-creatingAContractFromContract.sol\":2685:2692  Car car */\n      0x00\n        /* \"43-creatingAContractFromContract.sol\":2695:2699  cars */\n      dup1\n        /* \"43-creatingAContractFromContract.sol\":2700:2706  _index */\n      dup7\n        /* \"43-creatingAContractFromContract.sol\":2695:2707  cars[_index] */\n      dup2\n      sload\n      dup2\n      lt\n      tag_45\n      jumpi\n      tag_46\n      tag_47\n      jump\t// in\n    tag_46:\n    tag_45:\n      swap1\n      0x00\n      mstore\n      keccak256(0x00, 0x20)\n      add\n      0x00\n      swap1\n      sload\n      swap1\n      0x0100\n      exp\n      swap1\n      div\n      0xffffffffffffffffffffffffffffffffffffffff\n      and\n        /* \"43-creatingAContractFromContract.sol\":2685:2707  Car car = cars[_index] */\n      swap1\n      pop\n        /* \"43-creatingAContractFromContract.sol\":2831:2834  car */\n      dup1\n        /* \"43-creatingAContractFromContract.sol\":2831:2840  car.owner */\n      0xffffffffffffffffffffffffffffffffffffffff\n      and\n      0x8da5cb5b\n        /* \"43-creatingAContractFromContract.sol\":2831:2842  car.owner() */\n      mload(0x40)\n      dup2\n      0xffffffff\n      and\n      0xe0\n      shl\n      dup2\n      mstore\n      0x04\n      add\n      0x20\n      mload(0x40)\n      dup1\n      dup4\n      sub\n      dup2\n      dup7\n      gas\n      staticcall\n      iszero\n      dup1\n      iszero\n      tag_50\n      jumpi\n      returndatasize\n      0x00\n      dup1\n      returndatacopy\n      revert(0x00, returndatasize)\n    tag_50:\n      pop\n      pop\n      pop\n      pop\n      mload(0x40)\n      returndatasize\n      not(0x1f)\n      0x1f\n      dup3\n      add\n      and\n      dup3\n      add\n      dup1\n      0x40\n      mstore\n      pop\n      dup2\n      add\n      swap1\n      tag_51\n      swap2\n      swap1\n      tag_52\n      jump\t// in\n    tag_51:\n        /* \"43-creatingAContractFromContract.sol\":2844:2847  car */\n      dup2\n        /* \"43-creatingAContractFromContract.sol\":2844:2853  car.model */\n      0xffffffffffffffffffffffffffffffffffffffff\n      and\n      0x0ad9d052\n        /* \"43-creatingAContractFromContract.sol\":2844:2855  car.model() */\n      mload(0x40)\n      dup2\n      0xffffffff\n      and\n      0xe0\n      shl\n      dup2\n      mstore\n      0x04\n      add\n      0x00\n      mload(0x40)\n      dup1\n      dup4\n      sub\n      dup2\n      dup7\n      gas\n      staticcall\n      iszero\n      dup1\n      iszero\n      tag_54\n      jumpi\n      returndatasize\n      0x00\n      dup1\n      returndatacopy\n      revert(0x00, returndatasize)\n    tag_54:\n      pop\n      pop\n      pop\n      pop\n      mload(0x40)\n      returndatasize\n      0x00\n      dup3\n      returndatacopy\n      returndatasize\n      not(0x1f)\n      0x1f\n      dup3\n      add\n      and\n      dup3\n      add\n      dup1\n      0x40\n      mstore\n      pop\n      dup2\n      add\n      swap1\n      tag_55\n      swap2\n      swap1\n      tag_56\n      jump\t// in\n    tag_55:\n        /* \"43-creatingAContractFromContract.sol\":2857:2860  car */\n      dup3\n        /* \"43-creatingAContractFromContract.sol\":2857:2871  car.carAddress */\n      0xffffffffffffffffffffffffffffffffffffffff\n      and\n      0xcdcf1a18\n        /* \"43-creatingAContractFromContract.sol\":2857:2873  car.carAddress() */\n      mload(0x40)\n      dup2\n      0xffffffff\n      and\n      0xe0\n      shl\n      dup2\n      mstore\n      0x04\n      add\n      0x20\n      mload(0x40)\n      dup1\n      dup4\n      sub\n      dup2\n      dup7\n      gas\n      staticcall\n      iszero\n      dup1\n      iszero\n      tag_58\n      jumpi\n      returndatasize\n      0x00\n      dup1\n      returndatacopy\n      revert(0x00, returndatasize)\n    tag_58:\n      pop\n      pop\n      pop\n      pop\n      mload(0x40)\n      returndatasize\n      not(0x1f)\n      0x1f\n      dup3\n      add\n      and\n      dup3\n      add\n      dup1\n      0x40\n      mstore\n      pop\n      dup2\n      add\n      swap1\n      tag_59\n      swap2\n      swap1\n      tag_52\n      jump\t// in\n    tag_59:\n        /* \"43-creatingAContractFromContract.sol\":2883:2886  car */\n      dup4\n        /* \"43-creatingAContractFromContract.sol\":2875:2895  address(car).balance */\n      0xffffffffffffffffffffffffffffffffffffffff\n      and\n      balance\n        /* \"43-creatingAContractFromContract.sol\":2823:2896  return (car.owner(), car.model(), car.carAddress(), address(car).balance) */\n      swap5\n      pop\n      swap5\n      pop\n      swap5\n      pop\n      swap5\n      pop\n      pop\n        /* \"43-creatingAContractFromContract.sol\":2466:2907  function getCar(uint _index) ... */\n      swap2\n      swap4\n      pop\n      swap2\n      swap4\n      jump\t// out\n        /* \"43-creatingAContractFromContract.sol\":1023:1234  function create (address _owner, string memory _model) public {... */\n    tag_23:\n        /* \"43-creatingAContractFromContract.sol\":1095:1102  Car car */\n      0x00\n        /* \"43-creatingAContractFromContract.sol\":1113:1119  _owner */\n      dup3\n        /* \"43-creatingAContractFromContract.sol\":1121:1127  _model */\n      dup3\n        /* \"43-creatingAContractFromContract.sol\":1105:1128  new Car(_owner, _model) */\n      mload(0x40)\n      tag_61\n      swap1\n      tag_39\n      jump\t// in\n    tag_61:\n      tag_62\n      swap3\n      swap2\n      swap1\n      tag_41\n      jump\t// in\n    tag_62:\n      mload(0x40)\n      dup1\n      swap2\n      sub\n      swap1\n      0x00\n      create\n      dup1\n      iszero\n      dup1\n      iszero\n      tag_63\n      jumpi\n      returndatasize\n      0x00\n      dup1\n      returndatacopy\n      revert(0x00, returndatasize)\n    tag_63:\n      pop\n        /* \"43-creatingAContractFromContract.sol\":1095:1128  Car car = new Car(_owner, _model) */\n      swap1\n      pop\n        /* \"43-creatingAContractFromContract.sol\":1167:1171  cars */\n      0x00\n        /* \"43-creatingAContractFromContract.sol\":1177:1180  car */\n      dup2\n        /* \"43-creatingAContractFromContract.sol\":1167:1181  cars.push(car) */\n      swap1\n      dup1\n      0x01\n      dup2\n      sload\n      add\n      dup1\n      dup3\n      sstore\n      dup1\n      swap2\n      pop\n      pop\n      0x01\n      swap1\n      sub\n      swap1\n      0x00\n      mstore\n      keccak256(0x00, 0x20)\n      add\n      0x00\n      swap1\n      swap2\n      swap1\n      swap2\n      swap1\n      swap2\n      0x0100\n      exp\n      dup2\n      sload\n      dup2\n      0xffffffffffffffffffffffffffffffffffffffff\n      mul\n      not\n      and\n      swap1\n      dup4\n      0xffffffffffffffffffffffffffffffffffffffff\n      and\n      mul\n      or\n      swap1\n      sstore\n      pop\n        /* \"43-creatingAContractFromContract.sol\":1085:1234  {... */\n      pop\n        /* \"43-creatingAContractFromContract.sol\":1023:1234  function create (address _owner, string memory _model) public {... */\n      pop\n      pop\n      jump\t// out\n        /* \"43-creatingAContractFromContract.sol\":1662:1953  function create2 (... */\n    tag_27:\n        /* \"43-creatingAContractFromContract.sol\":1780:1787  Car car */\n      0x00\n        /* \"43-creatingAContractFromContract.sol\":1806:1811  _salt */\n      dup2\n        /* \"43-creatingAContractFromContract.sol\":1813:1819  _owner */\n      dup5\n        /* \"43-creatingAContractFromContract.sol\":1821:1827  _model */\n      dup5\n        /* \"43-creatingAContractFromContract.sol\":1790:1828  (new Car){salt: _salt}(_owner, _model) */\n      mload(0x40)\n      tag_66\n      swap1\n      tag_39\n      jump\t// in\n    tag_66:\n      tag_67\n      swap3\n      swap2\n      swap1\n      tag_41\n      jump\t// in\n    tag_67:\n      dup2\n      swap1\n      mload(0x40)\n      dup1\n      swap2\n      sub\n      swap1\n      0x00\n      create2\n      swap1\n      pop\n      dup1\n      iszero\n      dup1\n      iszero\n      tag_68\n      jumpi\n      returndatasize\n      0x00\n      dup1\n      returndatacopy\n      revert(0x00, returndatasize)\n    tag_68:\n      pop\n        /* \"43-creatingAContractFromContract.sol\":1780:1828  Car car = (new Car){salt: _salt}(_owner, _model) */\n      swap1\n      pop\n        /* \"43-creatingAContractFromContract.sol\":1886:1890  cars */\n      0x00\n        /* \"43-creatingAContractFromContract.sol\":1896:1899  car */\n      dup2\n        /* \"43-creatingAContractFromContract.sol\":1886:1900  cars.push(car) */\n      swap1\n      dup1\n      0x01\n      dup2\n      sload\n      add\n      dup1\n      dup3\n      sstore\n      dup1\n      swap2\n      pop\n      pop\n      0x01\n      swap1\n      sub\n      swap1\n      0x00\n      mstore\n      keccak256(0x00, 0x20)\n      add\n      0x00\n      swap1\n      swap2\n      swap1\n      swap2\n      swap1\n      swap2\n      0x0100\n      exp\n      dup2\n      sload\n      dup2\n      0xffffffffffffffffffffffffffffffffffffffff\n      mul\n      not\n      and\n      swap1\n      dup4\n      0xffffffffffffffffffffffffffffffffffffffff\n      and\n      mul\n      or\n      swap1\n      sstore\n      pop\n        /* \"43-creatingAContractFromContract.sol\":1770:1953  {... */\n      pop\n        /* \"43-creatingAContractFromContract.sol\":1662:1953  function create2 (... */\n      pop\n      pop\n      pop\n      jump\t// out\n        /* \"43-creatingAContractFromContract.sol\":1300:1562  function createAndSendEther (address _owner, string memory _model) public payable {... */\n    tag_30:\n        /* \"43-creatingAContractFromContract.sol\":1392:1399  Car car */\n      0x00\n        /* \"43-creatingAContractFromContract.sol\":1419:1428  msg.value */\n      callvalue\n        /* \"43-creatingAContractFromContract.sol\":1430:1436  _owner */\n      dup4\n        /* \"43-creatingAContractFromContract.sol\":1438:1444  _model */\n      dup4\n        /* \"43-creatingAContractFromContract.sol\":1402:1445  (new Car){value: msg.value}(_owner, _model) */\n      mload(0x40)\n      tag_71\n      swap1\n      tag_39\n      jump\t// in\n    tag_71:\n      tag_72\n      swap3\n      swap2\n      swap1\n      tag_41\n      jump\t// in\n    tag_72:\n      mload(0x40)\n      dup1\n      swap2\n      sub\n      swap1\n      dup3\n      create\n      swap1\n      pop\n      dup1\n      iszero\n      dup1\n      iszero\n      tag_73\n      jumpi\n      returndatasize\n      0x00\n      dup1\n      returndatacopy\n      revert(0x00, returndatasize)\n    tag_73:\n      pop\n        /* \"43-creatingAContractFromContract.sol\":1392:1445  Car car = (new Car){value: msg.value}(_owner, _model) */\n      swap1\n      pop\n        /* \"43-creatingAContractFromContract.sol\":1495:1499  cars */\n      0x00\n        /* \"43-creatingAContractFromContract.sol\":1505:1508  car */\n      dup2\n        /* \"43-creatingAContractFromContract.sol\":1495:1509  cars.push(car) */\n      swap1\n      dup1\n      0x01\n      dup2\n      sload\n      add\n      dup1\n      dup3\n      sstore\n      dup1\n      swap2\n      pop\n      pop\n      0x01\n      swap1\n      sub\n      swap1\n      0x00\n      mstore\n      keccak256(0x00, 0x20)\n      add\n      0x00\n      swap1\n      swap2\n      swap1\n      swap2\n      swap1\n      swap2\n      0x0100\n      exp\n      dup2\n      sload\n      dup2\n      0xffffffffffffffffffffffffffffffffffffffff\n      mul\n      not\n      and\n      swap1\n      dup4\n      0xffffffffffffffffffffffffffffffffffffffff\n      and\n      mul\n      or\n      swap1\n      sstore\n      pop\n        /* \"43-creatingAContractFromContract.sol\":1382:1562  {... */\n      pop\n        /* \"43-creatingAContractFromContract.sol\":1300:1562  function createAndSendEther (address _owner, string memory _model) public payable {... */\n      pop\n      pop\n      jump\t// out\n        /* \"43-creatingAContractFromContract.sol\":905:922  Car[] public cars */\n    tag_34:\n      0x00\n      dup2\n      dup2\n      sload\n      dup2\n      lt\n      tag_75\n      jumpi\n      0x00\n      dup1\n      revert\n    tag_75:\n      swap1\n      0x00\n      mstore\n      keccak256(0x00, 0x20)\n      add\n      0x00\n      swap2\n      pop\n      sload\n      swap1\n      0x0100\n      exp\n      swap1\n      div\n      0xffffffffffffffffffffffffffffffffffffffff\n      and\n      dup2\n      jump\t// out\n    tag_39:\n      dataSize(sub_0)\n      dup1\n      dataOffset(sub_0)\n      dup4\n      codecopy\n      add\n      swap1\n      jump\t// out\n        /* \"#utility.yul\":7:82   */\n    tag_77:\n        /* \"#utility.yul\":40:46   */\n      0x00\n        /* \"#utility.yul\":73:75   */\n      0x40\n        /* \"#utility.yul\":67:76   */\n      mload\n        /* \"#utility.yul\":57:76   */\n      swap1\n      pop\n        /* \"#utility.yul\":7:82   */\n      swap1\n      jump\t// out\n        /* \"#utility.yul\":88:205   */\n    tag_78:\n        /* \"#utility.yul\":197:198   */\n      0x00\n        /* \"#utility.yul\":194:195   */\n      dup1\n        /* \"#utility.yul\":187:199   */\n      revert\n        /* \"#utility.yul\":211:328   */\n    tag_79:\n        /* \"#utility.yul\":320:321   */\n      0x00\n        /* \"#utility.yul\":317:318   */\n      dup1\n        /* \"#utility.yul\":310:322   */\n      revert\n        /* \"#utility.yul\":334:460   */\n    tag_80:\n        /* \"#utility.yul\":371:378   */\n      0x00\n        /* \"#utility.yul\":411:453   */\n      0xffffffffffffffffffffffffffffffffffffffff\n        /* \"#utility.yul\":404:409   */\n      dup3\n        /* \"#utility.yul\":400:454   */\n      and\n        /* \"#utility.yul\":389:454   */\n      swap1\n      pop\n        /* \"#utility.yul\":334:460   */\n      swap2\n      swap1\n      pop\n      jump\t// out\n        /* \"#utility.yul\":466:562   */\n    tag_81:\n        /* \"#utility.yul\":503:510   */\n      0x00\n        /* \"#utility.yul\":532:556   */\n      tag_120\n        /* \"#utility.yul\":550:555   */\n      dup3\n        /* \"#utility.yul\":532:556   */\n      tag_80\n      jump\t// in\n    tag_120:\n        /* \"#utility.yul\":521:556   */\n      swap1\n      pop\n        /* \"#utility.yul\":466:562   */\n      swap2\n      swap1\n      pop\n      jump\t// out\n        /* \"#utility.yul\":568:690   */\n    tag_82:\n        /* \"#utility.yul\":641:665   */\n      tag_122\n        /* \"#utility.yul\":659:664   */\n      dup2\n        /* \"#utility.yul\":641:665   */\n      tag_81\n      jump\t// in\n    tag_122:\n        /* \"#utility.yul\":634:639   */\n      dup2\n        /* \"#utility.yul\":631:666   */\n      eq\n        /* \"#utility.yul\":621:684   */\n      tag_123\n      jumpi\n        /* \"#utility.yul\":680:681   */\n      0x00\n        /* \"#utility.yul\":677:678   */\n      dup1\n        /* \"#utility.yul\":670:682   */\n      revert\n        /* \"#utility.yul\":621:684   */\n    tag_123:\n        /* \"#utility.yul\":568:690   */\n      pop\n      jump\t// out\n        /* \"#utility.yul\":696:835   */\n    tag_83:\n        /* \"#utility.yul\":742:747   */\n      0x00\n        /* \"#utility.yul\":780:786   */\n      dup2\n        /* \"#utility.yul\":767:787   */\n      calldataload\n        /* \"#utility.yul\":758:787   */\n      swap1\n      pop\n        /* \"#utility.yul\":796:829   */\n      tag_125\n        /* \"#utility.yul\":823:828   */\n      dup2\n        /* \"#utility.yul\":796:829   */\n      tag_82\n      jump\t// in\n    tag_125:\n        /* \"#utility.yul\":696:835   */\n      swap3\n      swap2\n      pop\n      pop\n      jump\t// out\n        /* \"#utility.yul\":841:958   */\n    tag_84:\n        /* \"#utility.yul\":950:951   */\n      0x00\n        /* \"#utility.yul\":947:948   */\n      dup1\n        /* \"#utility.yul\":940:952   */\n      revert\n        /* \"#utility.yul\":964:1081   */\n    tag_85:\n        /* \"#utility.yul\":1073:1074   */\n      0x00\n        /* \"#utility.yul\":1070:1071   */\n      dup1\n        /* \"#utility.yul\":1063:1075   */\n      revert\n        /* \"#utility.yul\":1087:1189   */\n    tag_86:\n        /* \"#utility.yul\":1128:1134   */\n      0x00\n        /* \"#utility.yul\":1179:1181   */\n      0x1f\n        /* \"#utility.yul\":1175:1182   */\n      not\n        /* \"#utility.yul\":1170:1172   */\n      0x1f\n        /* \"#utility.yul\":1163:1168   */\n      dup4\n        /* \"#utility.yul\":1159:1173   */\n      add\n        /* \"#utility.yul\":1155:1183   */\n      and\n        /* \"#utility.yul\":1145:1183   */\n      swap1\n      pop\n        /* \"#utility.yul\":1087:1189   */\n      swap2\n      swap1\n      pop\n      jump\t// out\n        /* \"#utility.yul\":1195:1375   */\n    tag_87:\n        /* \"#utility.yul\":1243:1320   */\n      0x4e487b7100000000000000000000000000000000000000000000000000000000\n        /* \"#utility.yul\":1240:1241   */\n      0x00\n        /* \"#utility.yul\":1233:1321   */\n      mstore\n        /* \"#utility.yul\":1340:1344   */\n      0x41\n        /* \"#utility.yul\":1337:1338   */\n      0x04\n        /* \"#utility.yul\":1330:1345   */\n      mstore\n        /* \"#utility.yul\":1364:1368   */\n      0x24\n        /* \"#utility.yul\":1361:1362   */\n      0x00\n        /* \"#utility.yul\":1354:1369   */\n      revert\n        /* \"#utility.yul\":1381:1662   */\n    tag_88:\n        /* \"#utility.yul\":1464:1491   */\n      tag_131\n        /* \"#utility.yul\":1486:1490   */\n      dup3\n        /* \"#utility.yul\":1464:1491   */\n      tag_86\n      jump\t// in\n    tag_131:\n        /* \"#utility.yul\":1456:1462   */\n      dup2\n        /* \"#utility.yul\":1452:1492   */\n      add\n        /* \"#utility.yul\":1594:1600   */\n      dup2\n        /* \"#utility.yul\":1582:1592   */\n      dup2\n        /* \"#utility.yul\":1579:1601   */\n      lt\n        /* \"#utility.yul\":1558:1576   */\n      0xffffffffffffffff\n        /* \"#utility.yul\":1546:1556   */\n      dup3\n        /* \"#utility.yul\":1543:1577   */\n      gt\n        /* \"#utility.yul\":1540:1602   */\n      or\n        /* \"#utility.yul\":1537:1625   */\n      iszero\n      tag_132\n      jumpi\n        /* \"#utility.yul\":1605:1623   */\n      tag_133\n      tag_87\n      jump\t// in\n    tag_133:\n        /* \"#utility.yul\":1537:1625   */\n    tag_132:\n        /* \"#utility.yul\":1645:1655   */\n      dup1\n        /* \"#utility.yul\":1641:1643   */\n      0x40\n        /* \"#utility.yul\":1634:1656   */\n      mstore\n        /* \"#utility.yul\":1424:1662   */\n      pop\n        /* \"#utility.yul\":1381:1662   */\n      pop\n      pop\n      jump\t// out\n        /* \"#utility.yul\":1668:1797   */\n    tag_89:\n        /* \"#utility.yul\":1702:1708   */\n      0x00\n        /* \"#utility.yul\":1729:1749   */\n      tag_135\n      tag_77\n      jump\t// in\n    tag_135:\n        /* \"#utility.yul\":1719:1749   */\n      swap1\n      pop\n        /* \"#utility.yul\":1758:1791   */\n      tag_136\n        /* \"#utility.yul\":1786:1790   */\n      dup3\n        /* \"#utility.yul\":1778:1784   */\n      dup3\n        /* \"#utility.yul\":1758:1791   */\n      tag_88\n      jump\t// in\n    tag_136:\n        /* \"#utility.yul\":1668:1797   */\n      swap2\n      swap1\n      pop\n      jump\t// out\n        /* \"#utility.yul\":1803:2111   */\n    tag_90:\n        /* \"#utility.yul\":1865:1869   */\n      0x00\n        /* \"#utility.yul\":1955:1973   */\n      0xffffffffffffffff\n        /* \"#utility.yul\":1947:1953   */\n      dup3\n        /* \"#utility.yul\":1944:1974   */\n      gt\n        /* \"#utility.yul\":1941:1997   */\n      iszero\n      tag_138\n      jumpi\n        /* \"#utility.yul\":1977:1995   */\n      tag_139\n      tag_87\n      jump\t// in\n    tag_139:\n        /* \"#utility.yul\":1941:1997   */\n    tag_138:\n        /* \"#utility.yul\":2015:2044   */\n      tag_140\n        /* \"#utility.yul\":2037:2043   */\n      dup3\n        /* \"#utility.yul\":2015:2044   */\n      tag_86\n      jump\t// in\n    tag_140:\n        /* \"#utility.yul\":2007:2044   */\n      swap1\n      pop\n        /* \"#utility.yul\":2099:2103   */\n      0x20\n        /* \"#utility.yul\":2093:2097   */\n      dup2\n        /* \"#utility.yul\":2089:2104   */\n      add\n        /* \"#utility.yul\":2081:2104   */\n      swap1\n      pop\n        /* \"#utility.yul\":1803:2111   */\n      swap2\n      swap1\n      pop\n      jump\t// out\n        /* \"#utility.yul\":2117:2263   */\n    tag_91:\n        /* \"#utility.yul\":2214:2220   */\n      dup3\n        /* \"#utility.yul\":2209:2212   */\n      dup2\n        /* \"#utility.yul\":2204:2207   */\n      dup4\n        /* \"#utility.yul\":2191:2221   */\n      calldatacopy\n        /* \"#utility.yul\":2255:2256   */\n      0x00\n        /* \"#utility.yul\":2246:2252   */\n      dup4\n        /* \"#utility.yul\":2241:2244   */\n      dup4\n        /* \"#utility.yul\":2237:2253   */\n      add\n        /* \"#utility.yul\":2230:2257   */\n      mstore\n        /* \"#utility.yul\":2117:2263   */\n      pop\n      pop\n      pop\n      jump\t// out\n        /* \"#utility.yul\":2269:2694   */\n    tag_92:\n        /* \"#utility.yul\":2347:2352   */\n      0x00\n        /* \"#utility.yul\":2372:2438   */\n      tag_143\n        /* \"#utility.yul\":2388:2437   */\n      tag_144\n        /* \"#utility.yul\":2430:2436   */\n      dup5\n        /* \"#utility.yul\":2388:2437   */\n      tag_90\n      jump\t// in\n    tag_144:\n        /* \"#utility.yul\":2372:2438   */\n      tag_89\n      jump\t// in\n    tag_143:\n        /* \"#utility.yul\":2363:2438   */\n      swap1\n      pop\n        /* \"#utility.yul\":2461:2467   */\n      dup3\n        /* \"#utility.yul\":2454:2459   */\n      dup2\n        /* \"#utility.yul\":2447:2468   */\n      mstore\n        /* \"#utility.yul\":2499:2503   */\n      0x20\n        /* \"#utility.yul\":2492:2497   */\n      dup2\n        /* \"#utility.yul\":2488:2504   */\n      add\n        /* \"#utility.yul\":2537:2540   */\n      dup5\n        /* \"#utility.yul\":2528:2534   */\n      dup5\n        /* \"#utility.yul\":2523:2526   */\n      dup5\n        /* \"#utility.yul\":2519:2535   */\n      add\n        /* \"#utility.yul\":2516:2541   */\n      gt\n        /* \"#utility.yul\":2513:2625   */\n      iszero\n      tag_145\n      jumpi\n        /* \"#utility.yul\":2544:2623   */\n      tag_146\n      tag_85\n      jump\t// in\n    tag_146:\n        /* \"#utility.yul\":2513:2625   */\n    tag_145:\n        /* \"#utility.yul\":2634:2688   */\n      tag_147\n        /* \"#utility.yul\":2681:2687   */\n      dup5\n        /* \"#utility.yul\":2676:2679   */\n      dup3\n        /* \"#utility.yul\":2671:2674   */\n      dup6\n        /* \"#utility.yul\":2634:2688   */\n      tag_91\n      jump\t// in\n    tag_147:\n        /* \"#utility.yul\":2353:2694   */\n      pop\n        /* \"#utility.yul\":2269:2694   */\n      swap4\n      swap3\n      pop\n      pop\n      pop\n      jump\t// out\n        /* \"#utility.yul\":2714:3054   */\n    tag_93:\n        /* \"#utility.yul\":2770:2775   */\n      0x00\n        /* \"#utility.yul\":2819:2822   */\n      dup3\n        /* \"#utility.yul\":2812:2816   */\n      0x1f\n        /* \"#utility.yul\":2804:2810   */\n      dup4\n        /* \"#utility.yul\":2800:2817   */\n      add\n        /* \"#utility.yul\":2796:2823   */\n      slt\n        /* \"#utility.yul\":2786:2908   */\n      tag_149\n      jumpi\n        /* \"#utility.yul\":2827:2906   */\n      tag_150\n      tag_84\n      jump\t// in\n    tag_150:\n        /* \"#utility.yul\":2786:2908   */\n    tag_149:\n        /* \"#utility.yul\":2944:2950   */\n      dup2\n        /* \"#utility.yul\":2931:2951   */\n      calldataload\n        /* \"#utility.yul\":2969:3048   */\n      tag_151\n        /* \"#utility.yul\":3044:3047   */\n      dup5\n        /* \"#utility.yul\":3036:3042   */\n      dup3\n        /* \"#utility.yul\":3029:3033   */\n      0x20\n        /* \"#utility.yul\":3021:3027   */\n      dup7\n        /* \"#utility.yul\":3017:3034   */\n      add\n        /* \"#utility.yul\":2969:3048   */\n      tag_92\n      jump\t// in\n    tag_151:\n        /* \"#utility.yul\":2960:3048   */\n      swap2\n      pop\n        /* \"#utility.yul\":2776:3054   */\n      pop\n        /* \"#utility.yul\":2714:3054   */\n      swap3\n      swap2\n      pop\n      pop\n      jump\t// out\n        /* \"#utility.yul\":3060:3137   */\n    tag_94:\n        /* \"#utility.yul\":3097:3104   */\n      0x00\n        /* \"#utility.yul\":3126:3131   */\n      dup2\n        /* \"#utility.yul\":3115:3131   */\n      swap1\n      pop\n        /* \"#utility.yul\":3060:3137   */\n      swap2\n      swap1\n      pop\n      jump\t// out\n        /* \"#utility.yul\":3143:3265   */\n    tag_95:\n        /* \"#utility.yul\":3216:3240   */\n      tag_154\n        /* \"#utility.yul\":3234:3239   */\n      dup2\n        /* \"#utility.yul\":3216:3240   */\n      tag_94\n      jump\t// in\n    tag_154:\n        /* \"#utility.yul\":3209:3214   */\n      dup2\n        /* \"#utility.yul\":3206:3241   */\n      eq\n        /* \"#utility.yul\":3196:3259   */\n      tag_155\n      jumpi\n        /* \"#utility.yul\":3255:3256   */\n      0x00\n        /* \"#utility.yul\":3252:3253   */\n      dup1\n        /* \"#utility.yul\":3245:3257   */\n      revert\n        /* \"#utility.yul\":3196:3259   */\n    tag_155:\n        /* \"#utility.yul\":3143:3265   */\n      pop\n      jump\t// out\n        /* \"#utility.yul\":3271:3410   */\n    tag_96:\n        /* \"#utility.yul\":3317:3322   */\n      0x00\n        /* \"#utility.yul\":3355:3361   */\n      dup2\n        /* \"#utility.yul\":3342:3362   */\n      calldataload\n        /* \"#utility.yul\":3333:3362   */\n      swap1\n      pop\n        /* \"#utility.yul\":3371:3404   */\n      tag_157\n        /* \"#utility.yul\":3398:3403   */\n      dup2\n        /* \"#utility.yul\":3371:3404   */\n      tag_95\n      jump\t// in\n    tag_157:\n        /* \"#utility.yul\":3271:3410   */\n      swap3\n      swap2\n      pop\n      pop\n      jump\t// out\n        /* \"#utility.yul\":3416:4215   */\n    tag_10:\n        /* \"#utility.yul\":3503:3509   */\n      0x00\n        /* \"#utility.yul\":3511:3517   */\n      dup1\n        /* \"#utility.yul\":3519:3525   */\n      0x00\n        /* \"#utility.yul\":3568:3570   */\n      0x60\n        /* \"#utility.yul\":3556:3565   */\n      dup5\n        /* \"#utility.yul\":3547:3554   */\n      dup7\n        /* \"#utility.yul\":3543:3566   */\n      sub\n        /* \"#utility.yul\":3539:3571   */\n      slt\n        /* \"#utility.yul\":3536:3655   */\n      iszero\n      tag_159\n      jumpi\n        /* \"#utility.yul\":3574:3653   */\n      tag_160\n      tag_78\n      jump\t// in\n    tag_160:\n        /* \"#utility.yul\":3536:3655   */\n    tag_159:\n        /* \"#utility.yul\":3694:3695   */\n      0x00\n        /* \"#utility.yul\":3719:3772   */\n      tag_161\n        /* \"#utility.yul\":3764:3771   */\n      dup7\n        /* \"#utility.yul\":3755:3761   */\n      dup3\n        /* \"#utility.yul\":3744:3753   */\n      dup8\n        /* \"#utility.yul\":3740:3762   */\n      add\n        /* \"#utility.yul\":3719:3772   */\n      tag_83\n      jump\t// in\n    tag_161:\n        /* \"#utility.yul\":3709:3772   */\n      swap4\n      pop\n        /* \"#utility.yul\":3665:3782   */\n      pop\n        /* \"#utility.yul\":3849:3851   */\n      0x20\n        /* \"#utility.yul\":3838:3847   */\n      dup5\n        /* \"#utility.yul\":3834:3852   */\n      add\n        /* \"#utility.yul\":3821:3853   */\n      calldataload\n        /* \"#utility.yul\":3880:3898   */\n      0xffffffffffffffff\n        /* \"#utility.yul\":3872:3878   */\n      dup2\n        /* \"#utility.yul\":3869:3899   */\n      gt\n        /* \"#utility.yul\":3866:3983   */\n      iszero\n      tag_162\n      jumpi\n        /* \"#utility.yul\":3902:3981   */\n      tag_163\n      tag_79\n      jump\t// in\n    tag_163:\n        /* \"#utility.yul\":3866:3983   */\n    tag_162:\n        /* \"#utility.yul\":4007:4070   */\n      tag_164\n        /* \"#utility.yul\":4062:4069   */\n      dup7\n        /* \"#utility.yul\":4053:4059   */\n      dup3\n        /* \"#utility.yul\":4042:4051   */\n      dup8\n        /* \"#utility.yul\":4038:4060   */\n      add\n        /* \"#utility.yul\":4007:4070   */\n      tag_93\n      jump\t// in\n    tag_164:\n        /* \"#utility.yul\":3997:4070   */\n      swap3\n      pop\n        /* \"#utility.yul\":3792:4080   */\n      pop\n        /* \"#utility.yul\":4119:4121   */\n      0x40\n        /* \"#utility.yul\":4145:4198   */\n      tag_165\n        /* \"#utility.yul\":4190:4197   */\n      dup7\n        /* \"#utility.yul\":4181:4187   */\n      dup3\n        /* \"#utility.yul\":4170:4179   */\n      dup8\n        /* \"#utility.yul\":4166:4188   */\n      add\n        /* \"#utility.yul\":4145:4198   */\n      tag_96\n      jump\t// in\n    tag_165:\n        /* \"#utility.yul\":4135:4198   */\n      swap2\n      pop\n        /* \"#utility.yul\":4090:4208   */\n      pop\n        /* \"#utility.yul\":3416:4215   */\n      swap3\n      pop\n      swap3\n      pop\n      swap3\n      jump\t// out\n        /* \"#utility.yul\":4221:4298   */\n    tag_97:\n        /* \"#utility.yul\":4258:4265   */\n      0x00\n        /* \"#utility.yul\":4287:4292   */\n      dup2\n        /* \"#utility.yul\":4276:4292   */\n      swap1\n      pop\n        /* \"#utility.yul\":4221:4298   */\n      swap2\n      swap1\n      pop\n      jump\t// out\n        /* \"#utility.yul\":4304:4426   */\n    tag_98:\n        /* \"#utility.yul\":4377:4401   */\n      tag_168\n        /* \"#utility.yul\":4395:4400   */\n      dup2\n        /* \"#utility.yul\":4377:4401   */\n      tag_97\n      jump\t// in\n    tag_168:\n        /* \"#utility.yul\":4370:4375   */\n      dup2\n        /* \"#utility.yul\":4367:4402   */\n      eq\n        /* \"#utility.yul\":4357:4420   */\n      tag_169\n      jumpi\n        /* \"#utility.yul\":4416:4417   */\n      0x00\n        /* \"#utility.yul\":4413:4414   */\n      dup1\n        /* \"#utility.yul\":4406:4418   */\n      revert\n        /* \"#utility.yul\":4357:4420   */\n    tag_169:\n        /* \"#utility.yul\":4304:4426   */\n      pop\n      jump\t// out\n        /* \"#utility.yul\":4432:4571   */\n    tag_99:\n        /* \"#utility.yul\":4478:4483   */\n      0x00\n        /* \"#utility.yul\":4516:4522   */\n      dup2\n        /* \"#utility.yul\":4503:4523   */\n      calldataload\n        /* \"#utility.yul\":4494:4523   */\n      swap1\n      pop\n        /* \"#utility.yul\":4532:4565   */\n      tag_171\n        /* \"#utility.yul\":4559:4564   */\n      dup2\n        /* \"#utility.yul\":4532:4565   */\n      tag_98\n      jump\t// in\n    tag_171:\n        /* \"#utility.yul\":4432:4571   */\n      swap3\n      swap2\n      pop\n      pop\n      jump\t// out\n        /* \"#utility.yul\":4577:4906   */\n    tag_15:\n        /* \"#utility.yul\":4636:4642   */\n      0x00\n        /* \"#utility.yul\":4685:4687   */\n      0x20\n        /* \"#utility.yul\":4673:4682   */\n      dup3\n        /* \"#utility.yul\":4664:4671   */\n      dup5\n        /* \"#utility.yul\":4660:4683   */\n      sub\n        /* \"#utility.yul\":4656:4688   */\n      slt\n        /* \"#utility.yul\":4653:4772   */\n      iszero\n      tag_173\n      jumpi\n        /* \"#utility.yul\":4691:4770   */\n      tag_174\n      tag_78\n      jump\t// in\n    tag_174:\n        /* \"#utility.yul\":4653:4772   */\n    tag_173:\n        /* \"#utility.yul\":4811:4812   */\n      0x00\n        /* \"#utility.yul\":4836:4889   */\n      tag_175\n        /* \"#utility.yul\":4881:4888   */\n      dup5\n        /* \"#utility.yul\":4872:4878   */\n      dup3\n        /* \"#utility.yul\":4861:4870   */\n      dup6\n        /* \"#utility.yul\":4857:4879   */\n      add\n        /* \"#utility.yul\":4836:4889   */\n      tag_99\n      jump\t// in\n    tag_175:\n        /* \"#utility.yul\":4826:4889   */\n      swap2\n      pop\n        /* \"#utility.yul\":4782:4899   */\n      pop\n        /* \"#utility.yul\":4577:4906   */\n      swap3\n      swap2\n      pop\n      pop\n      jump\t// out\n        /* \"#utility.yul\":4912:5030   */\n    tag_100:\n        /* \"#utility.yul\":4999:5023   */\n      tag_177\n        /* \"#utility.yul\":5017:5022   */\n      dup2\n        /* \"#utility.yul\":4999:5023   */\n      tag_81\n      jump\t// in\n    tag_177:\n        /* \"#utility.yul\":4994:4997   */\n      dup3\n        /* \"#utility.yul\":4987:5024   */\n      mstore\n        /* \"#utility.yul\":4912:5030   */\n      pop\n      pop\n      jump\t// out\n        /* \"#utility.yul\":5036:5135   */\n    tag_101:\n        /* \"#utility.yul\":5088:5094   */\n      0x00\n        /* \"#utility.yul\":5122:5127   */\n      dup2\n        /* \"#utility.yul\":5116:5128   */\n      mload\n        /* \"#utility.yul\":5106:5128   */\n      swap1\n      pop\n        /* \"#utility.yul\":5036:5135   */\n      swap2\n      swap1\n      pop\n      jump\t// out\n        /* \"#utility.yul\":5141:5310   */\n    tag_102:\n        /* \"#utility.yul\":5225:5236   */\n      0x00\n        /* \"#utility.yul\":5259:5265   */\n      dup3\n        /* \"#utility.yul\":5254:5257   */\n      dup3\n        /* \"#utility.yul\":5247:5266   */\n      mstore\n        /* \"#utility.yul\":5299:5303   */\n      0x20\n        /* \"#utility.yul\":5294:5297   */\n      dup3\n        /* \"#utility.yul\":5290:5304   */\n      add\n        /* \"#utility.yul\":5275:5304   */\n      swap1\n      pop\n        /* \"#utility.yul\":5141:5310   */\n      swap3\n      swap2\n      pop\n      pop\n      jump\t// out\n        /* \"#utility.yul\":5316:5562   */\n    tag_103:\n        /* \"#utility.yul\":5397:5398   */\n      0x00\n        /* \"#utility.yul\":5407:5520   */\n    tag_181:\n        /* \"#utility.yul\":5421:5427   */\n      dup4\n        /* \"#utility.yul\":5418:5419   */\n      dup2\n        /* \"#utility.yul\":5415:5428   */\n      lt\n        /* \"#utility.yul\":5407:5520   */\n      iszero\n      tag_183\n      jumpi\n        /* \"#utility.yul\":5506:5507   */\n      dup1\n        /* \"#utility.yul\":5501:5504   */\n      dup3\n        /* \"#utility.yul\":5497:5508   */\n      add\n        /* \"#utility.yul\":5491:5509   */\n      mload\n        /* \"#utility.yul\":5487:5488   */\n      dup2\n        /* \"#utility.yul\":5482:5485   */\n      dup5\n        /* \"#utility.yul\":5478:5489   */\n      add\n        /* \"#utility.yul\":5471:5510   */\n      mstore\n        /* \"#utility.yul\":5443:5445   */\n      0x20\n        /* \"#utility.yul\":5440:5441   */\n      dup2\n        /* \"#utility.yul\":5436:5446   */\n      add\n        /* \"#utility.yul\":5431:5446   */\n      swap1\n      pop\n        /* \"#utility.yul\":5407:5520   */\n      jump(tag_181)\n    tag_183:\n        /* \"#utility.yul\":5554:5555   */\n      0x00\n        /* \"#utility.yul\":5545:5551   */\n      dup5\n        /* \"#utility.yul\":5540:5543   */\n      dup5\n        /* \"#utility.yul\":5536:5552   */\n      add\n        /* \"#utility.yul\":5529:5556   */\n      mstore\n        /* \"#utility.yul\":5378:5562   */\n      pop\n        /* \"#utility.yul\":5316:5562   */\n      pop\n      pop\n      pop\n      jump\t// out\n        /* \"#utility.yul\":5568:5945   */\n    tag_104:\n        /* \"#utility.yul\":5656:5659   */\n      0x00\n        /* \"#utility.yul\":5684:5723   */\n      tag_185\n        /* \"#utility.yul\":5717:5722   */\n      dup3\n        /* \"#utility.yul\":5684:5723   */\n      tag_101\n      jump\t// in\n    tag_185:\n        /* \"#utility.yul\":5739:5810   */\n      tag_186\n        /* \"#utility.yul\":5803:5809   */\n      dup2\n        /* \"#utility.yul\":5798:5801   */\n      dup6\n        /* \"#utility.yul\":5739:5810   */\n      tag_102\n      jump\t// in\n    tag_186:\n        /* \"#utility.yul\":5732:5810   */\n      swap4\n      pop\n        /* \"#utility.yul\":5819:5884   */\n      tag_187\n        /* \"#utility.yul\":5877:5883   */\n      dup2\n        /* \"#utility.yul\":5872:5875   */\n      dup6\n        /* \"#utility.yul\":5865:5869   */\n      0x20\n        /* \"#utility.yul\":5858:5863   */\n      dup7\n        /* \"#utility.yul\":5854:5870   */\n      add\n        /* \"#utility.yul\":5819:5884   */\n      tag_103\n      jump\t// in\n    tag_187:\n        /* \"#utility.yul\":5909:5938   */\n      tag_188\n        /* \"#utility.yul\":5931:5937   */\n      dup2\n        /* \"#utility.yul\":5909:5938   */\n      tag_86\n      jump\t// in\n    tag_188:\n        /* \"#utility.yul\":5904:5907   */\n      dup5\n        /* \"#utility.yul\":5900:5939   */\n      add\n        /* \"#utility.yul\":5893:5939   */\n      swap2\n      pop\n        /* \"#utility.yul\":5660:5945   */\n      pop\n        /* \"#utility.yul\":5568:5945   */\n      swap3\n      swap2\n      pop\n      pop\n      jump\t// out\n        /* \"#utility.yul\":5951:6069   */\n    tag_105:\n        /* \"#utility.yul\":6038:6062   */\n      tag_190\n        /* \"#utility.yul\":6056:6061   */\n      dup2\n        /* \"#utility.yul\":6038:6062   */\n      tag_97\n      jump\t// in\n    tag_190:\n        /* \"#utility.yul\":6033:6036   */\n      dup3\n        /* \"#utility.yul\":6026:6063   */\n      mstore\n        /* \"#utility.yul\":5951:6069   */\n      pop\n      pop\n      jump\t// out\n        /* \"#utility.yul\":6075:6719   */\n    tag_18:\n        /* \"#utility.yul\":6272:6276   */\n      0x00\n        /* \"#utility.yul\":6310:6313   */\n      0x80\n        /* \"#utility.yul\":6299:6308   */\n      dup3\n        /* \"#utility.yul\":6295:6314   */\n      add\n        /* \"#utility.yul\":6287:6314   */\n      swap1\n      pop\n        /* \"#utility.yul\":6324:6395   */\n      tag_192\n        /* \"#utility.yul\":6392:6393   */\n      0x00\n        /* \"#utility.yul\":6381:6390   */\n      dup4\n        /* \"#utility.yul\":6377:6394   */\n      add\n        /* \"#utility.yul\":6368:6374   */\n      dup8\n        /* \"#utility.yul\":6324:6395   */\n      tag_100\n      jump\t// in\n    tag_192:\n        /* \"#utility.yul\":6442:6451   */\n      dup2\n        /* \"#utility.yul\":6436:6440   */\n      dup2\n        /* \"#utility.yul\":6432:6452   */\n      sub\n        /* \"#utility.yul\":6427:6429   */\n      0x20\n        /* \"#utility.yul\":6416:6425   */\n      dup4\n        /* \"#utility.yul\":6412:6430   */\n      add\n        /* \"#utility.yul\":6405:6453   */\n      mstore\n        /* \"#utility.yul\":6470:6548   */\n      tag_193\n        /* \"#utility.yul\":6543:6547   */\n      dup2\n        /* \"#utility.yul\":6534:6540   */\n      dup7\n        /* \"#utility.yul\":6470:6548   */\n      tag_104\n      jump\t// in\n    tag_193:\n        /* \"#utility.yul\":6462:6548   */\n      swap1\n      pop\n        /* \"#utility.yul\":6558:6630   */\n      tag_194\n        /* \"#utility.yul\":6626:6628   */\n      0x40\n        /* \"#utility.yul\":6615:6624   */\n      dup4\n        /* \"#utility.yul\":6611:6629   */\n      add\n        /* \"#utility.yul\":6602:6608   */\n      dup6\n        /* \"#utility.yul\":6558:6630   */\n      tag_100\n      jump\t// in\n    tag_194:\n        /* \"#utility.yul\":6640:6712   */\n      tag_195\n        /* \"#utility.yul\":6708:6710   */\n      0x60\n        /* \"#utility.yul\":6697:6706   */\n      dup4\n        /* \"#utility.yul\":6693:6711   */\n      add\n        /* \"#utility.yul\":6684:6690   */\n      dup5\n        /* \"#utility.yul\":6640:6712   */\n      tag_105\n      jump\t// in\n    tag_195:\n        /* \"#utility.yul\":6075:6719   */\n      swap6\n      swap5\n      pop\n      pop\n      pop\n      pop\n      pop\n      jump\t// out\n        /* \"#utility.yul\":6725:7379   */\n    tag_22:\n        /* \"#utility.yul\":6803:6809   */\n      0x00\n        /* \"#utility.yul\":6811:6817   */\n      dup1\n        /* \"#utility.yul\":6860:6862   */\n      0x40\n        /* \"#utility.yul\":6848:6857   */\n      dup4\n        /* \"#utility.yul\":6839:6846   */\n      dup6\n        /* \"#utility.yul\":6835:6858   */\n      sub\n        /* \"#utility.yul\":6831:6863   */\n      slt\n        /* \"#utility.yul\":6828:6947   */\n      iszero\n      tag_197\n      jumpi\n        /* \"#utility.yul\":6866:6945   */\n      tag_198\n      tag_78\n      jump\t// in\n    tag_198:\n        /* \"#utility.yul\":6828:6947   */\n    tag_197:\n        /* \"#utility.yul\":6986:6987   */\n      0x00\n        /* \"#utility.yul\":7011:7064   */\n      tag_199\n        /* \"#utility.yul\":7056:7063   */\n      dup6\n        /* \"#utility.yul\":7047:7053   */\n      dup3\n        /* \"#utility.yul\":7036:7045   */\n      dup7\n        /* \"#utility.yul\":7032:7054   */\n      add\n        /* \"#utility.yul\":7011:7064   */\n      tag_83\n      jump\t// in\n    tag_199:\n        /* \"#utility.yul\":7001:7064   */\n      swap3\n      pop\n        /* \"#utility.yul\":6957:7074   */\n      pop\n        /* \"#utility.yul\":7141:7143   */\n      0x20\n        /* \"#utility.yul\":7130:7139   */\n      dup4\n        /* \"#utility.yul\":7126:7144   */\n      add\n        /* \"#utility.yul\":7113:7145   */\n      calldataload\n        /* \"#utility.yul\":7172:7190   */\n      0xffffffffffffffff\n        /* \"#utility.yul\":7164:7170   */\n      dup2\n        /* \"#utility.yul\":7161:7191   */\n      gt\n        /* \"#utility.yul\":7158:7275   */\n      iszero\n      tag_200\n      jumpi\n        /* \"#utility.yul\":7194:7273   */\n      tag_201\n      tag_79\n      jump\t// in\n    tag_201:\n        /* \"#utility.yul\":7158:7275   */\n    tag_200:\n        /* \"#utility.yul\":7299:7362   */\n      tag_202\n        /* \"#utility.yul\":7354:7361   */\n      dup6\n        /* \"#utility.yul\":7345:7351   */\n      dup3\n        /* \"#utility.yul\":7334:7343   */\n      dup7\n        /* \"#utility.yul\":7330:7352   */\n      add\n        /* \"#utility.yul\":7299:7362   */\n      tag_93\n      jump\t// in\n    tag_202:\n        /* \"#utility.yul\":7289:7362   */\n      swap2\n      pop\n        /* \"#utility.yul\":7084:7372   */\n      pop\n        /* \"#utility.yul\":6725:7379   */\n      swap3\n      pop\n      swap3\n      swap1\n      pop\n      jump\t// out\n        /* \"#utility.yul\":7385:7445   */\n    tag_106:\n        /* \"#utility.yul\":7413:7416   */\n      0x00\n        /* \"#utility.yul\":7434:7439   */\n      dup2\n        /* \"#utility.yul\":7427:7439   */\n      swap1\n      pop\n        /* \"#utility.yul\":7385:7445   */\n      swap2\n      swap1\n      pop\n      jump\t// out\n        /* \"#utility.yul\":7451:7593   */\n    tag_107:\n        /* \"#utility.yul\":7501:7510   */\n      0x00\n        /* \"#utility.yul\":7534:7587   */\n      tag_205\n        /* \"#utility.yul\":7552:7586   */\n      tag_206\n        /* \"#utility.yul\":7561:7585   */\n      tag_207\n        /* \"#utility.yul\":7579:7584   */\n      dup5\n        /* \"#utility.yul\":7561:7585   */\n      tag_80\n      jump\t// in\n    tag_207:\n        /* \"#utility.yul\":7552:7586   */\n      tag_106\n      jump\t// in\n    tag_206:\n        /* \"#utility.yul\":7534:7587   */\n      tag_80\n      jump\t// in\n    tag_205:\n        /* \"#utility.yul\":7521:7587   */\n      swap1\n      pop\n        /* \"#utility.yul\":7451:7593   */\n      swap2\n      swap1\n      pop\n      jump\t// out\n        /* \"#utility.yul\":7599:7725   */\n    tag_108:\n        /* \"#utility.yul\":7649:7658   */\n      0x00\n        /* \"#utility.yul\":7682:7719   */\n      tag_209\n        /* \"#utility.yul\":7713:7718   */\n      dup3\n        /* \"#utility.yul\":7682:7719   */\n      tag_107\n      jump\t// in\n    tag_209:\n        /* \"#utility.yul\":7669:7719   */\n      swap1\n      pop\n        /* \"#utility.yul\":7599:7725   */\n      swap2\n      swap1\n      pop\n      jump\t// out\n        /* \"#utility.yul\":7731:7867   */\n    tag_109:\n        /* \"#utility.yul\":7791:7800   */\n      0x00\n        /* \"#utility.yul\":7824:7861   */\n      tag_211\n        /* \"#utility.yul\":7855:7860   */\n      dup3\n        /* \"#utility.yul\":7824:7861   */\n      tag_108\n      jump\t// in\n    tag_211:\n        /* \"#utility.yul\":7811:7861   */\n      swap1\n      pop\n        /* \"#utility.yul\":7731:7867   */\n      swap2\n      swap1\n      pop\n      jump\t// out\n        /* \"#utility.yul\":7873:8024   */\n    tag_110:\n        /* \"#utility.yul\":7970:8017   */\n      tag_213\n        /* \"#utility.yul\":8011:8016   */\n      dup2\n        /* \"#utility.yul\":7970:8017   */\n      tag_109\n      jump\t// in\n    tag_213:\n        /* \"#utility.yul\":7965:7968   */\n      dup3\n        /* \"#utility.yul\":7958:8018   */\n      mstore\n        /* \"#utility.yul\":7873:8024   */\n      pop\n      pop\n      jump\t// out\n        /* \"#utility.yul\":8030:8272   */\n    tag_36:\n        /* \"#utility.yul\":8133:8137   */\n      0x00\n        /* \"#utility.yul\":8171:8173   */\n      0x20\n        /* \"#utility.yul\":8160:8169   */\n      dup3\n        /* \"#utility.yul\":8156:8174   */\n      add\n        /* \"#utility.yul\":8148:8174   */\n      swap1\n      pop\n        /* \"#utility.yul\":8184:8265   */\n      tag_215\n        /* \"#utility.yul\":8262:8263   */\n      0x00\n        /* \"#utility.yul\":8251:8260   */\n      dup4\n        /* \"#utility.yul\":8247:8264   */\n      add\n        /* \"#utility.yul\":8238:8244   */\n      dup5\n        /* \"#utility.yul\":8184:8265   */\n      tag_110\n      jump\t// in\n    tag_215:\n        /* \"#utility.yul\":8030:8272   */\n      swap3\n      swap2\n      pop\n      pop\n      jump\t// out\n        /* \"#utility.yul\":8278:8701   */\n    tag_41:\n        /* \"#utility.yul\":8419:8423   */\n      0x00\n        /* \"#utility.yul\":8457:8459   */\n      0x40\n        /* \"#utility.yul\":8446:8455   */\n      dup3\n        /* \"#utility.yul\":8442:8460   */\n      add\n        /* \"#utility.yul\":8434:8460   */\n      swap1\n      pop\n        /* \"#utility.yul\":8470:8541   */\n      tag_217\n        /* \"#utility.yul\":8538:8539   */\n      0x00\n        /* \"#utility.yul\":8527:8536   */\n      dup4\n        /* \"#utility.yul\":8523:8540   */\n      add\n        /* \"#utility.yul\":8514:8520   */\n      dup6\n        /* \"#utility.yul\":8470:8541   */\n      tag_100\n      jump\t// in\n    tag_217:\n        /* \"#utility.yul\":8588:8597   */\n      dup2\n        /* \"#utility.yul\":8582:8586   */\n      dup2\n        /* \"#utility.yul\":8578:8598   */\n      sub\n        /* \"#utility.yul\":8573:8575   */\n      0x20\n        /* \"#utility.yul\":8562:8571   */\n      dup4\n        /* \"#utility.yul\":8558:8576   */\n      add\n        /* \"#utility.yul\":8551:8599   */\n      mstore\n        /* \"#utility.yul\":8616:8694   */\n      tag_218\n        /* \"#utility.yul\":8689:8693   */\n      dup2\n        /* \"#utility.yul\":8680:8686   */\n      dup5\n        /* \"#utility.yul\":8616:8694   */\n      tag_104\n      jump\t// in\n    tag_218:\n        /* \"#utility.yul\":8608:8694   */\n      swap1\n      pop\n        /* \"#utility.yul\":8278:8701   */\n      swap4\n      swap3\n      pop\n      pop\n      pop\n      jump\t// out\n        /* \"#utility.yul\":8707:8887   */\n    tag_47:\n        /* \"#utility.yul\":8755:8832   */\n      0x4e487b7100000000000000000000000000000000000000000000000000000000\n        /* \"#utility.yul\":8752:8753   */\n      0x00\n        /* \"#utility.yul\":8745:8833   */\n      mstore\n        /* \"#utility.yul\":8852:8856   */\n      0x32\n        /* \"#utility.yul\":8849:8850   */\n      0x04\n        /* \"#utility.yul\":8842:8857   */\n      mstore\n        /* \"#utility.yul\":8876:8880   */\n      0x24\n        /* \"#utility.yul\":8873:8874   */\n      0x00\n        /* \"#utility.yul\":8866:8881   */\n      revert\n        /* \"#utility.yul\":8893:9036   */\n    tag_111:\n        /* \"#utility.yul\":8950:8955   */\n      0x00\n        /* \"#utility.yul\":8981:8987   */\n      dup2\n        /* \"#utility.yul\":8975:8988   */\n      mload\n        /* \"#utility.yul\":8966:8988   */\n      swap1\n      pop\n        /* \"#utility.yul\":8997:9030   */\n      tag_221\n        /* \"#utility.yul\":9024:9029   */\n      dup2\n        /* \"#utility.yul\":8997:9030   */\n      tag_82\n      jump\t// in\n    tag_221:\n        /* \"#utility.yul\":8893:9036   */\n      swap3\n      swap2\n      pop\n      pop\n      jump\t// out\n        /* \"#utility.yul\":9042:9393   */\n    tag_52:\n        /* \"#utility.yul\":9112:9118   */\n      0x00\n        /* \"#utility.yul\":9161:9163   */\n      0x20\n        /* \"#utility.yul\":9149:9158   */\n      dup3\n        /* \"#utility.yul\":9140:9147   */\n      dup5\n        /* \"#utility.yul\":9136:9159   */\n      sub\n        /* \"#utility.yul\":9132:9164   */\n      slt\n        /* \"#utility.yul\":9129:9248   */\n      iszero\n      tag_223\n      jumpi\n        /* \"#utility.yul\":9167:9246   */\n      tag_224\n      tag_78\n      jump\t// in\n    tag_224:\n        /* \"#utility.yul\":9129:9248   */\n    tag_223:\n        /* \"#utility.yul\":9287:9288   */\n      0x00\n        /* \"#utility.yul\":9312:9376   */\n      tag_225\n        /* \"#utility.yul\":9368:9375   */\n      dup5\n        /* \"#utility.yul\":9359:9365   */\n      dup3\n        /* \"#utility.yul\":9348:9357   */\n      dup6\n        /* \"#utility.yul\":9344:9366   */\n      add\n        /* \"#utility.yul\":9312:9376   */\n      tag_111\n      jump\t// in\n    tag_225:\n        /* \"#utility.yul\":9302:9376   */\n      swap2\n      pop\n        /* \"#utility.yul\":9258:9386   */\n      pop\n        /* \"#utility.yul\":9042:9393   */\n      swap3\n      swap2\n      pop\n      pop\n      jump\t// out\n        /* \"#utility.yul\":9399:9833   */\n    tag_112:\n        /* \"#utility.yul\":9488:9493   */\n      0x00\n        /* \"#utility.yul\":9513:9579   */\n      tag_227\n        /* \"#utility.yul\":9529:9578   */\n      tag_228\n        /* \"#utility.yul\":9571:9577   */\n      dup5\n        /* \"#utility.yul\":9529:9578   */\n      tag_90\n      jump\t// in\n    tag_228:\n        /* \"#utility.yul\":9513:9579   */\n      tag_89\n      jump\t// in\n    tag_227:\n        /* \"#utility.yul\":9504:9579   */\n      swap1\n      pop\n        /* \"#utility.yul\":9602:9608   */\n      dup3\n        /* \"#utility.yul\":9595:9600   */\n      dup2\n        /* \"#utility.yul\":9588:9609   */\n      mstore\n        /* \"#utility.yul\":9640:9644   */\n      0x20\n        /* \"#utility.yul\":9633:9638   */\n      dup2\n        /* \"#utility.yul\":9629:9645   */\n      add\n        /* \"#utility.yul\":9678:9681   */\n      dup5\n        /* \"#utility.yul\":9669:9675   */\n      dup5\n        /* \"#utility.yul\":9664:9667   */\n      dup5\n        /* \"#utility.yul\":9660:9676   */\n      add\n        /* \"#utility.yul\":9657:9682   */\n      gt\n        /* \"#utility.yul\":9654:9766   */\n      iszero\n      tag_229\n      jumpi\n        /* \"#utility.yul\":9685:9764   */\n      tag_230\n      tag_85\n      jump\t// in\n    tag_230:\n        /* \"#utility.yul\":9654:9766   */\n    tag_229:\n        /* \"#utility.yul\":9775:9827   */\n      tag_231\n        /* \"#utility.yul\":9820:9826   */\n      dup5\n        /* \"#utility.yul\":9815:9818   */\n      dup3\n        /* \"#utility.yul\":9810:9813   */\n      dup6\n        /* \"#utility.yul\":9775:9827   */\n      tag_103\n      jump\t// in\n    tag_231:\n        /* \"#utility.yul\":9494:9833   */\n      pop\n        /* \"#utility.yul\":9399:9833   */\n      swap4\n      swap3\n      pop\n      pop\n      pop\n      jump\t// out\n        /* \"#utility.yul\":9853:10208   */\n    tag_113:\n        /* \"#utility.yul\":9920:9925   */\n      0x00\n        /* \"#utility.yul\":9969:9972   */\n      dup3\n        /* \"#utility.yul\":9962:9966   */\n      0x1f\n        /* \"#utility.yul\":9954:9960   */\n      dup4\n        /* \"#utility.yul\":9950:9967   */\n      add\n        /* \"#utility.yul\":9946:9973   */\n      slt\n        /* \"#utility.yul\":9936:10058   */\n      tag_233\n      jumpi\n        /* \"#utility.yul\":9977:10056   */\n      tag_234\n      tag_84\n      jump\t// in\n    tag_234:\n        /* \"#utility.yul\":9936:10058   */\n    tag_233:\n        /* \"#utility.yul\":10087:10093   */\n      dup2\n        /* \"#utility.yul\":10081:10094   */\n      mload\n        /* \"#utility.yul\":10112:10202   */\n      tag_235\n        /* \"#utility.yul\":10198:10201   */\n      dup5\n        /* \"#utility.yul\":10190:10196   */\n      dup3\n        /* \"#utility.yul\":10183:10187   */\n      0x20\n        /* \"#utility.yul\":10175:10181   */\n      dup7\n        /* \"#utility.yul\":10171:10188   */\n      add\n        /* \"#utility.yul\":10112:10202   */\n      tag_112\n      jump\t// in\n    tag_235:\n        /* \"#utility.yul\":10103:10202   */\n      swap2\n      pop\n        /* \"#utility.yul\":9926:10208   */\n      pop\n        /* \"#utility.yul\":9853:10208   */\n      swap3\n      swap2\n      pop\n      pop\n      jump\t// out\n        /* \"#utility.yul\":10214:10738   */\n    tag_56:\n        /* \"#utility.yul\":10294:10300   */\n      0x00\n        /* \"#utility.yul\":10343:10345   */\n      0x20\n        /* \"#utility.yul\":10331:10340   */\n      dup3\n        /* \"#utility.yul\":10322:10329   */\n      dup5\n        /* \"#utility.yul\":10318:10341   */\n      sub\n        /* \"#utility.yul\":10314:10346   */\n      slt\n        /* \"#utility.yul\":10311:10430   */\n      iszero\n      tag_237\n      jumpi\n        /* \"#utility.yul\":10349:10428   */\n      tag_238\n      tag_78\n      jump\t// in\n    tag_238:\n        /* \"#utility.yul\":10311:10430   */\n    tag_237:\n        /* \"#utility.yul\":10490:10491   */\n      0x00\n        /* \"#utility.yul\":10479:10488   */\n      dup3\n        /* \"#utility.yul\":10475:10492   */\n      add\n        /* \"#utility.yul\":10469:10493   */\n      mload\n        /* \"#utility.yul\":10520:10538   */\n      0xffffffffffffffff\n        /* \"#utility.yul\":10512:10518   */\n      dup2\n        /* \"#utility.yul\":10509:10539   */\n      gt\n        /* \"#utility.yul\":10506:10623   */\n      iszero\n      tag_239\n      jumpi\n        /* \"#utility.yul\":10542:10621   */\n      tag_240\n      tag_79\n      jump\t// in\n    tag_240:\n        /* \"#utility.yul\":10506:10623   */\n    tag_239:\n        /* \"#utility.yul\":10647:10721   */\n      tag_241\n        /* \"#utility.yul\":10713:10720   */\n      dup5\n        /* \"#utility.yul\":10704:10710   */\n      dup3\n        /* \"#utility.yul\":10693:10702   */\n      dup6\n        /* \"#utility.yul\":10689:10711   */\n      add\n        /* \"#utility.yul\":10647:10721   */\n      tag_113\n      jump\t// in\n    tag_241:\n        /* \"#utility.yul\":10637:10721   */\n      swap2\n      pop\n        /* \"#utility.yul\":10440:10731   */\n      pop\n        /* \"#utility.yul\":10214:10738   */\n      swap3\n      swap2\n      pop\n      pop\n      jump\t// out\n    stop\n\n    sub_0: assembly {\n            /* \"43-creatingAContractFromContract.sol\":260:876  contract Car {... */\n          mstore(0x40, 0x80)\n            /* \"43-creatingAContractFromContract.sol\":551:874  constructor(address _owner, string memory _model) payable {... */\n          mload(0x40)\n          sub(codesize, bytecodeSize)\n          dup1\n          bytecodeSize\n          dup4\n          codecopy\n          dup2\n          dup2\n          add\n          0x40\n          mstore\n          dup2\n          add\n          swap1\n          tag_1\n          swap2\n          swap1\n          tag_2\n          jump\t// in\n        tag_1:\n            /* \"43-creatingAContractFromContract.sol\":627:633  _owner */\n          dup2\n            /* \"43-creatingAContractFromContract.sol\":619:624  owner */\n          0x00\n          dup1\n            /* \"43-creatingAContractFromContract.sol\":619:633  owner = _owner */\n          0x0100\n          exp\n          dup2\n          sload\n          dup2\n          0xffffffffffffffffffffffffffffffffffffffff\n          mul\n          not\n          and\n          swap1\n          dup4\n          0xffffffffffffffffffffffffffffffffffffffff\n          and\n          mul\n          or\n          swap1\n          sstore\n          pop\n            /* \"43-creatingAContractFromContract.sol\":678:684  _model */\n          dup1\n            /* \"43-creatingAContractFromContract.sol\":670:675  model */\n          0x01\n            /* \"43-creatingAContractFromContract.sol\":670:684  model = _model */\n          swap1\n          dup2\n          tag_5\n          swap2\n          swap1\n          tag_6\n          jump\t// in\n        tag_5:\n          pop\n            /* \"43-creatingAContractFromContract.sol\":738:742  this */\n          address\n            /* \"43-creatingAContractFromContract.sol\":717:727  carAddress */\n          0x02\n          0x00\n            /* \"43-creatingAContractFromContract.sol\":717:743  carAddress = address(this) */\n          0x0100\n          exp\n          dup2\n          sload\n          dup2\n          0xffffffffffffffffffffffffffffffffffffffff\n          mul\n          not\n          and\n          swap1\n          dup4\n          0xffffffffffffffffffffffffffffffffffffffff\n          and\n          mul\n          or\n          swap1\n          sstore\n          pop\n            /* \"43-creatingAContractFromContract.sol\":551:874  constructor(address _owner, string memory _model) payable {... */\n          pop\n          pop\n            /* \"43-creatingAContractFromContract.sol\":260:876  contract Car {... */\n          jump(tag_7)\n            /* \"#utility.yul\":7:82   */\n        tag_8:\n            /* \"#utility.yul\":40:46   */\n          0x00\n            /* \"#utility.yul\":73:75   */\n          0x40\n            /* \"#utility.yul\":67:76   */\n          mload\n            /* \"#utility.yul\":57:76   */\n          swap1\n          pop\n            /* \"#utility.yul\":7:82   */\n          swap1\n          jump\t// out\n            /* \"#utility.yul\":88:205   */\n        tag_9:\n            /* \"#utility.yul\":197:198   */\n          0x00\n            /* \"#utility.yul\":194:195   */\n          dup1\n            /* \"#utility.yul\":187:199   */\n          revert\n            /* \"#utility.yul\":211:328   */\n        tag_10:\n            /* \"#utility.yul\":320:321   */\n          0x00\n            /* \"#utility.yul\":317:318   */\n          dup1\n            /* \"#utility.yul\":310:322   */\n          revert\n            /* \"#utility.yul\":334:460   */\n        tag_11:\n            /* \"#utility.yul\":371:378   */\n          0x00\n            /* \"#utility.yul\":411:453   */\n          0xffffffffffffffffffffffffffffffffffffffff\n            /* \"#utility.yul\":404:409   */\n          dup3\n            /* \"#utility.yul\":400:454   */\n          and\n            /* \"#utility.yul\":389:454   */\n          swap1\n          pop\n            /* \"#utility.yul\":334:460   */\n          swap2\n          swap1\n          pop\n          jump\t// out\n            /* \"#utility.yul\":466:562   */\n        tag_12:\n            /* \"#utility.yul\":503:510   */\n          0x00\n            /* \"#utility.yul\":532:556   */\n          tag_50\n            /* \"#utility.yul\":550:555   */\n          dup3\n            /* \"#utility.yul\":532:556   */\n          tag_11\n          jump\t// in\n        tag_50:\n            /* \"#utility.yul\":521:556   */\n          swap1\n          pop\n            /* \"#utility.yul\":466:562   */\n          swap2\n          swap1\n          pop\n          jump\t// out\n            /* \"#utility.yul\":568:690   */\n        tag_13:\n            /* \"#utility.yul\":641:665   */\n          tag_52\n            /* \"#utility.yul\":659:664   */\n          dup2\n            /* \"#utility.yul\":641:665   */\n          tag_12\n          jump\t// in\n        tag_52:\n            /* \"#utility.yul\":634:639   */\n          dup2\n            /* \"#utility.yul\":631:666   */\n          eq\n            /* \"#utility.yul\":621:684   */\n          tag_53\n          jumpi\n            /* \"#utility.yul\":680:681   */\n          0x00\n            /* \"#utility.yul\":677:678   */\n          dup1\n            /* \"#utility.yul\":670:682   */\n          revert\n            /* \"#utility.yul\":621:684   */\n        tag_53:\n            /* \"#utility.yul\":568:690   */\n          pop\n          jump\t// out\n            /* \"#utility.yul\":696:839   */\n        tag_14:\n            /* \"#utility.yul\":753:758   */\n          0x00\n            /* \"#utility.yul\":784:790   */\n          dup2\n            /* \"#utility.yul\":778:791   */\n          mload\n            /* \"#utility.yul\":769:791   */\n          swap1\n          pop\n            /* \"#utility.yul\":800:833   */\n          tag_55\n            /* \"#utility.yul\":827:832   */\n          dup2\n            /* \"#utility.yul\":800:833   */\n          tag_13\n          jump\t// in\n        tag_55:\n            /* \"#utility.yul\":696:839   */\n          swap3\n          swap2\n          pop\n          pop\n          jump\t// out\n            /* \"#utility.yul\":845:962   */\n        tag_15:\n            /* \"#utility.yul\":954:955   */\n          0x00\n            /* \"#utility.yul\":951:952   */\n          dup1\n            /* \"#utility.yul\":944:956   */\n          revert\n            /* \"#utility.yul\":968:1085   */\n        tag_16:\n            /* \"#utility.yul\":1077:1078   */\n          0x00\n            /* \"#utility.yul\":1074:1075   */\n          dup1\n            /* \"#utility.yul\":1067:1079   */\n          revert\n            /* \"#utility.yul\":1091:1193   */\n        tag_17:\n            /* \"#utility.yul\":1132:1138   */\n          0x00\n            /* \"#utility.yul\":1183:1185   */\n          0x1f\n            /* \"#utility.yul\":1179:1186   */\n          not\n            /* \"#utility.yul\":1174:1176   */\n          0x1f\n            /* \"#utility.yul\":1167:1172   */\n          dup4\n            /* \"#utility.yul\":1163:1177   */\n          add\n            /* \"#utility.yul\":1159:1187   */\n          and\n            /* \"#utility.yul\":1149:1187   */\n          swap1\n          pop\n            /* \"#utility.yul\":1091:1193   */\n          swap2\n          swap1\n          pop\n          jump\t// out\n            /* \"#utility.yul\":1199:1379   */\n        tag_18:\n            /* \"#utility.yul\":1247:1324   */\n          0x4e487b7100000000000000000000000000000000000000000000000000000000\n            /* \"#utility.yul\":1244:1245   */\n          0x00\n            /* \"#utility.yul\":1237:1325   */\n          mstore\n            /* \"#utility.yul\":1344:1348   */\n          0x41\n            /* \"#utility.yul\":1341:1342   */\n          0x04\n            /* \"#utility.yul\":1334:1349   */\n          mstore\n            /* \"#utility.yul\":1368:1372   */\n          0x24\n            /* \"#utility.yul\":1365:1366   */\n          0x00\n            /* \"#utility.yul\":1358:1373   */\n          revert\n            /* \"#utility.yul\":1385:1666   */\n        tag_19:\n            /* \"#utility.yul\":1468:1495   */\n          tag_61\n            /* \"#utility.yul\":1490:1494   */\n          dup3\n            /* \"#utility.yul\":1468:1495   */\n          tag_17\n          jump\t// in\n        tag_61:\n            /* \"#utility.yul\":1460:1466   */\n          dup2\n            /* \"#utility.yul\":1456:1496   */\n          add\n            /* \"#utility.yul\":1598:1604   */\n          dup2\n            /* \"#utility.yul\":1586:1596   */\n          dup2\n            /* \"#utility.yul\":1583:1605   */\n          lt\n            /* \"#utility.yul\":1562:1580   */\n          0xffffffffffffffff\n            /* \"#utility.yul\":1550:1560   */\n          dup3\n            /* \"#utility.yul\":1547:1581   */\n          gt\n            /* \"#utility.yul\":1544:1606   */\n          or\n            /* \"#utility.yul\":1541:1629   */\n          iszero\n          tag_62\n          jumpi\n            /* \"#utility.yul\":1609:1627   */\n          tag_63\n          tag_18\n          jump\t// in\n        tag_63:\n            /* \"#utility.yul\":1541:1629   */\n        tag_62:\n            /* \"#utility.yul\":1649:1659   */\n          dup1\n            /* \"#utility.yul\":1645:1647   */\n          0x40\n            /* \"#utility.yul\":1638:1660   */\n          mstore\n            /* \"#utility.yul\":1428:1666   */\n          pop\n            /* \"#utility.yul\":1385:1666   */\n          pop\n          pop\n          jump\t// out\n            /* \"#utility.yul\":1672:1801   */\n        tag_20:\n            /* \"#utility.yul\":1706:1712   */\n          0x00\n            /* \"#utility.yul\":1733:1753   */\n          tag_65\n          tag_8\n          jump\t// in\n        tag_65:\n            /* \"#utility.yul\":1723:1753   */\n          swap1\n          pop\n            /* \"#utility.yul\":1762:1795   */\n          tag_66\n            /* \"#utility.yul\":1790:1794   */\n          dup3\n            /* \"#utility.yul\":1782:1788   */\n          dup3\n            /* \"#utility.yul\":1762:1795   */\n          tag_19\n          jump\t// in\n        tag_66:\n            /* \"#utility.yul\":1672:1801   */\n          swap2\n          swap1\n          pop\n          jump\t// out\n            /* \"#utility.yul\":1807:2115   */\n        tag_21:\n            /* \"#utility.yul\":1869:1873   */\n          0x00\n            /* \"#utility.yul\":1959:1977   */\n          0xffffffffffffffff\n            /* \"#utility.yul\":1951:1957   */\n          dup3\n            /* \"#utility.yul\":1948:1978   */\n          gt\n            /* \"#utility.yul\":1945:2001   */\n          iszero\n          tag_68\n          jumpi\n            /* \"#utility.yul\":1981:1999   */\n          tag_69\n          tag_18\n          jump\t// in\n        tag_69:\n            /* \"#utility.yul\":1945:2001   */\n        tag_68:\n            /* \"#utility.yul\":2019:2048   */\n          tag_70\n            /* \"#utility.yul\":2041:2047   */\n          dup3\n            /* \"#utility.yul\":2019:2048   */\n          tag_17\n          jump\t// in\n        tag_70:\n            /* \"#utility.yul\":2011:2048   */\n          swap1\n          pop\n            /* \"#utility.yul\":2103:2107   */\n          0x20\n            /* \"#utility.yul\":2097:2101   */\n          dup2\n            /* \"#utility.yul\":2093:2108   */\n          add\n            /* \"#utility.yul\":2085:2108   */\n          swap1\n          pop\n            /* \"#utility.yul\":1807:2115   */\n          swap2\n          swap1\n          pop\n          jump\t// out\n            /* \"#utility.yul\":2121:2367   */\n        tag_22:\n            /* \"#utility.yul\":2202:2203   */\n          0x00\n            /* \"#utility.yul\":2212:2325   */\n        tag_72:\n            /* \"#utility.yul\":2226:2232   */\n          dup4\n            /* \"#utility.yul\":2223:2224   */\n          dup2\n            /* \"#utility.yul\":2220:2233   */\n          lt\n            /* \"#utility.yul\":2212:2325   */\n          iszero\n          tag_74\n          jumpi\n            /* \"#utility.yul\":2311:2312   */\n          dup1\n            /* \"#utility.yul\":2306:2309   */\n          dup3\n            /* \"#utility.yul\":2302:2313   */\n          add\n            /* \"#utility.yul\":2296:2314   */\n          mload\n            /* \"#utility.yul\":2292:2293   */\n          dup2\n            /* \"#utility.yul\":2287:2290   */\n          dup5\n            /* \"#utility.yul\":2283:2294   */\n          add\n            /* \"#utility.yul\":2276:2315   */\n          mstore\n            /* \"#utility.yul\":2248:2250   */\n          0x20\n            /* \"#utility.yul\":2245:2246   */\n          dup2\n            /* \"#utility.yul\":2241:2251   */\n          add\n            /* \"#utility.yul\":2236:2251   */\n          swap1\n          pop\n            /* \"#utility.yul\":2212:2325   */\n          jump(tag_72)\n        tag_74:\n            /* \"#utility.yul\":2359:2360   */\n          0x00\n            /* \"#utility.yul\":2350:2356   */\n          dup5\n            /* \"#utility.yul\":2345:2348   */\n          dup5\n            /* \"#utility.yul\":2341:2357   */\n          add\n            /* \"#utility.yul\":2334:2361   */\n          mstore\n            /* \"#utility.yul\":2183:2367   */\n          pop\n            /* \"#utility.yul\":2121:2367   */\n          pop\n          pop\n          pop\n          jump\t// out\n            /* \"#utility.yul\":2373:2807   */\n        tag_23:\n            /* \"#utility.yul\":2462:2467   */\n          0x00\n            /* \"#utility.yul\":2487:2553   */\n          tag_76\n            /* \"#utility.yul\":2503:2552   */\n          tag_77\n            /* \"#utility.yul\":2545:2551   */\n          dup5\n            /* \"#utility.yul\":2503:2552   */\n          tag_21\n          jump\t// in\n        tag_77:\n            /* \"#utility.yul\":2487:2553   */\n          tag_20\n          jump\t// in\n        tag_76:\n            /* \"#utility.yul\":2478:2553   */\n          swap1\n          pop\n            /* \"#utility.yul\":2576:2582   */\n          dup3\n            /* \"#utility.yul\":2569:2574   */\n          dup2\n            /* \"#utility.yul\":2562:2583   */\n          mstore\n            /* \"#utility.yul\":2614:2618   */\n          0x20\n            /* \"#utility.yul\":2607:2612   */\n          dup2\n            /* \"#utility.yul\":2603:2619   */\n          add\n            /* \"#utility.yul\":2652:2655   */\n          dup5\n            /* \"#utility.yul\":2643:2649   */\n          dup5\n            /* \"#utility.yul\":2638:2641   */\n          dup5\n            /* \"#utility.yul\":2634:2650   */\n          add\n            /* \"#utility.yul\":2631:2656   */\n          gt\n            /* \"#utility.yul\":2628:2740   */\n          iszero\n          tag_78\n          jumpi\n            /* \"#utility.yul\":2659:2738   */\n          tag_79\n          tag_16\n          jump\t// in\n        tag_79:\n            /* \"#utility.yul\":2628:2740   */\n        tag_78:\n            /* \"#utility.yul\":2749:2801   */\n          tag_80\n            /* \"#utility.yul\":2794:2800   */\n          dup5\n            /* \"#utility.yul\":2789:2792   */\n          dup3\n            /* \"#utility.yul\":2784:2787   */\n          dup6\n            /* \"#utility.yul\":2749:2801   */\n          tag_22\n          jump\t// in\n        tag_80:\n            /* \"#utility.yul\":2468:2807   */\n          pop\n            /* \"#utility.yul\":2373:2807   */\n          swap4\n          swap3\n          pop\n          pop\n          pop\n          jump\t// out\n            /* \"#utility.yul\":2827:3182   */\n        tag_24:\n            /* \"#utility.yul\":2894:2899   */\n          0x00\n            /* \"#utility.yul\":2943:2946   */\n          dup3\n            /* \"#utility.yul\":2936:2940   */\n          0x1f\n            /* \"#utility.yul\":2928:2934   */\n          dup4\n            /* \"#utility.yul\":2924:2941   */\n          add\n            /* \"#utility.yul\":2920:2947   */\n          slt\n            /* \"#utility.yul\":2910:3032   */\n          tag_82\n          jumpi\n            /* \"#utility.yul\":2951:3030   */\n          tag_83\n          tag_15\n          jump\t// in\n        tag_83:\n            /* \"#utility.yul\":2910:3032   */\n        tag_82:\n            /* \"#utility.yul\":3061:3067   */\n          dup2\n            /* \"#utility.yul\":3055:3068   */\n          mload\n            /* \"#utility.yul\":3086:3176   */\n          tag_84\n            /* \"#utility.yul\":3172:3175   */\n          dup5\n            /* \"#utility.yul\":3164:3170   */\n          dup3\n            /* \"#utility.yul\":3157:3161   */\n          0x20\n            /* \"#utility.yul\":3149:3155   */\n          dup7\n            /* \"#utility.yul\":3145:3162   */\n          add\n            /* \"#utility.yul\":3086:3176   */\n          tag_23\n          jump\t// in\n        tag_84:\n            /* \"#utility.yul\":3077:3176   */\n          swap2\n          pop\n            /* \"#utility.yul\":2900:3182   */\n          pop\n            /* \"#utility.yul\":2827:3182   */\n          swap3\n          swap2\n          pop\n          pop\n          jump\t// out\n            /* \"#utility.yul\":3188:3868   */\n        tag_2:\n            /* \"#utility.yul\":3277:3283   */\n          0x00\n            /* \"#utility.yul\":3285:3291   */\n          dup1\n            /* \"#utility.yul\":3334:3336   */\n          0x40\n            /* \"#utility.yul\":3322:3331   */\n          dup4\n            /* \"#utility.yul\":3313:3320   */\n          dup6\n            /* \"#utility.yul\":3309:3332   */\n          sub\n            /* \"#utility.yul\":3305:3337   */\n          slt\n            /* \"#utility.yul\":3302:3421   */\n          iszero\n          tag_86\n          jumpi\n            /* \"#utility.yul\":3340:3419   */\n          tag_87\n          tag_9\n          jump\t// in\n        tag_87:\n            /* \"#utility.yul\":3302:3421   */\n        tag_86:\n            /* \"#utility.yul\":3460:3461   */\n          0x00\n            /* \"#utility.yul\":3485:3549   */\n          tag_88\n            /* \"#utility.yul\":3541:3548   */\n          dup6\n            /* \"#utility.yul\":3532:3538   */\n          dup3\n            /* \"#utility.yul\":3521:3530   */\n          dup7\n            /* \"#utility.yul\":3517:3539   */\n          add\n            /* \"#utility.yul\":3485:3549   */\n          tag_14\n          jump\t// in\n        tag_88:\n            /* \"#utility.yul\":3475:3549   */\n          swap3\n          pop\n            /* \"#utility.yul\":3431:3559   */\n          pop\n            /* \"#utility.yul\":3619:3621   */\n          0x20\n            /* \"#utility.yul\":3608:3617   */\n          dup4\n            /* \"#utility.yul\":3604:3622   */\n          add\n            /* \"#utility.yul\":3598:3623   */\n          mload\n            /* \"#utility.yul\":3650:3668   */\n          0xffffffffffffffff\n            /* \"#utility.yul\":3642:3648   */\n          dup2\n            /* \"#utility.yul\":3639:3669   */\n          gt\n            /* \"#utility.yul\":3636:3753   */\n          iszero\n          tag_89\n          jumpi\n            /* \"#utility.yul\":3672:3751   */\n          tag_90\n          tag_10\n          jump\t// in\n        tag_90:\n            /* \"#utility.yul\":3636:3753   */\n        tag_89:\n            /* \"#utility.yul\":3777:3851   */\n          tag_91\n            /* \"#utility.yul\":3843:3850   */\n          dup6\n            /* \"#utility.yul\":3834:3840   */\n          dup3\n            /* \"#utility.yul\":3823:3832   */\n          dup7\n            /* \"#utility.yul\":3819:3841   */\n          add\n            /* \"#utility.yul\":3777:3851   */\n          tag_24\n          jump\t// in\n        tag_91:\n            /* \"#utility.yul\":3767:3851   */\n          swap2\n          pop\n            /* \"#utility.yul\":3569:3861   */\n          pop\n            /* \"#utility.yul\":3188:3868   */\n          swap3\n          pop\n          swap3\n          swap1\n          pop\n          jump\t// out\n            /* \"#utility.yul\":3874:3973   */\n        tag_25:\n            /* \"#utility.yul\":3926:3932   */\n          0x00\n            /* \"#utility.yul\":3960:3965   */\n          dup2\n            /* \"#utility.yul\":3954:3966   */\n          mload\n            /* \"#utility.yul\":3944:3966   */\n          swap1\n          pop\n            /* \"#utility.yul\":3874:3973   */\n          swap2\n          swap1\n          pop\n          jump\t// out\n            /* \"#utility.yul\":3979:4159   */\n        tag_26:\n            /* \"#utility.yul\":4027:4104   */\n          0x4e487b7100000000000000000000000000000000000000000000000000000000\n            /* \"#utility.yul\":4024:4025   */\n          0x00\n            /* \"#utility.yul\":4017:4105   */\n          mstore\n            /* \"#utility.yul\":4124:4128   */\n          0x22\n            /* \"#utility.yul\":4121:4122   */\n          0x04\n            /* \"#utility.yul\":4114:4129   */\n          mstore\n            /* \"#utility.yul\":4148:4152   */\n          0x24\n            /* \"#utility.yul\":4145:4146   */\n          0x00\n            /* \"#utility.yul\":4138:4153   */\n          revert\n            /* \"#utility.yul\":4165:4485   */\n        tag_27:\n            /* \"#utility.yul\":4209:4215   */\n          0x00\n            /* \"#utility.yul\":4246:4247   */\n          0x02\n            /* \"#utility.yul\":4240:4244   */\n          dup3\n            /* \"#utility.yul\":4236:4248   */\n          div\n            /* \"#utility.yul\":4226:4248   */\n          swap1\n          pop\n            /* \"#utility.yul\":4293:4294   */\n          0x01\n            /* \"#utility.yul\":4287:4291   */\n          dup3\n            /* \"#utility.yul\":4283:4295   */\n          and\n            /* \"#utility.yul\":4314:4332   */\n          dup1\n            /* \"#utility.yul\":4304:4385   */\n          tag_95\n          jumpi\n            /* \"#utility.yul\":4370:4374   */\n          0x7f\n            /* \"#utility.yul\":4362:4368   */\n          dup3\n            /* \"#utility.yul\":4358:4375   */\n          and\n            /* \"#utility.yul\":4348:4375   */\n          swap2\n          pop\n            /* \"#utility.yul\":4304:4385   */\n        tag_95:\n            /* \"#utility.yul\":4432:4434   */\n          0x20\n            /* \"#utility.yul\":4424:4430   */\n          dup3\n            /* \"#utility.yul\":4421:4435   */\n          lt\n            /* \"#utility.yul\":4401:4419   */\n          dup2\n            /* \"#utility.yul\":4398:4436   */\n          sub\n            /* \"#utility.yul\":4395:4479   */\n          tag_96\n          jumpi\n            /* \"#utility.yul\":4451:4469   */\n          tag_97\n          tag_26\n          jump\t// in\n        tag_97:\n            /* \"#utility.yul\":4395:4479   */\n        tag_96:\n            /* \"#utility.yul\":4216:4485   */\n          pop\n            /* \"#utility.yul\":4165:4485   */\n          swap2\n          swap1\n          pop\n          jump\t// out\n            /* \"#utility.yul\":4491:4632   */\n        tag_28:\n            /* \"#utility.yul\":4540:4544   */\n          0x00\n            /* \"#utility.yul\":4563:4566   */\n          dup2\n            /* \"#utility.yul\":4555:4566   */\n          swap1\n          pop\n            /* \"#utility.yul\":4586:4589   */\n          dup2\n            /* \"#utility.yul\":4583:4584   */\n          0x00\n            /* \"#utility.yul\":4576:4590   */\n          mstore\n            /* \"#utility.yul\":4620:4624   */\n          0x20\n            /* \"#utility.yul\":4617:4618   */\n          0x00\n            /* \"#utility.yul\":4607:4625   */\n          keccak256\n            /* \"#utility.yul\":4599:4625   */\n          swap1\n          pop\n            /* \"#utility.yul\":4491:4632   */\n          swap2\n          swap1\n          pop\n          jump\t// out\n            /* \"#utility.yul\":4638:4731   */\n        tag_29:\n            /* \"#utility.yul\":4675:4681   */\n          0x00\n            /* \"#utility.yul\":4722:4724   */\n          0x20\n            /* \"#utility.yul\":4717:4719   */\n          0x1f\n            /* \"#utility.yul\":4710:4715   */\n          dup4\n            /* \"#utility.yul\":4706:4720   */\n          add\n            /* \"#utility.yul\":4702:4725   */\n          div\n            /* \"#utility.yul\":4692:4725   */\n          swap1\n          pop\n            /* \"#utility.yul\":4638:4731   */\n          swap2\n          swap1\n          pop\n          jump\t// out\n            /* \"#utility.yul\":4737:4844   */\n        tag_30:\n            /* \"#utility.yul\":4781:4789   */\n          0x00\n            /* \"#utility.yul\":4831:4836   */\n          dup3\n            /* \"#utility.yul\":4825:4829   */\n          dup3\n            /* \"#utility.yul\":4821:4837   */\n          shl\n            /* \"#utility.yul\":4800:4837   */\n          swap1\n          pop\n            /* \"#utility.yul\":4737:4844   */\n          swap3\n          swap2\n          pop\n          pop\n          jump\t// out\n            /* \"#utility.yul\":4850:5243   */\n        tag_31:\n            /* \"#utility.yul\":4919:4925   */\n          0x00\n            /* \"#utility.yul\":4969:4970   */\n          0x08\n            /* \"#utility.yul\":4957:4967   */\n          dup4\n            /* \"#utility.yul\":4953:4971   */\n          mul\n            /* \"#utility.yul\":4992:5089   */\n          tag_102\n            /* \"#utility.yul\":5022:5088   */\n          0xffffffffffffffffffffffffffffffffffffffffffffffffffffffffffffffff\n            /* \"#utility.yul\":5011:5020   */\n          dup3\n            /* \"#utility.yul\":4992:5089   */\n          tag_30\n          jump\t// in\n        tag_102:\n            /* \"#utility.yul\":5110:5149   */\n          tag_103\n            /* \"#utility.yul\":5140:5148   */\n          dup7\n            /* \"#utility.yul\":5129:5138   */\n          dup4\n            /* \"#utility.yul\":5110:5149   */\n          tag_30\n          jump\t// in\n        tag_103:\n            /* \"#utility.yul\":5098:5149   */\n          swap6\n          pop\n            /* \"#utility.yul\":5182:5186   */\n          dup1\n            /* \"#utility.yul\":5178:5187   */\n          not\n            /* \"#utility.yul\":5171:5176   */\n          dup5\n            /* \"#utility.yul\":5167:5188   */\n          and\n            /* \"#utility.yul\":5158:5188   */\n          swap4\n          pop\n            /* \"#utility.yul\":5231:5235   */\n          dup1\n            /* \"#utility.yul\":5221:5229   */\n          dup7\n            /* \"#utility.yul\":5217:5236   */\n          and\n            /* \"#utility.yul\":5210:5215   */\n          dup5\n            /* \"#utility.yul\":5207:5237   */\n          or\n            /* \"#utility.yul\":5197:5237   */\n          swap3\n          pop\n            /* \"#utility.yul\":4926:5243   */\n          pop\n          pop\n            /* \"#utility.yul\":4850:5243   */\n          swap4\n          swap3\n          pop\n          pop\n          pop\n          jump\t// out\n            /* \"#utility.yul\":5249:5326   */\n        tag_32:\n            /* \"#utility.yul\":5286:5293   */\n          0x00\n            /* \"#utility.yul\":5315:5320   */\n          dup2\n            /* \"#utility.yul\":5304:5320   */\n          swap1\n          pop\n            /* \"#utility.yul\":5249:5326   */\n          swap2\n          swap1\n          pop\n          jump\t// out\n            /* \"#utility.yul\":5332:5392   */\n        tag_33:\n            /* \"#utility.yul\":5360:5363   */\n          0x00\n            /* \"#utility.yul\":5381:5386   */\n          dup2\n            /* \"#utility.yul\":5374:5386   */\n          swap1\n          pop\n            /* \"#utility.yul\":5332:5392   */\n          swap2\n          swap1\n          pop\n          jump\t// out\n            /* \"#utility.yul\":5398:5540   */\n        tag_34:\n            /* \"#utility.yul\":5448:5457   */\n          0x00\n            /* \"#utility.yul\":5481:5534   */\n          tag_107\n            /* \"#utility.yul\":5499:5533   */\n          tag_108\n            /* \"#utility.yul\":5508:5532   */\n          tag_109\n            /* \"#utility.yul\":5526:5531   */\n          dup5\n            /* \"#utility.yul\":5508:5532   */\n          tag_32\n          jump\t// in\n        tag_109:\n            /* \"#utility.yul\":5499:5533   */\n          tag_33\n          jump\t// in\n        tag_108:\n            /* \"#utility.yul\":5481:5534   */\n          tag_32\n          jump\t// in\n        tag_107:\n            /* \"#utility.yul\":5468:5534   */\n          swap1\n          pop\n            /* \"#utility.yul\":5398:5540   */\n          swap2\n          swap1\n          pop\n          jump\t// out\n            /* \"#utility.yul\":5546:5621   */\n        tag_35:\n            /* \"#utility.yul\":5589:5592   */\n          0x00\n            /* \"#utility.yul\":5610:5615   */\n          dup2\n            /* \"#utility.yul\":5603:5615   */\n          swap1\n          pop\n            /* \"#utility.yul\":5546:5621   */\n          swap2\n          swap1\n          pop\n          jump\t// out\n            /* \"#utility.yul\":5627:5896   */\n        tag_36:\n            /* \"#utility.yul\":5737:5776   */\n          tag_112\n            /* \"#utility.yul\":5768:5775   */\n          dup4\n            /* \"#utility.yul\":5737:5776   */\n          tag_34\n          jump\t// in\n        tag_112:\n            /* \"#utility.yul\":5798:5889   */\n          tag_113\n            /* \"#utility.yul\":5847:5888   */\n          tag_114\n            /* \"#utility.yul\":5871:5887   */\n          dup3\n            /* \"#utility.yul\":5847:5888   */\n          tag_35\n          jump\t// in\n        tag_114:\n            /* \"#utility.yul\":5839:5845   */\n          dup5\n            /* \"#utility.yul\":5832:5836   */\n          dup5\n            /* \"#utility.yul\":5826:5837   */\n          sload\n            /* \"#utility.yul\":5798:5889   */\n          tag_31\n          jump\t// in\n        tag_113:\n            /* \"#utility.yul\":5792:5796   */\n          dup3\n            /* \"#utility.yul\":5785:5890   */\n          sstore\n            /* \"#utility.yul\":5703:5896   */\n          pop\n            /* \"#utility.yul\":5627:5896   */\n          pop\n          pop\n          pop\n          jump\t// out\n            /* \"#utility.yul\":5902:5975   */\n        tag_37:\n            /* \"#utility.yul\":5947:5950   */\n          0x00\n            /* \"#utility.yul\":5902:5975   */\n          swap1\n          jump\t// out\n            /* \"#utility.yul\":5981:6170   */\n        tag_38:\n            /* \"#utility.yul\":6058:6090   */\n          tag_117\n          tag_37\n          jump\t// in\n        tag_117:\n            /* \"#utility.yul\":6099:6164   */\n          tag_118\n            /* \"#utility.yul\":6157:6163   */\n          dup2\n            /* \"#utility.yul\":6149:6155   */\n          dup5\n            /* \"#utility.yul\":6143:6147   */\n          dup5\n            /* \"#utility.yul\":6099:6164   */\n          tag_36\n          jump\t// in\n        tag_118:\n            /* \"#utility.yul\":6034:6170   */\n          pop\n            /* \"#utility.yul\":5981:6170   */\n          pop\n          pop\n          jump\t// out\n            /* \"#utility.yul\":6176:6362   */\n        tag_39:\n            /* \"#utility.yul\":6236:6356   */\n        tag_120:\n            /* \"#utility.yul\":6253:6256   */\n          dup2\n            /* \"#utility.yul\":6246:6251   */\n          dup2\n            /* \"#utility.yul\":6243:6257   */\n          lt\n            /* \"#utility.yul\":6236:6356   */\n          iszero\n          tag_122\n          jumpi\n            /* \"#utility.yul\":6307:6346   */\n          tag_123\n            /* \"#utility.yul\":6344:6345   */\n          0x00\n            /* \"#utility.yul\":6337:6342   */\n          dup3\n            /* \"#utility.yul\":6307:6346   */\n          tag_38\n          jump\t// in\n        tag_123:\n            /* \"#utility.yul\":6280:6281   */\n          0x01\n            /* \"#utility.yul\":6273:6278   */\n          dup2\n            /* \"#utility.yul\":6269:6282   */\n          add\n            /* \"#utility.yul\":6260:6282   */\n          swap1\n          pop\n            /* \"#utility.yul\":6236:6356   */\n          jump(tag_120)\n        tag_122:\n            /* \"#utility.yul\":6176:6362   */\n          pop\n          pop\n          jump\t// out\n            /* \"#utility.yul\":6368:6911   */\n        tag_40:\n            /* \"#utility.yul\":6469:6471   */\n          0x1f\n            /* \"#utility.yul\":6464:6467   */\n          dup3\n            /* \"#utility.yul\":6461:6472   */\n          gt\n            /* \"#utility.yul\":6458:6904   */\n          iszero\n          tag_125\n          jumpi\n            /* \"#utility.yul\":6503:6541   */\n          tag_126\n            /* \"#utility.yul\":6535:6540   */\n          dup2\n            /* \"#utility.yul\":6503:6541   */\n          tag_28\n          jump\t// in\n        tag_126:\n            /* \"#utility.yul\":6587:6616   */\n          tag_127\n            /* \"#utility.yul\":6605:6615   */\n          dup5\n            /* \"#utility.yul\":6587:6616   */\n          tag_29\n          jump\t// in\n        tag_127:\n            /* \"#utility.yul\":6577:6585   */\n          dup2\n            /* \"#utility.yul\":6573:6617   */\n          add\n            /* \"#utility.yul\":6770:6772   */\n          0x20\n            /* \"#utility.yul\":6758:6768   */\n          dup6\n            /* \"#utility.yul\":6755:6773   */\n          lt\n            /* \"#utility.yul\":6752:6801   */\n          iszero\n          tag_128\n          jumpi\n            /* \"#utility.yul\":6791:6799   */\n          dup2\n            /* \"#utility.yul\":6776:6799   */\n          swap1\n          pop\n            /* \"#utility.yul\":6752:6801   */\n        tag_128:\n            /* \"#utility.yul\":6814:6894   */\n          tag_129\n            /* \"#utility.yul\":6870:6892   */\n          tag_130\n            /* \"#utility.yul\":6888:6891   */\n          dup6\n            /* \"#utility.yul\":6870:6892   */\n          tag_29\n          jump\t// in\n        tag_130:\n            /* \"#utility.yul\":6860:6868   */\n          dup4\n            /* \"#utility.yul\":6856:6893   */\n          add\n            /* \"#utility.yul\":6843:6854   */\n          dup3\n            /* \"#utility.yul\":6814:6894   */\n          tag_39\n          jump\t// in\n        tag_129:\n            /* \"#utility.yul\":6473:6904   */\n          pop\n          pop\n            /* \"#utility.yul\":6458:6904   */\n        tag_125:\n            /* \"#utility.yul\":6368:6911   */\n          pop\n          pop\n          pop\n          jump\t// out\n            /* \"#utility.yul\":6917:7034   */\n        tag_41:\n            /* \"#utility.yul\":6971:6979   */\n          0x00\n            /* \"#utility.yul\":7021:7026   */\n          dup3\n            /* \"#utility.yul\":7015:7019   */\n          dup3\n            /* \"#utility.yul\":7011:7027   */\n          shr\n            /* \"#utility.yul\":6990:7027   */\n          swap1\n          pop\n            /* \"#utility.yul\":6917:7034   */\n          swap3\n          swap2\n          pop\n          pop\n          jump\t// out\n            /* \"#utility.yul\":7040:7209   */\n        tag_42:\n            /* \"#utility.yul\":7084:7090   */\n          0x00\n            /* \"#utility.yul\":7117:7168   */\n          tag_133\n            /* \"#utility.yul\":7165:7166   */\n          0x00\n            /* \"#utility.yul\":7161:7167   */\n          not\n            /* \"#utility.yul\":7153:7158   */\n          dup5\n            /* \"#utility.yul\":7150:7151   */\n          0x08\n            /* \"#utility.yul\":7146:7159   */\n          mul\n            /* \"#utility.yul\":7117:7168   */\n          tag_41\n          jump\t// in\n        tag_133:\n            /* \"#utility.yul\":7113:7169   */\n          not\n            /* \"#utility.yul\":7198:7202   */\n          dup1\n            /* \"#utility.yul\":7192:7196   */\n          dup4\n            /* \"#utility.yul\":7188:7203   */\n          and\n            /* \"#utility.yul\":7178:7203   */\n          swap2\n          pop\n            /* \"#utility.yul\":7091:7209   */\n          pop\n            /* \"#utility.yul\":7040:7209   */\n          swap3\n          swap2\n          pop\n          pop\n          jump\t// out\n            /* \"#utility.yul\":7214:7509   */\n        tag_43:\n            /* \"#utility.yul\":7290:7294   */\n          0x00\n            /* \"#utility.yul\":7436:7465   */\n          tag_135\n            /* \"#utility.yul\":7461:7464   */\n          dup4\n            /* \"#utility.yul\":7455:7459   */\n          dup4\n            /* \"#utility.yul\":7436:7465   */\n          tag_42\n          jump\t// in\n        tag_135:\n            /* \"#utility.yul\":7428:7465   */\n          swap2\n          pop\n            /* \"#utility.yul\":7498:7501   */\n          dup3\n            /* \"#utility.yul\":7495:7496   */\n          0x02\n            /* \"#utility.yul\":7491:7502   */\n          mul\n            /* \"#utility.yul\":7485:7489   */\n          dup3\n            /* \"#utility.yul\":7482:7503   */\n          or\n            /* \"#utility.yul\":7474:7503   */\n          swap1\n          pop\n            /* \"#utility.yul\":7214:7509   */\n          swap3\n          swap2\n          pop\n          pop\n          jump\t// out\n            /* \"#utility.yul\":7514:8909   */\n        tag_6:\n            /* \"#utility.yul\":7631:7668   */\n          tag_137\n            /* \"#utility.yul\":7664:7667   */\n          dup3\n            /* \"#utility.yul\":7631:7668   */\n          tag_25\n          jump\t// in\n        tag_137:\n            /* \"#utility.yul\":7733:7751   */\n          0xffffffffffffffff\n            /* \"#utility.yul\":7725:7731   */\n          dup2\n            /* \"#utility.yul\":7722:7752   */\n          gt\n            /* \"#utility.yul\":7719:7775   */\n          iszero\n          tag_138\n          jumpi\n            /* \"#utility.yul\":7755:7773   */\n          tag_139\n          tag_18\n          jump\t// in\n        tag_139:\n            /* \"#utility.yul\":7719:7775   */\n        tag_138:\n            /* \"#utility.yul\":7799:7837   */\n          tag_140\n            /* \"#utility.yul\":7831:7835   */\n          dup3\n            /* \"#utility.yul\":7825:7836   */\n          sload\n            /* \"#utility.yul\":7799:7837   */\n          tag_27\n          jump\t// in\n        tag_140:\n            /* \"#utility.yul\":7884:7951   */\n          tag_141\n            /* \"#utility.yul\":7944:7950   */\n          dup3\n            /* \"#utility.yul\":7936:7942   */\n          dup3\n            /* \"#utility.yul\":7930:7934   */\n          dup6\n            /* \"#utility.yul\":7884:7951   */\n          tag_40\n          jump\t// in\n        tag_141:\n            /* \"#utility.yul\":7978:7979   */\n          0x00\n            /* \"#utility.yul\":8002:8006   */\n          0x20\n            /* \"#utility.yul\":7989:8006   */\n          swap1\n          pop\n            /* \"#utility.yul\":8034:8036   */\n          0x1f\n            /* \"#utility.yul\":8026:8032   */\n          dup4\n            /* \"#utility.yul\":8023:8037   */\n          gt\n            /* \"#utility.yul\":8051:8052   */\n          0x01\n            /* \"#utility.yul\":8046:8664   */\n          dup2\n          eq\n          tag_143\n          jumpi\n            /* \"#utility.yul\":8708:8709   */\n          0x00\n            /* \"#utility.yul\":8725:8731   */\n          dup5\n            /* \"#utility.yul\":8722:8799   */\n          iszero\n          tag_144\n          jumpi\n            /* \"#utility.yul\":8774:8783   */\n          dup3\n            /* \"#utility.yul\":8769:8772   */\n          dup8\n            /* \"#utility.yul\":8765:8784   */\n          add\n            /* \"#utility.yul\":8759:8785   */\n          mload\n            /* \"#utility.yul\":8750:8785   */\n          swap1\n          pop\n            /* \"#utility.yul\":8722:8799   */\n        tag_144:\n            /* \"#utility.yul\":8825:8892   */\n          tag_145\n            /* \"#utility.yul\":8885:8891   */\n          dup6\n            /* \"#utility.yul\":8878:8883   */\n          dup3\n            /* \"#utility.yul\":8825:8892   */\n          tag_43\n          jump\t// in\n        tag_145:\n            /* \"#utility.yul\":8819:8823   */\n          dup7\n            /* \"#utility.yul\":8812:8893   */\n          sstore\n            /* \"#utility.yul\":8681:8903   */\n          pop\n            /* \"#utility.yul\":8016:8903   */\n          jump(tag_142)\n            /* \"#utility.yul\":8046:8664   */\n        tag_143:\n            /* \"#utility.yul\":8098:8102   */\n          0x1f\n            /* \"#utility.yul\":8094:8103   */\n          not\n            /* \"#utility.yul\":8086:8092   */\n          dup5\n            /* \"#utility.yul\":8082:8104   */\n          and\n            /* \"#utility.yul\":8132:8169   */\n          tag_146\n            /* \"#utility.yul\":8164:8168   */\n          dup7\n            /* \"#utility.yul\":8132:8169   */\n          tag_28\n          jump\t// in\n        tag_146:\n            /* \"#utility.yul\":8191:8192   */\n          0x00\n            /* \"#utility.yul\":8205:8413   */\n        tag_147:\n            /* \"#utility.yul\":8219:8226   */\n          dup3\n            /* \"#utility.yul\":8216:8217   */\n          dup2\n            /* \"#utility.yul\":8213:8227   */\n          lt\n            /* \"#utility.yul\":8205:8413   */\n          iszero\n          tag_149\n          jumpi\n            /* \"#utility.yul\":8298:8307   */\n          dup5\n            /* \"#utility.yul\":8293:8296   */\n          dup10\n            /* \"#utility.yul\":8289:8308   */\n          add\n            /* \"#utility.yul\":8283:8309   */\n          mload\n            /* \"#utility.yul\":8275:8281   */\n          dup3\n            /* \"#utility.yul\":8268:8310   */\n          sstore\n            /* \"#utility.yul\":8349:8350   */\n          0x01\n            /* \"#utility.yul\":8341:8347   */\n          dup3\n            /* \"#utility.yul\":8337:8351   */\n          add\n            /* \"#utility.yul\":8327:8351   */\n          swap2\n          pop\n            /* \"#utility.yul\":8396:8398   */\n          0x20\n            /* \"#utility.yul\":8385:8394   */\n          dup6\n            /* \"#utility.yul\":8381:8399   */\n          add\n            /* \"#utility.yul\":8368:8399   */\n          swap5\n          pop\n            /* \"#utility.yul\":8242:8246   */\n          0x20\n            /* \"#utility.yul\":8239:8240   */\n          dup2\n            /* \"#utility.yul\":8235:8247   */\n          add\n            /* \"#utility.yul\":8230:8247   */\n          swap1\n          pop\n            /* \"#utility.yul\":8205:8413   */\n          jump(tag_147)\n        tag_149:\n            /* \"#utility.yul\":8441:8447   */\n          dup7\n            /* \"#utility.yul\":8432:8439   */\n          dup4\n            /* \"#utility.yul\":8429:8448   */\n          lt\n            /* \"#utility.yul\":8426:8605   */\n          iszero\n          tag_150\n          jumpi\n            /* \"#utility.yul\":8499:8508   */\n          dup5\n            /* \"#utility.yul\":8494:8497   */\n          dup10\n            /* \"#utility.yul\":8490:8509   */\n          add\n            /* \"#utility.yul\":8484:8510   */\n          mload\n            /* \"#utility.yul\":8542:8590   */\n          tag_151\n            /* \"#utility.yul\":8584:8588   */\n          0x1f\n            /* \"#utility.yul\":8576:8582   */\n          dup10\n            /* \"#utility.yul\":8572:8589   */\n          and\n            /* \"#utility.yul\":8561:8570   */\n          dup3\n            /* \"#utility.yul\":8542:8590   */\n          tag_42\n          jump\t// in\n        tag_151:\n            /* \"#utility.yul\":8534:8540   */\n          dup4\n            /* \"#utility.yul\":8527:8591   */\n          sstore\n            /* \"#utility.yul\":8449:8605   */\n          pop\n            /* \"#utility.yul\":8426:8605   */\n        tag_150:\n            /* \"#utility.yul\":8651:8652   */\n          0x01\n            /* \"#utility.yul\":8647:8648   */\n          0x02\n            /* \"#utility.yul\":8639:8645   */\n          dup9\n            /* \"#utility.yul\":8635:8649   */\n          mul\n            /* \"#utility.yul\":8631:8653   */\n          add\n            /* \"#utility.yul\":8625:8629   */\n          dup9\n            /* \"#utility.yul\":8618:8654   */\n          sstore\n            /* \"#utility.yul\":8053:8664   */\n          pop\n          pop\n          pop\n            /* \"#utility.yul\":8016:8903   */\n        tag_142:\n          pop\n            /* \"#utility.yul\":7606:8909   */\n          pop\n          pop\n          pop\n            /* \"#utility.yul\":7514:8909   */\n          pop\n          pop\n          jump\t// out\n            /* \"43-creatingAContractFromContract.sol\":260:876  contract Car {... */\n        tag_7:\n          dataSize(sub_0)\n          dup1\n          dataOffset(sub_0)\n          0x00\n          codecopy\n          0x00\n          return\n        stop\n\n        sub_0: assembly {\n                /* \"43-creatingAContractFromContract.sol\":260:876  contract Car {... */\n              mstore(0x40, 0x80)\n              callvalue\n              dup1\n              iszero\n              tag_1\n              jumpi\n              0x00\n              dup1\n              revert\n            tag_1:\n              pop\n              jumpi(tag_2, lt(calldatasize, 0x04))\n              shr(0xe0, calldataload(0x00))\n              dup1\n              0x0ad9d052\n              eq\n              tag_3\n              jumpi\n              dup1\n              0x8da5cb5b\n              eq\n              tag_4\n              jumpi\n              dup1\n              0xcdcf1a18\n              eq\n              tag_5\n              jumpi\n            tag_2:\n              0x00\n              dup1\n              revert\n                /* \"43-creatingAContractFromContract.sol\":352:371  string public model */\n            tag_3:\n              tag_6\n              tag_7\n              jump\t// in\n            tag_6:\n              mload(0x40)\n              tag_8\n              swap2\n              swap1\n              tag_9\n              jump\t// in\n            tag_8:\n              mload(0x40)\n              dup1\n              swap2\n              sub\n              swap1\n              return\n                /* \"43-creatingAContractFromContract.sol\":279:299  address public owner */\n            tag_4:\n              tag_10\n              tag_11\n              jump\t// in\n            tag_10:\n              mload(0x40)\n              tag_12\n              swap2\n              swap1\n              tag_13\n              jump\t// in\n            tag_12:\n              mload(0x40)\n              dup1\n              swap2\n              sub\n              swap1\n              return\n                /* \"43-creatingAContractFromContract.sol\":418:443  address public carAddress */\n            tag_5:\n              tag_14\n              tag_15\n              jump\t// in\n            tag_14:\n              mload(0x40)\n              tag_16\n              swap2\n              swap1\n              tag_13\n              jump\t// in\n            tag_16:\n              mload(0x40)\n              dup1\n              swap2\n              sub\n              swap1\n              return\n                /* \"43-creatingAContractFromContract.sol\":352:371  string public model */\n            tag_7:\n              0x01\n              dup1\n              sload\n              tag_17\n              swap1\n              tag_18\n              jump\t// in\n            tag_17:\n              dup1\n              0x1f\n              add\n              0x20\n              dup1\n              swap2\n              div\n              mul\n              0x20\n              add\n              mload(0x40)\n              swap1\n              dup2\n              add\n              0x40\n              mstore\n              dup1\n              swap3\n              swap2\n              swap1\n              dup2\n              dup2\n              mstore\n              0x20\n              add\n              dup3\n              dup1\n              sload\n              tag_19\n              swap1\n              tag_18\n              jump\t// in\n            tag_19:\n              dup1\n              iszero\n              tag_20\n              jumpi\n              dup1\n              0x1f\n              lt\n              tag_21\n              jumpi\n              0x0100\n              dup1\n              dup4\n              sload\n              div\n              mul\n              dup4\n              mstore\n              swap2\n              0x20\n              add\n              swap2\n              jump(tag_20)\n            tag_21:\n              dup3\n              add\n              swap2\n              swap1\n              0x00\n              mstore\n              keccak256(0x00, 0x20)\n              swap1\n            tag_22:\n              dup2\n              sload\n              dup2\n              mstore\n              swap1\n              0x01\n              add\n              swap1\n              0x20\n              add\n              dup1\n              dup4\n              gt\n              tag_22\n              jumpi\n              dup3\n              swap1\n              sub\n              0x1f\n              and\n              dup3\n              add\n              swap2\n            tag_20:\n              pop\n              pop\n              pop\n              pop\n              pop\n              dup2\n              jump\t// out\n                /* \"43-creatingAContractFromContract.sol\":279:299  address public owner */\n            tag_11:\n              0x00\n              dup1\n              sload\n              swap1\n              0x0100\n              exp\n              swap1\n              div\n              0xffffffffffffffffffffffffffffffffffffffff\n              and\n              dup2\n              jump\t// out\n                /* \"43-creatingAContractFromContract.sol\":418:443  address public carAddress */\n            tag_15:\n              0x02\n              0x00\n              swap1\n              sload\n              swap1\n              0x0100\n              exp\n              swap1\n              div\n              0xffffffffffffffffffffffffffffffffffffffff\n              and\n              dup2\n              jump\t// out\n                /* \"#utility.yul\":7:106   */\n            tag_23:\n                /* \"#utility.yul\":59:65   */\n              0x00\n                /* \"#utility.yul\":93:98   */\n              dup2\n                /* \"#utility.yul\":87:99   */\n              mload\n                /* \"#utility.yul\":77:99   */\n              swap1\n              pop\n                /* \"#utility.yul\":7:106   */\n              swap2\n              swap1\n              pop\n              jump\t// out\n                /* \"#utility.yul\":112:281   */\n            tag_24:\n                /* \"#utility.yul\":196:207   */\n              0x00\n                /* \"#utility.yul\":230:236   */\n              dup3\n                /* \"#utility.yul\":225:228   */\n              dup3\n                /* \"#utility.yul\":218:237   */\n              mstore\n                /* \"#utility.yul\":270:274   */\n              0x20\n                /* \"#utility.yul\":265:268   */\n              dup3\n                /* \"#utility.yul\":261:275   */\n              add\n                /* \"#utility.yul\":246:275   */\n              swap1\n              pop\n                /* \"#utility.yul\":112:281   */\n              swap3\n              swap2\n              pop\n              pop\n              jump\t// out\n                /* \"#utility.yul\":287:533   */\n            tag_25:\n                /* \"#utility.yul\":368:369   */\n              0x00\n                /* \"#utility.yul\":378:491   */\n            tag_36:\n                /* \"#utility.yul\":392:398   */\n              dup4\n                /* \"#utility.yul\":389:390   */\n              dup2\n                /* \"#utility.yul\":386:399   */\n              lt\n                /* \"#utility.yul\":378:491   */\n              iszero\n              tag_38\n              jumpi\n                /* \"#utility.yul\":477:478   */\n              dup1\n                /* \"#utility.yul\":472:475   */\n              dup3\n                /* \"#utility.yul\":468:479   */\n              add\n                /* \"#utility.yul\":462:480   */\n              mload\n                /* \"#utility.yul\":458:459   */\n              dup2\n                /* \"#utility.yul\":453:456   */\n              dup5\n                /* \"#utility.yul\":449:460   */\n              add\n                /* \"#utility.yul\":442:481   */\n              mstore\n                /* \"#utility.yul\":414:416   */\n              0x20\n                /* \"#utility.yul\":411:412   */\n              dup2\n                /* \"#utility.yul\":407:417   */\n              add\n                /* \"#utility.yul\":402:417   */\n              swap1\n              pop\n                /* \"#utility.yul\":378:491   */\n              jump(tag_36)\n            tag_38:\n                /* \"#utility.yul\":525:526   */\n              0x00\n                /* \"#utility.yul\":516:522   */\n              dup5\n                /* \"#utility.yul\":511:514   */\n              dup5\n                /* \"#utility.yul\":507:523   */\n              add\n                /* \"#utility.yul\":500:527   */\n              mstore\n                /* \"#utility.yul\":349:533   */\n              pop\n                /* \"#utility.yul\":287:533   */\n              pop\n              pop\n              pop\n              jump\t// out\n                /* \"#utility.yul\":539:641   */\n            tag_26:\n                /* \"#utility.yul\":580:586   */\n              0x00\n                /* \"#utility.yul\":631:633   */\n              0x1f\n                /* \"#utility.yul\":627:634   */\n              not\n                /* \"#utility.yul\":622:624   */\n              0x1f\n                /* \"#utility.yul\":615:620   */\n              dup4\n                /* \"#utility.yul\":611:625   */\n              add\n                /* \"#utility.yul\":607:635   */\n              and\n                /* \"#utility.yul\":597:635   */\n              swap1\n              pop\n                /* \"#utility.yul\":539:641   */\n              swap2\n              swap1\n              pop\n              jump\t// out\n                /* \"#utility.yul\":647:1024   */\n            tag_27:\n                /* \"#utility.yul\":735:738   */\n              0x00\n                /* \"#utility.yul\":763:802   */\n              tag_41\n                /* \"#utility.yul\":796:801   */\n              dup3\n                /* \"#utility.yul\":763:802   */\n              tag_23\n              jump\t// in\n            tag_41:\n                /* \"#utility.yul\":818:889   */\n              tag_42\n                /* \"#utility.yul\":882:888   */\n              dup2\n                /* \"#utility.yul\":877:880   */\n              dup6\n                /* \"#utility.yul\":818:889   */\n              tag_24\n              jump\t// in\n            tag_42:\n                /* \"#utility.yul\":811:889   */\n              swap4\n              pop\n                /* \"#utility.yul\":898:963   */\n              tag_43\n                /* \"#utility.yul\":956:962   */\n              dup2\n                /* \"#utility.yul\":951:954   */\n              dup6\n                /* \"#utility.yul\":944:948   */\n              0x20\n                /* \"#utility.yul\":937:942   */\n              dup7\n                /* \"#utility.yul\":933:949   */\n              add\n                /* \"#utility.yul\":898:963   */\n              tag_25\n              jump\t// in\n            tag_43:\n                /* \"#utility.yul\":988:1017   */\n              tag_44\n                /* \"#utility.yul\":1010:1016   */\n              dup2\n                /* \"#utility.yul\":988:1017   */\n              tag_26\n              jump\t// in\n            tag_44:\n                /* \"#utility.yul\":983:986   */\n              dup5\n                /* \"#utility.yul\":979:1018   */\n              add\n                /* \"#utility.yul\":972:1018   */\n              swap2\n              pop\n                /* \"#utility.yul\":739:1024   */\n              pop\n                /* \"#utility.yul\":647:1024   */\n              swap3\n              swap2\n              pop\n              pop\n              jump\t// out\n                /* \"#utility.yul\":1030:1343   */\n            tag_9:\n                /* \"#utility.yul\":1143:1147   */\n              0x00\n                /* \"#utility.yul\":1181:1183   */\n              0x20\n                /* \"#utility.yul\":1170:1179   */\n              dup3\n                /* \"#utility.yul\":1166:1184   */\n              add\n                /* \"#utility.yul\":1158:1184   */\n              swap1\n              pop\n                /* \"#utility.yul\":1230:1239   */\n              dup2\n                /* \"#utility.yul\":1224:1228   */\n              dup2\n                /* \"#utility.yul\":1220:1240   */\n              sub\n                /* \"#utility.yul\":1216:1217   */\n              0x00\n                /* \"#utility.yul\":1205:1214   */\n              dup4\n                /* \"#utility.yul\":1201:1218   */\n              add\n                /* \"#utility.yul\":1194:1241   */\n              mstore\n                /* \"#utility.yul\":1258:1336   */\n              tag_46\n                /* \"#utility.yul\":1331:1335   */\n              dup2\n                /* \"#utility.yul\":1322:1328   */\n              dup5\n                /* \"#utility.yul\":1258:1336   */\n              tag_27\n              jump\t// in\n            tag_46:\n                /* \"#utility.yul\":1250:1336   */\n              swap1\n              pop\n                /* \"#utility.yul\":1030:1343   */\n              swap3\n              swap2\n              pop\n              pop\n              jump\t// out\n                /* \"#utility.yul\":1349:1475   */\n            tag_28:\n                /* \"#utility.yul\":1386:1393   */\n              0x00\n                /* \"#utility.yul\":1426:1468   */\n              0xffffffffffffffffffffffffffffffffffffffff\n                /* \"#utility.yul\":1419:1424   */\n              dup3\n                /* \"#utility.yul\":1415:1469   */\n              and\n                /* \"#utility.yul\":1404:1469   */\n              swap1\n              pop\n                /* \"#utility.yul\":1349:1475   */\n              swap2\n              swap1\n              pop\n              jump\t// out\n                /* \"#utility.yul\":1481:1577   */\n            tag_29:\n                /* \"#utility.yul\":1518:1525   */\n              0x00\n                /* \"#utility.yul\":1547:1571   */\n              tag_49\n                /* \"#utility.yul\":1565:1570   */\n              dup3\n                /* \"#utility.yul\":1547:1571   */\n              tag_28\n              jump\t// in\n            tag_49:\n                /* \"#utility.yul\":1536:1571   */\n              swap1\n              pop\n                /* \"#utility.yul\":1481:1577   */\n              swap2\n              swap1\n              pop\n              jump\t// out\n                /* \"#utility.yul\":1583:1701   */\n            tag_30:\n                /* \"#utility.yul\":1670:1694   */\n              tag_51\n                /* \"#utility.yul\":1688:1693   */\n              dup2\n                /* \"#utility.yul\":1670:1694   */\n              tag_29\n              jump\t// in\n            tag_51:\n                /* \"#utility.yul\":1665:1668   */\n              dup3\n                /* \"#utility.yul\":1658:1695   */\n              mstore\n                /* \"#utility.yul\":1583:1701   */\n              pop\n              pop\n              jump\t// out\n                /* \"#utility.yul\":1707:1929   */\n            tag_13:\n                /* \"#utility.yul\":1800:1804   */\n              0x00\n                /* \"#utility.yul\":1838:1840   */\n              0x20\n                /* \"#utility.yul\":1827:1836   */\n              dup3\n                /* \"#utility.yul\":1823:1841   */\n              add\n                /* \"#utility.yul\":1815:1841   */\n              swap1\n              pop\n                /* \"#utility.yul\":1851:1922   */\n              tag_53\n                /* \"#utility.yul\":1919:1920   */\n              0x00\n                /* \"#utility.yul\":1908:1917   */\n              dup4\n                /* \"#utility.yul\":1904:1921   */\n              add\n                /* \"#utility.yul\":1895:1901   */\n              dup5\n                /* \"#utility.yul\":1851:1922   */\n              tag_30\n              jump\t// in\n            tag_53:\n                /* \"#utility.yul\":1707:1929   */\n              swap3\n              swap2\n              pop\n              pop\n              jump\t// out\n                /* \"#utility.yul\":1935:2115   */\n            tag_31:\n                /* \"#utility.yul\":1983:2060   */\n              0x4e487b7100000000000000000000000000000000000000000000000000000000\n                /* \"#utility.yul\":1980:1981   */\n              0x00\n                /* \"#utility.yul\":1973:2061   */\n              mstore\n                /* \"#utility.yul\":2080:2084   */\n              0x22\n                /* \"#utility.yul\":2077:2078   */\n              0x04\n                /* \"#utility.yul\":2070:2085   */\n              mstore\n                /* \"#utility.yul\":2104:2108   */\n              0x24\n                /* \"#utility.yul\":2101:2102   */\n              0x00\n                /* \"#utility.yul\":2094:2109   */\n              revert\n                /* \"#utility.yul\":2121:2441   */\n            tag_18:\n                /* \"#utility.yul\":2165:2171   */\n              0x00\n                /* \"#utility.yul\":2202:2203   */\n              0x02\n                /* \"#utility.yul\":2196:2200   */\n              dup3\n                /* \"#utility.yul\":2192:2204   */\n              div\n                /* \"#utility.yul\":2182:2204   */\n              swap1\n              pop\n                /* \"#utility.yul\":2249:2250   */\n              0x01\n                /* \"#utility.yul\":2243:2247   */\n              dup3\n                /* \"#utility.yul\":2239:2251   */\n              and\n                /* \"#utility.yul\":2270:2288   */\n              dup1\n                /* \"#utility.yul\":2260:2341   */\n              tag_56\n              jumpi\n                /* \"#utility.yul\":2326:2330   */\n              0x7f\n                /* \"#utility.yul\":2318:2324   */\n              dup3\n                /* \"#utility.yul\":2314:2331   */\n              and\n                /* \"#utility.yul\":2304:2331   */\n              swap2\n              pop\n                /* \"#utility.yul\":2260:2341   */\n            tag_56:\n                /* \"#utility.yul\":2388:2390   */\n              0x20\n                /* \"#utility.yul\":2380:2386   */\n              dup3\n                /* \"#utility.yul\":2377:2391   */\n              lt\n                /* \"#utility.yul\":2357:2375   */\n              dup2\n                /* \"#utility.yul\":2354:2392   */\n              sub\n                /* \"#utility.yul\":2351:2435   */\n              tag_57\n              jumpi\n                /* \"#utility.yul\":2407:2425   */\n              tag_58\n              tag_31\n              jump\t// in\n            tag_58:\n                /* \"#utility.yul\":2351:2435   */\n            tag_57:\n                /* \"#utility.yul\":2172:2441   */\n              pop\n                /* \"#utility.yul\":2121:2441   */\n              swap2\n              swap1\n              pop\n              jump\t// out\n\n            auxdata: 0xa26469706673582212208691e18fdfcab9127b4c03e2bff332771dd1930ff7f5ceba13d2a9817c3373c364736f6c63430008160033\n        }\n    }\n\n    auxdata: 0xa2646970667358221220f0118ab22ba3c73c4d3bec8af7aa0fd1db1b4e3924f48b3aae53c7b7bd0724a864736f6c63430008160033\n}\n",
				"bytecode": {
					"linkReferences": {},
					"object": "608060405234801561000f575f80fd5b506115bc8061001d5f395ff3fe6080604052600436106200005b575f3560e01c80633d4b3015146200005f5780635e8be190146200007f578063a15ab08d14620000c5578063ace276ee14620000f2578063c33cd615146200011f578063f7746e36146200013f575b5f80fd5b6200007d60048036038101906200007791906200081d565b62000182565b005b3480156200008b575f80fd5b50620000aa6004803603810190620000a49190620008cd565b6200022b565b604051620000bc9493929190620009a3565b60405180910390f35b348015620000d1575f80fd5b50620000f06004803603810190620000ea9190620009f5565b620003ec565b005b348015620000fe575f80fd5b506200011d60048036038101906200011791906200081d565b6200048b565b005b6200013d6004803603810190620001379190620009f5565b62000530565b005b3480156200014b575f80fd5b506200016a6004803603810190620001649190620008cd565b620005d2565b60405162000179919062000ac0565b60405180910390f35b5f348290858560405162000196906200060d565b620001a392919062000adb565b82906040518091039083f59050905080158015620001c3573d5f803e3d5ffd5b5090505f81908060018154018082558091505060019003905f5260205f20015f9091909190916101000a81548173ffffffffffffffffffffffffffffffffffffffff021916908373ffffffffffffffffffffffffffffffffffffffff16021790555050505050565b5f60605f805f80868154811062000247576200024662000b0d565b5b905f5260205f20015f9054906101000a900473ffffffffffffffffffffffffffffffffffffffff1690508073ffffffffffffffffffffffffffffffffffffffff16638da5cb5b6040518163ffffffff1660e01b8152600401602060405180830381865afa158015620002bb573d5f803e3d5ffd5b505050506040513d601f19601f82011682018060405250810190620002e1919062000b50565b8173ffffffffffffffffffffffffffffffffffffffff16630ad9d0526040518163ffffffff1660e01b81526004015f60405180830381865afa1580156200032a573d5f803e3d5ffd5b505050506040513d5f823e3d601f19601f8201168201806040525081019062000354919062000bfc565b8273ffffffffffffffffffffffffffffffffffffffff1663cdcf1a186040518163ffffffff1660e01b8152600401602060405180830381865afa1580156200039e573d5f803e3d5ffd5b505050506040513d601f19601f82011682018060405250810190620003c4919062000b50565b8373ffffffffffffffffffffffffffffffffffffffff16319450945094509450509193509193565b5f8282604051620003fd906200060d565b6200040a92919062000adb565b604051809103905ff08015801562000424573d5f803e3d5ffd5b5090505f81908060018154018082558091505060019003905f5260205f20015f9091909190916101000a81548173ffffffffffffffffffffffffffffffffffffffff021916908373ffffffffffffffffffffffffffffffffffffffff160217905550505050565b5f8184846040516200049d906200060d565b620004aa92919062000adb565b8190604051809103905ff5905080158015620004c8573d5f803e3d5ffd5b5090505f81908060018154018082558091505060019003905f5260205f20015f9091909190916101000a81548173ffffffffffffffffffffffffffffffffffffffff021916908373ffffffffffffffffffffffffffffffffffffffff16021790555050505050565b5f34838360405162000542906200060d565b6200054f92919062000adb565b6040518091039082f09050801580156200056b573d5f803e3d5ffd5b5090505f81908060018154018082558091505060019003905f5260205f20015f9091909190916101000a81548173ffffffffffffffffffffffffffffffffffffffff021916908373ffffffffffffffffffffffffffffffffffffffff160217905550505050565b5f8181548110620005e1575f80fd5b905f5260205f20015f915054906101000a900473ffffffffffffffffffffffffffffffffffffffff1681565b61093b8062000c4c83390190565b5f604051905090565b5f80fd5b5f80fd5b5f73ffffffffffffffffffffffffffffffffffffffff82169050919050565b5f62000657826200062c565b9050919050565b62000669816200064b565b811462000674575f80fd5b50565b5f8135905062000687816200065e565b92915050565b5f80fd5b5f80fd5b5f601f19601f8301169050919050565b7f4e487b71000000000000000000000000000000000000000000000000000000005f52604160045260245ffd5b620006dd8262000695565b810181811067ffffffffffffffff82111715620006ff57620006fe620006a5565b5b80604052505050565b5f620007136200061b565b9050620007218282620006d2565b919050565b5f67ffffffffffffffff821115620007435762000742620006a5565b5b6200074e8262000695565b9050602081019050919050565b828183375f83830152505050565b5f6200077f620007798462000726565b62000708565b9050828152602081018484840111156200079e576200079d62000691565b5b620007ab8482856200075b565b509392505050565b5f82601f830112620007ca57620007c96200068d565b5b8135620007dc84826020860162000769565b91505092915050565b5f819050919050565b620007f981620007e5565b811462000804575f80fd5b50565b5f813590506200081781620007ee565b92915050565b5f805f6060848603121562000837576200083662000624565b5b5f620008468682870162000677565b935050602084013567ffffffffffffffff8111156200086a576200086962000628565b5b6200087886828701620007b3565b92505060406200088b8682870162000807565b9150509250925092565b5f819050919050565b620008a98162000895565b8114620008b4575f80fd5b50565b5f81359050620008c7816200089e565b92915050565b5f60208284031215620008e557620008e462000624565b5b5f620008f484828501620008b7565b91505092915050565b62000908816200064b565b82525050565b5f81519050919050565b5f82825260208201905092915050565b5f5b83811015620009475780820151818401526020810190506200092a565b5f8484015250505050565b5f6200095e826200090e565b6200096a818562000918565b93506200097c81856020860162000928565b620009878162000695565b840191505092915050565b6200099d8162000895565b82525050565b5f608082019050620009b85f830187620008fd565b8181036020830152620009cc818662000952565b9050620009dd6040830185620008fd565b620009ec606083018462000992565b95945050505050565b5f806040838503121562000a0e5762000a0d62000624565b5b5f62000a1d8582860162000677565b925050602083013567ffffffffffffffff81111562000a415762000a4062000628565b5b62000a4f85828601620007b3565b9150509250929050565b5f819050919050565b5f62000a8262000a7c62000a76846200062c565b62000a59565b6200062c565b9050919050565b5f62000a958262000a62565b9050919050565b5f62000aa88262000a89565b9050919050565b62000aba8162000a9c565b82525050565b5f60208201905062000ad55f83018462000aaf565b92915050565b5f60408201905062000af05f830185620008fd565b818103602083015262000b04818462000952565b90509392505050565b7f4e487b71000000000000000000000000000000000000000000000000000000005f52603260045260245ffd5b5f8151905062000b4a816200065e565b92915050565b5f6020828403121562000b685762000b6762000624565b5b5f62000b778482850162000b3a565b91505092915050565b5f62000b9662000b908462000726565b62000708565b90508281526020810184848401111562000bb55762000bb462000691565b5b62000bc284828562000928565b509392505050565b5f82601f83011262000be15762000be06200068d565b5b815162000bf384826020860162000b80565b91505092915050565b5f6020828403121562000c145762000c1362000624565b5b5f82015167ffffffffffffffff81111562000c345762000c3362000628565b5b62000c428482850162000bca565b9150509291505056fe60806040526040516200093b3803806200093b8339818101604052810190620000299190620002a8565b815f806101000a81548173ffffffffffffffffffffffffffffffffffffffff021916908373ffffffffffffffffffffffffffffffffffffffff160217905550806001908162000079919062000543565b503060025f6101000a81548173ffffffffffffffffffffffffffffffffffffffff021916908373ffffffffffffffffffffffffffffffffffffffff160217905550505062000627565b5f604051905090565b5f80fd5b5f80fd5b5f73ffffffffffffffffffffffffffffffffffffffff82169050919050565b5f620000fe82620000d3565b9050919050565b6200011081620000f2565b81146200011b575f80fd5b50565b5f815190506200012e8162000105565b92915050565b5f80fd5b5f80fd5b5f601f19601f8301169050919050565b7f4e487b71000000000000000000000000000000000000000000000000000000005f52604160045260245ffd5b62000184826200013c565b810181811067ffffffffffffffff82111715620001a657620001a56200014c565b5b80604052505050565b5f620001ba620000c2565b9050620001c8828262000179565b919050565b5f67ffffffffffffffff821115620001ea57620001e96200014c565b5b620001f5826200013c565b9050602081019050919050565b5f5b838110156200022157808201518184015260208101905062000204565b5f8484015250505050565b5f620002426200023c84620001cd565b620001af565b90508281526020810184848401111562000261576200026062000138565b5b6200026e84828562000202565b509392505050565b5f82601f8301126200028d576200028c62000134565b5b81516200029f8482602086016200022c565b91505092915050565b5f8060408385031215620002c157620002c0620000cb565b5b5f620002d0858286016200011e565b925050602083015167ffffffffffffffff811115620002f457620002f3620000cf565b5b620003028582860162000276565b9150509250929050565b5f81519050919050565b7f4e487b71000000000000000000000000000000000000000000000000000000005f52602260045260245ffd5b5f60028204905060018216806200035b57607f821691505b60208210810362000371576200037062000316565b5b50919050565b5f819050815f5260205f209050919050565b5f6020601f8301049050919050565b5f82821b905092915050565b5f60088302620003d57fffffffffffffffffffffffffffffffffffffffffffffffffffffffffffffffff8262000398565b620003e1868362000398565b95508019841693508086168417925050509392505050565b5f819050919050565b5f819050919050565b5f6200042b620004256200041f84620003f9565b62000402565b620003f9565b9050919050565b5f819050919050565b62000446836200040b565b6200045e620004558262000432565b848454620003a4565b825550505050565b5f90565b6200047462000466565b620004818184846200043b565b505050565b5b81811015620004a8576200049c5f826200046a565b60018101905062000487565b5050565b601f821115620004f757620004c18162000377565b620004cc8462000389565b81016020851015620004dc578190505b620004f4620004eb8562000389565b83018262000486565b50505b505050565b5f82821c905092915050565b5f620005195f1984600802620004fc565b1980831691505092915050565b5f62000533838362000508565b9150826002028217905092915050565b6200054e826200030c565b67ffffffffffffffff8111156200056a57620005696200014c565b5b62000576825462000343565b62000583828285620004ac565b5f60209050601f831160018114620005b9575f8415620005a4578287015190505b620005b0858262000526565b8655506200061f565b601f198416620005c98662000377565b5f5b82811015620005f257848901518255600182019150602085019450602081019050620005cb565b868310156200061257848901516200060e601f89168262000508565b8355505b6001600288020188555050505b505050505050565b61030680620006355f395ff3fe608060405234801561000f575f80fd5b506004361061003f575f3560e01c80630ad9d052146100435780638da5cb5b14610061578063cdcf1a181461007f575b5f80fd5b61004b61009d565b60405161005891906101fb565b60405180910390f35b610069610129565b604051610076919061025a565b60405180910390f35b61008761014c565b604051610094919061025a565b60405180910390f35b600180546100aa906102a0565b80601f01602080910402602001604051908101604052809291908181526020018280546100d6906102a0565b80156101215780601f106100f857610100808354040283529160200191610121565b820191905f5260205f20905b81548152906001019060200180831161010457829003601f168201915b505050505081565b5f8054906101000a900473ffffffffffffffffffffffffffffffffffffffff1681565b60025f9054906101000a900473ffffffffffffffffffffffffffffffffffffffff1681565b5f81519050919050565b5f82825260208201905092915050565b5f5b838110156101a857808201518184015260208101905061018d565b5f8484015250505050565b5f601f19601f8301169050919050565b5f6101cd82610171565b6101d7818561017b565b93506101e781856020860161018b565b6101f0816101b3565b840191505092915050565b5f6020820190508181035f83015261021381846101c3565b905092915050565b5f73ffffffffffffffffffffffffffffffffffffffff82169050919050565b5f6102448261021b565b9050919050565b6102548161023a565b82525050565b5f60208201905061026d5f83018461024b565b92915050565b7f4e487b71000000000000000000000000000000000000000000000000000000005f52602260045260245ffd5b5f60028204905060018216806102b757607f821691505b6020821081036102ca576102c9610273565b5b5091905056fea26469706673582212208691e18fdfcab9127b4c03e2bff332771dd1930ff7f5ceba13d2a9817c3373c364736f6c63430008160033a2646970667358221220f0118ab22ba3c73c4d3bec8af7aa0fd1db1b4e3924f48b3aae53c7b7bd0724a864736f6c63430008160033",
					"opcodes": "PUSH1 0x80 PUSH1 0x40 MSTORE CALLVALUE DUP1 ISZERO PUSH2 0xF JUMPI PUSH0 DUP1 REVERT JUMPDEST POP PUSH2 0x15BC DUP1 PUSH2 0x1D PUSH0 CODECOPY PUSH0 RETURN INVALID PUSH1 0x80 PUSH1 0x40 MSTORE PUSH1 0x4 CALLDATASIZE LT PUSH3 0x5B JUMPI PUSH0 CALLDATALOAD PUSH1 0xE0 SHR DUP1 PUSH4 0x3D4B3015 EQ PUSH3 0x5F JUMPI DUP1 PUSH4 0x5E8BE190 EQ PUSH3 0x7F JUMPI DUP1 PUSH4 0xA15AB08D EQ PUSH3 0xC5 JUMPI DUP1 PUSH4 0xACE276EE EQ PUSH3 0xF2 JUMPI DUP1 PUSH4 0xC33CD615 EQ PUSH3 0x11F JUMPI DUP1 PUSH4 0xF7746E36 EQ PUSH3 0x13F JUMPI JUMPDEST PUSH0 DUP1 REVERT JUMPDEST PUSH3 0x7D PUSH1 0x4 DUP1 CALLDATASIZE SUB DUP2 ADD SWAP1 PUSH3 0x77 SWAP2 SWAP1 PUSH3 0x81D JUMP JUMPDEST PUSH3 0x182 JUMP JUMPDEST STOP JUMPDEST CALLVALUE DUP1 ISZERO PUSH3 0x8B JUMPI PUSH0 DUP1 REVERT JUMPDEST POP PUSH3 0xAA PUSH1 0x4 DUP1 CALLDATASIZE SUB DUP2 ADD SWAP1 PUSH3 0xA4 SWAP2 SWAP1 PUSH3 0x8CD JUMP JUMPDEST PUSH3 0x22B JUMP JUMPDEST PUSH1 0x40 MLOAD PUSH3 0xBC SWAP5 SWAP4 SWAP3 SWAP2 SWAP1 PUSH3 0x9A3 JUMP JUMPDEST PUSH1 0x40 MLOAD DUP1 SWAP2 SUB SWAP1 RETURN JUMPDEST CALLVALUE DUP1 ISZERO PUSH3 0xD1 JUMPI PUSH0 DUP1 REVERT JUMPDEST POP PUSH3 0xF0 PUSH1 0x4 DUP1 CALLDATASIZE SUB DUP2 ADD SWAP1 PUSH3 0xEA SWAP2 SWAP1 PUSH3 0x9F5 JUMP JUMPDEST PUSH3 0x3EC JUMP JUMPDEST STOP JUMPDEST CALLVALUE DUP1 ISZERO PUSH3 0xFE JUMPI PUSH0 DUP1 REVERT JUMPDEST POP PUSH3 0x11D PUSH1 0x4 DUP1 CALLDATASIZE SUB DUP2 ADD SWAP1 PUSH3 0x117 SWAP2 SWAP1 PUSH3 0x81D JUMP JUMPDEST PUSH3 0x48B JUMP JUMPDEST STOP JUMPDEST PUSH3 0x13D PUSH1 0x4 DUP1 CALLDATASIZE SUB DUP2 ADD SWAP1 PUSH3 0x137 SWAP2 SWAP1 PUSH3 0x9F5 JUMP JUMPDEST PUSH3 0x530 JUMP JUMPDEST STOP JUMPDEST CALLVALUE DUP1 ISZERO PUSH3 0x14B JUMPI PUSH0 DUP1 REVERT JUMPDEST POP PUSH3 0x16A PUSH1 0x4 DUP1 CALLDATASIZE SUB DUP2 ADD SWAP1 PUSH3 0x164 SWAP2 SWAP1 PUSH3 0x8CD JUMP JUMPDEST PUSH3 0x5D2 JUMP JUMPDEST PUSH1 0x40 MLOAD PUSH3 0x179 SWAP2 SWAP1 PUSH3 0xAC0 JUMP JUMPDEST PUSH1 0x40 MLOAD DUP1 SWAP2 SUB SWAP1 RETURN JUMPDEST PUSH0 CALLVALUE DUP3 SWAP1 DUP6 DUP6 PUSH1 0x40 MLOAD PUSH3 0x196 SWAP1 PUSH3 0x60D JUMP JUMPDEST PUSH3 0x1A3 SWAP3 SWAP2 SWAP1 PUSH3 0xADB JUMP JUMPDEST DUP3 SWAP1 PUSH1 0x40 MLOAD DUP1 SWAP2 SUB SWAP1 DUP4 CREATE2 SWAP1 POP SWAP1 POP DUP1 ISZERO DUP1 ISZERO PUSH3 0x1C3 JUMPI RETURNDATASIZE PUSH0 DUP1 RETURNDATACOPY RETURNDATASIZE PUSH0 REVERT JUMPDEST POP SWAP1 POP PUSH0 DUP2 SWAP1 DUP1 PUSH1 0x1 DUP2 SLOAD ADD DUP1 DUP3 SSTORE DUP1 SWAP2 POP POP PUSH1 0x1 SWAP1 SUB SWAP1 PUSH0 MSTORE PUSH1 0x20 PUSH0 KECCAK256 ADD PUSH0 SWAP1 SWAP2 SWAP1 SWAP2 SWAP1 SWAP2 PUSH2 0x100 EXP DUP2 SLOAD DUP2 PUSH20 0xFFFFFFFFFFFFFFFFFFFFFFFFFFFFFFFFFFFFFFFF MUL NOT AND SWAP1 DUP4 PUSH20 0xFFFFFFFFFFFFFFFFFFFFFFFFFFFFFFFFFFFFFFFF AND MUL OR SWAP1 SSTORE POP POP POP POP POP JUMP JUMPDEST PUSH0 PUSH1 0x60 PUSH0 DUP1 PUSH0 DUP1 DUP7 DUP2 SLOAD DUP2 LT PUSH3 0x247 JUMPI PUSH3 0x246 PUSH3 0xB0D JUMP JUMPDEST JUMPDEST SWAP1 PUSH0 MSTORE PUSH1 0x20 PUSH0 KECCAK256 ADD PUSH0 SWAP1 SLOAD SWAP1 PUSH2 0x100 EXP SWAP1 DIV PUSH20 0xFFFFFFFFFFFFFFFFFFFFFFFFFFFFFFFFFFFFFFFF AND SWAP1 POP DUP1 PUSH20 0xFFFFFFFFFFFFFFFFFFFFFFFFFFFFFFFFFFFFFFFF AND PUSH4 0x8DA5CB5B PUSH1 0x40 MLOAD DUP2 PUSH4 0xFFFFFFFF AND PUSH1 0xE0 SHL DUP2 MSTORE PUSH1 0x4 ADD PUSH1 0x20 PUSH1 0x40 MLOAD DUP1 DUP4 SUB DUP2 DUP7 GAS STATICCALL ISZERO DUP1 ISZERO PUSH3 0x2BB JUMPI RETURNDATASIZE PUSH0 DUP1 RETURNDATACOPY RETURNDATASIZE PUSH0 REVERT JUMPDEST POP POP POP POP PUSH1 0x40 MLOAD RETURNDATASIZE PUSH1 0x1F NOT PUSH1 0x1F DUP3 ADD AND DUP3 ADD DUP1 PUSH1 0x40 MSTORE POP DUP2 ADD SWAP1 PUSH3 0x2E1 SWAP2 SWAP1 PUSH3 0xB50 JUMP JUMPDEST DUP2 PUSH20 0xFFFFFFFFFFFFFFFFFFFFFFFFFFFFFFFFFFFFFFFF AND PUSH4 0xAD9D052 PUSH1 0x40 MLOAD DUP2 PUSH4 0xFFFFFFFF AND PUSH1 0xE0 SHL DUP2 MSTORE PUSH1 0x4 ADD PUSH0 PUSH1 0x40 MLOAD DUP1 DUP4 SUB DUP2 DUP7 GAS STATICCALL ISZERO DUP1 ISZERO PUSH3 0x32A JUMPI RETURNDATASIZE PUSH0 DUP1 RETURNDATACOPY RETURNDATASIZE PUSH0 REVERT JUMPDEST POP POP POP POP PUSH1 0x40 MLOAD RETURNDATASIZE PUSH0 DUP3 RETURNDATACOPY RETURNDATASIZE PUSH1 0x1F NOT PUSH1 0x1F DUP3 ADD AND DUP3 ADD DUP1 PUSH1 0x40 MSTORE POP DUP2 ADD SWAP1 PUSH3 0x354 SWAP2 SWAP1 PUSH3 0xBFC JUMP JUMPDEST DUP3 PUSH20 0xFFFFFFFFFFFFFFFFFFFFFFFFFFFFFFFFFFFFFFFF AND PUSH4 0xCDCF1A18 PUSH1 0x40 MLOAD DUP2 PUSH4 0xFFFFFFFF AND PUSH1 0xE0 SHL DUP2 MSTORE PUSH1 0x4 ADD PUSH1 0x20 PUSH1 0x40 MLOAD DUP1 DUP4 SUB DUP2 DUP7 GAS STATICCALL ISZERO DUP1 ISZERO PUSH3 0x39E JUMPI RETURNDATASIZE PUSH0 DUP1 RETURNDATACOPY RETURNDATASIZE PUSH0 REVERT JUMPDEST POP POP POP POP PUSH1 0x40 MLOAD RETURNDATASIZE PUSH1 0x1F NOT PUSH1 0x1F DUP3 ADD AND DUP3 ADD DUP1 PUSH1 0x40 MSTORE POP DUP2 ADD SWAP1 PUSH3 0x3C4 SWAP2 SWAP1 PUSH3 0xB50 JUMP JUMPDEST DUP4 PUSH20 0xFFFFFFFFFFFFFFFFFFFFFFFFFFFFFFFFFFFFFFFF AND BALANCE SWAP5 POP SWAP5 POP SWAP5 POP SWAP5 POP POP SWAP2 SWAP4 POP SWAP2 SWAP4 JUMP JUMPDEST PUSH0 DUP3 DUP3 PUSH1 0x40 MLOAD PUSH3 0x3FD SWAP1 PUSH3 0x60D JUMP JUMPDEST PUSH3 0x40A SWAP3 SWAP2 SWAP1 PUSH3 0xADB JUMP JUMPDEST PUSH1 0x40 MLOAD DUP1 SWAP2 SUB SWAP1 PUSH0 CREATE DUP1 ISZERO DUP1 ISZERO PUSH3 0x424 JUMPI RETURNDATASIZE PUSH0 DUP1 RETURNDATACOPY RETURNDATASIZE PUSH0 REVERT JUMPDEST POP SWAP1 POP PUSH0 DUP2 SWAP1 DUP1 PUSH1 0x1 DUP2 SLOAD ADD DUP1 DUP3 SSTORE DUP1 SWAP2 POP POP PUSH1 0x1 SWAP1 SUB SWAP1 PUSH0 MSTORE PUSH1 0x20 PUSH0 KECCAK256 ADD PUSH0 SWAP1 SWAP2 SWAP1 SWAP2 SWAP1 SWAP2 PUSH2 0x100 EXP DUP2 SLOAD DUP2 PUSH20 0xFFFFFFFFFFFFFFFFFFFFFFFFFFFFFFFFFFFFFFFF MUL NOT AND SWAP1 DUP4 PUSH20 0xFFFFFFFFFFFFFFFFFFFFFFFFFFFFFFFFFFFFFFFF AND MUL OR SWAP1 SSTORE POP POP POP POP JUMP JUMPDEST PUSH0 DUP2 DUP5 DUP5 PUSH1 0x40 MLOAD PUSH3 0x49D SWAP1 PUSH3 0x60D JUMP JUMPDEST PUSH3 0x4AA SWAP3 SWAP2 SWAP1 PUSH3 0xADB JUMP JUMPDEST DUP2 SWAP1 PUSH1 0x40 MLOAD DUP1 SWAP2 SUB SWAP1 PUSH0 CREATE2 SWAP1 POP DUP1 ISZERO DUP1 ISZERO PUSH3 0x4C8 JUMPI RETURNDATASIZE PUSH0 DUP1 RETURNDATACOPY RETURNDATASIZE PUSH0 REVERT JUMPDEST POP SWAP1 POP PUSH0 DUP2 SWAP1 DUP1 PUSH1 0x1 DUP2 SLOAD ADD DUP1 DUP3 SSTORE DUP1 SWAP2 POP POP PUSH1 0x1 SWAP1 SUB SWAP1 PUSH0 MSTORE PUSH1 0x20 PUSH0 KECCAK256 ADD PUSH0 SWAP1 SWAP2 SWAP1 SWAP2 SWAP1 SWAP2 PUSH2 0x100 EXP DUP2 SLOAD DUP2 PUSH20 0xFFFFFFFFFFFFFFFFFFFFFFFFFFFFFFFFFFFFFFFF MUL NOT AND SWAP1 DUP4 PUSH20 0xFFFFFFFFFFFFFFFFFFFFFFFFFFFFFFFFFFFFFFFF AND MUL OR SWAP1 SSTORE POP POP POP POP POP JUMP JUMPDEST PUSH0 CALLVALUE DUP4 DUP4 PUSH1 0x40 MLOAD PUSH3 0x542 SWAP1 PUSH3 0x60D JUMP JUMPDEST PUSH3 0x54F SWAP3 SWAP2 SWAP1 PUSH3 0xADB JUMP JUMPDEST PUSH1 0x40 MLOAD DUP1 SWAP2 SUB SWAP1 DUP3 CREATE SWAP1 POP DUP1 ISZERO DUP1 ISZERO PUSH3 0x56B JUMPI RETURNDATASIZE PUSH0 DUP1 RETURNDATACOPY RETURNDATASIZE PUSH0 REVERT JUMPDEST POP SWAP1 POP PUSH0 DUP2 SWAP1 DUP1 PUSH1 0x1 DUP2 SLOAD ADD DUP1 DUP3 SSTORE DUP1 SWAP2 POP POP PUSH1 0x1 SWAP1 SUB SWAP1 PUSH0 MSTORE PUSH1 0x20 PUSH0 KECCAK256 ADD PUSH0 SWAP1 SWAP2 SWAP1 SWAP2 SWAP1 SWAP2 PUSH2 0x100 EXP DUP2 SLOAD DUP2 PUSH20 0xFFFFFFFFFFFFFFFFFFFFFFFFFFFFFFFFFFFFFFFF MUL NOT AND SWAP1 DUP4 PUSH20 0xFFFFFFFFFFFFFFFFFFFFFFFFFFFFFFFFFFFFFFFF AND MUL OR SWAP1 SSTORE POP POP POP POP JUMP JUMPDEST PUSH0 DUP2 DUP2 SLOAD DUP2 LT PUSH3 0x5E1 JUMPI PUSH0 DUP1 REVERT JUMPDEST SWAP1 PUSH0 MSTORE PUSH1 0x20 PUSH0 KECCAK256 ADD PUSH0 SWAP2 POP SLOAD SWAP1 PUSH2 0x100 EXP SWAP1 DIV PUSH20 0xFFFFFFFFFFFFFFFFFFFFFFFFFFFFFFFFFFFFFFFF AND DUP2 JUMP JUMPDEST PUSH2 0x93B DUP1 PUSH3 0xC4C DUP4 CODECOPY ADD SWAP1 JUMP JUMPDEST PUSH0 PUSH1 0x40 MLOAD SWAP1 POP SWAP1 JUMP JUMPDEST PUSH0 DUP1 REVERT JUMPDEST PUSH0 DUP1 REVERT JUMPDEST PUSH0 PUSH20 0xFFFFFFFFFFFFFFFFFFFFFFFFFFFFFFFFFFFFFFFF DUP3 AND SWAP1 POP SWAP2 SWAP1 POP JUMP JUMPDEST PUSH0 PUSH3 0x657 DUP3 PUSH3 0x62C JUMP JUMPDEST SWAP1 POP SWAP2 SWAP1 POP JUMP JUMPDEST PUSH3 0x669 DUP2 PUSH3 0x64B JUMP JUMPDEST DUP2 EQ PUSH3 0x674 JUMPI PUSH0 DUP1 REVERT JUMPDEST POP JUMP JUMPDEST PUSH0 DUP2 CALLDATALOAD SWAP1 POP PUSH3 0x687 DUP2 PUSH3 0x65E JUMP JUMPDEST SWAP3 SWAP2 POP POP JUMP JUMPDEST PUSH0 DUP1 REVERT JUMPDEST PUSH0 DUP1 REVERT JUMPDEST PUSH0 PUSH1 0x1F NOT PUSH1 0x1F DUP4 ADD AND SWAP1 POP SWAP2 SWAP1 POP JUMP JUMPDEST PUSH32 0x4E487B7100000000000000000000000000000000000000000000000000000000 PUSH0 MSTORE PUSH1 0x41 PUSH1 0x4 MSTORE PUSH1 0x24 PUSH0 REVERT JUMPDEST PUSH3 0x6DD DUP3 PUSH3 0x695 JUMP JUMPDEST DUP2 ADD DUP2 DUP2 LT PUSH8 0xFFFFFFFFFFFFFFFF DUP3 GT OR ISZERO PUSH3 0x6FF JUMPI PUSH3 0x6FE PUSH3 0x6A5 JUMP JUMPDEST JUMPDEST DUP1 PUSH1 0x40 MSTORE POP POP POP JUMP JUMPDEST PUSH0 PUSH3 0x713 PUSH3 0x61B JUMP JUMPDEST SWAP1 POP PUSH3 0x721 DUP3 DUP3 PUSH3 0x6D2 JUMP JUMPDEST SWAP2 SWAP1 POP JUMP JUMPDEST PUSH0 PUSH8 0xFFFFFFFFFFFFFFFF DUP3 GT ISZERO PUSH3 0x743 JUMPI PUSH3 0x742 PUSH3 0x6A5 JUMP JUMPDEST JUMPDEST PUSH3 0x74E DUP3 PUSH3 0x695 JUMP JUMPDEST SWAP1 POP PUSH1 0x20 DUP2 ADD SWAP1 POP SWAP2 SWAP1 POP JUMP JUMPDEST DUP3 DUP2 DUP4 CALLDATACOPY PUSH0 DUP4 DUP4 ADD MSTORE POP POP POP JUMP JUMPDEST PUSH0 PUSH3 0x77F PUSH3 0x779 DUP5 PUSH3 0x726 JUMP JUMPDEST PUSH3 0x708 JUMP JUMPDEST SWAP1 POP DUP3 DUP2 MSTORE PUSH1 0x20 DUP2 ADD DUP5 DUP5 DUP5 ADD GT ISZERO PUSH3 0x79E JUMPI PUSH3 0x79D PUSH3 0x691 JUMP JUMPDEST JUMPDEST PUSH3 0x7AB DUP5 DUP3 DUP6 PUSH3 0x75B JUMP JUMPDEST POP SWAP4 SWAP3 POP POP POP JUMP JUMPDEST PUSH0 DUP3 PUSH1 0x1F DUP4 ADD SLT PUSH3 0x7CA JUMPI PUSH3 0x7C9 PUSH3 0x68D JUMP JUMPDEST JUMPDEST DUP2 CALLDATALOAD PUSH3 0x7DC DUP5 DUP3 PUSH1 0x20 DUP7 ADD PUSH3 0x769 JUMP JUMPDEST SWAP2 POP POP SWAP3 SWAP2 POP POP JUMP JUMPDEST PUSH0 DUP2 SWAP1 POP SWAP2 SWAP1 POP JUMP JUMPDEST PUSH3 0x7F9 DUP2 PUSH3 0x7E5 JUMP JUMPDEST DUP2 EQ PUSH3 0x804 JUMPI PUSH0 DUP1 REVERT JUMPDEST POP JUMP JUMPDEST PUSH0 DUP2 CALLDATALOAD SWAP1 POP PUSH3 0x817 DUP2 PUSH3 0x7EE JUMP JUMPDEST SWAP3 SWAP2 POP POP JUMP JUMPDEST PUSH0 DUP1 PUSH0 PUSH1 0x60 DUP5 DUP7 SUB SLT ISZERO PUSH3 0x837 JUMPI PUSH3 0x836 PUSH3 0x624 JUMP JUMPDEST JUMPDEST PUSH0 PUSH3 0x846 DUP7 DUP3 DUP8 ADD PUSH3 0x677 JUMP JUMPDEST SWAP4 POP POP PUSH1 0x20 DUP5 ADD CALLDATALOAD PUSH8 0xFFFFFFFFFFFFFFFF DUP2 GT ISZERO PUSH3 0x86A JUMPI PUSH3 0x869 PUSH3 0x628 JUMP JUMPDEST JUMPDEST PUSH3 0x878 DUP7 DUP3 DUP8 ADD PUSH3 0x7B3 JUMP JUMPDEST SWAP3 POP POP PUSH1 0x40 PUSH3 0x88B DUP7 DUP3 DUP8 ADD PUSH3 0x807 JUMP JUMPDEST SWAP2 POP POP SWAP3 POP SWAP3 POP SWAP3 JUMP JUMPDEST PUSH0 DUP2 SWAP1 POP SWAP2 SWAP1 POP JUMP JUMPDEST PUSH3 0x8A9 DUP2 PUSH3 0x895 JUMP JUMPDEST DUP2 EQ PUSH3 0x8B4 JUMPI PUSH0 DUP1 REVERT JUMPDEST POP JUMP JUMPDEST PUSH0 DUP2 CALLDATALOAD SWAP1 POP PUSH3 0x8C7 DUP2 PUSH3 0x89E JUMP JUMPDEST SWAP3 SWAP2 POP POP JUMP JUMPDEST PUSH0 PUSH1 0x20 DUP3 DUP5 SUB SLT ISZERO PUSH3 0x8E5 JUMPI PUSH3 0x8E4 PUSH3 0x624 JUMP JUMPDEST JUMPDEST PUSH0 PUSH3 0x8F4 DUP5 DUP3 DUP6 ADD PUSH3 0x8B7 JUMP JUMPDEST SWAP2 POP POP SWAP3 SWAP2 POP POP JUMP JUMPDEST PUSH3 0x908 DUP2 PUSH3 0x64B JUMP JUMPDEST DUP3 MSTORE POP POP JUMP JUMPDEST PUSH0 DUP2 MLOAD SWAP1 POP SWAP2 SWAP1 POP JUMP JUMPDEST PUSH0 DUP3 DUP3 MSTORE PUSH1 0x20 DUP3 ADD SWAP1 POP SWAP3 SWAP2 POP POP JUMP JUMPDEST PUSH0 JUMPDEST DUP4 DUP2 LT ISZERO PUSH3 0x947 JUMPI DUP1 DUP3 ADD MLOAD DUP2 DUP5 ADD MSTORE PUSH1 0x20 DUP2 ADD SWAP1 POP PUSH3 0x92A JUMP JUMPDEST PUSH0 DUP5 DUP5 ADD MSTORE POP POP POP POP JUMP JUMPDEST PUSH0 PUSH3 0x95E DUP3 PUSH3 0x90E JUMP JUMPDEST PUSH3 0x96A DUP2 DUP6 PUSH3 0x918 JUMP JUMPDEST SWAP4 POP PUSH3 0x97C DUP2 DUP6 PUSH1 0x20 DUP7 ADD PUSH3 0x928 JUMP JUMPDEST PUSH3 0x987 DUP2 PUSH3 0x695 JUMP JUMPDEST DUP5 ADD SWAP2 POP POP SWAP3 SWAP2 POP POP JUMP JUMPDEST PUSH3 0x99D DUP2 PUSH3 0x895 JUMP JUMPDEST DUP3 MSTORE POP POP JUMP JUMPDEST PUSH0 PUSH1 0x80 DUP3 ADD SWAP1 POP PUSH3 0x9B8 PUSH0 DUP4 ADD DUP8 PUSH3 0x8FD JUMP JUMPDEST DUP2 DUP2 SUB PUSH1 0x20 DUP4 ADD MSTORE PUSH3 0x9CC DUP2 DUP7 PUSH3 0x952 JUMP JUMPDEST SWAP1 POP PUSH3 0x9DD PUSH1 0x40 DUP4 ADD DUP6 PUSH3 0x8FD JUMP JUMPDEST PUSH3 0x9EC PUSH1 0x60 DUP4 ADD DUP5 PUSH3 0x992 JUMP JUMPDEST SWAP6 SWAP5 POP POP POP POP POP JUMP JUMPDEST PUSH0 DUP1 PUSH1 0x40 DUP4 DUP6 SUB SLT ISZERO PUSH3 0xA0E JUMPI PUSH3 0xA0D PUSH3 0x624 JUMP JUMPDEST JUMPDEST PUSH0 PUSH3 0xA1D DUP6 DUP3 DUP7 ADD PUSH3 0x677 JUMP JUMPDEST SWAP3 POP POP PUSH1 0x20 DUP4 ADD CALLDATALOAD PUSH8 0xFFFFFFFFFFFFFFFF DUP2 GT ISZERO PUSH3 0xA41 JUMPI PUSH3 0xA40 PUSH3 0x628 JUMP JUMPDEST JUMPDEST PUSH3 0xA4F DUP6 DUP3 DUP7 ADD PUSH3 0x7B3 JUMP JUMPDEST SWAP2 POP POP SWAP3 POP SWAP3 SWAP1 POP JUMP JUMPDEST PUSH0 DUP2 SWAP1 POP SWAP2 SWAP1 POP JUMP JUMPDEST PUSH0 PUSH3 0xA82 PUSH3 0xA7C PUSH3 0xA76 DUP5 PUSH3 0x62C JUMP JUMPDEST PUSH3 0xA59 JUMP JUMPDEST PUSH3 0x62C JUMP JUMPDEST SWAP1 POP SWAP2 SWAP1 POP JUMP JUMPDEST PUSH0 PUSH3 0xA95 DUP3 PUSH3 0xA62 JUMP JUMPDEST SWAP1 POP SWAP2 SWAP1 POP JUMP JUMPDEST PUSH0 PUSH3 0xAA8 DUP3 PUSH3 0xA89 JUMP JUMPDEST SWAP1 POP SWAP2 SWAP1 POP JUMP JUMPDEST PUSH3 0xABA DUP2 PUSH3 0xA9C JUMP JUMPDEST DUP3 MSTORE POP POP JUMP JUMPDEST PUSH0 PUSH1 0x20 DUP3 ADD SWAP1 POP PUSH3 0xAD5 PUSH0 DUP4 ADD DUP5 PUSH3 0xAAF JUMP JUMPDEST SWAP3 SWAP2 POP POP JUMP JUMPDEST PUSH0 PUSH1 0x40 DUP3 ADD SWAP1 POP PUSH3 0xAF0 PUSH0 DUP4 ADD DUP6 PUSH3 0x8FD JUMP JUMPDEST DUP2 DUP2 SUB PUSH1 0x20 DUP4 ADD MSTORE PUSH3 0xB04 DUP2 DUP5 PUSH3 0x952 JUMP JUMPDEST SWAP1 POP SWAP4 SWAP3 POP POP POP JUMP JUMPDEST PUSH32 0x4E487B7100000000000000000000000000000000000000000000000000000000 PUSH0 MSTORE PUSH1 0x32 PUSH1 0x4 MSTORE PUSH1 0x24 PUSH0 REVERT JUMPDEST PUSH0 DUP2 MLOAD SWAP1 POP PUSH3 0xB4A DUP2 PUSH3 0x65E JUMP JUMPDEST SWAP3 SWAP2 POP POP JUMP JUMPDEST PUSH0 PUSH1 0x20 DUP3 DUP5 SUB SLT ISZERO PUSH3 0xB68 JUMPI PUSH3 0xB67 PUSH3 0x624 JUMP JUMPDEST JUMPDEST PUSH0 PUSH3 0xB77 DUP5 DUP3 DUP6 ADD PUSH3 0xB3A JUMP JUMPDEST SWAP2 POP POP SWAP3 SWAP2 POP POP JUMP JUMPDEST PUSH0 PUSH3 0xB96 PUSH3 0xB90 DUP5 PUSH3 0x726 JUMP JUMPDEST PUSH3 0x708 JUMP JUMPDEST SWAP1 POP DUP3 DUP2 MSTORE PUSH1 0x20 DUP2 ADD DUP5 DUP5 DUP5 ADD GT ISZERO PUSH3 0xBB5 JUMPI PUSH3 0xBB4 PUSH3 0x691 JUMP JUMPDEST JUMPDEST PUSH3 0xBC2 DUP5 DUP3 DUP6 PUSH3 0x928 JUMP JUMPDEST POP SWAP4 SWAP3 POP POP POP JUMP JUMPDEST PUSH0 DUP3 PUSH1 0x1F DUP4 ADD SLT PUSH3 0xBE1 JUMPI PUSH3 0xBE0 PUSH3 0x68D JUMP JUMPDEST JUMPDEST DUP2 MLOAD PUSH3 0xBF3 DUP5 DUP3 PUSH1 0x20 DUP7 ADD PUSH3 0xB80 JUMP JUMPDEST SWAP2 POP POP SWAP3 SWAP2 POP POP JUMP JUMPDEST PUSH0 PUSH1 0x20 DUP3 DUP5 SUB SLT ISZERO PUSH3 0xC14 JUMPI PUSH3 0xC13 PUSH3 0x624 JUMP JUMPDEST JUMPDEST PUSH0 DUP3 ADD MLOAD PUSH8 0xFFFFFFFFFFFFFFFF DUP2 GT ISZERO PUSH3 0xC34 JUMPI PUSH3 0xC33 PUSH3 0x628 JUMP JUMPDEST JUMPDEST PUSH3 0xC42 DUP5 DUP3 DUP6 ADD PUSH3 0xBCA JUMP JUMPDEST SWAP2 POP POP SWAP3 SWAP2 POP POP JUMP INVALID PUSH1 0x80 PUSH1 0x40 MSTORE PUSH1 0x40 MLOAD PUSH3 0x93B CODESIZE SUB DUP1 PUSH3 0x93B DUP4 CODECOPY DUP2 DUP2 ADD PUSH1 0x40 MSTORE DUP2 ADD SWAP1 PUSH3 0x29 SWAP2 SWAP1 PUSH3 0x2A8 JUMP JUMPDEST DUP2 PUSH0 DUP1 PUSH2 0x100 EXP DUP2 SLOAD DUP2 PUSH20 0xFFFFFFFFFFFFFFFFFFFFFFFFFFFFFFFFFFFFFFFF MUL NOT AND SWAP1 DUP4 PUSH20 0xFFFFFFFFFFFFFFFFFFFFFFFFFFFFFFFFFFFFFFFF AND MUL OR SWAP1 SSTORE POP DUP1 PUSH1 0x1 SWAP1 DUP2 PUSH3 0x79 SWAP2 SWAP1 PUSH3 0x543 JUMP JUMPDEST POP ADDRESS PUSH1 0x2 PUSH0 PUSH2 0x100 EXP DUP2 SLOAD DUP2 PUSH20 0xFFFFFFFFFFFFFFFFFFFFFFFFFFFFFFFFFFFFFFFF MUL NOT AND SWAP1 DUP4 PUSH20 0xFFFFFFFFFFFFFFFFFFFFFFFFFFFFFFFFFFFFFFFF AND MUL OR SWAP1 SSTORE POP POP POP PUSH3 0x627 JUMP JUMPDEST PUSH0 PUSH1 0x40 MLOAD SWAP1 POP SWAP1 JUMP JUMPDEST PUSH0 DUP1 REVERT JUMPDEST PUSH0 DUP1 REVERT JUMPDEST PUSH0 PUSH20 0xFFFFFFFFFFFFFFFFFFFFFFFFFFFFFFFFFFFFFFFF DUP3 AND SWAP1 POP SWAP2 SWAP1 POP JUMP JUMPDEST PUSH0 PUSH3 0xFE DUP3 PUSH3 0xD3 JUMP JUMPDEST SWAP1 POP SWAP2 SWAP1 POP JUMP JUMPDEST PUSH3 0x110 DUP2 PUSH3 0xF2 JUMP JUMPDEST DUP2 EQ PUSH3 0x11B JUMPI PUSH0 DUP1 REVERT JUMPDEST POP JUMP JUMPDEST PUSH0 DUP2 MLOAD SWAP1 POP PUSH3 0x12E DUP2 PUSH3 0x105 JUMP JUMPDEST SWAP3 SWAP2 POP POP JUMP JUMPDEST PUSH0 DUP1 REVERT JUMPDEST PUSH0 DUP1 REVERT JUMPDEST PUSH0 PUSH1 0x1F NOT PUSH1 0x1F DUP4 ADD AND SWAP1 POP SWAP2 SWAP1 POP JUMP JUMPDEST PUSH32 0x4E487B7100000000000000000000000000000000000000000000000000000000 PUSH0 MSTORE PUSH1 0x41 PUSH1 0x4 MSTORE PUSH1 0x24 PUSH0 REVERT JUMPDEST PUSH3 0x184 DUP3 PUSH3 0x13C JUMP JUMPDEST DUP2 ADD DUP2 DUP2 LT PUSH8 0xFFFFFFFFFFFFFFFF DUP3 GT OR ISZERO PUSH3 0x1A6 JUMPI PUSH3 0x1A5 PUSH3 0x14C JUMP JUMPDEST JUMPDEST DUP1 PUSH1 0x40 MSTORE POP POP POP JUMP JUMPDEST PUSH0 PUSH3 0x1BA PUSH3 0xC2 JUMP JUMPDEST SWAP1 POP PUSH3 0x1C8 DUP3 DUP3 PUSH3 0x179 JUMP JUMPDEST SWAP2 SWAP1 POP JUMP JUMPDEST PUSH0 PUSH8 0xFFFFFFFFFFFFFFFF DUP3 GT ISZERO PUSH3 0x1EA JUMPI PUSH3 0x1E9 PUSH3 0x14C JUMP JUMPDEST JUMPDEST PUSH3 0x1F5 DUP3 PUSH3 0x13C JUMP JUMPDEST SWAP1 POP PUSH1 0x20 DUP2 ADD SWAP1 POP SWAP2 SWAP1 POP JUMP JUMPDEST PUSH0 JUMPDEST DUP4 DUP2 LT ISZERO PUSH3 0x221 JUMPI DUP1 DUP3 ADD MLOAD DUP2 DUP5 ADD MSTORE PUSH1 0x20 DUP2 ADD SWAP1 POP PUSH3 0x204 JUMP JUMPDEST PUSH0 DUP5 DUP5 ADD MSTORE POP POP POP POP JUMP JUMPDEST PUSH0 PUSH3 0x242 PUSH3 0x23C DUP5 PUSH3 0x1CD JUMP JUMPDEST PUSH3 0x1AF JUMP JUMPDEST SWAP1 POP DUP3 DUP2 MSTORE PUSH1 0x20 DUP2 ADD DUP5 DUP5 DUP5 ADD GT ISZERO PUSH3 0x261 JUMPI PUSH3 0x260 PUSH3 0x138 JUMP JUMPDEST JUMPDEST PUSH3 0x26E DUP5 DUP3 DUP6 PUSH3 0x202 JUMP JUMPDEST POP SWAP4 SWAP3 POP POP POP JUMP JUMPDEST PUSH0 DUP3 PUSH1 0x1F DUP4 ADD SLT PUSH3 0x28D JUMPI PUSH3 0x28C PUSH3 0x134 JUMP JUMPDEST JUMPDEST DUP2 MLOAD PUSH3 0x29F DUP5 DUP3 PUSH1 0x20 DUP7 ADD PUSH3 0x22C JUMP JUMPDEST SWAP2 POP POP SWAP3 SWAP2 POP POP JUMP JUMPDEST PUSH0 DUP1 PUSH1 0x40 DUP4 DUP6 SUB SLT ISZERO PUSH3 0x2C1 JUMPI PUSH3 0x2C0 PUSH3 0xCB JUMP JUMPDEST JUMPDEST PUSH0 PUSH3 0x2D0 DUP6 DUP3 DUP7 ADD PUSH3 0x11E JUMP JUMPDEST SWAP3 POP POP PUSH1 0x20 DUP4 ADD MLOAD PUSH8 0xFFFFFFFFFFFFFFFF DUP2 GT ISZERO PUSH3 0x2F4 JUMPI PUSH3 0x2F3 PUSH3 0xCF JUMP JUMPDEST JUMPDEST PUSH3 0x302 DUP6 DUP3 DUP7 ADD PUSH3 0x276 JUMP JUMPDEST SWAP2 POP POP SWAP3 POP SWAP3 SWAP1 POP JUMP JUMPDEST PUSH0 DUP2 MLOAD SWAP1 POP SWAP2 SWAP1 POP JUMP JUMPDEST PUSH32 0x4E487B7100000000000000000000000000000000000000000000000000000000 PUSH0 MSTORE PUSH1 0x22 PUSH1 0x4 MSTORE PUSH1 0x24 PUSH0 REVERT JUMPDEST PUSH0 PUSH1 0x2 DUP3 DIV SWAP1 POP PUSH1 0x1 DUP3 AND DUP1 PUSH3 0x35B JUMPI PUSH1 0x7F DUP3 AND SWAP2 POP JUMPDEST PUSH1 0x20 DUP3 LT DUP2 SUB PUSH3 0x371 JUMPI PUSH3 0x370 PUSH3 0x316 JUMP JUMPDEST JUMPDEST POP SWAP2 SWAP1 POP JUMP JUMPDEST PUSH0 DUP2 SWAP1 POP DUP2 PUSH0 MSTORE PUSH1 0x20 PUSH0 KECCAK256 SWAP1 POP SWAP2 SWAP1 POP JUMP JUMPDEST PUSH0 PUSH1 0x20 PUSH1 0x1F DUP4 ADD DIV SWAP1 POP SWAP2 SWAP1 POP JUMP JUMPDEST PUSH0 DUP3 DUP3 SHL SWAP1 POP SWAP3 SWAP2 POP POP JUMP JUMPDEST PUSH0 PUSH1 0x8 DUP4 MUL PUSH3 0x3D5 PUSH32 0xFFFFFFFFFFFFFFFFFFFFFFFFFFFFFFFFFFFFFFFFFFFFFFFFFFFFFFFFFFFFFFFF DUP3 PUSH3 0x398 JUMP JUMPDEST PUSH3 0x3E1 DUP7 DUP4 PUSH3 0x398 JUMP JUMPDEST SWAP6 POP DUP1 NOT DUP5 AND SWAP4 POP DUP1 DUP7 AND DUP5 OR SWAP3 POP POP POP SWAP4 SWAP3 POP POP POP JUMP JUMPDEST PUSH0 DUP2 SWAP1 POP SWAP2 SWAP1 POP JUMP JUMPDEST PUSH0 DUP2 SWAP1 POP SWAP2 SWAP1 POP JUMP JUMPDEST PUSH0 PUSH3 0x42B PUSH3 0x425 PUSH3 0x41F DUP5 PUSH3 0x3F9 JUMP JUMPDEST PUSH3 0x402 JUMP JUMPDEST PUSH3 0x3F9 JUMP JUMPDEST SWAP1 POP SWAP2 SWAP1 POP JUMP JUMPDEST PUSH0 DUP2 SWAP1 POP SWAP2 SWAP1 POP JUMP JUMPDEST PUSH3 0x446 DUP4 PUSH3 0x40B JUMP JUMPDEST PUSH3 0x45E PUSH3 0x455 DUP3 PUSH3 0x432 JUMP JUMPDEST DUP5 DUP5 SLOAD PUSH3 0x3A4 JUMP JUMPDEST DUP3 SSTORE POP POP POP POP JUMP JUMPDEST PUSH0 SWAP1 JUMP JUMPDEST PUSH3 0x474 PUSH3 0x466 JUMP JUMPDEST PUSH3 0x481 DUP2 DUP5 DUP5 PUSH3 0x43B JUMP JUMPDEST POP POP POP JUMP JUMPDEST JUMPDEST DUP2 DUP2 LT ISZERO PUSH3 0x4A8 JUMPI PUSH3 0x49C PUSH0 DUP3 PUSH3 0x46A JUMP JUMPDEST PUSH1 0x1 DUP2 ADD SWAP1 POP PUSH3 0x487 JUMP JUMPDEST POP POP JUMP JUMPDEST PUSH1 0x1F DUP3 GT ISZERO PUSH3 0x4F7 JUMPI PUSH3 0x4C1 DUP2 PUSH3 0x377 JUMP JUMPDEST PUSH3 0x4CC DUP5 PUSH3 0x389 JUMP JUMPDEST DUP2 ADD PUSH1 0x20 DUP6 LT ISZERO PUSH3 0x4DC JUMPI DUP2 SWAP1 POP JUMPDEST PUSH3 0x4F4 PUSH3 0x4EB DUP6 PUSH3 0x389 JUMP JUMPDEST DUP4 ADD DUP3 PUSH3 0x486 JUMP JUMPDEST POP POP JUMPDEST POP POP POP JUMP JUMPDEST PUSH0 DUP3 DUP3 SHR SWAP1 POP SWAP3 SWAP2 POP POP JUMP JUMPDEST PUSH0 PUSH3 0x519 PUSH0 NOT DUP5 PUSH1 0x8 MUL PUSH3 0x4FC JUMP JUMPDEST NOT DUP1 DUP4 AND SWAP2 POP POP SWAP3 SWAP2 POP POP JUMP JUMPDEST PUSH0 PUSH3 0x533 DUP4 DUP4 PUSH3 0x508 JUMP JUMPDEST SWAP2 POP DUP3 PUSH1 0x2 MUL DUP3 OR SWAP1 POP SWAP3 SWAP2 POP POP JUMP JUMPDEST PUSH3 0x54E DUP3 PUSH3 0x30C JUMP JUMPDEST PUSH8 0xFFFFFFFFFFFFFFFF DUP2 GT ISZERO PUSH3 0x56A JUMPI PUSH3 0x569 PUSH3 0x14C JUMP JUMPDEST JUMPDEST PUSH3 0x576 DUP3 SLOAD PUSH3 0x343 JUMP JUMPDEST PUSH3 0x583 DUP3 DUP3 DUP6 PUSH3 0x4AC JUMP JUMPDEST PUSH0 PUSH1 0x20 SWAP1 POP PUSH1 0x1F DUP4 GT PUSH1 0x1 DUP2 EQ PUSH3 0x5B9 JUMPI PUSH0 DUP5 ISZERO PUSH3 0x5A4 JUMPI DUP3 DUP8 ADD MLOAD SWAP1 POP JUMPDEST PUSH3 0x5B0 DUP6 DUP3 PUSH3 0x526 JUMP JUMPDEST DUP7 SSTORE POP PUSH3 0x61F JUMP JUMPDEST PUSH1 0x1F NOT DUP5 AND PUSH3 0x5C9 DUP7 PUSH3 0x377 JUMP JUMPDEST PUSH0 JUMPDEST DUP3 DUP2 LT ISZERO PUSH3 0x5F2 JUMPI DUP5 DUP10 ADD MLOAD DUP3 SSTORE PUSH1 0x1 DUP3 ADD SWAP2 POP PUSH1 0x20 DUP6 ADD SWAP5 POP PUSH1 0x20 DUP2 ADD SWAP1 POP PUSH3 0x5CB JUMP JUMPDEST DUP7 DUP4 LT ISZERO PUSH3 0x612 JUMPI DUP5 DUP10 ADD MLOAD PUSH3 0x60E PUSH1 0x1F DUP10 AND DUP3 PUSH3 0x508 JUMP JUMPDEST DUP4 SSTORE POP JUMPDEST PUSH1 0x1 PUSH1 0x2 DUP9 MUL ADD DUP9 SSTORE POP POP POP JUMPDEST POP POP POP POP POP POP JUMP JUMPDEST PUSH2 0x306 DUP1 PUSH3 0x635 PUSH0 CODECOPY PUSH0 RETURN INVALID PUSH1 0x80 PUSH1 0x40 MSTORE CALLVALUE DUP1 ISZERO PUSH2 0xF JUMPI PUSH0 DUP1 REVERT JUMPDEST POP PUSH1 0x4 CALLDATASIZE LT PUSH2 0x3F JUMPI PUSH0 CALLDATALOAD PUSH1 0xE0 SHR DUP1 PUSH4 0xAD9D052 EQ PUSH2 0x43 JUMPI DUP1 PUSH4 0x8DA5CB5B EQ PUSH2 0x61 JUMPI DUP1 PUSH4 0xCDCF1A18 EQ PUSH2 0x7F JUMPI JUMPDEST PUSH0 DUP1 REVERT JUMPDEST PUSH2 0x4B PUSH2 0x9D JUMP JUMPDEST PUSH1 0x40 MLOAD PUSH2 0x58 SWAP2 SWAP1 PUSH2 0x1FB JUMP JUMPDEST PUSH1 0x40 MLOAD DUP1 SWAP2 SUB SWAP1 RETURN JUMPDEST PUSH2 0x69 PUSH2 0x129 JUMP JUMPDEST PUSH1 0x40 MLOAD PUSH2 0x76 SWAP2 SWAP1 PUSH2 0x25A JUMP JUMPDEST PUSH1 0x40 MLOAD DUP1 SWAP2 SUB SWAP1 RETURN JUMPDEST PUSH2 0x87 PUSH2 0x14C JUMP JUMPDEST PUSH1 0x40 MLOAD PUSH2 0x94 SWAP2 SWAP1 PUSH2 0x25A JUMP JUMPDEST PUSH1 0x40 MLOAD DUP1 SWAP2 SUB SWAP1 RETURN JUMPDEST PUSH1 0x1 DUP1 SLOAD PUSH2 0xAA SWAP1 PUSH2 0x2A0 JUMP JUMPDEST DUP1 PUSH1 0x1F ADD PUSH1 0x20 DUP1 SWAP2 DIV MUL PUSH1 0x20 ADD PUSH1 0x40 MLOAD SWAP1 DUP2 ADD PUSH1 0x40 MSTORE DUP1 SWAP3 SWAP2 SWAP1 DUP2 DUP2 MSTORE PUSH1 0x20 ADD DUP3 DUP1 SLOAD PUSH2 0xD6 SWAP1 PUSH2 0x2A0 JUMP JUMPDEST DUP1 ISZERO PUSH2 0x121 JUMPI DUP1 PUSH1 0x1F LT PUSH2 0xF8 JUMPI PUSH2 0x100 DUP1 DUP4 SLOAD DIV MUL DUP4 MSTORE SWAP2 PUSH1 0x20 ADD SWAP2 PUSH2 0x121 JUMP JUMPDEST DUP3 ADD SWAP2 SWAP1 PUSH0 MSTORE PUSH1 0x20 PUSH0 KECCAK256 SWAP1 JUMPDEST DUP2 SLOAD DUP2 MSTORE SWAP1 PUSH1 0x1 ADD SWAP1 PUSH1 0x20 ADD DUP1 DUP4 GT PUSH2 0x104 JUMPI DUP3 SWAP1 SUB PUSH1 0x1F AND DUP3 ADD SWAP2 JUMPDEST POP POP POP POP POP DUP2 JUMP JUMPDEST PUSH0 DUP1 SLOAD SWAP1 PUSH2 0x100 EXP SWAP1 DIV PUSH20 0xFFFFFFFFFFFFFFFFFFFFFFFFFFFFFFFFFFFFFFFF AND DUP2 JUMP JUMPDEST PUSH1 0x2 PUSH0 SWAP1 SLOAD SWAP1 PUSH2 0x100 EXP SWAP1 DIV PUSH20 0xFFFFFFFFFFFFFFFFFFFFFFFFFFFFFFFFFFFFFFFF AND DUP2 JUMP JUMPDEST PUSH0 DUP2 MLOAD SWAP1 POP SWAP2 SWAP1 POP JUMP JUMPDEST PUSH0 DUP3 DUP3 MSTORE PUSH1 0x20 DUP3 ADD SWAP1 POP SWAP3 SWAP2 POP POP JUMP JUMPDEST PUSH0 JUMPDEST DUP4 DUP2 LT ISZERO PUSH2 0x1A8 JUMPI DUP1 DUP3 ADD MLOAD DUP2 DUP5 ADD MSTORE PUSH1 0x20 DUP2 ADD SWAP1 POP PUSH2 0x18D JUMP JUMPDEST PUSH0 DUP5 DUP5 ADD MSTORE POP POP POP POP JUMP JUMPDEST PUSH0 PUSH1 0x1F NOT PUSH1 0x1F DUP4 ADD AND SWAP1 POP SWAP2 SWAP1 POP JUMP JUMPDEST PUSH0 PUSH2 0x1CD DUP3 PUSH2 0x171 JUMP JUMPDEST PUSH2 0x1D7 DUP2 DUP6 PUSH2 0x17B JUMP JUMPDEST SWAP4 POP PUSH2 0x1E7 DUP2 DUP6 PUSH1 0x20 DUP7 ADD PUSH2 0x18B JUMP JUMPDEST PUSH2 0x1F0 DUP2 PUSH2 0x1B3 JUMP JUMPDEST DUP5 ADD SWAP2 POP POP SWAP3 SWAP2 POP POP JUMP JUMPDEST PUSH0 PUSH1 0x20 DUP3 ADD SWAP1 POP DUP2 DUP2 SUB PUSH0 DUP4 ADD MSTORE PUSH2 0x213 DUP2 DUP5 PUSH2 0x1C3 JUMP JUMPDEST SWAP1 POP SWAP3 SWAP2 POP POP JUMP JUMPDEST PUSH0 PUSH20 0xFFFFFFFFFFFFFFFFFFFFFFFFFFFFFFFFFFFFFFFF DUP3 AND SWAP1 POP SWAP2 SWAP1 POP JUMP JUMPDEST PUSH0 PUSH2 0x244 DUP3 PUSH2 0x21B JUMP JUMPDEST SWAP1 POP SWAP2 SWAP1 POP JUMP JUMPDEST PUSH2 0x254 DUP2 PUSH2 0x23A JUMP JUMPDEST DUP3 MSTORE POP POP JUMP JUMPDEST PUSH0 PUSH1 0x20 DUP3 ADD SWAP1 POP PUSH2 0x26D PUSH0 DUP4 ADD DUP5 PUSH2 0x24B JUMP JUMPDEST SWAP3 SWAP2 POP POP JUMP JUMPDEST PUSH32 0x4E487B7100000000000000000000000000000000000000000000000000000000 PUSH0 MSTORE PUSH1 0x22 PUSH1 0x4 MSTORE PUSH1 0x24 PUSH0 REVERT JUMPDEST PUSH0 PUSH1 0x2 DUP3 DIV SWAP1 POP PUSH1 0x1 DUP3 AND DUP1 PUSH2 0x2B7 JUMPI PUSH1 0x7F DUP3 AND SWAP2 POP JUMPDEST PUSH1 0x20 DUP3 LT DUP2 SUB PUSH2 0x2CA JUMPI PUSH2 0x2C9 PUSH2 0x273 JUMP JUMPDEST JUMPDEST POP SWAP2 SWAP1 POP JUMP INVALID LOG2 PUSH5 0x6970667358 0x22 SLT KECCAK256 DUP7 SWAP2 0xE1 DUP16 0xDF 0xCA 0xB9 SLT PUSH28 0x4C03E2BFF332771DD1930FF7F5CEBA13D2A9817C3373C364736F6C63 NUMBER STOP ADDMOD AND STOP CALLER LOG2 PUSH5 0x6970667358 0x22 SLT KECCAK256 CREATE GT DUP11 0xB2 0x2B LOG3 0xC7 EXTCODECOPY 0x4D EXTCODESIZE 0xEC DUP11 0xF7 0xAA 0xF 0xD1 0xDB SHL 0x4E CODECOPY 0x24 DELEGATECALL DUP12 GASPRICE 0xAE MSTORE8 0xC7 0xB7 0xBD SMOD 0x24 0xA8 PUSH5 0x736F6C6343 STOP ADDMOD AND STOP CALLER "
				},
				"gasEstimates": {
					"creation": {
						"codeDepositCost": "1112800",
						"executionCost": "1152",
						"totalCost": "1113952"
					},
					"external": {
						"cars(uint256)": "infinite",
						"create(address,string)": "infinite",
						"create2(address,string,bytes32)": "infinite",
						"create2AndSendEther(address,string,bytes32)": "infinite",
						"createAndSendEther(address,string)": "infinite",
						"getCar(uint256)": "infinite"
					}
				},
				"methodIdentifiers": {
					"cars(uint256)": "f7746e36",
					"create(address,string)": "a15ab08d",
					"create2(address,string,bytes32)": "ace276ee",
					"create2AndSendEther(address,string,bytes32)": "3d4b3015",
					"createAndSendEther(address,string)": "c33cd615",
					"getCar(uint256)": "5e8be190"
				}
			},
			"storageLayout": {
				"storage": [
					{
						"astId": 35,
						"contract": "43-creatingAContractFromContract.sol:CarFactory",
						"label": "cars",
						"offset": 0,
						"slot": "0",
						"type": "t_array(t_contract(Car)31)dyn_storage"
					}
				],
				"types": {
					"t_array(t_contract(Car)31)dyn_storage": {
						"base": "t_contract(Car)31",
						"encoding": "dynamic_array",
						"label": "contract Car[]",
						"numberOfBytes": "32"
					},
					"t_contract(Car)31": {
						"encoding": "inplace",
						"label": "contract Car",
						"numberOfBytes": "20"
					}
				}
			},
			"userdoc": {
				"kind": "user",
				"methods": {},
				"version": 1
			}
		}
	}
}