{
	"16-required.sol": {
		"Require": {
			"abi": [
				{
					"inputs": [
						{
							"internalType": "uint256",
							"name": "_number",
							"type": "uint256"
						}
					],
					"name": "Odd",
					"outputs": [
						{
							"internalType": "bool",
							"name": "",
							"type": "bool"
						}
					],
					"stateMutability": "pure",
					"type": "function"
				},
				{
					"inputs": [
						{
							"internalType": "uint256",
							"name": "_input",
							"type": "uint256"
						}
					],
					"name": "checkInput",
					"outputs": [
						{
							"internalType": "string",
							"name": "",
							"type": "string"
						}
					],
					"stateMutability": "pure",
					"type": "function"
				}
			],
			"devdoc": {
				"kind": "dev",
				"methods": {},
				"version": 1
			},
			"evm": {
				"assembly": "    /* \"16-required.sol\":174:536  contract Require {... */\n  mstore(0x40, 0x80)\n  callvalue\n  dup1\n  iszero\n  tag_1\n  jumpi\n  0x00\n  dup1\n  revert\ntag_1:\n  pop\n  dataSize(sub_0)\n  dup1\n  dataOffset(sub_0)\n  0x00\n  codecopy\n  0x00\n  return\nstop\n\nsub_0: assembly {\n        /* \"16-required.sol\":174:536  contract Require {... */\n      mstore(0x40, 0x80)\n      callvalue\n      dup1\n      iszero\n      tag_1\n      jumpi\n      0x00\n      dup1\n      revert\n    tag_1:\n      pop\n      jumpi(tag_2, lt(calldatasize, 0x04))\n      shr(0xe0, calldataload(0x00))\n      dup1\n      0x021b8a7f\n      eq\n      tag_3\n      jumpi\n      dup1\n      0x922e883a\n      eq\n      tag_4\n      jumpi\n    tag_2:\n      0x00\n      dup1\n      revert\n        /* \"16-required.sol\":197:405  function checkInput(uint256 _input) public pure returns(string memory) {... */\n    tag_3:\n      tag_5\n      0x04\n      dup1\n      calldatasize\n      sub\n      dup2\n      add\n      swap1\n      tag_6\n      swap2\n      swap1\n      tag_7\n      jump\t// in\n    tag_6:\n      tag_8\n      jump\t// in\n    tag_5:\n      mload(0x40)\n      tag_9\n      swap2\n      swap1\n      tag_10\n      jump\t// in\n    tag_9:\n      mload(0x40)\n      dup1\n      swap2\n      sub\n      swap1\n      return\n        /* \"16-required.sol\":413:534  function Odd (uint256 _number) public pure returns (bool) {... */\n    tag_4:\n      tag_11\n      0x04\n      dup1\n      calldatasize\n      sub\n      dup2\n      add\n      swap1\n      tag_12\n      swap2\n      swap1\n      tag_7\n      jump\t// in\n    tag_12:\n      tag_13\n      jump\t// in\n    tag_11:\n      mload(0x40)\n      tag_14\n      swap2\n      swap1\n      tag_15\n      jump\t// in\n    tag_14:\n      mload(0x40)\n      dup1\n      swap2\n      sub\n      swap1\n      return\n        /* \"16-required.sol\":197:405  function checkInput(uint256 _input) public pure returns(string memory) {... */\n    tag_8:\n        /* \"16-required.sol\":253:266  string memory */\n      0x60\n        /* \"16-required.sol\":296:297  0 */\n      0x00\n        /* \"16-required.sol\":286:292  _input */\n      dup3\n        /* \"16-required.sol\":286:297  _input >= 0 */\n      lt\n      iszero\n        /* \"16-required.sol\":278:315  require(_input >= 0, \"invalid uint8\") */\n      tag_17\n      jumpi\n      mload(0x40)\n      0x08c379a000000000000000000000000000000000000000000000000000000000\n      dup2\n      mstore\n      0x04\n      add\n      tag_18\n      swap1\n      tag_19\n      jump\t// in\n    tag_18:\n      mload(0x40)\n      dup1\n      swap2\n      sub\n      swap1\n      revert\n    tag_17:\n        /* \"16-required.sol\":343:346  255 */\n      0xff\n        /* \"16-required.sol\":333:339  _input */\n      dup3\n        /* \"16-required.sol\":333:346  _input <= 255 */\n      gt\n      iszero\n        /* \"16-required.sol\":325:364  require(_input <= 255, \"invalid uint8\") */\n      tag_20\n      jumpi\n      mload(0x40)\n      0x08c379a000000000000000000000000000000000000000000000000000000000\n      dup2\n      mstore\n      0x04\n      add\n      tag_21\n      swap1\n      tag_19\n      jump\t// in\n    tag_21:\n      mload(0x40)\n      dup1\n      swap2\n      sub\n      swap1\n      revert\n    tag_20:\n        /* \"16-required.sol\":375:398  return \"Input is uint8\" */\n      mload(0x40)\n      dup1\n      0x40\n      add\n      0x40\n      mstore\n      dup1\n      0x0e\n      dup2\n      mstore\n      0x20\n      add\n      0x496e7075742069732075696e7438000000000000000000000000000000000000\n      dup2\n      mstore\n      pop\n      swap1\n      pop\n        /* \"16-required.sol\":197:405  function checkInput(uint256 _input) public pure returns(string memory) {... */\n      swap2\n      swap1\n      pop\n      jump\t// out\n        /* \"16-required.sol\":413:534  function Odd (uint256 _number) public pure returns (bool) {... */\n    tag_13:\n        /* \"16-required.sol\":465:469  bool */\n      0x00\n        /* \"16-required.sol\":504:505  0 */\n      dup1\n        /* \"16-required.sol\":499:500  2 */\n      0x02\n        /* \"16-required.sol\":489:496  _number */\n      dup4\n        /* \"16-required.sol\":489:500  _number % 2 */\n      tag_23\n      swap2\n      swap1\n      tag_24\n      jump\t// in\n    tag_23:\n        /* \"16-required.sol\":489:505  _number % 2 != 0 */\n      sub\n        /* \"16-required.sol\":481:506  require(_number % 2 != 0) */\n      tag_25\n      jumpi\n      0x00\n      dup1\n      revert\n    tag_25:\n        /* \"16-required.sol\":523:527  true */\n      0x01\n        /* \"16-required.sol\":516:527  return true */\n      swap1\n      pop\n        /* \"16-required.sol\":413:534  function Odd (uint256 _number) public pure returns (bool) {... */\n      swap2\n      swap1\n      pop\n      jump\t// out\n        /* \"#utility.yul\":88:205   */\n    tag_27:\n        /* \"#utility.yul\":197:198   */\n      0x00\n        /* \"#utility.yul\":194:195   */\n      dup1\n        /* \"#utility.yul\":187:199   */\n      revert\n        /* \"#utility.yul\":334:411   */\n    tag_29:\n        /* \"#utility.yul\":371:378   */\n      0x00\n        /* \"#utility.yul\":400:405   */\n      dup2\n        /* \"#utility.yul\":389:405   */\n      swap1\n      pop\n        /* \"#utility.yul\":334:411   */\n      swap2\n      swap1\n      pop\n      jump\t// out\n        /* \"#utility.yul\":417:539   */\n    tag_30:\n        /* \"#utility.yul\":490:514   */\n      tag_48\n        /* \"#utility.yul\":508:513   */\n      dup2\n        /* \"#utility.yul\":490:514   */\n      tag_29\n      jump\t// in\n    tag_48:\n        /* \"#utility.yul\":483:488   */\n      dup2\n        /* \"#utility.yul\":480:515   */\n      eq\n        /* \"#utility.yul\":470:533   */\n      tag_49\n      jumpi\n        /* \"#utility.yul\":529:530   */\n      0x00\n        /* \"#utility.yul\":526:527   */\n      dup1\n        /* \"#utility.yul\":519:531   */\n      revert\n        /* \"#utility.yul\":470:533   */\n    tag_49:\n        /* \"#utility.yul\":417:539   */\n      pop\n      jump\t// out\n        /* \"#utility.yul\":545:684   */\n    tag_31:\n        /* \"#utility.yul\":591:596   */\n      0x00\n        /* \"#utility.yul\":629:635   */\n      dup2\n        /* \"#utility.yul\":616:636   */\n      calldataload\n        /* \"#utility.yul\":607:636   */\n      swap1\n      pop\n        /* \"#utility.yul\":645:678   */\n      tag_51\n        /* \"#utility.yul\":672:677   */\n      dup2\n        /* \"#utility.yul\":645:678   */\n      tag_30\n      jump\t// in\n    tag_51:\n        /* \"#utility.yul\":545:684   */\n      swap3\n      swap2\n      pop\n      pop\n      jump\t// out\n        /* \"#utility.yul\":690:1019   */\n    tag_7:\n        /* \"#utility.yul\":749:755   */\n      0x00\n        /* \"#utility.yul\":798:800   */\n      0x20\n        /* \"#utility.yul\":786:795   */\n      dup3\n        /* \"#utility.yul\":777:784   */\n      dup5\n        /* \"#utility.yul\":773:796   */\n      sub\n        /* \"#utility.yul\":769:801   */\n      slt\n        /* \"#utility.yul\":766:885   */\n      iszero\n      tag_53\n      jumpi\n        /* \"#utility.yul\":804:883   */\n      tag_54\n      tag_27\n      jump\t// in\n    tag_54:\n        /* \"#utility.yul\":766:885   */\n    tag_53:\n        /* \"#utility.yul\":924:925   */\n      0x00\n        /* \"#utility.yul\":949:1002   */\n      tag_55\n        /* \"#utility.yul\":994:1001   */\n      dup5\n        /* \"#utility.yul\":985:991   */\n      dup3\n        /* \"#utility.yul\":974:983   */\n      dup6\n        /* \"#utility.yul\":970:992   */\n      add\n        /* \"#utility.yul\":949:1002   */\n      tag_31\n      jump\t// in\n    tag_55:\n        /* \"#utility.yul\":939:1002   */\n      swap2\n      pop\n        /* \"#utility.yul\":895:1012   */\n      pop\n        /* \"#utility.yul\":690:1019   */\n      swap3\n      swap2\n      pop\n      pop\n      jump\t// out\n        /* \"#utility.yul\":1025:1124   */\n    tag_32:\n        /* \"#utility.yul\":1077:1083   */\n      0x00\n        /* \"#utility.yul\":1111:1116   */\n      dup2\n        /* \"#utility.yul\":1105:1117   */\n      mload\n        /* \"#utility.yul\":1095:1117   */\n      swap1\n      pop\n        /* \"#utility.yul\":1025:1124   */\n      swap2\n      swap1\n      pop\n      jump\t// out\n        /* \"#utility.yul\":1130:1299   */\n    tag_33:\n        /* \"#utility.yul\":1214:1225   */\n      0x00\n        /* \"#utility.yul\":1248:1254   */\n      dup3\n        /* \"#utility.yul\":1243:1246   */\n      dup3\n        /* \"#utility.yul\":1236:1255   */\n      mstore\n        /* \"#utility.yul\":1288:1292   */\n      0x20\n        /* \"#utility.yul\":1283:1286   */\n      dup3\n        /* \"#utility.yul\":1279:1293   */\n      add\n        /* \"#utility.yul\":1264:1293   */\n      swap1\n      pop\n        /* \"#utility.yul\":1130:1299   */\n      swap3\n      swap2\n      pop\n      pop\n      jump\t// out\n        /* \"#utility.yul\":1305:1551   */\n    tag_34:\n        /* \"#utility.yul\":1386:1387   */\n      0x00\n        /* \"#utility.yul\":1396:1509   */\n    tag_59:\n        /* \"#utility.yul\":1410:1416   */\n      dup4\n        /* \"#utility.yul\":1407:1408   */\n      dup2\n        /* \"#utility.yul\":1404:1417   */\n      lt\n        /* \"#utility.yul\":1396:1509   */\n      iszero\n      tag_61\n      jumpi\n        /* \"#utility.yul\":1495:1496   */\n      dup1\n        /* \"#utility.yul\":1490:1493   */\n      dup3\n        /* \"#utility.yul\":1486:1497   */\n      add\n        /* \"#utility.yul\":1480:1498   */\n      mload\n        /* \"#utility.yul\":1476:1477   */\n      dup2\n        /* \"#utility.yul\":1471:1474   */\n      dup5\n        /* \"#utility.yul\":1467:1478   */\n      add\n        /* \"#utility.yul\":1460:1499   */\n      mstore\n        /* \"#utility.yul\":1432:1434   */\n      0x20\n        /* \"#utility.yul\":1429:1430   */\n      dup2\n        /* \"#utility.yul\":1425:1435   */\n      add\n        /* \"#utility.yul\":1420:1435   */\n      swap1\n      pop\n        /* \"#utility.yul\":1396:1509   */\n      jump(tag_59)\n    tag_61:\n        /* \"#utility.yul\":1543:1544   */\n      0x00\n        /* \"#utility.yul\":1534:1540   */\n      dup5\n        /* \"#utility.yul\":1529:1532   */\n      dup5\n        /* \"#utility.yul\":1525:1541   */\n      add\n        /* \"#utility.yul\":1518:1545   */\n      mstore\n        /* \"#utility.yul\":1367:1551   */\n      pop\n        /* \"#utility.yul\":1305:1551   */\n      pop\n      pop\n      pop\n      jump\t// out\n        /* \"#utility.yul\":1557:1659   */\n    tag_35:\n        /* \"#utility.yul\":1598:1604   */\n      0x00\n        /* \"#utility.yul\":1649:1651   */\n      0x1f\n        /* \"#utility.yul\":1645:1652   */\n      not\n        /* \"#utility.yul\":1640:1642   */\n      0x1f\n        /* \"#utility.yul\":1633:1638   */\n      dup4\n        /* \"#utility.yul\":1629:1643   */\n      add\n        /* \"#utility.yul\":1625:1653   */\n      and\n        /* \"#utility.yul\":1615:1653   */\n      swap1\n      pop\n        /* \"#utility.yul\":1557:1659   */\n      swap2\n      swap1\n      pop\n      jump\t// out\n        /* \"#utility.yul\":1665:2042   */\n    tag_36:\n        /* \"#utility.yul\":1753:1756   */\n      0x00\n        /* \"#utility.yul\":1781:1820   */\n      tag_64\n        /* \"#utility.yul\":1814:1819   */\n      dup3\n        /* \"#utility.yul\":1781:1820   */\n      tag_32\n      jump\t// in\n    tag_64:\n        /* \"#utility.yul\":1836:1907   */\n      tag_65\n        /* \"#utility.yul\":1900:1906   */\n      dup2\n        /* \"#utility.yul\":1895:1898   */\n      dup6\n        /* \"#utility.yul\":1836:1907   */\n      tag_33\n      jump\t// in\n    tag_65:\n        /* \"#utility.yul\":1829:1907   */\n      swap4\n      pop\n        /* \"#utility.yul\":1916:1981   */\n      tag_66\n        /* \"#utility.yul\":1974:1980   */\n      dup2\n        /* \"#utility.yul\":1969:1972   */\n      dup6\n        /* \"#utility.yul\":1962:1966   */\n      0x20\n        /* \"#utility.yul\":1955:1960   */\n      dup7\n        /* \"#utility.yul\":1951:1967   */\n      add\n        /* \"#utility.yul\":1916:1981   */\n      tag_34\n      jump\t// in\n    tag_66:\n        /* \"#utility.yul\":2006:2035   */\n      tag_67\n        /* \"#utility.yul\":2028:2034   */\n      dup2\n        /* \"#utility.yul\":2006:2035   */\n      tag_35\n      jump\t// in\n    tag_67:\n        /* \"#utility.yul\":2001:2004   */\n      dup5\n        /* \"#utility.yul\":1997:2036   */\n      add\n        /* \"#utility.yul\":1990:2036   */\n      swap2\n      pop\n        /* \"#utility.yul\":1757:2042   */\n      pop\n        /* \"#utility.yul\":1665:2042   */\n      swap3\n      swap2\n      pop\n      pop\n      jump\t// out\n        /* \"#utility.yul\":2048:2361   */\n    tag_10:\n        /* \"#utility.yul\":2161:2165   */\n      0x00\n        /* \"#utility.yul\":2199:2201   */\n      0x20\n        /* \"#utility.yul\":2188:2197   */\n      dup3\n        /* \"#utility.yul\":2184:2202   */\n      add\n        /* \"#utility.yul\":2176:2202   */\n      swap1\n      pop\n        /* \"#utility.yul\":2248:2257   */\n      dup2\n        /* \"#utility.yul\":2242:2246   */\n      dup2\n        /* \"#utility.yul\":2238:2258   */\n      sub\n        /* \"#utility.yul\":2234:2235   */\n      0x00\n        /* \"#utility.yul\":2223:2232   */\n      dup4\n        /* \"#utility.yul\":2219:2236   */\n      add\n        /* \"#utility.yul\":2212:2259   */\n      mstore\n        /* \"#utility.yul\":2276:2354   */\n      tag_69\n        /* \"#utility.yul\":2349:2353   */\n      dup2\n        /* \"#utility.yul\":2340:2346   */\n      dup5\n        /* \"#utility.yul\":2276:2354   */\n      tag_36\n      jump\t// in\n    tag_69:\n        /* \"#utility.yul\":2268:2354   */\n      swap1\n      pop\n        /* \"#utility.yul\":2048:2361   */\n      swap3\n      swap2\n      pop\n      pop\n      jump\t// out\n        /* \"#utility.yul\":2367:2457   */\n    tag_37:\n        /* \"#utility.yul\":2401:2408   */\n      0x00\n        /* \"#utility.yul\":2444:2449   */\n      dup2\n        /* \"#utility.yul\":2437:2450   */\n      iszero\n        /* \"#utility.yul\":2430:2451   */\n      iszero\n        /* \"#utility.yul\":2419:2451   */\n      swap1\n      pop\n        /* \"#utility.yul\":2367:2457   */\n      swap2\n      swap1\n      pop\n      jump\t// out\n        /* \"#utility.yul\":2463:2572   */\n    tag_38:\n        /* \"#utility.yul\":2544:2565   */\n      tag_72\n        /* \"#utility.yul\":2559:2564   */\n      dup2\n        /* \"#utility.yul\":2544:2565   */\n      tag_37\n      jump\t// in\n    tag_72:\n        /* \"#utility.yul\":2539:2542   */\n      dup3\n        /* \"#utility.yul\":2532:2566   */\n      mstore\n        /* \"#utility.yul\":2463:2572   */\n      pop\n      pop\n      jump\t// out\n        /* \"#utility.yul\":2578:2788   */\n    tag_15:\n        /* \"#utility.yul\":2665:2669   */\n      0x00\n        /* \"#utility.yul\":2703:2705   */\n      0x20\n        /* \"#utility.yul\":2692:2701   */\n      dup3\n        /* \"#utility.yul\":2688:2706   */\n      add\n        /* \"#utility.yul\":2680:2706   */\n      swap1\n      pop\n        /* \"#utility.yul\":2716:2781   */\n      tag_74\n        /* \"#utility.yul\":2778:2779   */\n      0x00\n        /* \"#utility.yul\":2767:2776   */\n      dup4\n        /* \"#utility.yul\":2763:2780   */\n      add\n        /* \"#utility.yul\":2754:2760   */\n      dup5\n        /* \"#utility.yul\":2716:2781   */\n      tag_38\n      jump\t// in\n    tag_74:\n        /* \"#utility.yul\":2578:2788   */\n      swap3\n      swap2\n      pop\n      pop\n      jump\t// out\n        /* \"#utility.yul\":2794:2957   */\n    tag_39:\n        /* \"#utility.yul\":2934:2949   */\n      0x696e76616c69642075696e743800000000000000000000000000000000000000\n        /* \"#utility.yul\":2930:2931   */\n      0x00\n        /* \"#utility.yul\":2922:2928   */\n      dup3\n        /* \"#utility.yul\":2918:2932   */\n      add\n        /* \"#utility.yul\":2911:2950   */\n      mstore\n        /* \"#utility.yul\":2794:2957   */\n      pop\n      jump\t// out\n        /* \"#utility.yul\":2963:3329   */\n    tag_40:\n        /* \"#utility.yul\":3105:3108   */\n      0x00\n        /* \"#utility.yul\":3126:3193   */\n      tag_77\n        /* \"#utility.yul\":3190:3192   */\n      0x0d\n        /* \"#utility.yul\":3185:3188   */\n      dup4\n        /* \"#utility.yul\":3126:3193   */\n      tag_33\n      jump\t// in\n    tag_77:\n        /* \"#utility.yul\":3119:3193   */\n      swap2\n      pop\n        /* \"#utility.yul\":3202:3295   */\n      tag_78\n        /* \"#utility.yul\":3291:3294   */\n      dup3\n        /* \"#utility.yul\":3202:3295   */\n      tag_39\n      jump\t// in\n    tag_78:\n        /* \"#utility.yul\":3320:3322   */\n      0x20\n        /* \"#utility.yul\":3315:3318   */\n      dup3\n        /* \"#utility.yul\":3311:3323   */\n      add\n        /* \"#utility.yul\":3304:3323   */\n      swap1\n      pop\n        /* \"#utility.yul\":2963:3329   */\n      swap2\n      swap1\n      pop\n      jump\t// out\n        /* \"#utility.yul\":3335:3754   */\n    tag_19:\n        /* \"#utility.yul\":3501:3505   */\n      0x00\n        /* \"#utility.yul\":3539:3541   */\n      0x20\n        /* \"#utility.yul\":3528:3537   */\n      dup3\n        /* \"#utility.yul\":3524:3542   */\n      add\n        /* \"#utility.yul\":3516:3542   */\n      swap1\n      pop\n        /* \"#utility.yul\":3588:3597   */\n      dup2\n        /* \"#utility.yul\":3582:3586   */\n      dup2\n        /* \"#utility.yul\":3578:3598   */\n      sub\n        /* \"#utility.yul\":3574:3575   */\n      0x00\n        /* \"#utility.yul\":3563:3572   */\n      dup4\n        /* \"#utility.yul\":3559:3576   */\n      add\n        /* \"#utility.yul\":3552:3599   */\n      mstore\n        /* \"#utility.yul\":3616:3747   */\n      tag_80\n        /* \"#utility.yul\":3742:3746   */\n      dup2\n        /* \"#utility.yul\":3616:3747   */\n      tag_40\n      jump\t// in\n    tag_80:\n        /* \"#utility.yul\":3608:3747   */\n      swap1\n      pop\n        /* \"#utility.yul\":3335:3754   */\n      swap2\n      swap1\n      pop\n      jump\t// out\n        /* \"#utility.yul\":3760:3940   */\n    tag_41:\n        /* \"#utility.yul\":3808:3885   */\n      0x4e487b7100000000000000000000000000000000000000000000000000000000\n        /* \"#utility.yul\":3805:3806   */\n      0x00\n        /* \"#utility.yul\":3798:3886   */\n      mstore\n        /* \"#utility.yul\":3905:3909   */\n      0x12\n        /* \"#utility.yul\":3902:3903   */\n      0x04\n        /* \"#utility.yul\":3895:3910   */\n      mstore\n        /* \"#utility.yul\":3929:3933   */\n      0x24\n        /* \"#utility.yul\":3926:3927   */\n      0x00\n        /* \"#utility.yul\":3919:3934   */\n      revert\n        /* \"#utility.yul\":3946:4122   */\n    tag_24:\n        /* \"#utility.yul\":3978:3979   */\n      0x00\n        /* \"#utility.yul\":3995:4015   */\n      tag_83\n        /* \"#utility.yul\":4013:4014   */\n      dup3\n        /* \"#utility.yul\":3995:4015   */\n      tag_29\n      jump\t// in\n    tag_83:\n        /* \"#utility.yul\":3990:4015   */\n      swap2\n      pop\n        /* \"#utility.yul\":4029:4049   */\n      tag_84\n        /* \"#utility.yul\":4047:4048   */\n      dup4\n        /* \"#utility.yul\":4029:4049   */\n      tag_29\n      jump\t// in\n    tag_84:\n        /* \"#utility.yul\":4024:4049   */\n      swap3\n      pop\n        /* \"#utility.yul\":4068:4069   */\n      dup3\n        /* \"#utility.yul\":4058:4093   */\n      tag_85\n      jumpi\n        /* \"#utility.yul\":4073:4091   */\n      tag_86\n      tag_41\n      jump\t// in\n    tag_86:\n        /* \"#utility.yul\":4058:4093   */\n    tag_85:\n        /* \"#utility.yul\":4114:4115   */\n      dup3\n        /* \"#utility.yul\":4111:4112   */\n      dup3\n        /* \"#utility.yul\":4107:4116   */\n      mod\n        /* \"#utility.yul\":4102:4116   */\n      swap1\n      pop\n        /* \"#utility.yul\":3946:4122   */\n      swap3\n      swap2\n      pop\n      pop\n      jump\t// out\n\n    auxdata: 0xa26469706673582212209de74cb9636faba4f44b8d5d1c6b9860a3745fc47f14f004d257eaddd266cd4c64736f6c63430008160033\n}\n",
				"bytecode": {
					"linkReferences": {},
					"object": "608060405234801561000f575f80fd5b506103b98061001d5f395ff3fe608060405234801561000f575f80fd5b5060043610610034575f3560e01c8063021b8a7f14610038578063922e883a14610068575b5f80fd5b610052600480360381019061004d91906101b6565b610098565b60405161005f919061026b565b60405180910390f35b610082600480360381019061007d91906101b6565b61015e565b60405161008f91906102a5565b60405180910390f35b60605f8210156100dd576040517f08c379a00000000000000000000000000000000000000000000000000000000081526004016100d490610308565b60405180910390fd5b60ff821115610121576040517f08c379a000000000000000000000000000000000000000000000000000000000815260040161011890610308565b60405180910390fd5b6040518060400160405280600e81526020017f496e7075742069732075696e74380000000000000000000000000000000000008152509050919050565b5f8060028361016d9190610353565b03610176575f80fd5b60019050919050565b5f80fd5b5f819050919050565b61019581610183565b811461019f575f80fd5b50565b5f813590506101b08161018c565b92915050565b5f602082840312156101cb576101ca61017f565b5b5f6101d8848285016101a2565b91505092915050565b5f81519050919050565b5f82825260208201905092915050565b5f5b838110156102185780820151818401526020810190506101fd565b5f8484015250505050565b5f601f19601f8301169050919050565b5f61023d826101e1565b61024781856101eb565b93506102578185602086016101fb565b61026081610223565b840191505092915050565b5f6020820190508181035f8301526102838184610233565b905092915050565b5f8115159050919050565b61029f8161028b565b82525050565b5f6020820190506102b85f830184610296565b92915050565b7f696e76616c69642075696e7438000000000000000000000000000000000000005f82015250565b5f6102f2600d836101eb565b91506102fd826102be565b602082019050919050565b5f6020820190508181035f83015261031f816102e6565b9050919050565b7f4e487b71000000000000000000000000000000000000000000000000000000005f52601260045260245ffd5b5f61035d82610183565b915061036883610183565b92508261037857610377610326565b5b82820690509291505056fea26469706673582212209de74cb9636faba4f44b8d5d1c6b9860a3745fc47f14f004d257eaddd266cd4c64736f6c63430008160033",
					"opcodes": "PUSH1 0x80 PUSH1 0x40 MSTORE CALLVALUE DUP1 ISZERO PUSH2 0xF JUMPI PUSH0 DUP1 REVERT JUMPDEST POP PUSH2 0x3B9 DUP1 PUSH2 0x1D PUSH0 CODECOPY PUSH0 RETURN INVALID PUSH1 0x80 PUSH1 0x40 MSTORE CALLVALUE DUP1 ISZERO PUSH2 0xF JUMPI PUSH0 DUP1 REVERT JUMPDEST POP PUSH1 0x4 CALLDATASIZE LT PUSH2 0x34 JUMPI PUSH0 CALLDATALOAD PUSH1 0xE0 SHR DUP1 PUSH4 0x21B8A7F EQ PUSH2 0x38 JUMPI DUP1 PUSH4 0x922E883A EQ PUSH2 0x68 JUMPI JUMPDEST PUSH0 DUP1 REVERT JUMPDEST PUSH2 0x52 PUSH1 0x4 DUP1 CALLDATASIZE SUB DUP2 ADD SWAP1 PUSH2 0x4D SWAP2 SWAP1 PUSH2 0x1B6 JUMP JUMPDEST PUSH2 0x98 JUMP JUMPDEST PUSH1 0x40 MLOAD PUSH2 0x5F SWAP2 SWAP1 PUSH2 0x26B JUMP JUMPDEST PUSH1 0x40 MLOAD DUP1 SWAP2 SUB SWAP1 RETURN JUMPDEST PUSH2 0x82 PUSH1 0x4 DUP1 CALLDATASIZE SUB DUP2 ADD SWAP1 PUSH2 0x7D SWAP2 SWAP1 PUSH2 0x1B6 JUMP JUMPDEST PUSH2 0x15E JUMP JUMPDEST PUSH1 0x40 MLOAD PUSH2 0x8F SWAP2 SWAP1 PUSH2 0x2A5 JUMP JUMPDEST PUSH1 0x40 MLOAD DUP1 SWAP2 SUB SWAP1 RETURN JUMPDEST PUSH1 0x60 PUSH0 DUP3 LT ISZERO PUSH2 0xDD JUMPI PUSH1 0x40 MLOAD PUSH32 0x8C379A000000000000000000000000000000000000000000000000000000000 DUP2 MSTORE PUSH1 0x4 ADD PUSH2 0xD4 SWAP1 PUSH2 0x308 JUMP JUMPDEST PUSH1 0x40 MLOAD DUP1 SWAP2 SUB SWAP1 REVERT JUMPDEST PUSH1 0xFF DUP3 GT ISZERO PUSH2 0x121 JUMPI PUSH1 0x40 MLOAD PUSH32 0x8C379A000000000000000000000000000000000000000000000000000000000 DUP2 MSTORE PUSH1 0x4 ADD PUSH2 0x118 SWAP1 PUSH2 0x308 JUMP JUMPDEST PUSH1 0x40 MLOAD DUP1 SWAP2 SUB SWAP1 REVERT JUMPDEST PUSH1 0x40 MLOAD DUP1 PUSH1 0x40 ADD PUSH1 0x40 MSTORE DUP1 PUSH1 0xE DUP2 MSTORE PUSH1 0x20 ADD PUSH32 0x496E7075742069732075696E7438000000000000000000000000000000000000 DUP2 MSTORE POP SWAP1 POP SWAP2 SWAP1 POP JUMP JUMPDEST PUSH0 DUP1 PUSH1 0x2 DUP4 PUSH2 0x16D SWAP2 SWAP1 PUSH2 0x353 JUMP JUMPDEST SUB PUSH2 0x176 JUMPI PUSH0 DUP1 REVERT JUMPDEST PUSH1 0x1 SWAP1 POP SWAP2 SWAP1 POP JUMP JUMPDEST PUSH0 DUP1 REVERT JUMPDEST PUSH0 DUP2 SWAP1 POP SWAP2 SWAP1 POP JUMP JUMPDEST PUSH2 0x195 DUP2 PUSH2 0x183 JUMP JUMPDEST DUP2 EQ PUSH2 0x19F JUMPI PUSH0 DUP1 REVERT JUMPDEST POP JUMP JUMPDEST PUSH0 DUP2 CALLDATALOAD SWAP1 POP PUSH2 0x1B0 DUP2 PUSH2 0x18C JUMP JUMPDEST SWAP3 SWAP2 POP POP JUMP JUMPDEST PUSH0 PUSH1 0x20 DUP3 DUP5 SUB SLT ISZERO PUSH2 0x1CB JUMPI PUSH2 0x1CA PUSH2 0x17F JUMP JUMPDEST JUMPDEST PUSH0 PUSH2 0x1D8 DUP5 DUP3 DUP6 ADD PUSH2 0x1A2 JUMP JUMPDEST SWAP2 POP POP SWAP3 SWAP2 POP POP JUMP JUMPDEST PUSH0 DUP2 MLOAD SWAP1 POP SWAP2 SWAP1 POP JUMP JUMPDEST PUSH0 DUP3 DUP3 MSTORE PUSH1 0x20 DUP3 ADD SWAP1 POP SWAP3 SWAP2 POP POP JUMP JUMPDEST PUSH0 JUMPDEST DUP4 DUP2 LT ISZERO PUSH2 0x218 JUMPI DUP1 DUP3 ADD MLOAD DUP2 DUP5 ADD MSTORE PUSH1 0x20 DUP2 ADD SWAP1 POP PUSH2 0x1FD JUMP JUMPDEST PUSH0 DUP5 DUP5 ADD MSTORE POP POP POP POP JUMP JUMPDEST PUSH0 PUSH1 0x1F NOT PUSH1 0x1F DUP4 ADD AND SWAP1 POP SWAP2 SWAP1 POP JUMP JUMPDEST PUSH0 PUSH2 0x23D DUP3 PUSH2 0x1E1 JUMP JUMPDEST PUSH2 0x247 DUP2 DUP6 PUSH2 0x1EB JUMP JUMPDEST SWAP4 POP PUSH2 0x257 DUP2 DUP6 PUSH1 0x20 DUP7 ADD PUSH2 0x1FB JUMP JUMPDEST PUSH2 0x260 DUP2 PUSH2 0x223 JUMP JUMPDEST DUP5 ADD SWAP2 POP POP SWAP3 SWAP2 POP POP JUMP JUMPDEST PUSH0 PUSH1 0x20 DUP3 ADD SWAP1 POP DUP2 DUP2 SUB PUSH0 DUP4 ADD MSTORE PUSH2 0x283 DUP2 DUP5 PUSH2 0x233 JUMP JUMPDEST SWAP1 POP SWAP3 SWAP2 POP POP JUMP JUMPDEST PUSH0 DUP2 ISZERO ISZERO SWAP1 POP SWAP2 SWAP1 POP JUMP JUMPDEST PUSH2 0x29F DUP2 PUSH2 0x28B JUMP JUMPDEST DUP3 MSTORE POP POP JUMP JUMPDEST PUSH0 PUSH1 0x20 DUP3 ADD SWAP1 POP PUSH2 0x2B8 PUSH0 DUP4 ADD DUP5 PUSH2 0x296 JUMP JUMPDEST SWAP3 SWAP2 POP POP JUMP JUMPDEST PUSH32 0x696E76616C69642075696E743800000000000000000000000000000000000000 PUSH0 DUP3 ADD MSTORE POP JUMP JUMPDEST PUSH0 PUSH2 0x2F2 PUSH1 0xD DUP4 PUSH2 0x1EB JUMP JUMPDEST SWAP2 POP PUSH2 0x2FD DUP3 PUSH2 0x2BE JUMP JUMPDEST PUSH1 0x20 DUP3 ADD SWAP1 POP SWAP2 SWAP1 POP JUMP JUMPDEST PUSH0 PUSH1 0x20 DUP3 ADD SWAP1 POP DUP2 DUP2 SUB PUSH0 DUP4 ADD MSTORE PUSH2 0x31F DUP2 PUSH2 0x2E6 JUMP JUMPDEST SWAP1 POP SWAP2 SWAP1 POP JUMP JUMPDEST PUSH32 0x4E487B7100000000000000000000000000000000000000000000000000000000 PUSH0 MSTORE PUSH1 0x12 PUSH1 0x4 MSTORE PUSH1 0x24 PUSH0 REVERT JUMPDEST PUSH0 PUSH2 0x35D DUP3 PUSH2 0x183 JUMP JUMPDEST SWAP2 POP PUSH2 0x368 DUP4 PUSH2 0x183 JUMP JUMPDEST SWAP3 POP DUP3 PUSH2 0x378 JUMPI PUSH2 0x377 PUSH2 0x326 JUMP JUMPDEST JUMPDEST DUP3 DUP3 MOD SWAP1 POP SWAP3 SWAP2 POP POP JUMP INVALID LOG2 PUSH5 0x6970667358 0x22 SLT KECCAK256 SWAP14 0xE7 0x4C 0xB9 PUSH4 0x6FABA4F4 0x4B DUP14 0x5D SHR PUSH12 0x9860A3745FC47F14F004D257 0xEA 0xDD 0xD2 PUSH7 0xCD4C64736F6C63 NUMBER STOP ADDMOD AND STOP CALLER "
				},
				"gasEstimates": {
					"creation": {
						"codeDepositCost": "190600",
						"executionCost": "230",
						"totalCost": "190830"
					},
					"external": {
						"Odd(uint256)": "infinite",
						"checkInput(uint256)": "infinite"
					}
				},
				"methodIdentifiers": {
					"Odd(uint256)": "922e883a",
					"checkInput(uint256)": "021b8a7f"
				}
			},
			"storageLayout": {
				"storage": [],
				"types": null
			},
			"userdoc": {
				"kind": "user",
				"methods": {},
				"version": 1
			}
		}
	}
}