{
	"34-super.sol": {
		"A": {
			"abi": [
				{
					"anonymous": false,
					"inputs": [
						{
							"indexed": false,
							"internalType": "string",
							"name": "message",
							"type": "string"
						}
					],
					"name": "Log",
					"type": "event"
				},
				{
					"inputs": [],
					"name": "funcInContract",
					"outputs": [],
					"stateMutability": "nonpayable",
					"type": "function"
				},
				{
					"inputs": [],
					"name": "funcInContract2",
					"outputs": [],
					"stateMutability": "nonpayable",
					"type": "function"
				}
			],
			"devdoc": {
				"kind": "dev",
				"methods": {},
				"version": 1
			},
			"evm": {
				"assembly": "    /* \"34-super.sol\":744:1187  contract A {... */\n  mstore(0x40, 0x80)\n  callvalue\n  dup1\n  iszero\n  tag_1\n  jumpi\n  0x00\n  dup1\n  revert\ntag_1:\n  pop\n  dataSize(sub_0)\n  dup1\n  dataOffset(sub_0)\n  0x00\n  codecopy\n  0x00\n  return\nstop\n\nsub_0: assembly {\n        /* \"34-super.sol\":744:1187  contract A {... */\n      mstore(0x40, 0x80)\n      callvalue\n      dup1\n      iszero\n      tag_1\n      jumpi\n      0x00\n      dup1\n      revert\n    tag_1:\n      pop\n      jumpi(tag_2, lt(calldatasize, 0x04))\n      shr(0xe0, calldataload(0x00))\n      dup1\n      0xb8ec89f5\n      eq\n      tag_3\n      jumpi\n      dup1\n      0xcc6418c2\n      eq\n      tag_4\n      jumpi\n    tag_2:\n      0x00\n      dup1\n      revert\n        /* \"34-super.sol\":984:1080  function funcInContract() public virtual {... */\n    tag_3:\n      tag_5\n      tag_6\n      jump\t// in\n    tag_5:\n      stop\n        /* \"34-super.sol\":1087:1185  function funcInContract2() public virtual {... */\n    tag_4:\n      tag_7\n      tag_8\n      jump\t// in\n    tag_7:\n      stop\n        /* \"34-super.sol\":984:1080  function funcInContract() public virtual {... */\n    tag_6:\n        /* \"34-super.sol\":1040:1073  Log(\"A.funcInContract is called\") */\n      0xcf34ef537ac33ee1ac626ca1587a0a7e8e51561e5514f8cb36afa1c5102b3bab\n      mload(0x40)\n      tag_10\n      swap1\n      tag_11\n      jump\t// in\n    tag_10:\n      mload(0x40)\n      dup1\n      swap2\n      sub\n      swap1\n      log1\n        /* \"34-super.sol\":984:1080  function funcInContract() public virtual {... */\n      jump\t// out\n        /* \"34-super.sol\":1087:1185  function funcInContract2() public virtual {... */\n    tag_8:\n        /* \"34-super.sol\":1144:1178  Log(\"A.funcInContract2 is called\") */\n      0xcf34ef537ac33ee1ac626ca1587a0a7e8e51561e5514f8cb36afa1c5102b3bab\n      mload(0x40)\n      tag_13\n      swap1\n      tag_14\n      jump\t// in\n    tag_13:\n      mload(0x40)\n      dup1\n      swap2\n      sub\n      swap1\n      log1\n        /* \"34-super.sol\":1087:1185  function funcInContract2() public virtual {... */\n      jump\t// out\n        /* \"#utility.yul\":7:176   */\n    tag_15:\n        /* \"#utility.yul\":91:102   */\n      0x00\n        /* \"#utility.yul\":125:131   */\n      dup3\n        /* \"#utility.yul\":120:123   */\n      dup3\n        /* \"#utility.yul\":113:132   */\n      mstore\n        /* \"#utility.yul\":165:169   */\n      0x20\n        /* \"#utility.yul\":160:163   */\n      dup3\n        /* \"#utility.yul\":156:170   */\n      add\n        /* \"#utility.yul\":141:170   */\n      swap1\n      pop\n        /* \"#utility.yul\":7:176   */\n      swap3\n      swap2\n      pop\n      pop\n      jump\t// out\n        /* \"#utility.yul\":182:358   */\n    tag_16:\n        /* \"#utility.yul\":322:350   */\n      0x412e66756e63496e436f6e74726163742069732063616c6c6564000000000000\n        /* \"#utility.yul\":318:319   */\n      0x00\n        /* \"#utility.yul\":310:316   */\n      dup3\n        /* \"#utility.yul\":306:320   */\n      add\n        /* \"#utility.yul\":299:351   */\n      mstore\n        /* \"#utility.yul\":182:358   */\n      pop\n      jump\t// out\n        /* \"#utility.yul\":364:730   */\n    tag_17:\n        /* \"#utility.yul\":506:509   */\n      0x00\n        /* \"#utility.yul\":527:594   */\n      tag_24\n        /* \"#utility.yul\":591:593   */\n      0x1a\n        /* \"#utility.yul\":586:589   */\n      dup4\n        /* \"#utility.yul\":527:594   */\n      tag_15\n      jump\t// in\n    tag_24:\n        /* \"#utility.yul\":520:594   */\n      swap2\n      pop\n        /* \"#utility.yul\":603:696   */\n      tag_25\n        /* \"#utility.yul\":692:695   */\n      dup3\n        /* \"#utility.yul\":603:696   */\n      tag_16\n      jump\t// in\n    tag_25:\n        /* \"#utility.yul\":721:723   */\n      0x20\n        /* \"#utility.yul\":716:719   */\n      dup3\n        /* \"#utility.yul\":712:724   */\n      add\n        /* \"#utility.yul\":705:724   */\n      swap1\n      pop\n        /* \"#utility.yul\":364:730   */\n      swap2\n      swap1\n      pop\n      jump\t// out\n        /* \"#utility.yul\":736:1155   */\n    tag_11:\n        /* \"#utility.yul\":902:906   */\n      0x00\n        /* \"#utility.yul\":940:942   */\n      0x20\n        /* \"#utility.yul\":929:938   */\n      dup3\n        /* \"#utility.yul\":925:943   */\n      add\n        /* \"#utility.yul\":917:943   */\n      swap1\n      pop\n        /* \"#utility.yul\":989:998   */\n      dup2\n        /* \"#utility.yul\":983:987   */\n      dup2\n        /* \"#utility.yul\":979:999   */\n      sub\n        /* \"#utility.yul\":975:976   */\n      0x00\n        /* \"#utility.yul\":964:973   */\n      dup4\n        /* \"#utility.yul\":960:977   */\n      add\n        /* \"#utility.yul\":953:1000   */\n      mstore\n        /* \"#utility.yul\":1017:1148   */\n      tag_27\n        /* \"#utility.yul\":1143:1147   */\n      dup2\n        /* \"#utility.yul\":1017:1148   */\n      tag_17\n      jump\t// in\n    tag_27:\n        /* \"#utility.yul\":1009:1148   */\n      swap1\n      pop\n        /* \"#utility.yul\":736:1155   */\n      swap2\n      swap1\n      pop\n      jump\t// out\n        /* \"#utility.yul\":1161:1338   */\n    tag_18:\n        /* \"#utility.yul\":1301:1330   */\n      0x412e66756e63496e436f6e7472616374322069732063616c6c65640000000000\n        /* \"#utility.yul\":1297:1298   */\n      0x00\n        /* \"#utility.yul\":1289:1295   */\n      dup3\n        /* \"#utility.yul\":1285:1299   */\n      add\n        /* \"#utility.yul\":1278:1331   */\n      mstore\n        /* \"#utility.yul\":1161:1338   */\n      pop\n      jump\t// out\n        /* \"#utility.yul\":1344:1710   */\n    tag_19:\n        /* \"#utility.yul\":1486:1489   */\n      0x00\n        /* \"#utility.yul\":1507:1574   */\n      tag_30\n        /* \"#utility.yul\":1571:1573   */\n      0x1b\n        /* \"#utility.yul\":1566:1569   */\n      dup4\n        /* \"#utility.yul\":1507:1574   */\n      tag_15\n      jump\t// in\n    tag_30:\n        /* \"#utility.yul\":1500:1574   */\n      swap2\n      pop\n        /* \"#utility.yul\":1583:1676   */\n      tag_31\n        /* \"#utility.yul\":1672:1675   */\n      dup3\n        /* \"#utility.yul\":1583:1676   */\n      tag_18\n      jump\t// in\n    tag_31:\n        /* \"#utility.yul\":1701:1703   */\n      0x20\n        /* \"#utility.yul\":1696:1699   */\n      dup3\n        /* \"#utility.yul\":1692:1704   */\n      add\n        /* \"#utility.yul\":1685:1704   */\n      swap1\n      pop\n        /* \"#utility.yul\":1344:1710   */\n      swap2\n      swap1\n      pop\n      jump\t// out\n        /* \"#utility.yul\":1716:2135   */\n    tag_14:\n        /* \"#utility.yul\":1882:1886   */\n      0x00\n        /* \"#utility.yul\":1920:1922   */\n      0x20\n        /* \"#utility.yul\":1909:1918   */\n      dup3\n        /* \"#utility.yul\":1905:1923   */\n      add\n        /* \"#utility.yul\":1897:1923   */\n      swap1\n      pop\n        /* \"#utility.yul\":1969:1978   */\n      dup2\n        /* \"#utility.yul\":1963:1967   */\n      dup2\n        /* \"#utility.yul\":1959:1979   */\n      sub\n        /* \"#utility.yul\":1955:1956   */\n      0x00\n        /* \"#utility.yul\":1944:1953   */\n      dup4\n        /* \"#utility.yul\":1940:1957   */\n      add\n        /* \"#utility.yul\":1933:1980   */\n      mstore\n        /* \"#utility.yul\":1997:2128   */\n      tag_33\n        /* \"#utility.yul\":2123:2127   */\n      dup2\n        /* \"#utility.yul\":1997:2128   */\n      tag_19\n      jump\t// in\n    tag_33:\n        /* \"#utility.yul\":1989:2128   */\n      swap1\n      pop\n        /* \"#utility.yul\":1716:2135   */\n      swap2\n      swap1\n      pop\n      jump\t// out\n\n    auxdata: 0xa264697066735822122014a48760222ecec02ad55f35cc00391bb9b7fb4084aac8897e8f4396674e043e64736f6c63430008160033\n}\n",
				"bytecode": {
					"linkReferences": {},
					"object": "608060405234801561000f575f80fd5b506101d08061001d5f395ff3fe608060405234801561000f575f80fd5b5060043610610034575f3560e01c8063b8ec89f514610038578063cc6418c214610042575b5f80fd5b61004061004c565b005b61004a610083565b005b7fcf34ef537ac33ee1ac626ca1587a0a7e8e51561e5514f8cb36afa1c5102b3bab60405161007990610114565b60405180910390a1565b7fcf34ef537ac33ee1ac626ca1587a0a7e8e51561e5514f8cb36afa1c5102b3bab6040516100b09061017c565b60405180910390a1565b5f82825260208201905092915050565b7f412e66756e63496e436f6e74726163742069732063616c6c65640000000000005f82015250565b5f6100fe601a836100ba565b9150610109826100ca565b602082019050919050565b5f6020820190508181035f83015261012b816100f2565b9050919050565b7f412e66756e63496e436f6e7472616374322069732063616c6c656400000000005f82015250565b5f610166601b836100ba565b915061017182610132565b602082019050919050565b5f6020820190508181035f8301526101938161015a565b905091905056fea264697066735822122014a48760222ecec02ad55f35cc00391bb9b7fb4084aac8897e8f4396674e043e64736f6c63430008160033",
					"opcodes": "PUSH1 0x80 PUSH1 0x40 MSTORE CALLVALUE DUP1 ISZERO PUSH2 0xF JUMPI PUSH0 DUP1 REVERT JUMPDEST POP PUSH2 0x1D0 DUP1 PUSH2 0x1D PUSH0 CODECOPY PUSH0 RETURN INVALID PUSH1 0x80 PUSH1 0x40 MSTORE CALLVALUE DUP1 ISZERO PUSH2 0xF JUMPI PUSH0 DUP1 REVERT JUMPDEST POP PUSH1 0x4 CALLDATASIZE LT PUSH2 0x34 JUMPI PUSH0 CALLDATALOAD PUSH1 0xE0 SHR DUP1 PUSH4 0xB8EC89F5 EQ PUSH2 0x38 JUMPI DUP1 PUSH4 0xCC6418C2 EQ PUSH2 0x42 JUMPI JUMPDEST PUSH0 DUP1 REVERT JUMPDEST PUSH2 0x40 PUSH2 0x4C JUMP JUMPDEST STOP JUMPDEST PUSH2 0x4A PUSH2 0x83 JUMP JUMPDEST STOP JUMPDEST PUSH32 0xCF34EF537AC33EE1AC626CA1587A0A7E8E51561E5514F8CB36AFA1C5102B3BAB PUSH1 0x40 MLOAD PUSH2 0x79 SWAP1 PUSH2 0x114 JUMP JUMPDEST PUSH1 0x40 MLOAD DUP1 SWAP2 SUB SWAP1 LOG1 JUMP JUMPDEST PUSH32 0xCF34EF537AC33EE1AC626CA1587A0A7E8E51561E5514F8CB36AFA1C5102B3BAB PUSH1 0x40 MLOAD PUSH2 0xB0 SWAP1 PUSH2 0x17C JUMP JUMPDEST PUSH1 0x40 MLOAD DUP1 SWAP2 SUB SWAP1 LOG1 JUMP JUMPDEST PUSH0 DUP3 DUP3 MSTORE PUSH1 0x20 DUP3 ADD SWAP1 POP SWAP3 SWAP2 POP POP JUMP JUMPDEST PUSH32 0x412E66756E63496E436F6E74726163742069732063616C6C6564000000000000 PUSH0 DUP3 ADD MSTORE POP JUMP JUMPDEST PUSH0 PUSH2 0xFE PUSH1 0x1A DUP4 PUSH2 0xBA JUMP JUMPDEST SWAP2 POP PUSH2 0x109 DUP3 PUSH2 0xCA JUMP JUMPDEST PUSH1 0x20 DUP3 ADD SWAP1 POP SWAP2 SWAP1 POP JUMP JUMPDEST PUSH0 PUSH1 0x20 DUP3 ADD SWAP1 POP DUP2 DUP2 SUB PUSH0 DUP4 ADD MSTORE PUSH2 0x12B DUP2 PUSH2 0xF2 JUMP JUMPDEST SWAP1 POP SWAP2 SWAP1 POP JUMP JUMPDEST PUSH32 0x412E66756E63496E436F6E7472616374322069732063616C6C65640000000000 PUSH0 DUP3 ADD MSTORE POP JUMP JUMPDEST PUSH0 PUSH2 0x166 PUSH1 0x1B DUP4 PUSH2 0xBA JUMP JUMPDEST SWAP2 POP PUSH2 0x171 DUP3 PUSH2 0x132 JUMP JUMPDEST PUSH1 0x20 DUP3 ADD SWAP1 POP SWAP2 SWAP1 POP JUMP JUMPDEST PUSH0 PUSH1 0x20 DUP3 ADD SWAP1 POP DUP2 DUP2 SUB PUSH0 DUP4 ADD MSTORE PUSH2 0x193 DUP2 PUSH2 0x15A JUMP JUMPDEST SWAP1 POP SWAP2 SWAP1 POP JUMP INVALID LOG2 PUSH5 0x6970667358 0x22 SLT KECCAK256 EQ LOG4 DUP8 PUSH1 0x22 0x2E 0xCE 0xC0 0x2A 0xD5 PUSH0 CALLDATALOAD 0xCC STOP CODECOPY SHL 0xB9 0xB7 0xFB BLOCKHASH DUP5 0xAA 0xC8 DUP10 PUSH31 0x8F4396674E043E64736F6C6343000816003300000000000000000000000000 "
				},
				"gasEstimates": {
					"creation": {
						"codeDepositCost": "92800",
						"executionCost": "139",
						"totalCost": "92939"
					},
					"external": {
						"funcInContract()": "1918",
						"funcInContract2()": "1940"
					}
				},
				"methodIdentifiers": {
					"funcInContract()": "b8ec89f5",
					"funcInContract2()": "cc6418c2"
				}
			},
			"storageLayout": {
				"storage": [],
				"types": null
			},
			"userdoc": {
				"kind": "user",
				"methods": {},
				"version": 1
			}
		}
	}
}