{
	"34-super.sol": {
		"B": {
			"abi": [
				{
					"anonymous": false,
					"inputs": [
						{
							"indexed": false,
							"internalType": "string",
							"name": "message",
							"type": "string"
						}
					],
					"name": "Log",
					"type": "event"
				},
				{
					"inputs": [],
					"name": "funcInContract",
					"outputs": [],
					"stateMutability": "nonpayable",
					"type": "function"
				},
				{
					"inputs": [],
					"name": "funcInContract2",
					"outputs": [],
					"stateMutability": "nonpayable",
					"type": "function"
				}
			],
			"devdoc": {
				"kind": "dev",
				"methods": {},
				"version": 1
			},
			"evm": {
				"assembly": "    /* \"34-super.sol\":1189:1495  contract B is A {... */\n  mstore(0x40, 0x80)\n  callvalue\n  dup1\n  iszero\n  tag_1\n  jumpi\n  0x00\n  dup1\n  revert\ntag_1:\n  pop\n  dataSize(sub_0)\n  dup1\n  dataOffset(sub_0)\n  0x00\n  codecopy\n  0x00\n  return\nstop\n\nsub_0: assembly {\n        /* \"34-super.sol\":1189:1495  contract B is A {... */\n      mstore(0x40, 0x80)\n      callvalue\n      dup1\n      iszero\n      tag_1\n      jumpi\n      0x00\n      dup1\n      revert\n    tag_1:\n      pop\n      jumpi(tag_2, lt(calldatasize, 0x04))\n      shr(0xe0, calldataload(0x00))\n      dup1\n      0xb8ec89f5\n      eq\n      tag_3\n      jumpi\n      dup1\n      0xcc6418c2\n      eq\n      tag_4\n      jumpi\n    tag_2:\n      0x00\n      dup1\n      revert\n        /* \"34-super.sol\":1212:1345  function funcInContract() public virtual override {... */\n    tag_3:\n      tag_5\n      tag_6\n      jump\t// in\n    tag_5:\n      stop\n        /* \"34-super.sol\":1352:1492  function funcInContract2() public virtual override {... */\n    tag_4:\n      tag_7\n      tag_8\n      jump\t// in\n    tag_7:\n      stop\n        /* \"34-super.sol\":1212:1345  function funcInContract() public virtual override {... */\n    tag_6:\n        /* \"34-super.sol\":1277:1310  Log(\"B.funcInContract is called\") */\n      0xcf34ef537ac33ee1ac626ca1587a0a7e8e51561e5514f8cb36afa1c5102b3bab\n      mload(0x40)\n      tag_10\n      swap1\n      tag_11\n      jump\t// in\n    tag_10:\n      mload(0x40)\n      dup1\n      swap2\n      sub\n      swap1\n      log1\n        /* \"34-super.sol\":1320:1338  A.funcInContract() */\n      tag_12\n        /* \"34-super.sol\":1320:1336  A.funcInContract */\n      tag_13\n        /* \"34-super.sol\":1320:1338  A.funcInContract() */\n      jump\t// in\n    tag_12:\n        /* \"34-super.sol\":1212:1345  function funcInContract() public virtual override {... */\n      jump\t// out\n        /* \"34-super.sol\":1352:1492  function funcInContract2() public virtual override {... */\n    tag_8:\n        /* \"34-super.sol\":1418:1452  Log(\"B.funcInContract2 is called\") */\n      0xcf34ef537ac33ee1ac626ca1587a0a7e8e51561e5514f8cb36afa1c5102b3bab\n      mload(0x40)\n      tag_15\n      swap1\n      tag_16\n      jump\t// in\n    tag_15:\n      mload(0x40)\n      dup1\n      swap2\n      sub\n      swap1\n      log1\n        /* \"34-super.sol\":1462:1485  super.funcInContract2() */\n      tag_17\n        /* \"34-super.sol\":1462:1483  super.funcInContract2 */\n      tag_18\n        /* \"34-super.sol\":1462:1485  super.funcInContract2() */\n      jump\t// in\n    tag_17:\n        /* \"34-super.sol\":1352:1492  function funcInContract2() public virtual override {... */\n      jump\t// out\n        /* \"34-super.sol\":984:1080  function funcInContract() public virtual {... */\n    tag_13:\n        /* \"34-super.sol\":1040:1073  Log(\"A.funcInContract is called\") */\n      0xcf34ef537ac33ee1ac626ca1587a0a7e8e51561e5514f8cb36afa1c5102b3bab\n      mload(0x40)\n      tag_20\n      swap1\n      tag_21\n      jump\t// in\n    tag_20:\n      mload(0x40)\n      dup1\n      swap2\n      sub\n      swap1\n      log1\n        /* \"34-super.sol\":984:1080  function funcInContract() public virtual {... */\n      jump\t// out\n        /* \"34-super.sol\":1087:1185  function funcInContract2() public virtual {... */\n    tag_18:\n        /* \"34-super.sol\":1144:1178  Log(\"A.funcInContract2 is called\") */\n      0xcf34ef537ac33ee1ac626ca1587a0a7e8e51561e5514f8cb36afa1c5102b3bab\n      mload(0x40)\n      tag_23\n      swap1\n      tag_24\n      jump\t// in\n    tag_23:\n      mload(0x40)\n      dup1\n      swap2\n      sub\n      swap1\n      log1\n        /* \"34-super.sol\":1087:1185  function funcInContract2() public virtual {... */\n      jump\t// out\n        /* \"#utility.yul\":7:176   */\n    tag_25:\n        /* \"#utility.yul\":91:102   */\n      0x00\n        /* \"#utility.yul\":125:131   */\n      dup3\n        /* \"#utility.yul\":120:123   */\n      dup3\n        /* \"#utility.yul\":113:132   */\n      mstore\n        /* \"#utility.yul\":165:169   */\n      0x20\n        /* \"#utility.yul\":160:163   */\n      dup3\n        /* \"#utility.yul\":156:170   */\n      add\n        /* \"#utility.yul\":141:170   */\n      swap1\n      pop\n        /* \"#utility.yul\":7:176   */\n      swap3\n      swap2\n      pop\n      pop\n      jump\t// out\n        /* \"#utility.yul\":182:358   */\n    tag_26:\n        /* \"#utility.yul\":322:350   */\n      0x422e66756e63496e436f6e74726163742069732063616c6c6564000000000000\n        /* \"#utility.yul\":318:319   */\n      0x00\n        /* \"#utility.yul\":310:316   */\n      dup3\n        /* \"#utility.yul\":306:320   */\n      add\n        /* \"#utility.yul\":299:351   */\n      mstore\n        /* \"#utility.yul\":182:358   */\n      pop\n      jump\t// out\n        /* \"#utility.yul\":364:730   */\n    tag_27:\n        /* \"#utility.yul\":506:509   */\n      0x00\n        /* \"#utility.yul\":527:594   */\n      tag_38\n        /* \"#utility.yul\":591:593   */\n      0x1a\n        /* \"#utility.yul\":586:589   */\n      dup4\n        /* \"#utility.yul\":527:594   */\n      tag_25\n      jump\t// in\n    tag_38:\n        /* \"#utility.yul\":520:594   */\n      swap2\n      pop\n        /* \"#utility.yul\":603:696   */\n      tag_39\n        /* \"#utility.yul\":692:695   */\n      dup3\n        /* \"#utility.yul\":603:696   */\n      tag_26\n      jump\t// in\n    tag_39:\n        /* \"#utility.yul\":721:723   */\n      0x20\n        /* \"#utility.yul\":716:719   */\n      dup3\n        /* \"#utility.yul\":712:724   */\n      add\n        /* \"#utility.yul\":705:724   */\n      swap1\n      pop\n        /* \"#utility.yul\":364:730   */\n      swap2\n      swap1\n      pop\n      jump\t// out\n        /* \"#utility.yul\":736:1155   */\n    tag_11:\n        /* \"#utility.yul\":902:906   */\n      0x00\n        /* \"#utility.yul\":940:942   */\n      0x20\n        /* \"#utility.yul\":929:938   */\n      dup3\n        /* \"#utility.yul\":925:943   */\n      add\n        /* \"#utility.yul\":917:943   */\n      swap1\n      pop\n        /* \"#utility.yul\":989:998   */\n      dup2\n        /* \"#utility.yul\":983:987   */\n      dup2\n        /* \"#utility.yul\":979:999   */\n      sub\n        /* \"#utility.yul\":975:976   */\n      0x00\n        /* \"#utility.yul\":964:973   */\n      dup4\n        /* \"#utility.yul\":960:977   */\n      add\n        /* \"#utility.yul\":953:1000   */\n      mstore\n        /* \"#utility.yul\":1017:1148   */\n      tag_41\n        /* \"#utility.yul\":1143:1147   */\n      dup2\n        /* \"#utility.yul\":1017:1148   */\n      tag_27\n      jump\t// in\n    tag_41:\n        /* \"#utility.yul\":1009:1148   */\n      swap1\n      pop\n        /* \"#utility.yul\":736:1155   */\n      swap2\n      swap1\n      pop\n      jump\t// out\n        /* \"#utility.yul\":1161:1338   */\n    tag_28:\n        /* \"#utility.yul\":1301:1330   */\n      0x422e66756e63496e436f6e7472616374322069732063616c6c65640000000000\n        /* \"#utility.yul\":1297:1298   */\n      0x00\n        /* \"#utility.yul\":1289:1295   */\n      dup3\n        /* \"#utility.yul\":1285:1299   */\n      add\n        /* \"#utility.yul\":1278:1331   */\n      mstore\n        /* \"#utility.yul\":1161:1338   */\n      pop\n      jump\t// out\n        /* \"#utility.yul\":1344:1710   */\n    tag_29:\n        /* \"#utility.yul\":1486:1489   */\n      0x00\n        /* \"#utility.yul\":1507:1574   */\n      tag_44\n        /* \"#utility.yul\":1571:1573   */\n      0x1b\n        /* \"#utility.yul\":1566:1569   */\n      dup4\n        /* \"#utility.yul\":1507:1574   */\n      tag_25\n      jump\t// in\n    tag_44:\n        /* \"#utility.yul\":1500:1574   */\n      swap2\n      pop\n        /* \"#utility.yul\":1583:1676   */\n      tag_45\n        /* \"#utility.yul\":1672:1675   */\n      dup3\n        /* \"#utility.yul\":1583:1676   */\n      tag_28\n      jump\t// in\n    tag_45:\n        /* \"#utility.yul\":1701:1703   */\n      0x20\n        /* \"#utility.yul\":1696:1699   */\n      dup3\n        /* \"#utility.yul\":1692:1704   */\n      add\n        /* \"#utility.yul\":1685:1704   */\n      swap1\n      pop\n        /* \"#utility.yul\":1344:1710   */\n      swap2\n      swap1\n      pop\n      jump\t// out\n        /* \"#utility.yul\":1716:2135   */\n    tag_16:\n        /* \"#utility.yul\":1882:1886   */\n      0x00\n        /* \"#utility.yul\":1920:1922   */\n      0x20\n        /* \"#utility.yul\":1909:1918   */\n      dup3\n        /* \"#utility.yul\":1905:1923   */\n      add\n        /* \"#utility.yul\":1897:1923   */\n      swap1\n      pop\n        /* \"#utility.yul\":1969:1978   */\n      dup2\n        /* \"#utility.yul\":1963:1967   */\n      dup2\n        /* \"#utility.yul\":1959:1979   */\n      sub\n        /* \"#utility.yul\":1955:1956   */\n      0x00\n        /* \"#utility.yul\":1944:1953   */\n      dup4\n        /* \"#utility.yul\":1940:1957   */\n      add\n        /* \"#utility.yul\":1933:1980   */\n      mstore\n        /* \"#utility.yul\":1997:2128   */\n      tag_47\n        /* \"#utility.yul\":2123:2127   */\n      dup2\n        /* \"#utility.yul\":1997:2128   */\n      tag_29\n      jump\t// in\n    tag_47:\n        /* \"#utility.yul\":1989:2128   */\n      swap1\n      pop\n        /* \"#utility.yul\":1716:2135   */\n      swap2\n      swap1\n      pop\n      jump\t// out\n        /* \"#utility.yul\":2141:2317   */\n    tag_30:\n        /* \"#utility.yul\":2281:2309   */\n      0x412e66756e63496e436f6e74726163742069732063616c6c6564000000000000\n        /* \"#utility.yul\":2277:2278   */\n      0x00\n        /* \"#utility.yul\":2269:2275   */\n      dup3\n        /* \"#utility.yul\":2265:2279   */\n      add\n        /* \"#utility.yul\":2258:2310   */\n      mstore\n        /* \"#utility.yul\":2141:2317   */\n      pop\n      jump\t// out\n        /* \"#utility.yul\":2323:2689   */\n    tag_31:\n        /* \"#utility.yul\":2465:2468   */\n      0x00\n        /* \"#utility.yul\":2486:2553   */\n      tag_50\n        /* \"#utility.yul\":2550:2552   */\n      0x1a\n        /* \"#utility.yul\":2545:2548   */\n      dup4\n        /* \"#utility.yul\":2486:2553   */\n      tag_25\n      jump\t// in\n    tag_50:\n        /* \"#utility.yul\":2479:2553   */\n      swap2\n      pop\n        /* \"#utility.yul\":2562:2655   */\n      tag_51\n        /* \"#utility.yul\":2651:2654   */\n      dup3\n        /* \"#utility.yul\":2562:2655   */\n      tag_30\n      jump\t// in\n    tag_51:\n        /* \"#utility.yul\":2680:2682   */\n      0x20\n        /* \"#utility.yul\":2675:2678   */\n      dup3\n        /* \"#utility.yul\":2671:2683   */\n      add\n        /* \"#utility.yul\":2664:2683   */\n      swap1\n      pop\n        /* \"#utility.yul\":2323:2689   */\n      swap2\n      swap1\n      pop\n      jump\t// out\n        /* \"#utility.yul\":2695:3114   */\n    tag_21:\n        /* \"#utility.yul\":2861:2865   */\n      0x00\n        /* \"#utility.yul\":2899:2901   */\n      0x20\n        /* \"#utility.yul\":2888:2897   */\n      dup3\n        /* \"#utility.yul\":2884:2902   */\n      add\n        /* \"#utility.yul\":2876:2902   */\n      swap1\n      pop\n        /* \"#utility.yul\":2948:2957   */\n      dup2\n        /* \"#utility.yul\":2942:2946   */\n      dup2\n        /* \"#utility.yul\":2938:2958   */\n      sub\n        /* \"#utility.yul\":2934:2935   */\n      0x00\n        /* \"#utility.yul\":2923:2932   */\n      dup4\n        /* \"#utility.yul\":2919:2936   */\n      add\n        /* \"#utility.yul\":2912:2959   */\n      mstore\n        /* \"#utility.yul\":2976:3107   */\n      tag_53\n        /* \"#utility.yul\":3102:3106   */\n      dup2\n        /* \"#utility.yul\":2976:3107   */\n      tag_31\n      jump\t// in\n    tag_53:\n        /* \"#utility.yul\":2968:3107   */\n      swap1\n      pop\n        /* \"#utility.yul\":2695:3114   */\n      swap2\n      swap1\n      pop\n      jump\t// out\n        /* \"#utility.yul\":3120:3297   */\n    tag_32:\n        /* \"#utility.yul\":3260:3289   */\n      0x412e66756e63496e436f6e7472616374322069732063616c6c65640000000000\n        /* \"#utility.yul\":3256:3257   */\n      0x00\n        /* \"#utility.yul\":3248:3254   */\n      dup3\n        /* \"#utility.yul\":3244:3258   */\n      add\n        /* \"#utility.yul\":3237:3290   */\n      mstore\n        /* \"#utility.yul\":3120:3297   */\n      pop\n      jump\t// out\n        /* \"#utility.yul\":3303:3669   */\n    tag_33:\n        /* \"#utility.yul\":3445:3448   */\n      0x00\n        /* \"#utility.yul\":3466:3533   */\n      tag_56\n        /* \"#utility.yul\":3530:3532   */\n      0x1b\n        /* \"#utility.yul\":3525:3528   */\n      dup4\n        /* \"#utility.yul\":3466:3533   */\n      tag_25\n      jump\t// in\n    tag_56:\n        /* \"#utility.yul\":3459:3533   */\n      swap2\n      pop\n        /* \"#utility.yul\":3542:3635   */\n      tag_57\n        /* \"#utility.yul\":3631:3634   */\n      dup3\n        /* \"#utility.yul\":3542:3635   */\n      tag_32\n      jump\t// in\n    tag_57:\n        /* \"#utility.yul\":3660:3662   */\n      0x20\n        /* \"#utility.yul\":3655:3658   */\n      dup3\n        /* \"#utility.yul\":3651:3663   */\n      add\n        /* \"#utility.yul\":3644:3663   */\n      swap1\n      pop\n        /* \"#utility.yul\":3303:3669   */\n      swap2\n      swap1\n      pop\n      jump\t// out\n        /* \"#utility.yul\":3675:4094   */\n    tag_24:\n        /* \"#utility.yul\":3841:3845   */\n      0x00\n        /* \"#utility.yul\":3879:3881   */\n      0x20\n        /* \"#utility.yul\":3868:3877   */\n      dup3\n        /* \"#utility.yul\":3864:3882   */\n      add\n        /* \"#utility.yul\":3856:3882   */\n      swap1\n      pop\n        /* \"#utility.yul\":3928:3937   */\n      dup2\n        /* \"#utility.yul\":3922:3926   */\n      dup2\n        /* \"#utility.yul\":3918:3938   */\n      sub\n        /* \"#utility.yul\":3914:3915   */\n      0x00\n        /* \"#utility.yul\":3903:3912   */\n      dup4\n        /* \"#utility.yul\":3899:3916   */\n      add\n        /* \"#utility.yul\":3892:3939   */\n      mstore\n        /* \"#utility.yul\":3956:4087   */\n      tag_59\n        /* \"#utility.yul\":4082:4086   */\n      dup2\n        /* \"#utility.yul\":3956:4087   */\n      tag_33\n      jump\t// in\n    tag_59:\n        /* \"#utility.yul\":3948:4087   */\n      swap1\n      pop\n        /* \"#utility.yul\":3675:4094   */\n      swap2\n      swap1\n      pop\n      jump\t// out\n\n    auxdata: 0xa2646970667358221220c5391be13f188dec6cec8b89d8f28713e6e5d684a78cbb9f77961e922c56830e64736f6c63430008160033\n}\n",
				"bytecode": {
					"linkReferences": {},
					"object": "608060405234801561000f575f80fd5b5061031e8061001d5f395ff3fe608060405234801561000f575f80fd5b5060043610610034575f3560e01c8063b8ec89f514610038578063cc6418c214610042575b5f80fd5b61004061004c565b005b61004a61008b565b005b7fcf34ef537ac33ee1ac626ca1587a0a7e8e51561e5514f8cb36afa1c5102b3bab60405161007990610192565b60405180910390a16100896100ca565b565b7fcf34ef537ac33ee1ac626ca1587a0a7e8e51561e5514f8cb36afa1c5102b3bab6040516100b8906101fa565b60405180910390a16100c8610101565b565b7fcf34ef537ac33ee1ac626ca1587a0a7e8e51561e5514f8cb36afa1c5102b3bab6040516100f790610262565b60405180910390a1565b7fcf34ef537ac33ee1ac626ca1587a0a7e8e51561e5514f8cb36afa1c5102b3bab60405161012e906102ca565b60405180910390a1565b5f82825260208201905092915050565b7f422e66756e63496e436f6e74726163742069732063616c6c65640000000000005f82015250565b5f61017c601a83610138565b915061018782610148565b602082019050919050565b5f6020820190508181035f8301526101a981610170565b9050919050565b7f422e66756e63496e436f6e7472616374322069732063616c6c656400000000005f82015250565b5f6101e4601b83610138565b91506101ef826101b0565b602082019050919050565b5f6020820190508181035f830152610211816101d8565b9050919050565b7f412e66756e63496e436f6e74726163742069732063616c6c65640000000000005f82015250565b5f61024c601a83610138565b915061025782610218565b602082019050919050565b5f6020820190508181035f83015261027981610240565b9050919050565b7f412e66756e63496e436f6e7472616374322069732063616c6c656400000000005f82015250565b5f6102b4601b83610138565b91506102bf82610280565b602082019050919050565b5f6020820190508181035f8301526102e1816102a8565b905091905056fea2646970667358221220c5391be13f188dec6cec8b89d8f28713e6e5d684a78cbb9f77961e922c56830e64736f6c63430008160033",
					"opcodes": "PUSH1 0x80 PUSH1 0x40 MSTORE CALLVALUE DUP1 ISZERO PUSH2 0xF JUMPI PUSH0 DUP1 REVERT JUMPDEST POP PUSH2 0x31E DUP1 PUSH2 0x1D PUSH0 CODECOPY PUSH0 RETURN INVALID PUSH1 0x80 PUSH1 0x40 MSTORE CALLVALUE DUP1 ISZERO PUSH2 0xF JUMPI PUSH0 DUP1 REVERT JUMPDEST POP PUSH1 0x4 CALLDATASIZE LT PUSH2 0x34 JUMPI PUSH0 CALLDATALOAD PUSH1 0xE0 SHR DUP1 PUSH4 0xB8EC89F5 EQ PUSH2 0x38 JUMPI DUP1 PUSH4 0xCC6418C2 EQ PUSH2 0x42 JUMPI JUMPDEST PUSH0 DUP1 REVERT JUMPDEST PUSH2 0x40 PUSH2 0x4C JUMP JUMPDEST STOP JUMPDEST PUSH2 0x4A PUSH2 0x8B JUMP JUMPDEST STOP JUMPDEST PUSH32 0xCF34EF537AC33EE1AC626CA1587A0A7E8E51561E5514F8CB36AFA1C5102B3BAB PUSH1 0x40 MLOAD PUSH2 0x79 SWAP1 PUSH2 0x192 JUMP JUMPDEST PUSH1 0x40 MLOAD DUP1 SWAP2 SUB SWAP1 LOG1 PUSH2 0x89 PUSH2 0xCA JUMP JUMPDEST JUMP JUMPDEST PUSH32 0xCF34EF537AC33EE1AC626CA1587A0A7E8E51561E5514F8CB36AFA1C5102B3BAB PUSH1 0x40 MLOAD PUSH2 0xB8 SWAP1 PUSH2 0x1FA JUMP JUMPDEST PUSH1 0x40 MLOAD DUP1 SWAP2 SUB SWAP1 LOG1 PUSH2 0xC8 PUSH2 0x101 JUMP JUMPDEST JUMP JUMPDEST PUSH32 0xCF34EF537AC33EE1AC626CA1587A0A7E8E51561E5514F8CB36AFA1C5102B3BAB PUSH1 0x40 MLOAD PUSH2 0xF7 SWAP1 PUSH2 0x262 JUMP JUMPDEST PUSH1 0x40 MLOAD DUP1 SWAP2 SUB SWAP1 LOG1 JUMP JUMPDEST PUSH32 0xCF34EF537AC33EE1AC626CA1587A0A7E8E51561E5514F8CB36AFA1C5102B3BAB PUSH1 0x40 MLOAD PUSH2 0x12E SWAP1 PUSH2 0x2CA JUMP JUMPDEST PUSH1 0x40 MLOAD DUP1 SWAP2 SUB SWAP1 LOG1 JUMP JUMPDEST PUSH0 DUP3 DUP3 MSTORE PUSH1 0x20 DUP3 ADD SWAP1 POP SWAP3 SWAP2 POP POP JUMP JUMPDEST PUSH32 0x422E66756E63496E436F6E74726163742069732063616C6C6564000000000000 PUSH0 DUP3 ADD MSTORE POP JUMP JUMPDEST PUSH0 PUSH2 0x17C PUSH1 0x1A DUP4 PUSH2 0x138 JUMP JUMPDEST SWAP2 POP PUSH2 0x187 DUP3 PUSH2 0x148 JUMP JUMPDEST PUSH1 0x20 DUP3 ADD SWAP1 POP SWAP2 SWAP1 POP JUMP JUMPDEST PUSH0 PUSH1 0x20 DUP3 ADD SWAP1 POP DUP2 DUP2 SUB PUSH0 DUP4 ADD MSTORE PUSH2 0x1A9 DUP2 PUSH2 0x170 JUMP JUMPDEST SWAP1 POP SWAP2 SWAP1 POP JUMP JUMPDEST PUSH32 0x422E66756E63496E436F6E7472616374322069732063616C6C65640000000000 PUSH0 DUP3 ADD MSTORE POP JUMP JUMPDEST PUSH0 PUSH2 0x1E4 PUSH1 0x1B DUP4 PUSH2 0x138 JUMP JUMPDEST SWAP2 POP PUSH2 0x1EF DUP3 PUSH2 0x1B0 JUMP JUMPDEST PUSH1 0x20 DUP3 ADD SWAP1 POP SWAP2 SWAP1 POP JUMP JUMPDEST PUSH0 PUSH1 0x20 DUP3 ADD SWAP1 POP DUP2 DUP2 SUB PUSH0 DUP4 ADD MSTORE PUSH2 0x211 DUP2 PUSH2 0x1D8 JUMP JUMPDEST SWAP1 POP SWAP2 SWAP1 POP JUMP JUMPDEST PUSH32 0x412E66756E63496E436F6E74726163742069732063616C6C6564000000000000 PUSH0 DUP3 ADD MSTORE POP JUMP JUMPDEST PUSH0 PUSH2 0x24C PUSH1 0x1A DUP4 PUSH2 0x138 JUMP JUMPDEST SWAP2 POP PUSH2 0x257 DUP3 PUSH2 0x218 JUMP JUMPDEST PUSH1 0x20 DUP3 ADD SWAP1 POP SWAP2 SWAP1 POP JUMP JUMPDEST PUSH0 PUSH1 0x20 DUP3 ADD SWAP1 POP DUP2 DUP2 SUB PUSH0 DUP4 ADD MSTORE PUSH2 0x279 DUP2 PUSH2 0x240 JUMP JUMPDEST SWAP1 POP SWAP2 SWAP1 POP JUMP JUMPDEST PUSH32 0x412E66756E63496E436F6E7472616374322069732063616C6C65640000000000 PUSH0 DUP3 ADD MSTORE POP JUMP JUMPDEST PUSH0 PUSH2 0x2B4 PUSH1 0x1B DUP4 PUSH2 0x138 JUMP JUMPDEST SWAP2 POP PUSH2 0x2BF DUP3 PUSH2 0x280 JUMP JUMPDEST PUSH1 0x20 DUP3 ADD SWAP1 POP SWAP2 SWAP1 POP JUMP JUMPDEST PUSH0 PUSH1 0x20 DUP3 ADD SWAP1 POP DUP2 DUP2 SUB PUSH0 DUP4 ADD MSTORE PUSH2 0x2E1 DUP2 PUSH2 0x2A8 JUMP JUMPDEST SWAP1 POP SWAP2 SWAP1 POP JUMP INVALID LOG2 PUSH5 0x6970667358 0x22 SLT KECCAK256 0xC5 CODECOPY SHL 0xE1 EXTCODEHASH XOR DUP14 0xEC PUSH13 0xEC8B89D8F28713E6E5D684A78C 0xBB SWAP16 PUSH24 0x961E922C56830E64736F6C63430008160033000000000000 "
				},
				"gasEstimates": {
					"creation": {
						"codeDepositCost": "159600",
						"executionCost": "200",
						"totalCost": "159800"
					},
					"external": {
						"funcInContract()": "infinite",
						"funcInContract2()": "infinite"
					}
				},
				"methodIdentifiers": {
					"funcInContract()": "b8ec89f5",
					"funcInContract2()": "cc6418c2"
				}
			},
			"storageLayout": {
				"storage": [],
				"types": null
			},
			"userdoc": {
				"kind": "user",
				"methods": {},
				"version": 1
			}
		}
	}
}