{
	"17-Assert.sol": {
		"Assert": {
			"abi": [
				{
					"inputs": [
						{
							"internalType": "uint256",
							"name": "_num1",
							"type": "uint256"
						},
						{
							"internalType": "uint256",
							"name": "_num2",
							"type": "uint256"
						}
					],
					"name": "checkValue",
					"outputs": [
						{
							"internalType": "bool",
							"name": "",
							"type": "bool"
						}
					],
					"stateMutability": "nonpayable",
					"type": "function"
				},
				{
					"inputs": [],
					"name": "getResult",
					"outputs": [
						{
							"internalType": "string",
							"name": "",
							"type": "string"
						}
					],
					"stateMutability": "view",
					"type": "function"
				},
				{
					"inputs": [],
					"name": "result",
					"outputs": [
						{
							"internalType": "bool",
							"name": "",
							"type": "bool"
						}
					],
					"stateMutability": "view",
					"type": "function"
				}
			],
			"devdoc": {
				"kind": "dev",
				"methods": {},
				"version": 1
			},
			"evm": {
				"assembly": "    /* \"17-Assert.sol\":174:620  contract Assert {... */\n  mstore(0x40, 0x80)\n  callvalue\n  dup1\n  iszero\n  tag_1\n  jumpi\n  0x00\n  dup1\n  revert\ntag_1:\n  pop\n  dataSize(sub_0)\n  dup1\n  dataOffset(sub_0)\n  0x00\n  codecopy\n  0x00\n  return\nstop\n\nsub_0: assembly {\n        /* \"17-Assert.sol\":174:620  contract Assert {... */\n      mstore(0x40, 0x80)\n      callvalue\n      dup1\n      iszero\n      tag_1\n      jumpi\n      0x00\n      dup1\n      revert\n    tag_1:\n      pop\n      jumpi(tag_2, lt(calldatasize, 0x04))\n      shr(0xe0, calldataload(0x00))\n      dup1\n      0x1e979f23\n      eq\n      tag_3\n      jumpi\n      dup1\n      0x65372147\n      eq\n      tag_4\n      jumpi\n      dup1\n      0xde292789\n      eq\n      tag_5\n      jumpi\n    tag_2:\n      0x00\n      dup1\n      revert\n        /* \"17-Assert.sol\":221:412  function checkValue (uint256 _num1, uint256 _num2) public returns (bool) {... */\n    tag_3:\n      tag_6\n      0x04\n      dup1\n      calldatasize\n      sub\n      dup2\n      add\n      swap1\n      tag_7\n      swap2\n      swap1\n      tag_8\n      jump\t// in\n    tag_7:\n      tag_9\n      jump\t// in\n    tag_6:\n      mload(0x40)\n      tag_10\n      swap2\n      swap1\n      tag_11\n      jump\t// in\n    tag_10:\n      mload(0x40)\n      dup1\n      swap2\n      sub\n      swap1\n      return\n        /* \"17-Assert.sol\":196:214  bool public result */\n    tag_4:\n      tag_12\n      tag_13\n      jump\t// in\n    tag_12:\n      mload(0x40)\n      tag_14\n      swap2\n      swap1\n      tag_11\n      jump\t// in\n    tag_14:\n      mload(0x40)\n      dup1\n      swap2\n      sub\n      swap1\n      return\n        /* \"17-Assert.sol\":418:617  function getResult () public view returns (string memory) {... */\n    tag_5:\n      tag_15\n      tag_16\n      jump\t// in\n    tag_15:\n      mload(0x40)\n      tag_17\n      swap2\n      swap1\n      tag_18\n      jump\t// in\n    tag_17:\n      mload(0x40)\n      dup1\n      swap2\n      sub\n      swap1\n      return\n        /* \"17-Assert.sol\":221:412  function checkValue (uint256 _num1, uint256 _num2) public returns (bool) {... */\n    tag_9:\n        /* \"17-Assert.sol\":288:292  bool */\n      0x00\n        /* \"17-Assert.sol\":304:315  uint256 sum */\n      dup1\n        /* \"17-Assert.sol\":326:331  _num2 */\n      dup3\n        /* \"17-Assert.sol\":318:323  _num1 */\n      dup5\n        /* \"17-Assert.sol\":318:331  _num1 + _num2 */\n      tag_20\n      swap2\n      swap1\n      tag_21\n      jump\t// in\n    tag_20:\n        /* \"17-Assert.sol\":304:331  uint256 sum = _num1 + _num2 */\n      swap1\n      pop\n        /* \"17-Assert.sol\":355:358  200 */\n      0xc8\n        /* \"17-Assert.sol\":348:351  sum */\n      dup2\n        /* \"17-Assert.sol\":348:358  sum <= 200 */\n      gt\n      iszero\n        /* \"17-Assert.sol\":341:359  assert(sum <= 200) */\n      tag_22\n      jumpi\n      tag_23\n      tag_24\n      jump\t// in\n    tag_23:\n    tag_22:\n        /* \"17-Assert.sol\":378:382  true */\n      0x01\n        /* \"17-Assert.sol\":369:375  result */\n      0x00\n      dup1\n        /* \"17-Assert.sol\":369:382  result = true */\n      0x0100\n      exp\n      dup2\n      sload\n      dup2\n      0xff\n      mul\n      not\n      and\n      swap1\n      dup4\n      iszero\n      iszero\n      mul\n      or\n      swap1\n      sstore\n      pop\n        /* \"17-Assert.sol\":399:405  result */\n      0x00\n      dup1\n      sload\n      swap1\n      0x0100\n      exp\n      swap1\n      div\n      0xff\n      and\n        /* \"17-Assert.sol\":392:405  return result */\n      swap2\n      pop\n      pop\n        /* \"17-Assert.sol\":221:412  function checkValue (uint256 _num1, uint256 _num2) public returns (bool) {... */\n      swap3\n      swap2\n      pop\n      pop\n      jump\t// out\n        /* \"17-Assert.sol\":196:214  bool public result */\n    tag_13:\n      0x00\n      dup1\n      sload\n      swap1\n      0x0100\n      exp\n      swap1\n      div\n      0xff\n      and\n      dup2\n      jump\t// out\n        /* \"17-Assert.sol\":418:617  function getResult () public view returns (string memory) {... */\n    tag_16:\n        /* \"17-Assert.sol\":461:474  string memory */\n      0x60\n        /* \"17-Assert.sol\":499:503  true */\n      0x01\n        /* \"17-Assert.sol\":489:503  result == true */\n      iszero\n      iszero\n        /* \"17-Assert.sol\":489:495  result */\n      0x00\n      dup1\n      sload\n      swap1\n      0x0100\n      exp\n      swap1\n      div\n      0xff\n      and\n        /* \"17-Assert.sol\":489:503  result == true */\n      iszero\n      iszero\n      sub\n        /* \"17-Assert.sol\":486:611  if(result == true) {... */\n      tag_26\n      jumpi\n        /* \"17-Assert.sol\":519:545  return \"No overflow exist\" */\n      mload(0x40)\n      dup1\n      0x40\n      add\n      0x40\n      mstore\n      dup1\n      0x11\n      dup2\n      mstore\n      0x20\n      add\n      0x4e6f206f766572666c6f77206578697374000000000000000000000000000000\n      dup2\n      mstore\n      pop\n      swap1\n      pop\n      jump(tag_25)\n        /* \"17-Assert.sol\":486:611  if(result == true) {... */\n    tag_26:\n        /* \"17-Assert.sol\":576:600  return \"Overflow exists\" */\n      mload(0x40)\n      dup1\n      0x40\n      add\n      0x40\n      mstore\n      dup1\n      0x0f\n      dup2\n      mstore\n      0x20\n      add\n      0x4f766572666c6f77206578697374730000000000000000000000000000000000\n      dup2\n      mstore\n      pop\n      swap1\n      pop\n        /* \"17-Assert.sol\":418:617  function getResult () public view returns (string memory) {... */\n    tag_25:\n      swap1\n      jump\t// out\n        /* \"#utility.yul\":88:205   */\n    tag_29:\n        /* \"#utility.yul\":197:198   */\n      0x00\n        /* \"#utility.yul\":194:195   */\n      dup1\n        /* \"#utility.yul\":187:199   */\n      revert\n        /* \"#utility.yul\":334:411   */\n    tag_31:\n        /* \"#utility.yul\":371:378   */\n      0x00\n        /* \"#utility.yul\":400:405   */\n      dup2\n        /* \"#utility.yul\":389:405   */\n      swap1\n      pop\n        /* \"#utility.yul\":334:411   */\n      swap2\n      swap1\n      pop\n      jump\t// out\n        /* \"#utility.yul\":417:539   */\n    tag_32:\n        /* \"#utility.yul\":490:514   */\n      tag_48\n        /* \"#utility.yul\":508:513   */\n      dup2\n        /* \"#utility.yul\":490:514   */\n      tag_31\n      jump\t// in\n    tag_48:\n        /* \"#utility.yul\":483:488   */\n      dup2\n        /* \"#utility.yul\":480:515   */\n      eq\n        /* \"#utility.yul\":470:533   */\n      tag_49\n      jumpi\n        /* \"#utility.yul\":529:530   */\n      0x00\n        /* \"#utility.yul\":526:527   */\n      dup1\n        /* \"#utility.yul\":519:531   */\n      revert\n        /* \"#utility.yul\":470:533   */\n    tag_49:\n        /* \"#utility.yul\":417:539   */\n      pop\n      jump\t// out\n        /* \"#utility.yul\":545:684   */\n    tag_33:\n        /* \"#utility.yul\":591:596   */\n      0x00\n        /* \"#utility.yul\":629:635   */\n      dup2\n        /* \"#utility.yul\":616:636   */\n      calldataload\n        /* \"#utility.yul\":607:636   */\n      swap1\n      pop\n        /* \"#utility.yul\":645:678   */\n      tag_51\n        /* \"#utility.yul\":672:677   */\n      dup2\n        /* \"#utility.yul\":645:678   */\n      tag_32\n      jump\t// in\n    tag_51:\n        /* \"#utility.yul\":545:684   */\n      swap3\n      swap2\n      pop\n      pop\n      jump\t// out\n        /* \"#utility.yul\":690:1164   */\n    tag_8:\n        /* \"#utility.yul\":758:764   */\n      0x00\n        /* \"#utility.yul\":766:772   */\n      dup1\n        /* \"#utility.yul\":815:817   */\n      0x40\n        /* \"#utility.yul\":803:812   */\n      dup4\n        /* \"#utility.yul\":794:801   */\n      dup6\n        /* \"#utility.yul\":790:813   */\n      sub\n        /* \"#utility.yul\":786:818   */\n      slt\n        /* \"#utility.yul\":783:902   */\n      iszero\n      tag_53\n      jumpi\n        /* \"#utility.yul\":821:900   */\n      tag_54\n      tag_29\n      jump\t// in\n    tag_54:\n        /* \"#utility.yul\":783:902   */\n    tag_53:\n        /* \"#utility.yul\":941:942   */\n      0x00\n        /* \"#utility.yul\":966:1019   */\n      tag_55\n        /* \"#utility.yul\":1011:1018   */\n      dup6\n        /* \"#utility.yul\":1002:1008   */\n      dup3\n        /* \"#utility.yul\":991:1000   */\n      dup7\n        /* \"#utility.yul\":987:1009   */\n      add\n        /* \"#utility.yul\":966:1019   */\n      tag_33\n      jump\t// in\n    tag_55:\n        /* \"#utility.yul\":956:1019   */\n      swap3\n      pop\n        /* \"#utility.yul\":912:1029   */\n      pop\n        /* \"#utility.yul\":1068:1070   */\n      0x20\n        /* \"#utility.yul\":1094:1147   */\n      tag_56\n        /* \"#utility.yul\":1139:1146   */\n      dup6\n        /* \"#utility.yul\":1130:1136   */\n      dup3\n        /* \"#utility.yul\":1119:1128   */\n      dup7\n        /* \"#utility.yul\":1115:1137   */\n      add\n        /* \"#utility.yul\":1094:1147   */\n      tag_33\n      jump\t// in\n    tag_56:\n        /* \"#utility.yul\":1084:1147   */\n      swap2\n      pop\n        /* \"#utility.yul\":1039:1157   */\n      pop\n        /* \"#utility.yul\":690:1164   */\n      swap3\n      pop\n      swap3\n      swap1\n      pop\n      jump\t// out\n        /* \"#utility.yul\":1170:1260   */\n    tag_34:\n        /* \"#utility.yul\":1204:1211   */\n      0x00\n        /* \"#utility.yul\":1247:1252   */\n      dup2\n        /* \"#utility.yul\":1240:1253   */\n      iszero\n        /* \"#utility.yul\":1233:1254   */\n      iszero\n        /* \"#utility.yul\":1222:1254   */\n      swap1\n      pop\n        /* \"#utility.yul\":1170:1260   */\n      swap2\n      swap1\n      pop\n      jump\t// out\n        /* \"#utility.yul\":1266:1375   */\n    tag_35:\n        /* \"#utility.yul\":1347:1368   */\n      tag_59\n        /* \"#utility.yul\":1362:1367   */\n      dup2\n        /* \"#utility.yul\":1347:1368   */\n      tag_34\n      jump\t// in\n    tag_59:\n        /* \"#utility.yul\":1342:1345   */\n      dup3\n        /* \"#utility.yul\":1335:1369   */\n      mstore\n        /* \"#utility.yul\":1266:1375   */\n      pop\n      pop\n      jump\t// out\n        /* \"#utility.yul\":1381:1591   */\n    tag_11:\n        /* \"#utility.yul\":1468:1472   */\n      0x00\n        /* \"#utility.yul\":1506:1508   */\n      0x20\n        /* \"#utility.yul\":1495:1504   */\n      dup3\n        /* \"#utility.yul\":1491:1509   */\n      add\n        /* \"#utility.yul\":1483:1509   */\n      swap1\n      pop\n        /* \"#utility.yul\":1519:1584   */\n      tag_61\n        /* \"#utility.yul\":1581:1582   */\n      0x00\n        /* \"#utility.yul\":1570:1579   */\n      dup4\n        /* \"#utility.yul\":1566:1583   */\n      add\n        /* \"#utility.yul\":1557:1563   */\n      dup5\n        /* \"#utility.yul\":1519:1584   */\n      tag_35\n      jump\t// in\n    tag_61:\n        /* \"#utility.yul\":1381:1591   */\n      swap3\n      swap2\n      pop\n      pop\n      jump\t// out\n        /* \"#utility.yul\":1597:1696   */\n    tag_36:\n        /* \"#utility.yul\":1649:1655   */\n      0x00\n        /* \"#utility.yul\":1683:1688   */\n      dup2\n        /* \"#utility.yul\":1677:1689   */\n      mload\n        /* \"#utility.yul\":1667:1689   */\n      swap1\n      pop\n        /* \"#utility.yul\":1597:1696   */\n      swap2\n      swap1\n      pop\n      jump\t// out\n        /* \"#utility.yul\":1702:1871   */\n    tag_37:\n        /* \"#utility.yul\":1786:1797   */\n      0x00\n        /* \"#utility.yul\":1820:1826   */\n      dup3\n        /* \"#utility.yul\":1815:1818   */\n      dup3\n        /* \"#utility.yul\":1808:1827   */\n      mstore\n        /* \"#utility.yul\":1860:1864   */\n      0x20\n        /* \"#utility.yul\":1855:1858   */\n      dup3\n        /* \"#utility.yul\":1851:1865   */\n      add\n        /* \"#utility.yul\":1836:1865   */\n      swap1\n      pop\n        /* \"#utility.yul\":1702:1871   */\n      swap3\n      swap2\n      pop\n      pop\n      jump\t// out\n        /* \"#utility.yul\":1877:2123   */\n    tag_38:\n        /* \"#utility.yul\":1958:1959   */\n      0x00\n        /* \"#utility.yul\":1968:2081   */\n    tag_65:\n        /* \"#utility.yul\":1982:1988   */\n      dup4\n        /* \"#utility.yul\":1979:1980   */\n      dup2\n        /* \"#utility.yul\":1976:1989   */\n      lt\n        /* \"#utility.yul\":1968:2081   */\n      iszero\n      tag_67\n      jumpi\n        /* \"#utility.yul\":2067:2068   */\n      dup1\n        /* \"#utility.yul\":2062:2065   */\n      dup3\n        /* \"#utility.yul\":2058:2069   */\n      add\n        /* \"#utility.yul\":2052:2070   */\n      mload\n        /* \"#utility.yul\":2048:2049   */\n      dup2\n        /* \"#utility.yul\":2043:2046   */\n      dup5\n        /* \"#utility.yul\":2039:2050   */\n      add\n        /* \"#utility.yul\":2032:2071   */\n      mstore\n        /* \"#utility.yul\":2004:2006   */\n      0x20\n        /* \"#utility.yul\":2001:2002   */\n      dup2\n        /* \"#utility.yul\":1997:2007   */\n      add\n        /* \"#utility.yul\":1992:2007   */\n      swap1\n      pop\n        /* \"#utility.yul\":1968:2081   */\n      jump(tag_65)\n    tag_67:\n        /* \"#utility.yul\":2115:2116   */\n      0x00\n        /* \"#utility.yul\":2106:2112   */\n      dup5\n        /* \"#utility.yul\":2101:2104   */\n      dup5\n        /* \"#utility.yul\":2097:2113   */\n      add\n        /* \"#utility.yul\":2090:2117   */\n      mstore\n        /* \"#utility.yul\":1939:2123   */\n      pop\n        /* \"#utility.yul\":1877:2123   */\n      pop\n      pop\n      pop\n      jump\t// out\n        /* \"#utility.yul\":2129:2231   */\n    tag_39:\n        /* \"#utility.yul\":2170:2176   */\n      0x00\n        /* \"#utility.yul\":2221:2223   */\n      0x1f\n        /* \"#utility.yul\":2217:2224   */\n      not\n        /* \"#utility.yul\":2212:2214   */\n      0x1f\n        /* \"#utility.yul\":2205:2210   */\n      dup4\n        /* \"#utility.yul\":2201:2215   */\n      add\n        /* \"#utility.yul\":2197:2225   */\n      and\n        /* \"#utility.yul\":2187:2225   */\n      swap1\n      pop\n        /* \"#utility.yul\":2129:2231   */\n      swap2\n      swap1\n      pop\n      jump\t// out\n        /* \"#utility.yul\":2237:2614   */\n    tag_40:\n        /* \"#utility.yul\":2325:2328   */\n      0x00\n        /* \"#utility.yul\":2353:2392   */\n      tag_70\n        /* \"#utility.yul\":2386:2391   */\n      dup3\n        /* \"#utility.yul\":2353:2392   */\n      tag_36\n      jump\t// in\n    tag_70:\n        /* \"#utility.yul\":2408:2479   */\n      tag_71\n        /* \"#utility.yul\":2472:2478   */\n      dup2\n        /* \"#utility.yul\":2467:2470   */\n      dup6\n        /* \"#utility.yul\":2408:2479   */\n      tag_37\n      jump\t// in\n    tag_71:\n        /* \"#utility.yul\":2401:2479   */\n      swap4\n      pop\n        /* \"#utility.yul\":2488:2553   */\n      tag_72\n        /* \"#utility.yul\":2546:2552   */\n      dup2\n        /* \"#utility.yul\":2541:2544   */\n      dup6\n        /* \"#utility.yul\":2534:2538   */\n      0x20\n        /* \"#utility.yul\":2527:2532   */\n      dup7\n        /* \"#utility.yul\":2523:2539   */\n      add\n        /* \"#utility.yul\":2488:2553   */\n      tag_38\n      jump\t// in\n    tag_72:\n        /* \"#utility.yul\":2578:2607   */\n      tag_73\n        /* \"#utility.yul\":2600:2606   */\n      dup2\n        /* \"#utility.yul\":2578:2607   */\n      tag_39\n      jump\t// in\n    tag_73:\n        /* \"#utility.yul\":2573:2576   */\n      dup5\n        /* \"#utility.yul\":2569:2608   */\n      add\n        /* \"#utility.yul\":2562:2608   */\n      swap2\n      pop\n        /* \"#utility.yul\":2329:2614   */\n      pop\n        /* \"#utility.yul\":2237:2614   */\n      swap3\n      swap2\n      pop\n      pop\n      jump\t// out\n        /* \"#utility.yul\":2620:2933   */\n    tag_18:\n        /* \"#utility.yul\":2733:2737   */\n      0x00\n        /* \"#utility.yul\":2771:2773   */\n      0x20\n        /* \"#utility.yul\":2760:2769   */\n      dup3\n        /* \"#utility.yul\":2756:2774   */\n      add\n        /* \"#utility.yul\":2748:2774   */\n      swap1\n      pop\n        /* \"#utility.yul\":2820:2829   */\n      dup2\n        /* \"#utility.yul\":2814:2818   */\n      dup2\n        /* \"#utility.yul\":2810:2830   */\n      sub\n        /* \"#utility.yul\":2806:2807   */\n      0x00\n        /* \"#utility.yul\":2795:2804   */\n      dup4\n        /* \"#utility.yul\":2791:2808   */\n      add\n        /* \"#utility.yul\":2784:2831   */\n      mstore\n        /* \"#utility.yul\":2848:2926   */\n      tag_75\n        /* \"#utility.yul\":2921:2925   */\n      dup2\n        /* \"#utility.yul\":2912:2918   */\n      dup5\n        /* \"#utility.yul\":2848:2926   */\n      tag_40\n      jump\t// in\n    tag_75:\n        /* \"#utility.yul\":2840:2926   */\n      swap1\n      pop\n        /* \"#utility.yul\":2620:2933   */\n      swap3\n      swap2\n      pop\n      pop\n      jump\t// out\n        /* \"#utility.yul\":2939:3119   */\n    tag_41:\n        /* \"#utility.yul\":2987:3064   */\n      0x4e487b7100000000000000000000000000000000000000000000000000000000\n        /* \"#utility.yul\":2984:2985   */\n      0x00\n        /* \"#utility.yul\":2977:3065   */\n      mstore\n        /* \"#utility.yul\":3084:3088   */\n      0x11\n        /* \"#utility.yul\":3081:3082   */\n      0x04\n        /* \"#utility.yul\":3074:3089   */\n      mstore\n        /* \"#utility.yul\":3108:3112   */\n      0x24\n        /* \"#utility.yul\":3105:3106   */\n      0x00\n        /* \"#utility.yul\":3098:3113   */\n      revert\n        /* \"#utility.yul\":3125:3316   */\n    tag_21:\n        /* \"#utility.yul\":3165:3168   */\n      0x00\n        /* \"#utility.yul\":3184:3204   */\n      tag_78\n        /* \"#utility.yul\":3202:3203   */\n      dup3\n        /* \"#utility.yul\":3184:3204   */\n      tag_31\n      jump\t// in\n    tag_78:\n        /* \"#utility.yul\":3179:3204   */\n      swap2\n      pop\n        /* \"#utility.yul\":3218:3238   */\n      tag_79\n        /* \"#utility.yul\":3236:3237   */\n      dup4\n        /* \"#utility.yul\":3218:3238   */\n      tag_31\n      jump\t// in\n    tag_79:\n        /* \"#utility.yul\":3213:3238   */\n      swap3\n      pop\n        /* \"#utility.yul\":3261:3262   */\n      dup3\n        /* \"#utility.yul\":3258:3259   */\n      dup3\n        /* \"#utility.yul\":3254:3263   */\n      add\n        /* \"#utility.yul\":3247:3263   */\n      swap1\n      pop\n        /* \"#utility.yul\":3282:3285   */\n      dup1\n        /* \"#utility.yul\":3279:3280   */\n      dup3\n        /* \"#utility.yul\":3276:3286   */\n      gt\n        /* \"#utility.yul\":3273:3309   */\n      iszero\n      tag_80\n      jumpi\n        /* \"#utility.yul\":3289:3307   */\n      tag_81\n      tag_41\n      jump\t// in\n    tag_81:\n        /* \"#utility.yul\":3273:3309   */\n    tag_80:\n        /* \"#utility.yul\":3125:3316   */\n      swap3\n      swap2\n      pop\n      pop\n      jump\t// out\n        /* \"#utility.yul\":3322:3502   */\n    tag_24:\n        /* \"#utility.yul\":3370:3447   */\n      0x4e487b7100000000000000000000000000000000000000000000000000000000\n        /* \"#utility.yul\":3367:3368   */\n      0x00\n        /* \"#utility.yul\":3360:3448   */\n      mstore\n        /* \"#utility.yul\":3467:3471   */\n      0x01\n        /* \"#utility.yul\":3464:3465   */\n      0x04\n        /* \"#utility.yul\":3457:3472   */\n      mstore\n        /* \"#utility.yul\":3491:3495   */\n      0x24\n        /* \"#utility.yul\":3488:3489   */\n      0x00\n        /* \"#utility.yul\":3481:3496   */\n      revert\n\n    auxdata: 0xa2646970667358221220155d1b5fd0e5b153be800612237a32ea1d9cc266c90a517bc6fb1875f10d107164736f6c63430008160033\n}\n",
				"bytecode": {
					"linkReferences": {},
					"object": "608060405234801561000f575f80fd5b506103b88061001d5f395ff3fe608060405234801561000f575f80fd5b506004361061003f575f3560e01c80631e979f23146100435780636537214714610073578063de29278914610091575b5f80fd5b61005d600480360381019061005891906101da565b6100af565b60405161006a9190610232565b60405180910390f35b61007b610100565b6040516100889190610232565b60405180910390f35b610099610110565b6040516100a691906102d5565b60405180910390f35b5f8082846100bd9190610322565b905060c88111156100d1576100d0610355565b5b60015f806101000a81548160ff0219169083151502179055505f8054906101000a900460ff1691505092915050565b5f8054906101000a900460ff1681565b6060600115155f8054906101000a900460ff16151503610167576040518060400160405280601181526020017f4e6f206f766572666c6f7720657869737400000000000000000000000000000081525090506101a0565b6040518060400160405280600f81526020017f4f766572666c6f7720657869737473000000000000000000000000000000000081525090505b90565b5f80fd5b5f819050919050565b6101b9816101a7565b81146101c3575f80fd5b50565b5f813590506101d4816101b0565b92915050565b5f80604083850312156101f0576101ef6101a3565b5b5f6101fd858286016101c6565b925050602061020e858286016101c6565b9150509250929050565b5f8115159050919050565b61022c81610218565b82525050565b5f6020820190506102455f830184610223565b92915050565b5f81519050919050565b5f82825260208201905092915050565b5f5b83811015610282578082015181840152602081019050610267565b5f8484015250505050565b5f601f19601f8301169050919050565b5f6102a78261024b565b6102b18185610255565b93506102c1818560208601610265565b6102ca8161028d565b840191505092915050565b5f6020820190508181035f8301526102ed818461029d565b905092915050565b7f4e487b71000000000000000000000000000000000000000000000000000000005f52601160045260245ffd5b5f61032c826101a7565b9150610337836101a7565b925082820190508082111561034f5761034e6102f5565b5b92915050565b7f4e487b71000000000000000000000000000000000000000000000000000000005f52600160045260245ffdfea2646970667358221220155d1b5fd0e5b153be800612237a32ea1d9cc266c90a517bc6fb1875f10d107164736f6c63430008160033",
					"opcodes": "PUSH1 0x80 PUSH1 0x40 MSTORE CALLVALUE DUP1 ISZERO PUSH2 0xF JUMPI PUSH0 DUP1 REVERT JUMPDEST POP PUSH2 0x3B8 DUP1 PUSH2 0x1D PUSH0 CODECOPY PUSH0 RETURN INVALID PUSH1 0x80 PUSH1 0x40 MSTORE CALLVALUE DUP1 ISZERO PUSH2 0xF JUMPI PUSH0 DUP1 REVERT JUMPDEST POP PUSH1 0x4 CALLDATASIZE LT PUSH2 0x3F JUMPI PUSH0 CALLDATALOAD PUSH1 0xE0 SHR DUP1 PUSH4 0x1E979F23 EQ PUSH2 0x43 JUMPI DUP1 PUSH4 0x65372147 EQ PUSH2 0x73 JUMPI DUP1 PUSH4 0xDE292789 EQ PUSH2 0x91 JUMPI JUMPDEST PUSH0 DUP1 REVERT JUMPDEST PUSH2 0x5D PUSH1 0x4 DUP1 CALLDATASIZE SUB DUP2 ADD SWAP1 PUSH2 0x58 SWAP2 SWAP1 PUSH2 0x1DA JUMP JUMPDEST PUSH2 0xAF JUMP JUMPDEST PUSH1 0x40 MLOAD PUSH2 0x6A SWAP2 SWAP1 PUSH2 0x232 JUMP JUMPDEST PUSH1 0x40 MLOAD DUP1 SWAP2 SUB SWAP1 RETURN JUMPDEST PUSH2 0x7B PUSH2 0x100 JUMP JUMPDEST PUSH1 0x40 MLOAD PUSH2 0x88 SWAP2 SWAP1 PUSH2 0x232 JUMP JUMPDEST PUSH1 0x40 MLOAD DUP1 SWAP2 SUB SWAP1 RETURN JUMPDEST PUSH2 0x99 PUSH2 0x110 JUMP JUMPDEST PUSH1 0x40 MLOAD PUSH2 0xA6 SWAP2 SWAP1 PUSH2 0x2D5 JUMP JUMPDEST PUSH1 0x40 MLOAD DUP1 SWAP2 SUB SWAP1 RETURN JUMPDEST PUSH0 DUP1 DUP3 DUP5 PUSH2 0xBD SWAP2 SWAP1 PUSH2 0x322 JUMP JUMPDEST SWAP1 POP PUSH1 0xC8 DUP2 GT ISZERO PUSH2 0xD1 JUMPI PUSH2 0xD0 PUSH2 0x355 JUMP JUMPDEST JUMPDEST PUSH1 0x1 PUSH0 DUP1 PUSH2 0x100 EXP DUP2 SLOAD DUP2 PUSH1 0xFF MUL NOT AND SWAP1 DUP4 ISZERO ISZERO MUL OR SWAP1 SSTORE POP PUSH0 DUP1 SLOAD SWAP1 PUSH2 0x100 EXP SWAP1 DIV PUSH1 0xFF AND SWAP2 POP POP SWAP3 SWAP2 POP POP JUMP JUMPDEST PUSH0 DUP1 SLOAD SWAP1 PUSH2 0x100 EXP SWAP1 DIV PUSH1 0xFF AND DUP2 JUMP JUMPDEST PUSH1 0x60 PUSH1 0x1 ISZERO ISZERO PUSH0 DUP1 SLOAD SWAP1 PUSH2 0x100 EXP SWAP1 DIV PUSH1 0xFF AND ISZERO ISZERO SUB PUSH2 0x167 JUMPI PUSH1 0x40 MLOAD DUP1 PUSH1 0x40 ADD PUSH1 0x40 MSTORE DUP1 PUSH1 0x11 DUP2 MSTORE PUSH1 0x20 ADD PUSH32 0x4E6F206F766572666C6F77206578697374000000000000000000000000000000 DUP2 MSTORE POP SWAP1 POP PUSH2 0x1A0 JUMP JUMPDEST PUSH1 0x40 MLOAD DUP1 PUSH1 0x40 ADD PUSH1 0x40 MSTORE DUP1 PUSH1 0xF DUP2 MSTORE PUSH1 0x20 ADD PUSH32 0x4F766572666C6F77206578697374730000000000000000000000000000000000 DUP2 MSTORE POP SWAP1 POP JUMPDEST SWAP1 JUMP JUMPDEST PUSH0 DUP1 REVERT JUMPDEST PUSH0 DUP2 SWAP1 POP SWAP2 SWAP1 POP JUMP JUMPDEST PUSH2 0x1B9 DUP2 PUSH2 0x1A7 JUMP JUMPDEST DUP2 EQ PUSH2 0x1C3 JUMPI PUSH0 DUP1 REVERT JUMPDEST POP JUMP JUMPDEST PUSH0 DUP2 CALLDATALOAD SWAP1 POP PUSH2 0x1D4 DUP2 PUSH2 0x1B0 JUMP JUMPDEST SWAP3 SWAP2 POP POP JUMP JUMPDEST PUSH0 DUP1 PUSH1 0x40 DUP4 DUP6 SUB SLT ISZERO PUSH2 0x1F0 JUMPI PUSH2 0x1EF PUSH2 0x1A3 JUMP JUMPDEST JUMPDEST PUSH0 PUSH2 0x1FD DUP6 DUP3 DUP7 ADD PUSH2 0x1C6 JUMP JUMPDEST SWAP3 POP POP PUSH1 0x20 PUSH2 0x20E DUP6 DUP3 DUP7 ADD PUSH2 0x1C6 JUMP JUMPDEST SWAP2 POP POP SWAP3 POP SWAP3 SWAP1 POP JUMP JUMPDEST PUSH0 DUP2 ISZERO ISZERO SWAP1 POP SWAP2 SWAP1 POP JUMP JUMPDEST PUSH2 0x22C DUP2 PUSH2 0x218 JUMP JUMPDEST DUP3 MSTORE POP POP JUMP JUMPDEST PUSH0 PUSH1 0x20 DUP3 ADD SWAP1 POP PUSH2 0x245 PUSH0 DUP4 ADD DUP5 PUSH2 0x223 JUMP JUMPDEST SWAP3 SWAP2 POP POP JUMP JUMPDEST PUSH0 DUP2 MLOAD SWAP1 POP SWAP2 SWAP1 POP JUMP JUMPDEST PUSH0 DUP3 DUP3 MSTORE PUSH1 0x20 DUP3 ADD SWAP1 POP SWAP3 SWAP2 POP POP JUMP JUMPDEST PUSH0 JUMPDEST DUP4 DUP2 LT ISZERO PUSH2 0x282 JUMPI DUP1 DUP3 ADD MLOAD DUP2 DUP5 ADD MSTORE PUSH1 0x20 DUP2 ADD SWAP1 POP PUSH2 0x267 JUMP JUMPDEST PUSH0 DUP5 DUP5 ADD MSTORE POP POP POP POP JUMP JUMPDEST PUSH0 PUSH1 0x1F NOT PUSH1 0x1F DUP4 ADD AND SWAP1 POP SWAP2 SWAP1 POP JUMP JUMPDEST PUSH0 PUSH2 0x2A7 DUP3 PUSH2 0x24B JUMP JUMPDEST PUSH2 0x2B1 DUP2 DUP6 PUSH2 0x255 JUMP JUMPDEST SWAP4 POP PUSH2 0x2C1 DUP2 DUP6 PUSH1 0x20 DUP7 ADD PUSH2 0x265 JUMP JUMPDEST PUSH2 0x2CA DUP2 PUSH2 0x28D JUMP JUMPDEST DUP5 ADD SWAP2 POP POP SWAP3 SWAP2 POP POP JUMP JUMPDEST PUSH0 PUSH1 0x20 DUP3 ADD SWAP1 POP DUP2 DUP2 SUB PUSH0 DUP4 ADD MSTORE PUSH2 0x2ED DUP2 DUP5 PUSH2 0x29D JUMP JUMPDEST SWAP1 POP SWAP3 SWAP2 POP POP JUMP JUMPDEST PUSH32 0x4E487B7100000000000000000000000000000000000000000000000000000000 PUSH0 MSTORE PUSH1 0x11 PUSH1 0x4 MSTORE PUSH1 0x24 PUSH0 REVERT JUMPDEST PUSH0 PUSH2 0x32C DUP3 PUSH2 0x1A7 JUMP JUMPDEST SWAP2 POP PUSH2 0x337 DUP4 PUSH2 0x1A7 JUMP JUMPDEST SWAP3 POP DUP3 DUP3 ADD SWAP1 POP DUP1 DUP3 GT ISZERO PUSH2 0x34F JUMPI PUSH2 0x34E PUSH2 0x2F5 JUMP JUMPDEST JUMPDEST SWAP3 SWAP2 POP POP JUMP JUMPDEST PUSH32 0x4E487B7100000000000000000000000000000000000000000000000000000000 PUSH0 MSTORE PUSH1 0x1 PUSH1 0x4 MSTORE PUSH1 0x24 PUSH0 REVERT INVALID LOG2 PUSH5 0x6970667358 0x22 SLT KECCAK256 ISZERO 0x5D SHL PUSH0 0xD0 0xE5 0xB1 MSTORE8 0xBE DUP1 MOD SLT 0x23 PUSH27 0x32EA1D9CC266C90A517BC6FB1875F10D107164736F6C6343000816 STOP CALLER "
				},
				"gasEstimates": {
					"creation": {
						"codeDepositCost": "190400",
						"executionCost": "230",
						"totalCost": "190630"
					},
					"external": {
						"checkValue(uint256,uint256)": "infinite",
						"getResult()": "infinite",
						"result()": "2463"
					}
				},
				"methodIdentifiers": {
					"checkValue(uint256,uint256)": "1e979f23",
					"getResult()": "de292789",
					"result()": "65372147"
				}
			},
			"storageLayout": {
				"storage": [
					{
						"astId": 3,
						"contract": "17-Assert.sol:Assert",
						"label": "result",
						"offset": 0,
						"slot": "0",
						"type": "t_bool"
					}
				],
				"types": {
					"t_bool": {
						"encoding": "inplace",
						"label": "bool",
						"numberOfBytes": "1"
					}
				}
			},
			"userdoc": {
				"kind": "user",
				"methods": {},
				"version": 1
			}
		}
	}
}