{
	"9-pureKeyword.sol": {
		"Pure": {
			"abi": [
				{
					"inputs": [],
					"name": "getDataWithPure",
					"outputs": [
						{
							"internalType": "uint256",
							"name": "",
							"type": "uint256"
						},
						{
							"internalType": "uint256",
							"name": "",
							"type": "uint256"
						}
					],
					"stateMutability": "pure",
					"type": "function"
				},
				{
					"inputs": [],
					"name": "getDataWithView",
					"outputs": [
						{
							"internalType": "uint256",
							"name": "",
							"type": "uint256"
						},
						{
							"internalType": "uint256",
							"name": "",
							"type": "uint256"
						}
					],
					"stateMutability": "view",
					"type": "function"
				}
			],
			"devdoc": {
				"kind": "dev",
				"methods": {},
				"version": 1
			},
			"evm": {
				"assembly": "    /* \"9-pureKeyword.sol\":58:1275  contract Pure {... */\n  mstore(0x40, 0x80)\n    /* \"9-pureKeyword.sol\":104:105  4 */\n  0x04\n    /* \"9-pureKeyword.sol\":78:105  uint256 GlobalVariable1 = 4 */\n  0x00\n  sstore\n    /* \"9-pureKeyword.sol\":137:138  2 */\n  0x02\n    /* \"9-pureKeyword.sol\":111:138  uint256 GlobalVariable2 = 2 */\n  0x01\n  sstore\n    /* \"9-pureKeyword.sol\":58:1275  contract Pure {... */\n  callvalue\n  dup1\n  iszero\n  tag_1\n  jumpi\n  0x00\n  dup1\n  revert\ntag_1:\n  pop\n  dataSize(sub_0)\n  dup1\n  dataOffset(sub_0)\n  0x00\n  codecopy\n  0x00\n  return\nstop\n\nsub_0: assembly {\n        /* \"9-pureKeyword.sol\":58:1275  contract Pure {... */\n      mstore(0x40, 0x80)\n      callvalue\n      dup1\n      iszero\n      tag_1\n      jumpi\n      0x00\n      dup1\n      revert\n    tag_1:\n      pop\n      jumpi(tag_2, lt(calldatasize, 0x04))\n      shr(0xe0, calldataload(0x00))\n      dup1\n      0x701d9843\n      eq\n      tag_3\n      jumpi\n      dup1\n      0xdd34cb73\n      eq\n      tag_4\n      jumpi\n    tag_2:\n      0x00\n      dup1\n      revert\n        /* \"9-pureKeyword.sol\":901:1270  function getDataWithView() public view returns (uint256, uint256) {... */\n    tag_3:\n      tag_5\n      tag_6\n      jump\t// in\n    tag_5:\n      mload(0x40)\n      tag_7\n      swap3\n      swap2\n      swap1\n      tag_8\n      jump\t// in\n    tag_7:\n      mload(0x40)\n      dup1\n      swap2\n      sub\n      swap1\n      return\n        /* \"9-pureKeyword.sol\":330:711  function getDataWithPure() public pure returns (uint256, uint256) {... */\n    tag_4:\n      tag_9\n      tag_10\n      jump\t// in\n    tag_9:\n      mload(0x40)\n      tag_11\n      swap3\n      swap2\n      swap1\n      tag_8\n      jump\t// in\n    tag_11:\n      mload(0x40)\n      dup1\n      swap2\n      sub\n      swap1\n      return\n        /* \"9-pureKeyword.sol\":901:1270  function getDataWithView() public view returns (uint256, uint256) {... */\n    tag_6:\n        /* \"9-pureKeyword.sol\":949:956  uint256 */\n      0x00\n        /* \"9-pureKeyword.sol\":958:965  uint256 */\n      dup1\n        /* \"9-pureKeyword.sol\":1063:1078  uint256 product */\n      0x00\n        /* \"9-pureKeyword.sol\":1099:1114  GlobalVariable2 */\n      sload(0x01)\n        /* \"9-pureKeyword.sol\":1081:1096  GlobalVariable1 */\n      sload(0x00)\n        /* \"9-pureKeyword.sol\":1081:1114  GlobalVariable1 * GlobalVariable2 */\n      tag_13\n      swap2\n      swap1\n      tag_14\n      jump\t// in\n    tag_13:\n        /* \"9-pureKeyword.sol\":1063:1114  uint256 product = GlobalVariable1 * GlobalVariable2 */\n      swap1\n      pop\n        /* \"9-pureKeyword.sol\":1124:1135  uint256 sum */\n      0x00\n        /* \"9-pureKeyword.sol\":1156:1171  GlobalVariable2 */\n      sload(0x01)\n        /* \"9-pureKeyword.sol\":1138:1153  GlobalVariable1 */\n      sload(0x00)\n        /* \"9-pureKeyword.sol\":1138:1171  GlobalVariable1 + GlobalVariable2 */\n      tag_15\n      swap2\n      swap1\n      tag_16\n      jump\t// in\n    tag_15:\n        /* \"9-pureKeyword.sol\":1124:1171  uint256 sum = GlobalVariable1 + GlobalVariable2 */\n      swap1\n      pop\n        /* \"9-pureKeyword.sol\":1250:1257  product */\n      dup2\n        /* \"9-pureKeyword.sol\":1259:1262  sum */\n      dup2\n        /* \"9-pureKeyword.sol\":1242:1263  return (product, sum) */\n      swap4\n      pop\n      swap4\n      pop\n      pop\n      pop\n        /* \"9-pureKeyword.sol\":901:1270  function getDataWithView() public view returns (uint256, uint256) {... */\n      swap1\n      swap2\n      jump\t// out\n        /* \"9-pureKeyword.sol\":330:711  function getDataWithPure() public pure returns (uint256, uint256) {... */\n    tag_10:\n        /* \"9-pureKeyword.sol\":378:385  uint256 */\n      0x00\n        /* \"9-pureKeyword.sol\":387:394  uint256 */\n      dup1\n        /* \"9-pureKeyword.sol\":443:465  uint256 LocalVariable1 */\n      0x00\n        /* \"9-pureKeyword.sol\":468:469  8 */\n      0x08\n        /* \"9-pureKeyword.sol\":443:469  uint256 LocalVariable1 = 8 */\n      swap1\n      pop\n        /* \"9-pureKeyword.sol\":479:501  uint256 LocalVariable2 */\n      0x00\n        /* \"9-pureKeyword.sol\":504:505  4 */\n      0x04\n        /* \"9-pureKeyword.sol\":479:505  uint256 LocalVariable2 = 4 */\n      swap1\n      pop\n        /* \"9-pureKeyword.sol\":516:531  uint256 product */\n      0x00\n        /* \"9-pureKeyword.sol\":551:565  LocalVariable2 */\n      dup2\n        /* \"9-pureKeyword.sol\":534:548  LocalVariable1 */\n      dup4\n        /* \"9-pureKeyword.sol\":534:565  LocalVariable1 * LocalVariable2 */\n      tag_18\n      swap2\n      swap1\n      tag_14\n      jump\t// in\n    tag_18:\n        /* \"9-pureKeyword.sol\":516:565  uint256 product = LocalVariable1 * LocalVariable2 */\n      swap1\n      pop\n        /* \"9-pureKeyword.sol\":575:586  uint256 sum */\n      0x00\n        /* \"9-pureKeyword.sol\":606:620  LocalVariable2 */\n      dup3\n        /* \"9-pureKeyword.sol\":589:603  LocalVariable1 */\n      dup5\n        /* \"9-pureKeyword.sol\":589:620  LocalVariable1 + LocalVariable2 */\n      tag_19\n      swap2\n      swap1\n      tag_16\n      jump\t// in\n    tag_19:\n        /* \"9-pureKeyword.sol\":575:620  uint256 sum = LocalVariable1 + LocalVariable2 */\n      swap1\n      pop\n        /* \"9-pureKeyword.sol\":691:698  product */\n      dup2\n        /* \"9-pureKeyword.sol\":700:703  sum */\n      dup2\n        /* \"9-pureKeyword.sol\":683:704  return (product, sum) */\n      swap6\n      pop\n      swap6\n      pop\n      pop\n      pop\n      pop\n      pop\n        /* \"9-pureKeyword.sol\":330:711  function getDataWithPure() public pure returns (uint256, uint256) {... */\n      swap1\n      swap2\n      jump\t// out\n        /* \"#utility.yul\":7:84   */\n    tag_20:\n        /* \"#utility.yul\":44:51   */\n      0x00\n        /* \"#utility.yul\":73:78   */\n      dup2\n        /* \"#utility.yul\":62:78   */\n      swap1\n      pop\n        /* \"#utility.yul\":7:84   */\n      swap2\n      swap1\n      pop\n      jump\t// out\n        /* \"#utility.yul\":90:208   */\n    tag_21:\n        /* \"#utility.yul\":177:201   */\n      tag_26\n        /* \"#utility.yul\":195:200   */\n      dup2\n        /* \"#utility.yul\":177:201   */\n      tag_20\n      jump\t// in\n    tag_26:\n        /* \"#utility.yul\":172:175   */\n      dup3\n        /* \"#utility.yul\":165:202   */\n      mstore\n        /* \"#utility.yul\":90:208   */\n      pop\n      pop\n      jump\t// out\n        /* \"#utility.yul\":214:546   */\n    tag_8:\n        /* \"#utility.yul\":335:339   */\n      0x00\n        /* \"#utility.yul\":373:375   */\n      0x40\n        /* \"#utility.yul\":362:371   */\n      dup3\n        /* \"#utility.yul\":358:376   */\n      add\n        /* \"#utility.yul\":350:376   */\n      swap1\n      pop\n        /* \"#utility.yul\":386:457   */\n      tag_28\n        /* \"#utility.yul\":454:455   */\n      0x00\n        /* \"#utility.yul\":443:452   */\n      dup4\n        /* \"#utility.yul\":439:456   */\n      add\n        /* \"#utility.yul\":430:436   */\n      dup6\n        /* \"#utility.yul\":386:457   */\n      tag_21\n      jump\t// in\n    tag_28:\n        /* \"#utility.yul\":467:539   */\n      tag_29\n        /* \"#utility.yul\":535:537   */\n      0x20\n        /* \"#utility.yul\":524:533   */\n      dup4\n        /* \"#utility.yul\":520:538   */\n      add\n        /* \"#utility.yul\":511:517   */\n      dup5\n        /* \"#utility.yul\":467:539   */\n      tag_21\n      jump\t// in\n    tag_29:\n        /* \"#utility.yul\":214:546   */\n      swap4\n      swap3\n      pop\n      pop\n      pop\n      jump\t// out\n        /* \"#utility.yul\":552:732   */\n    tag_22:\n        /* \"#utility.yul\":600:677   */\n      0x4e487b7100000000000000000000000000000000000000000000000000000000\n        /* \"#utility.yul\":597:598   */\n      0x00\n        /* \"#utility.yul\":590:678   */\n      mstore\n        /* \"#utility.yul\":697:701   */\n      0x11\n        /* \"#utility.yul\":694:695   */\n      0x04\n        /* \"#utility.yul\":687:702   */\n      mstore\n        /* \"#utility.yul\":721:725   */\n      0x24\n        /* \"#utility.yul\":718:719   */\n      0x00\n        /* \"#utility.yul\":711:726   */\n      revert\n        /* \"#utility.yul\":738:1148   */\n    tag_14:\n        /* \"#utility.yul\":778:785   */\n      0x00\n        /* \"#utility.yul\":801:821   */\n      tag_32\n        /* \"#utility.yul\":819:820   */\n      dup3\n        /* \"#utility.yul\":801:821   */\n      tag_20\n      jump\t// in\n    tag_32:\n        /* \"#utility.yul\":796:821   */\n      swap2\n      pop\n        /* \"#utility.yul\":835:855   */\n      tag_33\n        /* \"#utility.yul\":853:854   */\n      dup4\n        /* \"#utility.yul\":835:855   */\n      tag_20\n      jump\t// in\n    tag_33:\n        /* \"#utility.yul\":830:855   */\n      swap3\n      pop\n        /* \"#utility.yul\":890:891   */\n      dup3\n        /* \"#utility.yul\":887:888   */\n      dup3\n        /* \"#utility.yul\":883:892   */\n      mul\n        /* \"#utility.yul\":912:942   */\n      tag_34\n        /* \"#utility.yul\":930:941   */\n      dup2\n        /* \"#utility.yul\":912:942   */\n      tag_20\n      jump\t// in\n    tag_34:\n        /* \"#utility.yul\":901:942   */\n      swap2\n      pop\n        /* \"#utility.yul\":1091:1092   */\n      dup3\n        /* \"#utility.yul\":1082:1089   */\n      dup3\n        /* \"#utility.yul\":1078:1093   */\n      div\n        /* \"#utility.yul\":1075:1076   */\n      dup5\n        /* \"#utility.yul\":1072:1094   */\n      eq\n        /* \"#utility.yul\":1052:1053   */\n      dup4\n        /* \"#utility.yul\":1045:1054   */\n      iszero\n        /* \"#utility.yul\":1025:1108   */\n      or\n        /* \"#utility.yul\":1002:1141   */\n      tag_35\n      jumpi\n        /* \"#utility.yul\":1121:1139   */\n      tag_36\n      tag_22\n      jump\t// in\n    tag_36:\n        /* \"#utility.yul\":1002:1141   */\n    tag_35:\n        /* \"#utility.yul\":786:1148   */\n      pop\n        /* \"#utility.yul\":738:1148   */\n      swap3\n      swap2\n      pop\n      pop\n      jump\t// out\n        /* \"#utility.yul\":1154:1345   */\n    tag_16:\n        /* \"#utility.yul\":1194:1197   */\n      0x00\n        /* \"#utility.yul\":1213:1233   */\n      tag_38\n        /* \"#utility.yul\":1231:1232   */\n      dup3\n        /* \"#utility.yul\":1213:1233   */\n      tag_20\n      jump\t// in\n    tag_38:\n        /* \"#utility.yul\":1208:1233   */\n      swap2\n      pop\n        /* \"#utility.yul\":1247:1267   */\n      tag_39\n        /* \"#utility.yul\":1265:1266   */\n      dup4\n        /* \"#utility.yul\":1247:1267   */\n      tag_20\n      jump\t// in\n    tag_39:\n        /* \"#utility.yul\":1242:1267   */\n      swap3\n      pop\n        /* \"#utility.yul\":1290:1291   */\n      dup3\n        /* \"#utility.yul\":1287:1288   */\n      dup3\n        /* \"#utility.yul\":1283:1292   */\n      add\n        /* \"#utility.yul\":1276:1292   */\n      swap1\n      pop\n        /* \"#utility.yul\":1311:1314   */\n      dup1\n        /* \"#utility.yul\":1308:1309   */\n      dup3\n        /* \"#utility.yul\":1305:1315   */\n      gt\n        /* \"#utility.yul\":1302:1338   */\n      iszero\n      tag_40\n      jumpi\n        /* \"#utility.yul\":1318:1336   */\n      tag_41\n      tag_22\n      jump\t// in\n    tag_41:\n        /* \"#utility.yul\":1302:1338   */\n    tag_40:\n        /* \"#utility.yul\":1154:1345   */\n      swap3\n      swap2\n      pop\n      pop\n      jump\t// out\n\n    auxdata: 0xa2646970667358221220ed182e5efa1a924ff4f4f8da9ad870d32549b30d17006e05bec532b3e966ba3864736f6c63430008160033\n}\n",
				"bytecode": {
					"linkReferences": {},
					"object": "608060405260045f556002600155348015610018575f80fd5b506101f6806100265f395ff3fe608060405234801561000f575f80fd5b5060043610610034575f3560e01c8063701d984314610038578063dd34cb7314610057575b5f80fd5b610040610076565b60405161004e9291906100f8565b60405180910390f35b61005f6100a8565b60405161006d9291906100f8565b60405180910390f35b5f805f6001545f54610088919061014c565b90505f6001545f5461009a919061018d565b905081819350935050509091565b5f805f600890505f600490505f81836100c1919061014c565b90505f82846100d0919061018d565b9050818195509550505050509091565b5f819050919050565b6100f2816100e0565b82525050565b5f60408201905061010b5f8301856100e9565b61011860208301846100e9565b9392505050565b7f4e487b71000000000000000000000000000000000000000000000000000000005f52601160045260245ffd5b5f610156826100e0565b9150610161836100e0565b925082820261016f816100e0565b915082820484148315176101865761018561011f565b5b5092915050565b5f610197826100e0565b91506101a2836100e0565b92508282019050808211156101ba576101b961011f565b5b9291505056fea2646970667358221220ed182e5efa1a924ff4f4f8da9ad870d32549b30d17006e05bec532b3e966ba3864736f6c63430008160033",
					"opcodes": "PUSH1 0x80 PUSH1 0x40 MSTORE PUSH1 0x4 PUSH0 SSTORE PUSH1 0x2 PUSH1 0x1 SSTORE CALLVALUE DUP1 ISZERO PUSH2 0x18 JUMPI PUSH0 DUP1 REVERT JUMPDEST POP PUSH2 0x1F6 DUP1 PUSH2 0x26 PUSH0 CODECOPY PUSH0 RETURN INVALID PUSH1 0x80 PUSH1 0x40 MSTORE CALLVALUE DUP1 ISZERO PUSH2 0xF JUMPI PUSH0 DUP1 REVERT JUMPDEST POP PUSH1 0x4 CALLDATASIZE LT PUSH2 0x34 JUMPI PUSH0 CALLDATALOAD PUSH1 0xE0 SHR DUP1 PUSH4 0x701D9843 EQ PUSH2 0x38 JUMPI DUP1 PUSH4 0xDD34CB73 EQ PUSH2 0x57 JUMPI JUMPDEST PUSH0 DUP1 REVERT JUMPDEST PUSH2 0x40 PUSH2 0x76 JUMP JUMPDEST PUSH1 0x40 MLOAD PUSH2 0x4E SWAP3 SWAP2 SWAP1 PUSH2 0xF8 JUMP JUMPDEST PUSH1 0x40 MLOAD DUP1 SWAP2 SUB SWAP1 RETURN JUMPDEST PUSH2 0x5F PUSH2 0xA8 JUMP JUMPDEST PUSH1 0x40 MLOAD PUSH2 0x6D SWAP3 SWAP2 SWAP1 PUSH2 0xF8 JUMP JUMPDEST PUSH1 0x40 MLOAD DUP1 SWAP2 SUB SWAP1 RETURN JUMPDEST PUSH0 DUP1 PUSH0 PUSH1 0x1 SLOAD PUSH0 SLOAD PUSH2 0x88 SWAP2 SWAP1 PUSH2 0x14C JUMP JUMPDEST SWAP1 POP PUSH0 PUSH1 0x1 SLOAD PUSH0 SLOAD PUSH2 0x9A SWAP2 SWAP1 PUSH2 0x18D JUMP JUMPDEST SWAP1 POP DUP2 DUP2 SWAP4 POP SWAP4 POP POP POP SWAP1 SWAP2 JUMP JUMPDEST PUSH0 DUP1 PUSH0 PUSH1 0x8 SWAP1 POP PUSH0 PUSH1 0x4 SWAP1 POP PUSH0 DUP2 DUP4 PUSH2 0xC1 SWAP2 SWAP1 PUSH2 0x14C JUMP JUMPDEST SWAP1 POP PUSH0 DUP3 DUP5 PUSH2 0xD0 SWAP2 SWAP1 PUSH2 0x18D JUMP JUMPDEST SWAP1 POP DUP2 DUP2 SWAP6 POP SWAP6 POP POP POP POP POP SWAP1 SWAP2 JUMP JUMPDEST PUSH0 DUP2 SWAP1 POP SWAP2 SWAP1 POP JUMP JUMPDEST PUSH2 0xF2 DUP2 PUSH2 0xE0 JUMP JUMPDEST DUP3 MSTORE POP POP JUMP JUMPDEST PUSH0 PUSH1 0x40 DUP3 ADD SWAP1 POP PUSH2 0x10B PUSH0 DUP4 ADD DUP6 PUSH2 0xE9 JUMP JUMPDEST PUSH2 0x118 PUSH1 0x20 DUP4 ADD DUP5 PUSH2 0xE9 JUMP JUMPDEST SWAP4 SWAP3 POP POP POP JUMP JUMPDEST PUSH32 0x4E487B7100000000000000000000000000000000000000000000000000000000 PUSH0 MSTORE PUSH1 0x11 PUSH1 0x4 MSTORE PUSH1 0x24 PUSH0 REVERT JUMPDEST PUSH0 PUSH2 0x156 DUP3 PUSH2 0xE0 JUMP JUMPDEST SWAP2 POP PUSH2 0x161 DUP4 PUSH2 0xE0 JUMP JUMPDEST SWAP3 POP DUP3 DUP3 MUL PUSH2 0x16F DUP2 PUSH2 0xE0 JUMP JUMPDEST SWAP2 POP DUP3 DUP3 DIV DUP5 EQ DUP4 ISZERO OR PUSH2 0x186 JUMPI PUSH2 0x185 PUSH2 0x11F JUMP JUMPDEST JUMPDEST POP SWAP3 SWAP2 POP POP JUMP JUMPDEST PUSH0 PUSH2 0x197 DUP3 PUSH2 0xE0 JUMP JUMPDEST SWAP2 POP PUSH2 0x1A2 DUP4 PUSH2 0xE0 JUMP JUMPDEST SWAP3 POP DUP3 DUP3 ADD SWAP1 POP DUP1 DUP3 GT ISZERO PUSH2 0x1BA JUMPI PUSH2 0x1B9 PUSH2 0x11F JUMP JUMPDEST JUMPDEST SWAP3 SWAP2 POP POP JUMP INVALID LOG2 PUSH5 0x6970667358 0x22 SLT KECCAK256 0xED XOR 0x2E 0x5E STATICCALL BYTE SWAP3 0x4F DELEGATECALL DELEGATECALL 0xF8 0xDA SWAP11 0xD8 PUSH17 0xD32549B30D17006E05BEC532B3E966BA38 PUSH5 0x736F6C6343 STOP ADDMOD AND STOP CALLER "
				},
				"gasEstimates": {
					"creation": {
						"codeDepositCost": "100400",
						"executionCost": "44356",
						"totalCost": "144756"
					},
					"external": {
						"getDataWithPure()": "infinite",
						"getDataWithView()": "infinite"
					}
				},
				"methodIdentifiers": {
					"getDataWithPure()": "dd34cb73",
					"getDataWithView()": "701d9843"
				}
			},
			"storageLayout": {
				"storage": [
					{
						"astId": 4,
						"contract": "9-pureKeyword.sol:Pure",
						"label": "GlobalVariable1",
						"offset": 0,
						"slot": "0",
						"type": "t_uint256"
					},
					{
						"astId": 7,
						"contract": "9-pureKeyword.sol:Pure",
						"label": "GlobalVariable2",
						"offset": 0,
						"slot": "1",
						"type": "t_uint256"
					}
				],
				"types": {
					"t_uint256": {
						"encoding": "inplace",
						"label": "uint256",
						"numberOfBytes": "32"
					}
				}
			},
			"userdoc": {
				"kind": "user",
				"methods": {},
				"version": 1
			}
		}
	}
}