{
	"data": {
		"bytecode": {
			"linkReferences": {},
			"object": "60806040526040518060400160405280602081526020017f42757920796f75722076657279206669727374204576656e74205469636b6574815250600690816200004a91906200034e565b5034801562000057575f80fd5b5060405162000abb38038062000abb83398181016040528101906200007d919062000465565b806001819055504260038190555062093a80426200009c9190620004c2565b6004819055506018603c80600354600454620000b99190620004fc565b620000c5919062000563565b620000d1919062000563565b620000dd919062000563565b600581905550506200059a565b5f81519050919050565b7f4e487b71000000000000000000000000000000000000000000000000000000005f52604160045260245ffd5b7f4e487b71000000000000000000000000000000000000000000000000000000005f52602260045260245ffd5b5f60028204905060018216806200016657607f821691505b6020821081036200017c576200017b62000121565b5b50919050565b5f819050815f5260205f209050919050565b5f6020601f8301049050919050565b5f82821b905092915050565b5f60088302620001e07fffffffffffffffffffffffffffffffffffffffffffffffffffffffffffffffff82620001a3565b620001ec8683620001a3565b95508019841693508086168417925050509392505050565b5f819050919050565b5f819050919050565b5f62000236620002306200022a8462000204565b6200020d565b62000204565b9050919050565b5f819050919050565b620002518362000216565b6200026962000260826200023d565b848454620001af565b825550505050565b5f90565b6200027f62000271565b6200028c81848462000246565b505050565b5b81811015620002b357620002a75f8262000275565b60018101905062000292565b5050565b601f8211156200030257620002cc8162000182565b620002d78462000194565b81016020851015620002e7578190505b620002ff620002f68562000194565b83018262000291565b50505b505050565b5f82821c905092915050565b5f620003245f198460080262000307565b1980831691505092915050565b5f6200033e838362000313565b9150826002028217905092915050565b6200035982620000ea565b67ffffffffffffffff811115620003755762000374620000f4565b5b6200038182546200014e565b6200038e828285620002b7565b5f60209050601f831160018114620003c4575f8415620003af578287015190505b620003bb858262000331565b8655506200042a565b601f198416620003d48662000182565b5f5b82811015620003fd57848901518255600182019150602085019450602081019050620003d6565b868310156200041d578489015162000419601f89168262000313565b8355505b6001600288020188555050505b505050505050565b5f80fd5b620004418162000204565b81146200044c575f80fd5b50565b5f815190506200045f8162000436565b92915050565b5f602082840312156200047d576200047c62000432565b5b5f6200048c848285016200044f565b91505092915050565b7f4e487b71000000000000000000000000000000000000000000000000000000005f52601160045260245ffd5b5f620004ce8262000204565b9150620004db8362000204565b9250828201905080821115620004f657620004f562000495565b5b92915050565b5f620005088262000204565b9150620005158362000204565b925082820390508181111562000530576200052f62000495565b5b92915050565b7f4e487b71000000000000000000000000000000000000000000000000000000005f52601260045260245ffd5b5f6200056f8262000204565b91506200057c8362000204565b9250826200058f576200058e62000536565b5b828204905092915050565b61051380620005a85f395ff3fe608060405234801561000f575f80fd5b5060043610610091575f3560e01c806367dd74ca1161006457806367dd74ca1461010d578063af4686821461013d578063d321fe291461015b578063e21f37ce14610179578063f454f2e01461019757610091565b80630a09284a146100955780631209b1f6146100b35780631a39d8ef146100d15780636284568a146100ef575b5f80fd5b61009d6101b5565b6040516100aa91906102bd565b60405180910390f35b6100bb6101bb565b6040516100c891906102bd565b60405180910390f35b6100d96101c1565b6040516100e691906102bd565b60405180910390f35b6100f76101c7565b60405161010491906102bd565b60405180910390f35b61012760048036038101906101229190610304565b6101cd565b60405161013491906102bd565b60405180910390f35b610145610205565b60405161015291906102bd565b60405180910390f35b61016361020b565b60405161017091906102bd565b60405180910390f35b610181610214565b60405161018e91906103b9565b60405180910390f35b61019f6102a0565b6040516101ac91906102bd565b60405180910390f35b60045481565b60015481565b60025481565b60055481565b5f805f8154809291906101df90610406565b91905055508160025f8282546101f5919061044d565b925050819055505f549050919050565b60035481565b5f600254905090565b60068054610221906104ad565b80601f016020809104026020016040519081016040528092919081815260200182805461024d906104ad565b80156102985780601f1061026f57610100808354040283529160200191610298565b820191905f5260205f20905b81548152906001019060200180831161027b57829003601f168201915b505050505081565b5f5481565b5f819050919050565b6102b7816102a5565b82525050565b5f6020820190506102d05f8301846102ae565b92915050565b5f80fd5b6102e3816102a5565b81146102ed575f80fd5b50565b5f813590506102fe816102da565b92915050565b5f60208284031215610319576103186102d6565b5b5f610326848285016102f0565b91505092915050565b5f81519050919050565b5f82825260208201905092915050565b5f5b8381101561036657808201518184015260208101905061034b565b5f8484015250505050565b5f601f19601f8301169050919050565b5f61038b8261032f565b6103958185610339565b93506103a5818560208601610349565b6103ae81610371565b840191505092915050565b5f6020820190508181035f8301526103d18184610381565b905092915050565b7f4e487b71000000000000000000000000000000000000000000000000000000005f52601160045260245ffd5b5f610410826102a5565b91507fffffffffffffffffffffffffffffffffffffffffffffffffffffffffffffffff8203610442576104416103d9565b5b600182019050919050565b5f610457826102a5565b9150610462836102a5565b925082820190508082111561047a576104796103d9565b5b92915050565b7f4e487b71000000000000000000000000000000000000000000000000000000005f52602260045260245ffd5b5f60028204905060018216806104c457607f821691505b6020821081036104d7576104d6610480565b5b5091905056fea2646970667358221220e4a071c19d38da527b94f5e63b1fdf1e27f5661966ebcbaa1fce1a1097d8ac1e64736f6c63430008160033",
			"opcodes": "PUSH1 0x80 PUSH1 0x40 MSTORE PUSH1 0x40 MLOAD DUP1 PUSH1 0x40 ADD PUSH1 0x40 MSTORE DUP1 PUSH1 0x20 DUP2 MSTORE PUSH1 0x20 ADD PUSH32 0x42757920796F75722076657279206669727374204576656E74205469636B6574 DUP2 MSTORE POP PUSH1 0x6 SWAP1 DUP2 PUSH3 0x4A SWAP2 SWAP1 PUSH3 0x34E JUMP JUMPDEST POP CALLVALUE DUP1 ISZERO PUSH3 0x57 JUMPI PUSH0 DUP1 REVERT JUMPDEST POP PUSH1 0x40 MLOAD PUSH3 0xABB CODESIZE SUB DUP1 PUSH3 0xABB DUP4 CODECOPY DUP2 DUP2 ADD PUSH1 0x40 MSTORE DUP2 ADD SWAP1 PUSH3 0x7D SWAP2 SWAP1 PUSH3 0x465 JUMP JUMPDEST DUP1 PUSH1 0x1 DUP2 SWAP1 SSTORE POP TIMESTAMP PUSH1 0x3 DUP2 SWAP1 SSTORE POP PUSH3 0x93A80 TIMESTAMP PUSH3 0x9C SWAP2 SWAP1 PUSH3 0x4C2 JUMP JUMPDEST PUSH1 0x4 DUP2 SWAP1 SSTORE POP PUSH1 0x18 PUSH1 0x3C DUP1 PUSH1 0x3 SLOAD PUSH1 0x4 SLOAD PUSH3 0xB9 SWAP2 SWAP1 PUSH3 0x4FC JUMP JUMPDEST PUSH3 0xC5 SWAP2 SWAP1 PUSH3 0x563 JUMP JUMPDEST PUSH3 0xD1 SWAP2 SWAP1 PUSH3 0x563 JUMP JUMPDEST PUSH3 0xDD SWAP2 SWAP1 PUSH3 0x563 JUMP JUMPDEST PUSH1 0x5 DUP2 SWAP1 SSTORE POP POP PUSH3 0x59A JUMP JUMPDEST PUSH0 DUP2 MLOAD SWAP1 POP SWAP2 SWAP1 POP JUMP JUMPDEST PUSH32 0x4E487B7100000000000000000000000000000000000000000000000000000000 PUSH0 MSTORE PUSH1 0x41 PUSH1 0x4 MSTORE PUSH1 0x24 PUSH0 REVERT JUMPDEST PUSH32 0x4E487B7100000000000000000000000000000000000000000000000000000000 PUSH0 MSTORE PUSH1 0x22 PUSH1 0x4 MSTORE PUSH1 0x24 PUSH0 REVERT JUMPDEST PUSH0 PUSH1 0x2 DUP3 DIV SWAP1 POP PUSH1 0x1 DUP3 AND DUP1 PUSH3 0x166 JUMPI PUSH1 0x7F DUP3 AND SWAP2 POP JUMPDEST PUSH1 0x20 DUP3 LT DUP2 SUB PUSH3 0x17C JUMPI PUSH3 0x17B PUSH3 0x121 JUMP JUMPDEST JUMPDEST POP SWAP2 SWAP1 POP JUMP JUMPDEST PUSH0 DUP2 SWAP1 POP DUP2 PUSH0 MSTORE PUSH1 0x20 PUSH0 KECCAK256 SWAP1 POP SWAP2 SWAP1 POP JUMP JUMPDEST PUSH0 PUSH1 0x20 PUSH1 0x1F DUP4 ADD DIV SWAP1 POP SWAP2 SWAP1 POP JUMP JUMPDEST PUSH0 DUP3 DUP3 SHL SWAP1 POP SWAP3 SWAP2 POP POP JUMP JUMPDEST PUSH0 PUSH1 0x8 DUP4 MUL PUSH3 0x1E0 PUSH32 0xFFFFFFFFFFFFFFFFFFFFFFFFFFFFFFFFFFFFFFFFFFFFFFFFFFFFFFFFFFFFFFFF DUP3 PUSH3 0x1A3 JUMP JUMPDEST PUSH3 0x1EC DUP7 DUP4 PUSH3 0x1A3 JUMP JUMPDEST SWAP6 POP DUP1 NOT DUP5 AND SWAP4 POP DUP1 DUP7 AND DUP5 OR SWAP3 POP POP POP SWAP4 SWAP3 POP POP POP JUMP JUMPDEST PUSH0 DUP2 SWAP1 POP SWAP2 SWAP1 POP JUMP JUMPDEST PUSH0 DUP2 SWAP1 POP SWAP2 SWAP1 POP JUMP JUMPDEST PUSH0 PUSH3 0x236 PUSH3 0x230 PUSH3 0x22A DUP5 PUSH3 0x204 JUMP JUMPDEST PUSH3 0x20D JUMP JUMPDEST PUSH3 0x204 JUMP JUMPDEST SWAP1 POP SWAP2 SWAP1 POP JUMP JUMPDEST PUSH0 DUP2 SWAP1 POP SWAP2 SWAP1 POP JUMP JUMPDEST PUSH3 0x251 DUP4 PUSH3 0x216 JUMP JUMPDEST PUSH3 0x269 PUSH3 0x260 DUP3 PUSH3 0x23D JUMP JUMPDEST DUP5 DUP5 SLOAD PUSH3 0x1AF JUMP JUMPDEST DUP3 SSTORE POP POP POP POP JUMP JUMPDEST PUSH0 SWAP1 JUMP JUMPDEST PUSH3 0x27F PUSH3 0x271 JUMP JUMPDEST PUSH3 0x28C DUP2 DUP5 DUP5 PUSH3 0x246 JUMP JUMPDEST POP POP POP JUMP JUMPDEST JUMPDEST DUP2 DUP2 LT ISZERO PUSH3 0x2B3 JUMPI PUSH3 0x2A7 PUSH0 DUP3 PUSH3 0x275 JUMP JUMPDEST PUSH1 0x1 DUP2 ADD SWAP1 POP PUSH3 0x292 JUMP JUMPDEST POP POP JUMP JUMPDEST PUSH1 0x1F DUP3 GT ISZERO PUSH3 0x302 JUMPI PUSH3 0x2CC DUP2 PUSH3 0x182 JUMP JUMPDEST PUSH3 0x2D7 DUP5 PUSH3 0x194 JUMP JUMPDEST DUP2 ADD PUSH1 0x20 DUP6 LT ISZERO PUSH3 0x2E7 JUMPI DUP2 SWAP1 POP JUMPDEST PUSH3 0x2FF PUSH3 0x2F6 DUP6 PUSH3 0x194 JUMP JUMPDEST DUP4 ADD DUP3 PUSH3 0x291 JUMP JUMPDEST POP POP JUMPDEST POP POP POP JUMP JUMPDEST PUSH0 DUP3 DUP3 SHR SWAP1 POP SWAP3 SWAP2 POP POP JUMP JUMPDEST PUSH0 PUSH3 0x324 PUSH0 NOT DUP5 PUSH1 0x8 MUL PUSH3 0x307 JUMP JUMPDEST NOT DUP1 DUP4 AND SWAP2 POP POP SWAP3 SWAP2 POP POP JUMP JUMPDEST PUSH0 PUSH3 0x33E DUP4 DUP4 PUSH3 0x313 JUMP JUMPDEST SWAP2 POP DUP3 PUSH1 0x2 MUL DUP3 OR SWAP1 POP SWAP3 SWAP2 POP POP JUMP JUMPDEST PUSH3 0x359 DUP3 PUSH3 0xEA JUMP JUMPDEST PUSH8 0xFFFFFFFFFFFFFFFF DUP2 GT ISZERO PUSH3 0x375 JUMPI PUSH3 0x374 PUSH3 0xF4 JUMP JUMPDEST JUMPDEST PUSH3 0x381 DUP3 SLOAD PUSH3 0x14E JUMP JUMPDEST PUSH3 0x38E DUP3 DUP3 DUP6 PUSH3 0x2B7 JUMP JUMPDEST PUSH0 PUSH1 0x20 SWAP1 POP PUSH1 0x1F DUP4 GT PUSH1 0x1 DUP2 EQ PUSH3 0x3C4 JUMPI PUSH0 DUP5 ISZERO PUSH3 0x3AF JUMPI DUP3 DUP8 ADD MLOAD SWAP1 POP JUMPDEST PUSH3 0x3BB DUP6 DUP3 PUSH3 0x331 JUMP JUMPDEST DUP7 SSTORE POP PUSH3 0x42A JUMP JUMPDEST PUSH1 0x1F NOT DUP5 AND PUSH3 0x3D4 DUP7 PUSH3 0x182 JUMP JUMPDEST PUSH0 JUMPDEST DUP3 DUP2 LT ISZERO PUSH3 0x3FD JUMPI DUP5 DUP10 ADD MLOAD DUP3 SSTORE PUSH1 0x1 DUP3 ADD SWAP2 POP PUSH1 0x20 DUP6 ADD SWAP5 POP PUSH1 0x20 DUP2 ADD SWAP1 POP PUSH3 0x3D6 JUMP JUMPDEST DUP7 DUP4 LT ISZERO PUSH3 0x41D JUMPI DUP5 DUP10 ADD MLOAD PUSH3 0x419 PUSH1 0x1F DUP10 AND DUP3 PUSH3 0x313 JUMP JUMPDEST DUP4 SSTORE POP JUMPDEST PUSH1 0x1 PUSH1 0x2 DUP9 MUL ADD DUP9 SSTORE POP POP POP JUMPDEST POP POP POP POP POP POP JUMP JUMPDEST PUSH0 DUP1 REVERT JUMPDEST PUSH3 0x441 DUP2 PUSH3 0x204 JUMP JUMPDEST DUP2 EQ PUSH3 0x44C JUMPI PUSH0 DUP1 REVERT JUMPDEST POP JUMP JUMPDEST PUSH0 DUP2 MLOAD SWAP1 POP PUSH3 0x45F DUP2 PUSH3 0x436 JUMP JUMPDEST SWAP3 SWAP2 POP POP JUMP JUMPDEST PUSH0 PUSH1 0x20 DUP3 DUP5 SUB SLT ISZERO PUSH3 0x47D JUMPI PUSH3 0x47C PUSH3 0x432 JUMP JUMPDEST JUMPDEST PUSH0 PUSH3 0x48C DUP5 DUP3 DUP6 ADD PUSH3 0x44F JUMP JUMPDEST SWAP2 POP POP SWAP3 SWAP2 POP POP JUMP JUMPDEST PUSH32 0x4E487B7100000000000000000000000000000000000000000000000000000000 PUSH0 MSTORE PUSH1 0x11 PUSH1 0x4 MSTORE PUSH1 0x24 PUSH0 REVERT JUMPDEST PUSH0 PUSH3 0x4CE DUP3 PUSH3 0x204 JUMP JUMPDEST SWAP2 POP PUSH3 0x4DB DUP4 PUSH3 0x204 JUMP JUMPDEST SWAP3 POP DUP3 DUP3 ADD SWAP1 POP DUP1 DUP3 GT ISZERO PUSH3 0x4F6 JUMPI PUSH3 0x4F5 PUSH3 0x495 JUMP JUMPDEST JUMPDEST SWAP3 SWAP2 POP POP JUMP JUMPDEST PUSH0 PUSH3 0x508 DUP3 PUSH3 0x204 JUMP JUMPDEST SWAP2 POP PUSH3 0x515 DUP4 PUSH3 0x204 JUMP JUMPDEST SWAP3 POP DUP3 DUP3 SUB SWAP1 POP DUP2 DUP2 GT ISZERO PUSH3 0x530 JUMPI PUSH3 0x52F PUSH3 0x495 JUMP JUMPDEST JUMPDEST SWAP3 SWAP2 POP POP JUMP JUMPDEST PUSH32 0x4E487B7100000000000000000000000000000000000000000000000000000000 PUSH0 MSTORE PUSH1 0x12 PUSH1 0x4 MSTORE PUSH1 0x24 PUSH0 REVERT JUMPDEST PUSH0 PUSH3 0x56F DUP3 PUSH3 0x204 JUMP JUMPDEST SWAP2 POP PUSH3 0x57C DUP4 PUSH3 0x204 JUMP JUMPDEST SWAP3 POP DUP3 PUSH3 0x58F JUMPI PUSH3 0x58E PUSH3 0x536 JUMP JUMPDEST JUMPDEST DUP3 DUP3 DIV SWAP1 POP SWAP3 SWAP2 POP POP JUMP JUMPDEST PUSH2 0x513 DUP1 PUSH3 0x5A8 PUSH0 CODECOPY PUSH0 RETURN INVALID PUSH1 0x80 PUSH1 0x40 MSTORE CALLVALUE DUP1 ISZERO PUSH2 0xF JUMPI PUSH0 DUP1 REVERT JUMPDEST POP PUSH1 0x4 CALLDATASIZE LT PUSH2 0x91 JUMPI PUSH0 CALLDATALOAD PUSH1 0xE0 SHR DUP1 PUSH4 0x67DD74CA GT PUSH2 0x64 JUMPI DUP1 PUSH4 0x67DD74CA EQ PUSH2 0x10D JUMPI DUP1 PUSH4 0xAF468682 EQ PUSH2 0x13D JUMPI DUP1 PUSH4 0xD321FE29 EQ PUSH2 0x15B JUMPI DUP1 PUSH4 0xE21F37CE EQ PUSH2 0x179 JUMPI DUP1 PUSH4 0xF454F2E0 EQ PUSH2 0x197 JUMPI PUSH2 0x91 JUMP JUMPDEST DUP1 PUSH4 0xA09284A EQ PUSH2 0x95 JUMPI DUP1 PUSH4 0x1209B1F6 EQ PUSH2 0xB3 JUMPI DUP1 PUSH4 0x1A39D8EF EQ PUSH2 0xD1 JUMPI DUP1 PUSH4 0x6284568A EQ PUSH2 0xEF JUMPI JUMPDEST PUSH0 DUP1 REVERT JUMPDEST PUSH2 0x9D PUSH2 0x1B5 JUMP JUMPDEST PUSH1 0x40 MLOAD PUSH2 0xAA SWAP2 SWAP1 PUSH2 0x2BD JUMP JUMPDEST PUSH1 0x40 MLOAD DUP1 SWAP2 SUB SWAP1 RETURN JUMPDEST PUSH2 0xBB PUSH2 0x1BB JUMP JUMPDEST PUSH1 0x40 MLOAD PUSH2 0xC8 SWAP2 SWAP1 PUSH2 0x2BD JUMP JUMPDEST PUSH1 0x40 MLOAD DUP1 SWAP2 SUB SWAP1 RETURN JUMPDEST PUSH2 0xD9 PUSH2 0x1C1 JUMP JUMPDEST PUSH1 0x40 MLOAD PUSH2 0xE6 SWAP2 SWAP1 PUSH2 0x2BD JUMP JUMPDEST PUSH1 0x40 MLOAD DUP1 SWAP2 SUB SWAP1 RETURN JUMPDEST PUSH2 0xF7 PUSH2 0x1C7 JUMP JUMPDEST PUSH1 0x40 MLOAD PUSH2 0x104 SWAP2 SWAP1 PUSH2 0x2BD JUMP JUMPDEST PUSH1 0x40 MLOAD DUP1 SWAP2 SUB SWAP1 RETURN JUMPDEST PUSH2 0x127 PUSH1 0x4 DUP1 CALLDATASIZE SUB DUP2 ADD SWAP1 PUSH2 0x122 SWAP2 SWAP1 PUSH2 0x304 JUMP JUMPDEST PUSH2 0x1CD JUMP JUMPDEST PUSH1 0x40 MLOAD PUSH2 0x134 SWAP2 SWAP1 PUSH2 0x2BD JUMP JUMPDEST PUSH1 0x40 MLOAD DUP1 SWAP2 SUB SWAP1 RETURN JUMPDEST PUSH2 0x145 PUSH2 0x205 JUMP JUMPDEST PUSH1 0x40 MLOAD PUSH2 0x152 SWAP2 SWAP1 PUSH2 0x2BD JUMP JUMPDEST PUSH1 0x40 MLOAD DUP1 SWAP2 SUB SWAP1 RETURN JUMPDEST PUSH2 0x163 PUSH2 0x20B JUMP JUMPDEST PUSH1 0x40 MLOAD PUSH2 0x170 SWAP2 SWAP1 PUSH2 0x2BD JUMP JUMPDEST PUSH1 0x40 MLOAD DUP1 SWAP2 SUB SWAP1 RETURN JUMPDEST PUSH2 0x181 PUSH2 0x214 JUMP JUMPDEST PUSH1 0x40 MLOAD PUSH2 0x18E SWAP2 SWAP1 PUSH2 0x3B9 JUMP JUMPDEST PUSH1 0x40 MLOAD DUP1 SWAP2 SUB SWAP1 RETURN JUMPDEST PUSH2 0x19F PUSH2 0x2A0 JUMP JUMPDEST PUSH1 0x40 MLOAD PUSH2 0x1AC SWAP2 SWAP1 PUSH2 0x2BD JUMP JUMPDEST PUSH1 0x40 MLOAD DUP1 SWAP2 SUB SWAP1 RETURN JUMPDEST PUSH1 0x4 SLOAD DUP2 JUMP JUMPDEST PUSH1 0x1 SLOAD DUP2 JUMP JUMPDEST PUSH1 0x2 SLOAD DUP2 JUMP JUMPDEST PUSH1 0x5 SLOAD DUP2 JUMP JUMPDEST PUSH0 DUP1 PUSH0 DUP2 SLOAD DUP1 SWAP3 SWAP2 SWAP1 PUSH2 0x1DF SWAP1 PUSH2 0x406 JUMP JUMPDEST SWAP2 SWAP1 POP SSTORE POP DUP2 PUSH1 0x2 PUSH0 DUP3 DUP3 SLOAD PUSH2 0x1F5 SWAP2 SWAP1 PUSH2 0x44D JUMP JUMPDEST SWAP3 POP POP DUP2 SWAP1 SSTORE POP PUSH0 SLOAD SWAP1 POP SWAP2 SWAP1 POP JUMP JUMPDEST PUSH1 0x3 SLOAD DUP2 JUMP JUMPDEST PUSH0 PUSH1 0x2 SLOAD SWAP1 POP SWAP1 JUMP JUMPDEST PUSH1 0x6 DUP1 SLOAD PUSH2 0x221 SWAP1 PUSH2 0x4AD JUMP JUMPDEST DUP1 PUSH1 0x1F ADD PUSH1 0x20 DUP1 SWAP2 DIV MUL PUSH1 0x20 ADD PUSH1 0x40 MLOAD SWAP1 DUP2 ADD PUSH1 0x40 MSTORE DUP1 SWAP3 SWAP2 SWAP1 DUP2 DUP2 MSTORE PUSH1 0x20 ADD DUP3 DUP1 SLOAD PUSH2 0x24D SWAP1 PUSH2 0x4AD JUMP JUMPDEST DUP1 ISZERO PUSH2 0x298 JUMPI DUP1 PUSH1 0x1F LT PUSH2 0x26F JUMPI PUSH2 0x100 DUP1 DUP4 SLOAD DIV MUL DUP4 MSTORE SWAP2 PUSH1 0x20 ADD SWAP2 PUSH2 0x298 JUMP JUMPDEST DUP3 ADD SWAP2 SWAP1 PUSH0 MSTORE PUSH1 0x20 PUSH0 KECCAK256 SWAP1 JUMPDEST DUP2 SLOAD DUP2 MSTORE SWAP1 PUSH1 0x1 ADD SWAP1 PUSH1 0x20 ADD DUP1 DUP4 GT PUSH2 0x27B JUMPI DUP3 SWAP1 SUB PUSH1 0x1F AND DUP3 ADD SWAP2 JUMPDEST POP POP POP POP POP DUP2 JUMP JUMPDEST PUSH0 SLOAD DUP2 JUMP JUMPDEST PUSH0 DUP2 SWAP1 POP SWAP2 SWAP1 POP JUMP JUMPDEST PUSH2 0x2B7 DUP2 PUSH2 0x2A5 JUMP JUMPDEST DUP3 MSTORE POP POP JUMP JUMPDEST PUSH0 PUSH1 0x20 DUP3 ADD SWAP1 POP PUSH2 0x2D0 PUSH0 DUP4 ADD DUP5 PUSH2 0x2AE JUMP JUMPDEST SWAP3 SWAP2 POP POP JUMP JUMPDEST PUSH0 DUP1 REVERT JUMPDEST PUSH2 0x2E3 DUP2 PUSH2 0x2A5 JUMP JUMPDEST DUP2 EQ PUSH2 0x2ED JUMPI PUSH0 DUP1 REVERT JUMPDEST POP JUMP JUMPDEST PUSH0 DUP2 CALLDATALOAD SWAP1 POP PUSH2 0x2FE DUP2 PUSH2 0x2DA JUMP JUMPDEST SWAP3 SWAP2 POP POP JUMP JUMPDEST PUSH0 PUSH1 0x20 DUP3 DUP5 SUB SLT ISZERO PUSH2 0x319 JUMPI PUSH2 0x318 PUSH2 0x2D6 JUMP JUMPDEST JUMPDEST PUSH0 PUSH2 0x326 DUP5 DUP3 DUP6 ADD PUSH2 0x2F0 JUMP JUMPDEST SWAP2 POP POP SWAP3 SWAP2 POP POP JUMP JUMPDEST PUSH0 DUP2 MLOAD SWAP1 POP SWAP2 SWAP1 POP JUMP JUMPDEST PUSH0 DUP3 DUP3 MSTORE PUSH1 0x20 DUP3 ADD SWAP1 POP SWAP3 SWAP2 POP POP JUMP JUMPDEST PUSH0 JUMPDEST DUP4 DUP2 LT ISZERO PUSH2 0x366 JUMPI DUP1 DUP3 ADD MLOAD DUP2 DUP5 ADD MSTORE PUSH1 0x20 DUP2 ADD SWAP1 POP PUSH2 0x34B JUMP JUMPDEST PUSH0 DUP5 DUP5 ADD MSTORE POP POP POP POP JUMP JUMPDEST PUSH0 PUSH1 0x1F NOT PUSH1 0x1F DUP4 ADD AND SWAP1 POP SWAP2 SWAP1 POP JUMP JUMPDEST PUSH0 PUSH2 0x38B DUP3 PUSH2 0x32F JUMP JUMPDEST PUSH2 0x395 DUP2 DUP6 PUSH2 0x339 JUMP JUMPDEST SWAP4 POP PUSH2 0x3A5 DUP2 DUP6 PUSH1 0x20 DUP7 ADD PUSH2 0x349 JUMP JUMPDEST PUSH2 0x3AE DUP2 PUSH2 0x371 JUMP JUMPDEST DUP5 ADD SWAP2 POP POP SWAP3 SWAP2 POP POP JUMP JUMPDEST PUSH0 PUSH1 0x20 DUP3 ADD SWAP1 POP DUP2 DUP2 SUB PUSH0 DUP4 ADD MSTORE PUSH2 0x3D1 DUP2 DUP5 PUSH2 0x381 JUMP JUMPDEST SWAP1 POP SWAP3 SWAP2 POP POP JUMP JUMPDEST PUSH32 0x4E487B7100000000000000000000000000000000000000000000000000000000 PUSH0 MSTORE PUSH1 0x11 PUSH1 0x4 MSTORE PUSH1 0x24 PUSH0 REVERT JUMPDEST PUSH0 PUSH2 0x410 DUP3 PUSH2 0x2A5 JUMP JUMPDEST SWAP2 POP PUSH32 0xFFFFFFFFFFFFFFFFFFFFFFFFFFFFFFFFFFFFFFFFFFFFFFFFFFFFFFFFFFFFFFFF DUP3 SUB PUSH2 0x442 JUMPI PUSH2 0x441 PUSH2 0x3D9 JUMP JUMPDEST JUMPDEST PUSH1 0x1 DUP3 ADD SWAP1 POP SWAP2 SWAP1 POP JUMP JUMPDEST PUSH0 PUSH2 0x457 DUP3 PUSH2 0x2A5 JUMP JUMPDEST SWAP2 POP PUSH2 0x462 DUP4 PUSH2 0x2A5 JUMP JUMPDEST SWAP3 POP DUP3 DUP3 ADD SWAP1 POP DUP1 DUP3 GT ISZERO PUSH2 0x47A JUMPI PUSH2 0x479 PUSH2 0x3D9 JUMP JUMPDEST JUMPDEST SWAP3 SWAP2 POP POP JUMP JUMPDEST PUSH32 0x4E487B7100000000000000000000000000000000000000000000000000000000 PUSH0 MSTORE PUSH1 0x22 PUSH1 0x4 MSTORE PUSH1 0x24 PUSH0 REVERT JUMPDEST PUSH0 PUSH1 0x2 DUP3 DIV SWAP1 POP PUSH1 0x1 DUP3 AND DUP1 PUSH2 0x4C4 JUMPI PUSH1 0x7F DUP3 AND SWAP2 POP JUMPDEST PUSH1 0x20 DUP3 LT DUP2 SUB PUSH2 0x4D7 JUMPI PUSH2 0x4D6 PUSH2 0x480 JUMP JUMPDEST JUMPDEST POP SWAP2 SWAP1 POP JUMP INVALID LOG2 PUSH5 0x6970667358 0x22 SLT KECCAK256 0xE4 LOG0 PUSH18 0xC19D38DA527B94F5E63B1FDF1E27F5661966 0xEB 0xCB 0xAA 0x1F 0xCE BYTE LT SWAP8 0xD8 0xAC 0x1E PUSH5 0x736F6C6343 STOP ADDMOD AND STOP CALLER "
		},
		"gasEstimates": {
			"creation": {
				"codeDepositCost": "259800",
				"executionCost": "infinite",
				"totalCost": "infinite"
			},
			"external": {
				"buyTicket(uint256)": "infinite",
				"endsAt()": "2426",
				"getAmount()": "2476",
				"message()": "infinite",
				"numberOfTicket()": "2512",
				"startsAt()": "2447",
				"ticketPrice()": "2448",
				"timeRange()": "2492",
				"totalAmount()": "2470"
			}
		},
		"methodIdentifiers": {
			"buyTicket(uint256)": "67dd74ca",
			"endsAt()": "0a09284a",
			"getAmount()": "d321fe29",
			"message()": "e21f37ce",
			"numberOfTicket()": "f454f2e0",
			"startsAt()": "af468682",
			"ticketPrice()": "1209b1f6",
			"timeRange()": "6284568a",
			"totalAmount()": "1a39d8ef"
		}
	},
	"abi": [
		{
			"inputs": [
				{
					"internalType": "uint256",
					"name": "_ticketPrice",
					"type": "uint256"
				}
			],
			"stateMutability": "nonpayable",
			"type": "constructor"
		},
		{
			"inputs": [
				{
					"internalType": "uint256",
					"name": "_value",
					"type": "uint256"
				}
			],
			"name": "buyTicket",
			"outputs": [
				{
					"internalType": "uint256",
					"name": "tickeID",
					"type": "uint256"
				}
			],
			"stateMutability": "nonpayable",
			"type": "function"
		},
		{
			"inputs": [],
			"name": "endsAt",
			"outputs": [
				{
					"internalType": "uint256",
					"name": "",
					"type": "uint256"
				}
			],
			"stateMutability": "view",
			"type": "function"
		},
		{
			"inputs": [],
			"name": "getAmount",
			"outputs": [
				{
					"internalType": "uint256",
					"name": "",
					"type": "uint256"
				}
			],
			"stateMutability": "view",
			"type": "function"
		},
		{
			"inputs": [],
			"name": "message",
			"outputs": [
				{
					"internalType": "string",
					"name": "",
					"type": "string"
				}
			],
			"stateMutability": "view",
			"type": "function"
		},
		{
			"inputs": [],
			"name": "numberOfTicket",
			"outputs": [
				{
					"internalType": "uint256",
					"name": "",
					"type": "uint256"
				}
			],
			"stateMutability": "view",
			"type": "function"
		},
		{
			"inputs": [],
			"name": "startsAt",
			"outputs": [
				{
					"internalType": "uint256",
					"name": "",
					"type": "uint256"
				}
			],
			"stateMutability": "view",
			"type": "function"
		},
		{
			"inputs": [],
			"name": "ticketPrice",
			"outputs": [
				{
					"internalType": "uint256",
					"name": "",
					"type": "uint256"
				}
			],
			"stateMutability": "view",
			"type": "function"
		},
		{
			"inputs": [],
			"name": "timeRange",
			"outputs": [
				{
					"internalType": "uint256",
					"name": "",
					"type": "uint256"
				}
			],
			"stateMutability": "view",
			"type": "function"
		},
		{
			"inputs": [],
			"name": "totalAmount",
			"outputs": [
				{
					"internalType": "uint256",
					"name": "",
					"type": "uint256"
				}
			],
			"stateMutability": "view",
			"type": "function"
		}
	]
}