{
	"data": {
		"bytecode": {
			"linkReferences": {},
			"object": "608060405234801561000f575f80fd5b506102628061001d5f395ff3fe608060405234801561000f575f80fd5b5060043610610029575f3560e01c80636039b0bd1461002d575b5f80fd5b6100476004803603810190610042919061011c565b61005d565b6040516100549190610156565b60405180910390f35b5f6100678261006e565b9050919050565b5f60038211156100d3578190505f600160028461008b91906101c9565b61009591906101f9565b90505b818110156100cd5780915060028182856100b291906101c9565b6100bc91906101f9565b6100c691906101c9565b9050610098565b506100e0565b5f82146100df57600190505b5b919050565b5f80fd5b5f819050919050565b6100fb816100e9565b8114610105575f80fd5b50565b5f81359050610116816100f2565b92915050565b5f60208284031215610131576101306100e5565b5b5f61013e84828501610108565b91505092915050565b610150816100e9565b82525050565b5f6020820190506101695f830184610147565b92915050565b7f4e487b71000000000000000000000000000000000000000000000000000000005f52601260045260245ffd5b7f4e487b71000000000000000000000000000000000000000000000000000000005f52601160045260245ffd5b5f6101d3826100e9565b91506101de836100e9565b9250826101ee576101ed61016f565b5b828204905092915050565b5f610203826100e9565b915061020e836100e9565b92508282019050808211156102265761022561019c565b5b9291505056fea2646970667358221220700c18050cb1b9a184eb4b2fd8cba9d360fcdfb49dd23eaee4cca5298ee5d1df64736f6c63430008160033",
			"opcodes": "PUSH1 0x80 PUSH1 0x40 MSTORE CALLVALUE DUP1 ISZERO PUSH2 0xF JUMPI PUSH0 DUP1 REVERT JUMPDEST POP PUSH2 0x262 DUP1 PUSH2 0x1D PUSH0 CODECOPY PUSH0 RETURN INVALID PUSH1 0x80 PUSH1 0x40 MSTORE CALLVALUE DUP1 ISZERO PUSH2 0xF JUMPI PUSH0 DUP1 REVERT JUMPDEST POP PUSH1 0x4 CALLDATASIZE LT PUSH2 0x29 JUMPI PUSH0 CALLDATALOAD PUSH1 0xE0 SHR DUP1 PUSH4 0x6039B0BD EQ PUSH2 0x2D JUMPI JUMPDEST PUSH0 DUP1 REVERT JUMPDEST PUSH2 0x47 PUSH1 0x4 DUP1 CALLDATASIZE SUB DUP2 ADD SWAP1 PUSH2 0x42 SWAP2 SWAP1 PUSH2 0x11C JUMP JUMPDEST PUSH2 0x5D JUMP JUMPDEST PUSH1 0x40 MLOAD PUSH2 0x54 SWAP2 SWAP1 PUSH2 0x156 JUMP JUMPDEST PUSH1 0x40 MLOAD DUP1 SWAP2 SUB SWAP1 RETURN JUMPDEST PUSH0 PUSH2 0x67 DUP3 PUSH2 0x6E JUMP JUMPDEST SWAP1 POP SWAP2 SWAP1 POP JUMP JUMPDEST PUSH0 PUSH1 0x3 DUP3 GT ISZERO PUSH2 0xD3 JUMPI DUP2 SWAP1 POP PUSH0 PUSH1 0x1 PUSH1 0x2 DUP5 PUSH2 0x8B SWAP2 SWAP1 PUSH2 0x1C9 JUMP JUMPDEST PUSH2 0x95 SWAP2 SWAP1 PUSH2 0x1F9 JUMP JUMPDEST SWAP1 POP JUMPDEST DUP2 DUP2 LT ISZERO PUSH2 0xCD JUMPI DUP1 SWAP2 POP PUSH1 0x2 DUP2 DUP3 DUP6 PUSH2 0xB2 SWAP2 SWAP1 PUSH2 0x1C9 JUMP JUMPDEST PUSH2 0xBC SWAP2 SWAP1 PUSH2 0x1F9 JUMP JUMPDEST PUSH2 0xC6 SWAP2 SWAP1 PUSH2 0x1C9 JUMP JUMPDEST SWAP1 POP PUSH2 0x98 JUMP JUMPDEST POP PUSH2 0xE0 JUMP JUMPDEST PUSH0 DUP3 EQ PUSH2 0xDF JUMPI PUSH1 0x1 SWAP1 POP JUMPDEST JUMPDEST SWAP2 SWAP1 POP JUMP JUMPDEST PUSH0 DUP1 REVERT JUMPDEST PUSH0 DUP2 SWAP1 POP SWAP2 SWAP1 POP JUMP JUMPDEST PUSH2 0xFB DUP2 PUSH2 0xE9 JUMP JUMPDEST DUP2 EQ PUSH2 0x105 JUMPI PUSH0 DUP1 REVERT JUMPDEST POP JUMP JUMPDEST PUSH0 DUP2 CALLDATALOAD SWAP1 POP PUSH2 0x116 DUP2 PUSH2 0xF2 JUMP JUMPDEST SWAP3 SWAP2 POP POP JUMP JUMPDEST PUSH0 PUSH1 0x20 DUP3 DUP5 SUB SLT ISZERO PUSH2 0x131 JUMPI PUSH2 0x130 PUSH2 0xE5 JUMP JUMPDEST JUMPDEST PUSH0 PUSH2 0x13E DUP5 DUP3 DUP6 ADD PUSH2 0x108 JUMP JUMPDEST SWAP2 POP POP SWAP3 SWAP2 POP POP JUMP JUMPDEST PUSH2 0x150 DUP2 PUSH2 0xE9 JUMP JUMPDEST DUP3 MSTORE POP POP JUMP JUMPDEST PUSH0 PUSH1 0x20 DUP3 ADD SWAP1 POP PUSH2 0x169 PUSH0 DUP4 ADD DUP5 PUSH2 0x147 JUMP JUMPDEST SWAP3 SWAP2 POP POP JUMP JUMPDEST PUSH32 0x4E487B7100000000000000000000000000000000000000000000000000000000 PUSH0 MSTORE PUSH1 0x12 PUSH1 0x4 MSTORE PUSH1 0x24 PUSH0 REVERT JUMPDEST PUSH32 0x4E487B7100000000000000000000000000000000000000000000000000000000 PUSH0 MSTORE PUSH1 0x11 PUSH1 0x4 MSTORE PUSH1 0x24 PUSH0 REVERT JUMPDEST PUSH0 PUSH2 0x1D3 DUP3 PUSH2 0xE9 JUMP JUMPDEST SWAP2 POP PUSH2 0x1DE DUP4 PUSH2 0xE9 JUMP JUMPDEST SWAP3 POP DUP3 PUSH2 0x1EE JUMPI PUSH2 0x1ED PUSH2 0x16F JUMP JUMPDEST JUMPDEST DUP3 DUP3 DIV SWAP1 POP SWAP3 SWAP2 POP POP JUMP JUMPDEST PUSH0 PUSH2 0x203 DUP3 PUSH2 0xE9 JUMP JUMPDEST SWAP2 POP PUSH2 0x20E DUP4 PUSH2 0xE9 JUMP JUMPDEST SWAP3 POP DUP3 DUP3 ADD SWAP1 POP DUP1 DUP3 GT ISZERO PUSH2 0x226 JUMPI PUSH2 0x225 PUSH2 0x19C JUMP JUMPDEST JUMPDEST SWAP3 SWAP2 POP POP JUMP INVALID LOG2 PUSH5 0x6970667358 0x22 SLT KECCAK256 PUSH17 0xC18050CB1B9A184EB4B2FD8CBA9D360FC 0xDF 0xB4 SWAP14 0xD2 RETURNDATACOPY 0xAE 0xE4 0xCC 0xA5 0x29 DUP15 0xE5 0xD1 0xDF PUSH5 0x736F6C6343 STOP ADDMOD AND STOP CALLER "
		},
		"gasEstimates": {
			"creation": {
				"codeDepositCost": "122000",
				"executionCost": "169",
				"totalCost": "122169"
			},
			"external": {
				"testSquareRoot(uint256)": "infinite"
			}
		},
		"methodIdentifiers": {
			"testSquareRoot(uint256)": "6039b0bd"
		}
	},
	"abi": [
		{
			"inputs": [
				{
					"internalType": "uint256",
					"name": "x",
					"type": "uint256"
				}
			],
			"name": "testSquareRoot",
			"outputs": [
				{
					"internalType": "uint256",
					"name": "",
					"type": "uint256"
				}
			],
			"stateMutability": "pure",
			"type": "function"
		}
	]
}